:0400000002002332A5
:01000B0032C2
:03001300020DE4F7
:03001B00020E14BE
:03007C0002001E61
:05001E0012007F80FECE
:0C007F007F00C218E5A703540124FF9283
:06008B0019C007C023129A
:0C00910017B1D023D007C297209707308A
:06009D0019047E0080073B
:0700A300901BFFE493FDFE3A
:0E00AA00901BFFE493AC962CFD8D9653963F71
:0700B800D2972019217D0001
:0300BF00BD32004F
:0E00C200501AC28C901D17E493F58C901D18F7
:0800D000E493F58AC28DD28C85
:0600D800308DFD0D80E1FA
:0E00DE0075C1FFC2AF75A7E575C2A575C35AFF
:0E00EC00D2AFC2AF43A70475C2A575C35AD2E6
:0B00FA00AFC007C006C023120D84D069
:0A01050023D006D00720190FC00711
:08010F00C006C023120CE1D070
:0501170023D006D00713
:0E011C0053BDFE75985043BAE043BD0275BF57
:0A012A002F75BEF043BD0175995515
:0E013400C2AF75C2A575C35AD2AF901D0DE4BF
:0701420093FDBDFF028003E5
:030149000201C6EA
:0A014C00201177E57B20E07274803B
:0B01560025D1500FC007C006C02312C7
:080161000921D023D006D007CC
:0E016900308D1F740F5589FDBD011774F055C0
:0E017700892402F589758F01758C50C28D4365
:06018500A210D292D28C00
:0A018B0030000FC007C006C02312A9
:080195000C63D023D006D00753
:0B019D00E577704D7440258D40472031
:0A01A8000D44901BFDE493FDB50F1C
:0301B2000280398F
:0C01B50075E40075E71B75E6FD850FE59D
:0501C10075E4688028D0
:0C01C600748025D1502230111F75D161CA
:0A01D200E57C24914004057C8012B6
:0C01DC00758285C007C006C02312144FB6
:0601E800D023D006D00771
:0501EE0010090280135E
:0901F300C20AC007C006C02312B5
:0A01FC0014A2D023D006D007800A19
:020206007D6415
:080208008D041C8C05ED70F85B
:05021000109802804A75
:05021500AD99BD630876
:05021A0010990280FBB9
:03021F0075995579
:06022200BD2B0315961E22
:06022800BD2D0305960E3A
:0E022E00BD7712C2AF75E40075E71B75E6FFE1
:07023C008EE575E468D2AF06
:06024300BD7003637B8126
:03024900BD760877
:05024C0010990280FB87
:0302510075990B91
:03025400BD74086E
:0502570010990280FB7C
:03025C007599048D
:08025F00D297209712BFFF00A7
:0502670050030F80129E
:06026C00201803637B81F2
:04027200D218800816
:06027600EF60031F80028F
:02027C00C218A6
:08027E00E57B5401FDB4010011
:0B028600E433FD24FF929702013422B4
:05029100AF82BF080070
:0A0296005019200216E55B54012404
:0A02A000FF921892F0C00785F023CA
:0702AA008F8212051CD00732
:0302B100BF10007B
:0C02B4004013EF24EE400E7401555BFE79
:0902C000C0068F821203B2158101
:0102C9002212
:0B02CA00AF8274402FF58212144F2207
:0702D500AF827E00BF0800AC
:0C02DC0050258FF005F07C017D008006AD
:0602E800EC2CFCED33FDDF
:0E02EE00D5F0F7AA0B7B00EA5204EB5205ECA8
:0702FC004D60307E01802CF3
:0E0303007D00EF24F0FFED34FF8FF005F07F5A
:05031100017D008006E3
:06031600EF2FFFED33FDA7
:0E031C00D5F0F7AB0C7C00EB5207EC5205EF6E
:05032A004D60027E01A0
:0E032F007F007D007C008E828F838DF0EC229B
:0A033D00C008858108AF82BF0800E8
:0C0347005032E50824FCF8E60846701669
:080353008FF005F07401800237
:02035B0025E09B
:0C035D00D5F0FBFE74FFC39E520B8046DF
:080369008FF005F07401800221
:0203710025E085
:08037300D5F0FBFE420B8034C3
:0C037B00EF24F0FFE50824FCF8E608463B
:0A03870070168FF005F0740180027B
:0203910025E065
:0C039300D5F0FBFE74FFC39E520C8010DE
:08039F008FF005F074018002EB
:0203A70025E04F
:0603A900D5F0FBFF420C41
:0303AF00D0082251
:0A03B200C008858108E582FF24EDF4
:0A03BC00500F74015FFEC201E50856
:0703C60024FDF876018031EF
:0E03CD00EF24F0FE901DE2E493FD8EF005F0AB
:0603DB007B407C0080065F
:0603E100EB2BFBEC33FCEA
:0E03E700D5F0F77A00ED5203EA5204EB4CB465
:0203F500010005
:0703F700E433FB24FF920137
:0C03FE00E50824FDF886047D0053071F6D
:0E040A00C006C004C0058F8212033D15811587
:0C04180081D006E50824FDF8E624FF92E0
:0504240018300101B3D6
:0E0429005017EE2E25E0FF8FF005F0740F80C7
:0104370002C2
:0204380025E0BD
:08043A00D5F0FBFF42458021D3
:0D044200EE2E25E0FF8FF005F0740F800214
:02044F0025E0A6
:0C045100D5F0FBFF74FFC39F52457409F7
:06045D002EF582120C31A5
:0C046300901DF1E493FFE5455207EFC443
:0C046F004FF50FE546F4FFE50F5207E5DE
:0A047B000FF4FEE5465206300203BE
:0304850002051954
:05048800850F467D0018
:08048D00ED24FC5003020519E7
:0E0495007C00EF30E024C006901DF0E493FBE5
:0E04A3008D02E4CA25E0CA33FE8AF005F0EBB4
:0204B1008002C7
:0204B300C31371
:0A04B500D5F0FBFB74035BFCD006DE
:0E04BF00EE30E024C006901DEFE493FB8D02AA
:0E04CD00E4CA25E0CA33FE8AF005F0EB800297
:0204DB00C31349
:0A04DD00D5F0FBFB74035BFCD006B6
:0C04E700EC6023ECC31324FF9218740C8B
:0C04F3002DFCA21892F0C007C006C00546
:0C04FF0085F0238C8212051CD005D0066D
:02050B00D00717
:0C050D00EEC313FEEFC313FF0D02048DBC
:03051900D00822E5
:0A051C00C0088581080581AF8274D4
:0A052600035F2447F98706A80808C0
:0A053000740F5EF6A8080886053077
:0C053A00182174075FF582C007C005C0DF
:0C054600237401C0E0E4C0E012033D1586
:0B055200811581D023D005D007801D4B
:0C055D0074075FF582C007C005C023E4EE
:0C056900C0E0C0E012033D15811581D0F8
:0505750023D005D007B2
:0D057A0074075FFCF582C007C005C004C017
:070587002312179BAB82D089
:0C058E0023D004D005D0078CF005F074D9
:03059A00018002DB
:02059D0025E057
:0E059F00D5F0FB550F7008530314BB140280F7
:0105AD000845
:0305AE00BF080083
:0505B100500302091CCB
:0605B600530707BF04001B
:0505BC0040030206DC13
:0E05C100EFC31324E8901D0093FC74015F75D6
:0A05CF00F003A4F5F005F0EC800243
:0205D900C3134A
:0D05DB00D5F0FB5407FC43048074EA2F9018
:0C05E8001D0093FBC40354072BFA2018DD
:0A05F40071A80808E654336039A826
:0C05FE000808740356FEC007C0068F8278
:0C060A00120BD41581D007A8080874CC8E
:0C06160056FDEF2410F87600EF2434F8B5
:0D062200760074042FFE2410F87600EE24FC
:07062F0034F876000208BF59
:0B063600A80808E6543360030208BF68
:06064100EB70030208BF8C
:0C064700A80808741046FD5305DFEF24DE
:0C06530010F8A604EF2424F8A602EF24FF
:07065F0034F876010208BF28
:0A066600A80808E65433603EA80817
:0E06700008740356FEC007C004C003C0068F06
:0D067E0082120BD41581D003D004D007A840
:0C068B00080874CC56FDEF2410F876002F
:0C069700EF2434F8760074042FFE2410C9
:0906A300F87600EE2434F876002C
:0B06AC00A80808E6543360030208BFF2
:0606B700EB70030208BF16
:0C06BD00A80808742046FD5305EFEF2448
:0C06C90010F8A604EF2424F8A603EF2488
:0706D50034F876020208BFB1
:0E06DC00C00574035FFEC31324FB901D009342
:0E06EA00FD74015F75F003A4F5F005F0ED80DE
:0106F80002FF
:0206F900C31329
:0E06FB00D5F0FB5407FD74804DFC74DA2E9090
:0E0709001D0093FEFBC374C69BD0054010EB91
:0E0717000303543F2BFBC40354072BFEFA8050
:0107250004CF
:040726007BFF7AFFDC
:0D072A00901DF2E493FE8FF005F0EE8002CA
:02073700C313EA
:0B073900D5F0FBFE5306013018030250
:0207440007F4B8
:0B074600A80808E654116035C002A8A6
:0B0751000808741046FDEF24FCFA2499
:0A075C0024F87600EA2434F8760051
:0E076600EA2410F87600D002EE7012EF241094
:0B077400F8A604EF2424F8A602EF24EE
:04077F0034F87601D3
:0A078300A80808E65433701CA8080B
:0E078D0008741046FDEE7012EF2410F8A6045A
:0A079B00EF2424F8A602EF2434F83E
:0207A5007601DB
:0B07A700A80808E6542270030208BFF7
:0E07B200C007C006C004C0027405C0E08F82FC
:0E07C000120BD41581D002D004D006D007A8A9
:0C07CE000808741046FD5305DFEE6003C0
:0307DA000208BF53
:0C07DD00EF2410F9747F5CF7EF2424F87F
:0B07E900A602EF2434F876010208BFDE
:0A07F400A80808E654226031A808A6
:0E07FE0008742046FDEF24FCFA2410F8760063
:0A080C00EA2424F87600EA2434F808
:0D0816007600EE7012EF2410F8A604EF2417
:0A08230024F8A603EF2434F876024F
:0A082D00A80808E654337031A8084B
:0E08370008742046FDEF24FCFA2410F8760029
:0A084500EA2424F87600EA2434F8CF
:0D084F007600EE7012EF2410F8A604EF24DE
:0A085C0024F8A603EF2434F8760216
:0C086600A80808E654116051C007C00645
:0E087200C004C0037406C0E08F82120BD415C0
:0C08800081D003D004D006D007A80808DF
:0E088C00742046FD5305EFEF24FCFA2410F80B
:0A089A007600EA2424F87600EA2430
:0C08A40034F87600EE7014EF2410F974A4
:0B08B0007F5CF7EF2424F8A603EF2480
:0408BB0034F8760295
:0C08BF00A80808A605EF24F840497403BF
:0C08CB005F240B2434F98706530607BE97
:0208D70004001B
:0E08D9005023EDC4540FFC5E540360197403E9
:0C08E7005F240BFC2410F87600EC2424A5
:0B08F300F87600EC2434F876007E005C
:0908FE00EE30E2055305F0800B19
:0B090700EE7008A80808E6C4540FFDBD
:0A09120074035F2447F8A605D20025
:05091C001581D0082246
:0E09210075D16075D20175D3CD75D1617401A9
:0E092F002509F509E4350AF50AE50924FFFE5D
:0E093D00E50A34FFFFEEF4FEEFF4FFE5095289
:07094B0006E50A52077D00DA
:03095200BD1000D5
:0E0955005040ED2410F9E7FC30E734ED24109B
:08096300F98704BC8202801E2A
:0D096B00ED2410F9870453047FEC2CFB9061
:0E097800180493CBA393FCEE5203EF5204EB52
:030986004C600BB7
:0B098900ED2424F9E7FC6003EC14F7F8
:030994000D80BB18
:020997007F00DF
:08099900EF24F05003020A9361
:0B09A100EF2434F9E7FE7003020A8F18
:0A09AC00EF2424F8E66003020A8F2E
:0E09B600EF2410FDC000A8058605D000ED203E
:0509C400E703020A8FA9
:0E09C900EF24F84026EF2410C000F87600D08E
:0C09D70000E4F6F774035F2447F8760094
:0E09E300C007C006C0068F82120BD41581D04B
:0309F10006D00726
:0C09F400BF091ABE0117753D02C007C004
:0E0A0000067401C0E07582301203B21581D079
:030A0E0006D00708
:0C0A1100BF0A1ABE0117753E02C007C0E4
:0E0A1D00067401C0E07582311203B21581D05B
:030A2B0006D007EB
:030A2E00BF0B00FB
:0C0A3100403DEF24F14038EF24F524474D
:0E0A3D00F9E7C4540FFDF7EF2410F87600EF30
:0A0A4B002424F87600EF2434F87636
:0C0A550000EF24F92434F9E76011EF24CD
:0E0A6100F9FD2410F9ED2410F8860574804D7F
:010A6F00F78F
:030A7000BF0F00B5
:080A73004018BE120375432276
:0A0A7B00BE0109751F837543127553
:020A8500331428
:060A8700BE0403754308E4
:020A8D00D20095
:040A8F000F020999B0
:0D0A9300901DE5E493FF54C06003120AA11A
:010AA0002233
:0A0AA100740F5589FFBF02028003A5
:030AAB00020BA893
:070AAE00E5776003020BA8CD
:0E0AB5003092FDE58A248D40F774075509FF45
:080AC3008FF005F074018002C0
:020ACB0025E024
:0C0ACD00D5F0FBFFF4F58020930CE54C05
:0A0AD9007008740755092408F54C55
:080AE300850E80BF8002800334
:030AEB00020BA853
:0A0AEE00AF4C754C00EF30E313E548
:060AF800446003020B93B1
:0A0AFE00754301751F827533320243
:020B08000B934D
:080B0A00E54420E303020B9314
:0A0B1200E54330E529B202751F002B
:070B1C007543007533003042
:040B230002147E003A
:0C0B2700EE24FC4009EE2447F876000E96
:020B330080F24E
:040B3500D200800763
:070B3900C007120BA9D00751
:090B4000300247E54330E122E5F3
:0A0B490044540124FF92187407556C
:0A0B530044C313240CF582A218928B
:0C0B5D00F0C00785F02312051CD00780B3
:010B6900206B
:0A0B6A00E544540124FF92187407BB
:0A0B74005544C3132408F582A218AB
:0C0B7E0092F0C00785F02312051CD00780
:090B8A00751F8375430475337473
:080B93008F44E54330E30EC27C
:080B9B0002751F00754300758F
:050BA3003300120BA954
:010BA800222A
:0E0BA9007582101202D5AC82530401C004758F
:0E0BB70082101203B215817582111202D5ACA4
:0E0BC50082530401C0047582111203B215811F
:010BD30022FF
:0A0BD400C008858108AF82530703B3
:0A0BDE00740B2FFE2434F8E5082400
:0E0BE800FDF9E7F6901DEEE493FDE4CF25E065
:0A0BF600CF33FC8FF005F0ED800214
:020C0000C3131C
:0D0C0200D5F0FB5403FF600ABF010280091A
:050C0F00BF020E800889
:040C14007F04800ACF
:040C18007F088006CB
:040C1C007F108002C3
:020C20007F272C
:0C0C2200EE2424F8A607EE2410F87683D8
:030C2E00D00822C9
:0E0C3100AF82901DD9E493540FFE6019EF249A
:0C0C3F0024F9EE90181093FEF7EF24103B
:0B0C4B00F87685EF2434F87601800C69
:0C0C5600EF2410F87600EF2434F876004C
:010C6200226F
:0E0C6300750D00901DE4E493FF30E7047F015F
:020C71008002FF
:020C73007F03FD
:030C7500754B00BC
:0A0C7800E54B24FC4023EF554B240C
:0A0C820047F98706530603E54B25EA
:090C8C004BFD8DF005F0EE800235
:020C950025E058
:0A0C9700D5F0FBFE420D054B80D79F
:0E0CA100AE0E7F00EEF4FEEFF4FFAC0D7D0012
:0E0CAF00EC5206ED5207EE4F601FC28C53A2AE
:0E0CBD00E9C292850D80C28DE4F58CF58A7433
:0D0CCB00F0558904F589758F00D28C8003E7
:030CD800850D8007
:060CDB00850D0EC200228F
:0D0CE100901BFDE493F50FE4F509F50AFF03
:0C0CEE00EF24F04015EF2434F87600EFFE
:0C0CFA002410F87600EF2424F876000F98
:020D060080E685
:020D08007F006A
:0E0D0A00EF24FC4063901DF1E493FE8FF00592
:040D1800F0EE800277
:020D1C00C313FF
:090D1E00D5F0FB541160028011B4
:080D27008FF005F07411800249
:020D2F0025E0BD
:070D3100D5F0FBF4FE520FA8
:0E0D3800901DD9E493FE5306C0BE4002800514
:050D4600BE80268013B1
:0C0D4B00740C2FF582C2F0C00785F02365
:070D570012051CD0078011FA
:0C0D5E00740C2FF582D2F0C00785F02342
:050D6A0012051CD0077A
:030D6F000F80985A
:0C0D7200750E00D200758209120C31755C
:060D7E00820A120C312272
:0A0D8400754400C2027580007584FA
:0E0D8E00007585FF74F055892402F589758F74
:0E0D9C0001758C5043A210D28CC2A9D288E4FB
:0E0DAA00F50FF509F50AF509C2AF75E40075FD
:0E0DB800E71D75E60375E50075E71D75E60499
:0E0DC60075E50475E71D75E60C75E50075E72B
:0E0DD4001D75E60D75E5FF75E468D2AF75D1AB
:020DE20081226C
:0C18040000000000000008008000000848
:0E18100000020406080A0C0E101214162448DA
:02181E006DDA81
:0E0DE400C0E0C0D0C2AAC28E740F5589242070
:0E0DF200F589758B35758D80C28FD28ED2AB90
:060E0000757702C205D265
:050E0600037576007584
:090E0B007500D204D0D0D0E03211
:0C0E1400C023C0E0C0F0C082C083C00753
:0E0E2000C006C005C004C003C002C001C0006F
:0C0E2E00C0D075D000E577FF24F1500320
:030E3A0002113171
:070E3D00EF2F2F900E44730C
:070E4400020E7102113102E0
:060E4B000EE4020F9E02FE
:060E51000FA702101C02B5
:060E57001131021131020D
:060E5D0011310211310207
:060E630010400210A8027D
:060E690011310210CC0261
:020E6F00111A56
:0E0E7100C28E740F55892420F589758B80750B
:0A0E7F008D80C28FD28EE579B57A1E
:030E890002805193
:080E8C00E57A246BF98782125C
:0B0E94001217503DC2AAE5777032E54E
:0A0E9F007A246BF9E7FF20E50774E1
:060EA900204FF7757800F0
:0B0EAF0074FC2578400512117C8016B1
:060EBA00057A537A07C21D
:040EC0000DC212123B
:0C0EC4001150C28E758DF0758B00D28E1F
:050ED000D2AA0211315D
:060ED500057A537A0702C2
:020EDB001131D3
:070EDD00C28ED2AA021131FE
:0A0EE400A28BB39218C28B7577033E
:0A0EEE00758D00E576700A75760137
:050EF800C206C2070262
:020EFD001131B1
:0A0EFF00747F2576401C301808B2FD
:040F090005E576255F
:030F0D0075F57502
:050F1000E5762576F5F1
:060F1500766003021131B9
:060F1B0075768102113120
:0A0F2100C28EC28FA205201801B392
:0A0F2B005026E573700E74CCB57506
:030F350002D206DF
:070F3800740CB57502D2072D
:070F3F00200613200710E556
:050F4600732454F8E5DE
:050F4B0075F66274055B
:030F5000738002A9
:020F5300C203D7
:050F5500100D02801DDB
:070F5A00300614300311758D
:070F61007804101202800960
:070F6800E54F2404F54F538F
:020F6F004F3CF5
:060F7100121150021131C3
:070F770030031E20061B20C1
:0C0F7E000718740F55892410F589758D33
:0C0F8A00FA758B70D28E757704D2AA0223
:020F9600113117
:060F98001211500211319C
:090F9E00758D8075770202113196
:0A0FA700300B64E57324FB505EC2BA
:0E0FB1008E740F55892410F589758DEF758BA0
:080FBF0042D28EA2109208E557
:080FC7005930E71F855782C075
:0C0FCF00581211C6AF821581BFFF0280CE
:010FDB000213
:020FDC00D20839
:090FDE00E557701CE5587018D2AB
:030FE7000880146B
:0C0FEA00901D17E493FFB5570B901D18E5
:080FF600E493FFB55802D20894
:090FFE0074FFB57405300802D23D
:0110070009DF
:06100800757705021131AD
:08100E00E57324FE5002D20933
:061016001211500211311D
:0A101C00C28E74FFB5741330080A89
:06102600D20E12117CC283
:04102C000D0211316F
:0610300012115002113103
:06103600D20F12117CC272
:04103C000D0211315F
:08104000E5732454F987073021
:041048000E027FCC49
:05104C00300F027F0CD3
:09105100C2AA740AB577028003FB
:03105A000211314F
:0A105D00E576247F402CE5765F70F5
:0910670008D296C20CB205800209
:02107000D20CA0
:08107200E5767007757601C2F6
:03107A00058006E8
:05107D00E5762576F583
:0110820076F7
:07108300E57670037576812C
:05108A0075770B8013D7
:09108F00200506D296C20C800275
:02109800D20C78
:06109A0005737576007578
:0210A000770DCA
:0610A200758D12021131F0
:0A10A800E57370077401B5760205C8
:0110B20078C5
:0A10B300C296A20C828B5007C20DFA
:0510BD00121150800635
:0610C20075770A758D6EC2
:0410C800C28B8065F2
:0E10CC00C296C28E740F55892410F589758D59
:0A10DA00FB758B90D28E200E0330C0
:0210E4000F05F6
:0510E600121150802BE7
:0C10EB00740F5559FF7E0074072FFFE4BE
:0C10F7003EFEAC737D00C3EF9CEE6480F5
:0C1103008DF063F08095F05007D20A12C6
:04110F0011508003F8
:0311130075770EDF
:04111600C28B8017F1
:0E111A00C28E740F55892420F589758D6E756F
:091128008B80C28FD28E75770A0C
:0C113100D204D0D0D000D001D002D003F6
:0E113D00D004D005D006D007D083D082D0F0E9
:05114B00D0E0D02332CA
:0A115000757700C28BC28EC2AB752A
:0A115A007400757300C28E740F5507
:0C116400892410F589758D89758BAFC248
:0A1170000EC20FC28FD28ED2AAD297
:02117A00AB22A6
:0E117C00C28E740F55892420F589758D6E750D
:0C118A008B80C28F740F55592407FF752D
:0411960074FF7E0064
:0C119A00C3EE9F500BEE2454F9E7FD62F9
:0411A600740E80F053
:0711AA00EF2454F8A674C203
:0411B10006C207D299
:0511B5000D75770A75BD
:0A11BA007600757300C2AAD28ED22F
:0211C400AB225C
:0A11C600C008858108AF827EFF900B
:0811D0001D16E493FDBDFF00B4
:0C11D8005038201035901D16E493602E56
:0711E400901D16E493FD1DB0
:0E11EB00ED6024ED2DFC2417901D0093FBEF0A
:0C11F900B5031374182C901D0093FCE546
:0A1205000824FDF8E6B504028D068A
:03120F001D80D966
:051212008E82D00822CD
:0A121700C008E581F5082404F58104
:0C122100AF82C2187DFE7E00EFA2E5E463
:09122D0033FC24FF9219BF80007C
:051236004003021363F8
:0C123B00C005C006EF2323540124FF92DD
:0B1247001A53071F8F82C007C005C0AC
:0C125200231202D5AA82AB83ACF0FED0C0
:0A125E0023D005D007A80808A60257
:0E12680008A60308A60408A606901D11E4932C
:0E127600FE0EEF2FFD2EFC04901D0093FEB522
:0412840007028006D7
:06128800D006D005800F26
:0E128E00D006D0058C8275831DE493FCFD7E96
:01129C000051
:09129D00BDFE06BE000302143E72
:0A12A6007554BC901D17E493FC8CF6
:0A12B00055901D18E493FC8C56EDD8
:0C12BA002DFD2417901D0093FE8E57742C
:0A12C600182D901D0093FE8E587540
:0612D0005A00301A0575FA
:0412D6005B408003F6
:0312DA00755B80C1
:0E12DD00901D12E4932F2FFE2F2404901D006D
:0C12EB0093FE24F95006EE24FBFE800266
:0212F7007E0176
:0C12F90074E02EF559EE24FE500F740630
:0A1305002E2454F9A808088605A755
:03130F0005801046
:0C131200A80808743F56FAE4FBFCFDEA52
:04131E00255BF55BFB
:0C132200EE24FD500E74052E2454F9A892
:07132E000808088605A70569
:0C133500EE24FC500F74042E2454F9A880
:08134100080808088605A7054D
:0C134900EE24FB501074032E2454F9A86D
:0913550008080808088606A7062E
:05135E00D21802143E4C
:0A1363007554B0901D17E493FE8E40
:0A136D0055901D18E493FE8E56857E
:031377004D57854A
:0A137A004E5853071FEF24FA5003EA
:0313840002143C14
:07138700EF2F2F90138E736E
:07138E0002143C0213A0024F
:0613950013AC0213C302B9
:05139B0013D40214341C
:0813A00075596074C22553F574
:0413A8005A02143C95
:0813AC007559637443254FF5E8
:0513B4005A755B407555
:0613B9005C00755D12D21C
:0413BF001202143CC6
:0713C3007557007558007515
:0613CA0059E1755A01759E
:0413D0005B40806896
:0213D4007F0098
:0A13D600C3EF9550503CE55170261E
:0A13E000740A2F2454F87600AD5271
:0E13EA007E008F037C00EB2DFDEC3EFEBD600F
:0B13F8001CBE0019740A2F2454F8A634
:031403007B800FDC
:0A140600740A2F2454F9EF255290C8
:051410001D0093FEF732
:031415000F80BE87
:0914180074632550F55974424536
:061421004FF55A7440452E
:0414270050F55B859C
:03142B00515C858C
:03142E00525DD23A
:031431001280081E
:07143400755960755A81C271
:01143B00119F
:02143C00D218C4
:08143E0030190674DF5554F566
:011446005451
:06144700A218850881D007
:02144D00082273
:07144F00AF82C218BF40008C
:0C145600501B8F82C007C02312179BE5BB
:0C14620082D023D0075444FEBE44028018
:01146E000479
:04146F00D218802AE5
:09147300AD797E000DBD00010EF3
:0C147C005305077E00AB7A7C00EBB50541
:0714880006ECB50602800E20
:08148F00E579246BF8A60705BE
:0514970079537907D232
:01149C001837
:05149D00D28EA218220E
:0A14A200C008E581F5082404F58177
:0914AC00C209AF5A74C35FFEA827
:0514B5000808A65BE53C
:0914BA0057FC7036E5587032E56C
:0714C3007B20E00302177A11
:0C14CA00EE700DA80808B6C007C006129E
:0414D6001780D006A5
:0514DA00BE01028003C9
:0314DF0002177A77
:0914E200A80808E6600302177A6D
:0914EB0075828312144F02177A76
:0814F400E55930E7030216C5BB
:0C14FC00901D17E493FBECB50302800385
:0315080002177A4D
:0B150B00901D18E493FBB5580280030C
:0315160002177A3F
:08151900757C00BE4202801B3C
:06152100BE43030216594F
:06152700BE800302167FE6
:06152D00BE81030216A1BD
:06153300BE83030216BA9C
:0315390002177A1C
:06153C0020110302177AE2
:0A154200743C5FF553A80808E65456
:0A154C00F0F6A80808B6800280033C
:0315560002163842
:0C15590075828112144FE55CFB700302E8
:02156500163836
:05156700740F555BFF4D
:0A156C00E57770FCC2AF75E400AE35
:0A1576005D74015B241CFCA808084A
:03158000087600EA
:0C158300A8080808C3E69F4003021633C6
:0C158F00EB703CC003E5082403F8A6063E
:0C159B00087600A808080886027D00E51C
:0C15A700082403F8EA26FAED0836FDBA25
:0715B3006005BD0002800489
:0415BA00D0038010CA
:0A15BE00D003A8080808740A2624C8
:0615C80054F9877B801638
:0B15CE008CE7A8080808E62EF5E6A848
:0A15D900080808740A262454F98754
:0115E300E522
:0A15E4008E027D00A8080808E50843
:0C15EE002403F9E6F7097700E508240360
:0E15FA00F8E62AFA08E63D53023F7D00BA3FAC
:0D16080022BD001F8F027D001ABAFF011DD8
:0C161500E5082403F8E6B5020708E6B576
:041621000502800638
:0616250075E46875E400A5
:08162B00A80808080602158357
:0516330075E468D2AF70
:09163800A80808E6600302177A15
:04164100855B5085F0
:031645005C518570
:061648005D527582811263
:09164E00144F75828412144F023E
:02165700177A00
:0A165900743C5FF553A80808B68042
:041663000343A20893
:09166700A80808E6600302177AE6
:0D16700075828112144F75828212144F0290
:02167D00177ADA
:06167F0030110302177A8E
:04168500D2118555A4
:031689004D855636
:05168C004E754F00C285
:0C1691001275D16075D20B75D3B375D102
:04169D006102177A55
:0716A100E555B54D02800381
:0316A80002177AAC
:0716AB00E556B54E02800375
:0316B20002177AA2
:0516B500C21102177ACA
:0916BA0075828512144FC2110261
:0216C300177A94
:0616C500EE600302177A3B
:0C16CB00C0588C821211C6AF821581BF7E
:0516D700FF0302177A79
:0E16DC00901D11E493FEF58275831DE49325A5
:0C16EA00E02EFD0EA8080874C056FCE4B9
:0416F600BC800104AF
:0116FA00FCF3
:0816FB00C3EE9D400302177AC3
:0E1703008E8275831DE493FBEFB50366EE0442
:0E171100901D0093FBF582C007C006C005C006
:0E171F0004C00312179BAA82D003D004D00589
:0E172D00D006D007EC602EC00474145AFCBC29
:04173B001402800410
:04173F00D004801F33
:0E174300D0048B82C007C006C005C004C003DE
:0E175100C002120291D002D003D004D005D005
:03175F0006D007AA
:0C176200A80808E6700D53020CBA0C0C2D
:07176E008B821202CA800504
:051775000E0E0216FB40
:06177A00850881D0082261
:0C178000E57770FCC2AF75E40075E71D52
:0A178C0075E617855CE5855DE575DF
:05179600E468D2AF225F
:0E179B00AF82901D12E493FE0E0E0EEF2E2F65
:0817A9002F901D0093F5822230
:0E17B10075950075911475924CC2967589213C
:0E17BF00758F00C28CC28E758D80758B80C2B6
:0C17CD008FC20475A88075E80075B80490
:0A17D90075B70CD28A757B2EC2068C
:0517E300C207C20EC2A6
:0417E8000FC209D251
:0517EC000B757900758A
:0617F1007A00754F00C2F2
:0417F70012C211C247
:0517FB00101211502244
:06005200E478FFF6D8FD82
:080030007900E94400601B7A2D
:05003800009018207883
:03003D000075A0AB
:0A00400000E493F2A308B8000205E3
:08004A00A0D9F4DAF275A0FF61
:080058007800E84400600A7919
:030060000075A088
:0600630000E4F309D8FCE3
:080069007800E84400600C7906
:0B00710000900000E4F0A3D8FCD9FAD6
:0300230075817C68
:0A002600121800E582600302001EBC
:0418000075820022CB
:00000001FF
