:0400000002002332A5
:01000B0032C2
:03001300020B8954
:03001B00020BB91C
:03007C0002001E61
:05001E0012007F80FECE
:0A007F00C00885810805817F007E1E
:0B00890000C218E5A703540124FF92F9
:0800940019C007C006C02312C9
:0C009C00155AD023D006D007D297209729
:0A00A8000A301907A8080876008046
:0100B2000B42
:0B00B300901BFFE493FCA80808A604C3
:0E00BE00C297901BFFE493AB962BFC8C9653DD
:0900CC00963FD28C2019217C0022
:0300D500BC32003A
:0E00D800501AC28C901D17E493F58C901D18E1
:0800E600E493F58AC28DD28C6F
:0600EE00308DFD0C80E1E5
:0E00F40075C1FFC2AF75A7E575C2A575C35AE9
:0E010200D2AFC2AF43A70475C2A575C35AD2CF
:0B011000AFC007C006C023120B1AD0BE
:0A011B0023D006D00720190FC007FB
:08012500C006C023120A53D0EA
:05012D0023D006D007FD
:0E01320053BDFE75985043BAE043BD0275BF41
:0C0140002F75BEF043BD017599557C0081
:0E014C00C2AF75C2A575C35AD2AF901D0DE4A7
:07015A0093FBBBFF028003D1
:0301610002026532
:06016400300F03020265EA
:08016A00E57430E003020265B8
:0E017200748025D1502775D16075D20375D3E6
:0E0180009A75D1610C74035CFBBB0313C007BE
:0A018E00C006C004C023120686D08C
:0701980023D004D006D007BC
:0E019F00308D1F740F5589FBBB011774F0558E
:0E01AD00892402F589758F01758C50C28D432F
:0601BB00A210D292D28CCA
:0A01C100300113C007C006C004C0DF
:0501CB002312088BD097
:0701D00023D004D006D00784
:0C01D700E545605FC0048EF005F07A0181
:0401E3007B00800617
:0601E700EA2AFAEB33FBEB
:0C01ED00D5F0F7AC457D00EC5202ED525D
:0E01F90003D004EA4B6034740C2EF582C0076C
:0A020700C006C004C023121206D086
:0C02110023D004D006D00750228EF00548
:05021D00F074018002F5
:0202220025E0D5
:0C022400D5F0FBFD74FFC39D52450E5346
:040230000607800835
:060234000E5306078002D4
:02023A007E0044
:0B023C00E57070517440258D404B2090
:090247000C48901D99E493FDB5EB
:040250004102803DAA
:0C02540075E40075E71D75E6998541E52D
:0502600075E468802C2C
:0C026500748025D15026300F2375D16124
:0A027100E575249140040575801620
:0C027B00758285C007C006C004C02312B5
:0A0287001206D023D004D006D007E1
:06029100200803300919EA
:0A029700C208C209C007C006C00477
:0602A100C023121259D027
:0902A70023D004D006D007800A20
:0202B0007D646B
:0802B2008D031B8B05ED70F8B4
:0602BA001098030203424C
:0502C000AD99BD6308CB
:0502C50010990280FB0E
:0302CA00759955CE
:0902CD00BD2B061596A8080816C1
:0902D600BD2D060596A8080806D6
:0E02DF00BD7715C2AF75E40075E71B75E6FF2D
:0A02ED00A8080886E575E468D2AFA2
:0602F700BD700363748179
:0302FD00BD7608C3
:0503000010990280FBD2
:03030500759927C0
:03030800BD7408B9
:05030B0010990280FBC7
:03031000759900DC
:03031300BD3100F9
:0E031600402AED24C74025ED24CFF5F005F078
:0403240074018002DE
:0203280025E0CE
:0C032A00D5F0FB6241C007C006C004C053
:050336002312088BD02A
:07033B0023D004D006D00717
:08034200D297209712BFFF00C3
:05034A0050030F8012BA
:06034F0020180363748115
:04035500D218800832
:06035900EF60031F8002AB
:02035F00C218C2
:08036100E5745401FDB4010034
:0D036900E433FD24FF929702014C1581D072
:0203760008225B
:021D1700FFFFCC
:0A037800AF8274015554FEBF080067
:0C0382005017EE24FF921892F0C007C044
:0C038E000685F0238F82120596D006D061
:01039A00075B
:08039B00EF24F8400302041EE8
:0303A300BF0C008C
:0503A600400302041EEB
:0C03AB00BF082FE54120E02AEE60274348
:0603B7003A0143410190F0
:0B03BD001DE2E493FD74804DF53690C6
:0B03C8001DE4E493FD74804DF52E90C1
:0A03D3001DFAE493C4540FFD8D24BD
:0C03DD00BF092FE54120E72AEE6027430E
:0603E9003B8043418090BF
:0B03EF001DE3E493FD74804DF5379092
:0B03FA001DE5E493FD74804DF5359087
:0A0405001DFAE493FD740F5DF52B62
:0E040F007D00C006C0058F821204DB1581152A
:01041D00815D
:07041E00E542B54102800236
:02042500D20102
:0104270022B2
:0B042800AF8274402FF58212120622F2
:07043300AF827E00BF08004C
:0E043A00E433FD6027C0068FF005F07B017CE7
:030448000080062B
:06044B00EB2BFBEC33FC7F
:0C045100D5F0F7AA3E7E00EA5203EE52FE
:09045D0004D006EB4C60027E01A4
:06046600ED7033BF0C0035
:0E046C00502E8F047D00EC24F8FCED34FF8C44
:09047A00F005F07C017D00800614
:06048300EC2CFCED33FD42
:0C048900D5F0F7AA407B00EA5204EB52C9
:0704950005EC4D60027E0141
:03049C00BF0C0092
:0E049F00402C7D00EF24F4FFED34FF8FF005BC
:0704AD00F07F017D008006D5
:0604B400EF2FFFED33FD08
:0C04BA00D5F0F7AB3F7C00EB5207EC5292
:0704C60005EF4D60027E010D
:0E04CD007F007D007C008E828F838DF0EC22FC
:0A04DB00C008858108AF82BF080049
:0C04E500E433FE6030E50824FCF8E60873
:0B04F1004670168FF005F074018002C9
:0204FC0025E0F9
:0C04FE00D5F0FBFD74FFC39D523E801042
:08050A008FF005F0740180027E
:0205120025E0E2
:06051400D5F0FBFD423EA4
:06051A00EE703BBF0C0077
:0C0520005036E50824FCF8E60846701987
:0B052C00EF24F8F5F005F074018002E8
:0205370025E0BD
:0C053900D5F0FBFE740FC39E52408013EF
:0B054500EF24F8F5F005F074018002CF
:0205500025E0A4
:06055200D5F0FBFE424063
:03055800BF0C00D5
:0C055B004036E50824FCF8E6084670195C
:0B056700EF24F4F5F005F074018002B1
:0205720025E082
:0C057400D5F0FBFE74FFC39E523F8013C5
:0B058000EF24F4F5F005F07401800298
:02058B0025E069
:06058D00D5F0FBFF423F28
:03059300D008226B
:0E059600AF82901DEBE493FE8FF005F0EE8037
:0105A4000254
:0205A500C3137E
:0B05A700D5F0FB5401FE24FF92192048
:0505B2001803301906DA
:0605B70020180302068576
:0A05BD00A218E433FD7E00C007C061
:0C05C70023C005C0068F821204DB1581E2
:0C05D3001581D023D0078FF005F07D01CA
:0405DF007E00800614
:0605E300ED2DFDEE33FEDC
:0C05E900D5F0F7AB437C00EB5205EC5260
:0805F50006ED4E6003020685CD
:0905FD00901DFAE49320183890D7
:0C0606001DF2E493FE8FF005F0EE800280
:02061200C31310
:0E061400D5F0FB20E0138FF005F0740180029A
:0206220025E0D1
:09062400D5F0FBF4FE52418010F8
:08062D008FF005F0740180025A
:0206350025E0BE
:06063700D5F0FBFE42417C
:0C063D00A218E433FEBE0140901DDCE476
:0E06490093FE7038901DF2E493FE8FF005F0E2
:03065700EE800230
:02065A00C313C8
:0E065C00D5F0FB20E0128FF005F07401800253
:02066A0025E089
:08066C00D5F0FBFE42418011B4
:080674008FF005F07401800213
:02067C0025E077
:07067E00D5F0FBF4FF52412F
:010685002252
:070686000538E4B538020558
:01068D003933
:0A068E00E53824FFFEE53934FFFFD4
:0B069800EEF4FEEFF4FFE5385206E53B
:0506A3003952077D0043
:0306A800BD100082
:0806AB005032EE30E0247C0027
:0306B300BC0A007E
:0C06B600501DEC2424F9870353030FEBC4
:0C06C200B5050DEC242EF9E7FB247F5059
:0406CE0003EB14F72F
:0306D2000C80DEBB
:0A06D500EFC313CE13CEFF0D80C952
:0C06DF007480B53662901DE2E493FF7455
:0A06EB00804FF536E53A30E717744A
:0E06F50001C0E0E4C0E075820A1204DB15814A
:08070300158175820A1212062D
:05070B00E53A253AF576
:040710003A4241D256
:03071400017F0062
:03071700BF080018
:0C071A00502AEF9015AB93FEE53A5E60AC
:0C0726001CEF242EF9901DE4E493FE74F7
:0C073200804EF7EF2424F9901DFAE493A8
:05073E00C4540FFEF79A
:030743000F80D153
:0C0746007480B53762901DE3E493FF74EB
:0A075200804FF537E53B30E01774E7
:0E075C0001C0E0E4C0E075820B1204DB1581E1
:08076A00158175820B121206C5
:07077200E53BC313F53B4218
:0507790041D2017F00E8
:03077E00BF0800B1
:0C078100502AEF9015AB93FEE53B5E6044
:0C078D001CEF242EF9901DE5E493FE748F
:0C079900804EF7EF2424F9901DFAE49341
:0507A500FE740F5EF779
:0307AA000F80D1EC
:0207AD007F00CB
:0807AF00EF24F8500302088A50
:0B07B700EF242EF98706BE80028003AD
:0307C200020886A4
:0A07C500D2018FF005F074018002EC
:0207CF0025E023
:0C07D100D5F0FBFEEF2424F9E7FD20E446
:0407DD0003020861AA
:0D07E100901DF2E493FD8FF005F0ED800215
:0207EE00C31333
:0B07F000D5F0FB20E005EE4241800543
:0507FB00EEF4FD524187
:0C080000EF242EF87600901DEAE493FD32
:07080C008FF005F0ED800202
:02081300C3130D
:0E081500D5F0FBFC74015CFDBD01668F037C19
:06082300000BBB00010CFC
:0E082900ECA2E713CB13CB74F92B901D0093B8
:0D083700FC74015FFBBB010553040F80083A
:0808440074F05CFBC4540FFCCE
:0E084C0074E22F901D0093FB6030ED602D7460
:07085A00804BF6A704802586
:0D086100901DF2E493FD8FF005F0ED800294
:02086E00C313B2
:0C087000D5F0FB20E007EEF4FD524180C3
:01087C000378
:03087D00EE424107
:06088000EF242EF87600C3
:040886000F0207AFA7
:01088A00224B
:0B088B00AE427F00EEF4FEEFF4FFAC85
:0C089600417D00EC5206ED5207EE4F6071
:0C08A2001FC28C53A2E9C292854180C2A3
:0E08AE008DE4F58CF58A74F0558904F5897592
:0608BC008F00D28C8003C6
:0308C200854180ED
:0808C500901DF3E4936541F579
:0308CD003F7F006A
:0308D000BF08005E
:0A08D30050218FF005F0740180023F
:0208DD0025E014
:0A08DF00D5F0FBFE5541FDEE554239
:0708E900FCEDB504028003E1
:0308F000EE424590
:0308F3000F80DA99
:0408F600854142C234
:0208FA000122D9
:0C08FC00AF82E5426FFEE4FCFDEE30E050
:0B0908000EEF30E0067C207D00800434
:040913007C107D00D7
:0D091700EE30E10CEF30E1054305088003F0
:0309240043050484
:0D092700EE30E20CEF30E205430480800367
:0309340043044039
:0D093700EE30E30CEF30E3054305028003D2
:0309440043050167
:0D094700EE30E40CEF30E405430580800342
:0309540043054018
:0D095700EE30E50CEF30E5054304028003AF
:0309640043040148
:0D096700EE30E60CEF30E60543052080037E
:0309740043051028
:0D097700EE30E70CEF30E705430408800385
:0309840043040425
:050987008C828D83222B
:0A098C00C008858108C082C0830501
:0A09960081A80808088605A80808D3
:0409A00086037C004E
:0A09A4008D028B07E5082403F8A676
:0709AE0041C282C2837E00FA
:0E09B500EE24F84038C00574805A2354012403
:0D09C300FF9280EA2AFAD283D283C283E534
:0C09D000082403F874805623540124FF0F
:0C09DC009284E5082403F8E625E0F6D23A
:0A09E80085D285C2850ED00580C3BC
:0609F200D286C2867E00E1
:0E09F800EE24F8401774805F235401FA24FFA8
:0E0A06009280EF2FFFD283D283C2830E80E452
:0A0A1400D2827E007F00C2827A00C9
:0B0A1E00EA24F0401930930343060166
:050A2900D283BA0F00AA
:090A2E005007EFCE25E0CE33FFA6
:050A3700C2830A80E209
:0C0A3C00A80808E6B5060708E6B50702A2
:020A4800800329
:030A4A000209A4FA
:060A4D00850881D008229B
:080A5300901D99E493F5419018
:070A5B001DF6E493FF7E008D
:0E0A6200EE24FC4046EE75F002A4FCADF08CD4
:060A7000F005F0EF80022A
:020A7600C313A8
:0E0A7800D5F0FBFC74035CFDBD01148EF0058F
:050A8600F07401800284
:020A8B0025E064
:0A0A8D00D5F0FBFC74FFC39C52413E
:0B0A9700BD02108EF005F0740180021B
:020AA20025E04D
:060AA400D5F0FBFC42410D
:030AAA000E80B506
:080AAD00901DF7E493FF7E00A9
:0E0AB500EE24FC404CEE75F002A4FBACF08B7E
:060AC300F005F0EF8002D7
:020AC900C31355
:0E0ACB00D5F0FBFB74035BFDBD011774042E18
:080AD900F5F005F07401800244
:020AE10025E00E
:0A0AE300D5F0FBFC74FFC39C5241E8
:0E0AED00BD021374042EF5F005F074018002B2
:020AFB0025E0F4
:060AFD00D5F0FBFD4241B3
:030B03000E80AFB2
:060B0600754200D20190CF
:070B0C001DF3E4936541F5C0
:050B13003FE541F44242
:020B1800452274
:0E0B1A007580007584007585FF74F055892480
:0E0B280002F589758F01758C5043A210D28C96
:0A0B3600C2A9D288754000E4F5431F
:050B4000F538F539F560
:0A0B450044C200C2AF75E40075E77A
:0E0B4F001D75E60375E50075E71D75E6047576
:0E0B5D00E50475E71D75E60C75E50075E468A6
:0E0B6B00D2AFC28875D181901DF9E493C454B5
:0C0B79000FFF8F2C901DFAE493FF740F07
:040B85005FF52D22C9
:0815AB00010204081020408039
:0E0B8900C0E0C0D0C2AAC28E740F55892420CD
:0E0B9700F589758B35758D80C28FD28ED2ABED
:060BA500757002C204D2CB
:050BAB0002756F0075EA
:090BB0006E00D203D0D0D0E03277
:0C0BB900C023C0E0C0F0C082C083C007B1
:0E0BC500C006C005C004C003C002C001C000CD
:0A0BD300C0D075D000C008E581F520
:0A0BDD00082404F581E570FF24F1FF
:050BE700500302111C87
:070BEC00EF2F2F900BF373B4
:070BF300020C2002111C029C
:060BFA000EB6020F7602A8
:060C00000F7F0210090243
:060C0600111C02111C028A
:060C0C00111C02111C0284
:060C1200102B02109302FA
:060C1800111C0210B702DE
:020C1E001105BE
:0E0C2000C28E740F55892420F589758B80755E
:0A0C2E008D80C28FD28EE572B5737F
:040C380003020EAFF6
:080C3C00E5732464F98707C287
:0C0C4400187DFE7E00EFA2E5E433FC24E6
:060C5000FF9219BF8000B5
:050C56004003020D83C4
:0C0C5B00C005C006EF2323540124FF92C3
:0B0C67001A53071F8F82C007C005C092
:0C0C720023120433AA82AB83ACF0FED046
:0A0C7E0023D005D007A80808A6023D
:0E0C880008A60308A60408A606901D11E49312
:0E0C9600FE0EEF2FFD2EFC04901D0093FEB508
:040CA40007028006BD
:060CA800D006D005800F0C
:0E0CAE00D006D0058C8275831DE493FCFD7E7C
:010CBC000037
:090CBD00BDFE06BE0003020E5E3E
:0A0CC600754DBC901D17E493FC8CE3
:0A0CD0004E901D18E493FC8C4FEDCC
:0C0CDA002DFD2417901D0093FE8E507419
:0A0CE600182D901D0093FE8E51752D
:060CF0005300301A0575E7
:040CF60054408003E3
:030CFA00755480AE
:0E0CFD00901D12E4932F2FFE2F2404901D0053
:0C0D0B0093FE24F95006EE24FBFE80024B
:020D17007E015B
:0C0D190074E02EF552EE24FE500F74061C
:0A0D25002E244DF9A808088605A742
:030D2F000580102C
:0C0D3200A80808743F56FAE4FBFCFDEA38
:040D3E002554F554EF
:0C0D4200EE24FD500E74052E244DF9A87F
:070D4E000808088605A7054F
:0C0D5500EE24FC500F74042E244DF9A86D
:080D6100080808088605A70533
:0C0D6900EE24FB501074032E244DF9A85A
:090D750008080808088606A70614
:050D7E00D218020E5E18
:0A0D8300754DB0901D17E493FE8E2D
:0A0D8D004E901D18E493FE8E4F8572
:030D97004650853E
:0A0D9A00475153071FEF24FA5003DE
:030DA400020E5CE0
:070DA700EF2F2F900DAE733A
:070DAE00020E5C020DC00201
:060DB5000DCC020DE3026B
:050DBB000DF4020E54CE
:080DC00075526074C2254CF568
:040DC80053020E5C68
:080DCC0075526374432548F5DC
:050DD400537554407549
:060DD9005500755612D210
:040DDF0010020E5C94
:070DE3007550007551007509
:060DEA0052E17553017592
:040DF0005440806883
:020DF4007F007E
:0A0DF600C3EF9549503CE54A702612
:0A0E0000740A2F244DF87600AD4B64
:0E0E0A007E008F037C00EB2DFDEC3EFEBD60F4
:0B0E18001CBE0019740A2F244DF8A620
:030E230074800FC9
:0A0E2600740A2F244DF9EF254B90BC
:050E30001D0093FEF718
:030E35000F80BE6D
:090E380074632549F5527442452A
:060E410048F55374404522
:040E470049F5548590
:030E4B004A558580
:030E4E004B56D22E
:030E510010800806
:070E5400755260755381C265
:010E5B000F87
:020E5C00D218AA
:080E5E0030190674DF554DF553
:010E66004D3E
:0A0E670030183DC2AAE5707032E5B4
:0A0E7100732464F9E7FF20E507741D
:060E7B00204FF775710025
:0B0E810074FC2571400512116E8016F4
:060E8C000573537307C259
:040E92000CC210126C
:0C0E96001140C28E758DF0758B00D28E5D
:050EA200D2AA02111CA0
:060EA700057353730702FE
:020EAD00111C16
:070EAF00C28ED2AA02111C41
:0A0EB600A28BB39218C28B75700373
:0A0EC000758D00E56F700A756F0173
:050ECA00C205C2060292
:020ECF00111CF4
:0A0ED100747F256F401C301808B232
:040EDB0004E56F2596
:030EDF006EF56E3F
:050EE200E56F256FF52E
:060EE7006F600302111C04
:060EED00756F8102111C6B
:0A0EF300C28EC28FA204201801B3C2
:0A0EFD00502CE56C700E74CCB56E3D
:030F070002D2050E
:070F0A00740CB56E02D20663
:070F1100200519200616E57A
:080F18006C24E94010E56C2493
:060F20004DF8E56EF662DB
:050F26006D056C800266
:020F2B00C20200
:050F2D00100C02801D04
:070F320030051430021175B7
:070F39007104101002800991
:070F4000E5482404F54853C5
:020F4700483C24
:060F490012114002111C10
:070F4F0030021E20051B20EB
:0C0F56000618740F55892410F589758D5C
:0C0F6200FA758B70D28E757004D2AA0252
:020F6E00111C54
:060F700012114002111CE9
:090F7600758D8075700202111CDA
:060F7F00200A030210032A
:0C0F8500E56C24F85078C28E740F55897A
:0D0F91002410F589758DEF758B42D28EC24C
:070F9E0007E55230E71F8553
:050FA5005082C0511252
:0B0FAA0011B8AF821581BFFF0280026A
:020FB500D20761
:090FB700E550701CE5517018D2E0
:030FC00007801493
:0C0FC300901D17E493FFB5500B901D1813
:080FCF00E493FFB55102D207C3
:0A0FD70074FFB56D21740F5552FF31
:0C0FE1007E0074082FFFE43EFEAC6C7D27
:0C0FED0000EFB5040BEEB50507D2113083
:040FF9000702D20811
:060FFD0075700502111CD5
:0610030012114002111C55
:09100900C28E30111330070AD227
:051012000D12116EC279
:041017000C02111C9A
:06101B0012114002111C3D
:06102100D20E12116EC296
:041027000C02111C8A
:08102B00E56C244DF987073044
:041033000D027FCC5F
:05103700300E027F0CE9
:09103C00C2AA740AB57002800317
:0310450002111C79
:0A104800E56F247F402CE56F5F7018
:0910520008D296C20BB204800220
:02105B00D20BB6
:08105D00E56F7007756F01C219
:03106500048006FE
:05106800E56F256FF5A6
:01106D006F13
:07106E00E56F7003756F814F
:0510750075700B8013F3
:09107A00200406D296C20B80028C
:02108300D20B8E
:06108500056C756F00759B
:02108B00700DE6
:06108D00758D1202111C1A
:0A109300E56C70077401B56F0205EB
:01109D0071E1
:0A109E00C296A20B828B5007C20C11
:0510A80012114080065A
:0610AD0075700A758D6EDE
:0410B300C28B806507
:0E10B700C296C28E740F55892410F589758D6E
:0A10C500FB758B90D28E200D0330D6
:0210CF000E050C
:0510D100121140802B0C
:0C10D600740F5552FF7E0074072FFFE4DA
:0C10E2003EFEAC6C7D00C3EF9CEE648011
:0C10EE008DF063F08095F05007D20912DD
:0410FA00114080031E
:0310FE0075700EFC
:04110100C28B801706
:0E110500C28E740F55892420F589758D6E7584
:091113008B80C28FD28E75700A28
:06111C00D203850881D01A
:0C11220008D0D0D000D001D002D003D003
:0E112E0004D005D006D007D083D082D0F0D0F8
:04113C00E0D02332AA
:0A114000757000C28BC28EC2AB7541
:0A114A006D00756C00C28E740F5525
:0C115400892410F589758D89758BAFC258
:0A1160000DC20EC28FD28ED2AAD2A9
:04116A00ABC21122E1
:0E116E00C28E740F55892420F589758D6E751B
:0C117C008B80C28F740F55522407FF7542
:041188006DFF7E0079
:0C118C00C3EE9F500BEE244DF9E7FD620E
:041198006D0E80F068
:07119C00EF244DF8A66DC21F
:0411A30005C206D2A9
:0511A7000C75700A75D3
:0A11AC006F00756C00C2AAD28ED24B
:0211B600AB226A
:0A11B800C008858108AF827EFF9019
:0811C2001D16E493FDBDFF00C2
:0E11CA005035901D16E493602E901D16E49390
:0211D800FD1DFB
:0E11DA00ED6024ED2DFC2417901D0093FBEF1B
:0C11E800B5031374182C901D0093FCE557
:0A11F4000824FDF8E6B504028D069C
:0311FE001D80D978
:051201008E82D00822DE
:07120600AF82C218BF4000D7
:0C120D00501B8F82C007C023121544E55F
:0C12190082D023D0075444FEBE44028063
:0112250004C4
:04122600D218802A30
:09122A00AD727E000DBD00010E45
:0C1233005305077E00AB737C00EBB50593
:07123F0006ECB50602800E6B
:08124600E5722464F8A6070517
:05124E0072537207D28B
:011253001882
:05125400D28EA2182259
:0A125900C008E581F5082404F581C2
:09126300C208AF5374C35FFEA87A
:05126C000808A654E58E
:0912710050FC7049E5517045E59F
:07127A007420E00302153EA1
:09128100EE7020A80808B6C01A9E
:0C128A00E57070FCC2AF75E40075E71D54
:0A12960075E6178555E58556E575E8
:0412A000E468D2AF7D
:0512A400BE0102800301
:0312A90002153EED
:0912AC00A80808E6600302153EE3
:0912B50075828312120602153E37
:0812BE00E55230E70302148938
:0C12C600901D17E493FBECB503028003BD
:0312D20002153EC4
:0B12D500901D18E493FBB5510280034C
:0312E00002153EB6
:0812E300757500BE4202801B7C
:0612EB00BE430302141DC6
:0612F100BE80030214435D
:0612F700BE810302146534
:0612FD00BE830302147E13
:0313030002153E92
:06130600200F0302153E5A
:0A130C00743C5FF54CA80808E65495
:0A131600F0F6A80808B68002800374
:031320000213FCB9
:0B132300758281121206740F5554FFF2
:0A132E00E57070FCC2AF75E400AA80
:0A1338005574015A241CFCAE56A89F
:05134200080808760018
:0C134700A8080808C3E69F40030213F743
:0C135300EA703CC002E5082403F8A6067E
:0C135F00087600A808080886037D00E559
:0C136B00082403F8EB26FBED0836FDBB60
:071377006005BD00028004C7
:04137E00D0028026F3
:0A138200D002A8080808740A262407
:06138C004DF98774801684
:0B1392008CE7A8080808E62EF5E6A886
:0A139D00080808740A26244DF98799
:0113A700E560
:0A13A8008E037D00A8080808E50880
:0C13B2002403F9E6F7097700E50824039E
:0E13BE00F8E62BFB08E63D53033F7D00BB3FE6
:0D13CC0022BD001F8F037D001BBBFF011D14
:0C13D900E5082403F8E6B5030708E6B5B4
:0413E5000502800677
:0613E90075E46875E400E4
:0813EF00A808080806021347D4
:0513F70075E468D2AFAF
:0913FC00A80808E6600302153E92
:04140500855449853C
:03140900554A85BC
:06140C00564B75828112AF
:0914120012067582841212060212
:02141B00153E7C
:0A141D00743C5FF54CA80808B68087
:041427000343A208D1
:09142B00A80808E6600302153E62
:0D1434007582811212067582821212060264
:02144100153E56
:06144300300F0302153E0C
:04144900D20F854EEB
:03144D0046854F82
:0514500047754800C2D1
:0C1455001075D16075D20B75D3B375D142
:041461006102153ED1
:07146500E54EB546028003CD
:03146C0002153E28
:07146F00E54FB547028003C1
:0314760002153E1E
:05147900C20F02153E48
:09147E00758285121206C20F02EC
:02148700153E10
:06148900EE600302153EB7
:0C148F00C0518C821211B8AF821581BFD1
:05149B00FF0302153EF5
:0E14A000901D11E493FEF58275831DE49325E3
:0C14AE00E02EFD0EA8080874C056FCE4F7
:0414BA00BC800104ED
:0114BE00FC31
:0814BF00C3EE9D400302153E3F
:0E14C7008E8275831DE493FBEFB50366EE0481
:0E14D500901D0093FBF582C007C006C005C045
:0E14E30004C003121544AA82D003D004D00521
:0E14F100D006D007EC602EC00474145AFCBC68
:0414FF00140280044F
:04150300D004801F71
:0E150700D0048B82C007C006C005C004C0031C
:0E151500C002120378D002D003D004D005D05B
:0315230006D007E8
:0C152600A80808E6700D53020CBA0C0C6B
:071532008B821204288005E2
:051539000E0E0214BFBC
:06153E00850881D008229F
:0E154400AF82901D12E493FE0E0E0EEF2E2FBE
:081552002F901D0093F5822289
:0E155A0075950075911475924CC29675892195
:0E156800758F00C28CC28E758D80758B80C20F
:0C1576008FC20375A88075E80075B804EA
:0A15820075B70CD28A75742EC205ED
:05158C00C206C20DC201
:041591000EC208D2AC
:051595000A75720075EB
:06159A007300754800C259
:0415A00010C20F1254
:0315A400114022D1
:06005200E478FFF6D8FD82
:080030007900E94400601B7A2D
:05003800009015B378F3
:03003D000075A0AB
:0A00400000E493F2A308B8000205E3
:08004A00A0D9F4DAF275A0FF61
:080058007800E84400600A7919
:030060000075A088
:0600630000E4F309D8FCE3
:080069007800E84400600C7906
:0B00710000900000E4F0A3D8FCD9FAD6
:030023007581756F
:0A0026001215A7E582600302001E18
:0415A7007582002227
:00000001FF
