:04007F0075243D3275
:0E008300C0E0C0D00524C28DC3E51495244012
:0500910004D280800292
:02009600C28026
:0B009800C3E51595244004D2818002CE
:0200A300C28118
:0500A500D0D0D0E032D4
:0A00AA00C06E85816EC0820581A83A
:0A00B4006E08740156FE740F554DDE
:0700BE00FDA86E08B60A0060
:0B00C500400BA86E08E624F440030284
:0200D00002DC50
:0D00D200EE9017BB93FC552860030202DC82
:0600DF00A86E08B6020045
:0E00E500502674042E9017BB93FC5528701AF9
:0C00F300ED24FF921892F0C006C00585B5
:0800FF00F023A86E08868212AE
:06010700072AD005D00616
:0B010D00A86E08E624FE400302029FDB
:06011800A86E08B6040009
:05011E00400302029FF6
:0D0123008D037C00C006C005C003C004A809
:0C0130006E08868212065215811581D0DF
:0E013C0005D00674075DFCFA7B001ABAFF01BD
:01014A001B99
:0C014B008AF005F0A86E080874FF80021E
:02015700C313D0
:0A015900D5F0FBF6EC700302022E55
:0D016300ED30E348C005EE2412F98704A832
:0C0170006E080886027D0074FFC39AFA36
:0E017C00E49DFD8C037C00C3EA9BED64808C47
:0E018A00F063F08095F0D0054013EE240AF9E2
:0C019800EE2412F88604A86E0808E62C7D
:0301A400F7805988
:0801A700EE240AF876FF8051F6
:0C01AF00C005EE2412F98704A86E0808B1
:0E01BB0086027B00EE240CF987057F00ED2AFA
:0E01C900FAEF3BFB7F00C3EC9AEF64808BF0F3
:0E01D70063F08095F0D0054014EE240AF9EE96
:0C01E5002412F88607A86E0808EFC396E5
:0301F100F7800C88
:0C01F400EE240AF9EE240CF88607A70799
:0D020000EE700D901DC6E493FF74075FF5CE
:03020D002F800E31
:0D021000901DC6E493C4540FFF74075FF502
:01021D0030B0
:0C021E00EE242BF974C82E901D0093FFF5
:04022A00F702029F36
:0E022E00EE700C901DCEE493FF740F5FFD8008
:01023C000AB7
:0A023D00901DCEE493FFC4540FFDA2
:0E024700ED30E348EE240AF98707EE2412F9A1
:0E0255008704C3EF9C5037EE2412F98707741C
:0D026300CB2E901D0093FCC3EF9C5024A8EF
:0A0270006E08E62435F974CF2E90D5
:09027A001D0093F7A86E08E624AC
:0A0283002FF974075DF7EE242DF942
:06028D00870774014FF722
:0C029300EE240AF9EE2412F88607A707F3
:0A029F00A86E08E624FC5035A86E96
:0402A90008B606008D
:0C02AD00502DAC4E7F00C006C005C00400
:0C02B900C007A86E08868212065215814C
:0C02C5001581D005D006C006C005C04E53
:0B02D1008E821204D71581D005D006E4
:0B02DC00A86E08E624F4400302036D46
:0602E700A86E08B60E002F
:0502ED00400302036D57
:0C02F200EE9017CB93FF55287071AD4EB5
:0702FE00747F5DFFBF0800E3
:0E03050050668D047F00C006C005C004C0070E
:0C031300A86E0886821206521581158122
:0E031F00D005D006ED30E724C2AF75E40075BE
:0E032D00E71D74075D24E7FFEEC40354F8FCDF
:0E033B002FF5E6EE2412F987E575E468D2AFDF
:02034900802210
:0D034B00EEC40354F824E7FF74075D2F9003
:0D0358001D0093FFC006C005C0078E821275
:0803650004D71581D005D00674
:0B036D00A86E08E624F64003020447D7
:06037800A86E08B60C009F
:05037E004003020447EA
:0E03830074015DFC901DC3E493FB74032E9087
:0E03910017BB93FA5B6C6048EE9017BB93FCB1
:0E039F005528703E74DF2E901D0093FFC4544D
:0E03AD000FFBBB0E0C74042E9017BB93FB428B
:0303BB0028800394
:0303BE00EC4228E6
:0E03C10053070FEE2414F9C006C005C001C09A
:0E03CF00068F82120467AC821581D001D00522
:0403DD00D006A7049B
:0E03E10074015DFC901DC3E493FB74032E9029
:0E03EF0017BB93FA5B6C6050EE9017BB93FC4B
:0E03FD005528604674DF2E901D0093C4540FE7
:0E040B00FFEE9017C393522874042E9017C36F
:0E04190093FC5228BF0E0AEE2412F987048CC1
:030427000580113C
:0E042A00C006C0068F82120467AF821581D013
:03043800068F0527
:0C043B00EE240AF8A605EE2412F8A6052F
:0904470074F0B53E04740180015B
:01045000E4C7
:04045100FFB40100F3
:0C045500E433FFAE255E54F06002D202DA
:06046100856E81D06E22C1
:0A046700C06E85816EAF827E00BF7B
:0C047100010DE56E24FDF8E6240CF9876F
:03047D00058D06E4
:08048000EF24FE500EBF0C003A
:0B0488005009EF24FE9017A593FDFE25
:0C049300BF0C0DE56E24FDF8E62412F904
:04049F0087058D063A
:0A04A300BF0D2CE56E24FDF8E624E1
:0A04AD0029F98707E56E24FDF8E643
:0E04B700240CF98705C3EF9D40048F06800DCD
:0C04C500E56E24FDF8E6240CF987078F93
:0104D1000624
:0504D2008E82D06E22B5
:0A04D700C06E85816EE582FF700D96
:0C04E100901DC6E493FE740F5EF52F80A2
:0104ED000E00
:0D04EE00901DC6E493C4540FFE740F5EF51C
:0104FB0030D0
:0C04FC00E56E24FDF8E6603D74042F90CE
:0905080017BB934225D202EF90CB
:0C05110017BB934226EF240CF98706E587
:0C051D006E24FDF8C3E69E400DEF240A9A
:0A052900F8E56E24FDF9E7F68025E1
:0E053300EF240AF9EF240CF88606A7068017BD
:0E054100EF240AF87600EF9017BB934225D204
:09054F0002EF9017C393FE52263F
:0C055800EF242FF9E7FE30E30EEF241231
:0B056400F9EF240AF88606A706800DB8
:0C056F00EF242BF974C82F901D0093FF9F
:01057B00F788
:03057C00D06E221C
:0B057F00AF8274402FF5821213EB22B4
:0B058A00AF827E0074015FFDBF020025
:0E059500E433FC600CED9017BB93FB55266021
:0305A300027E01D4
:0605A600EC700DBF040023
:0A05AC005008ED2408F987048C06BE
:0305B600BF04007F
:0505B900400DBF06002B
:0A05BE005008ED240EF987048C06A6
:0305C800BF06006B
:0505CB004011BF080013
:0E05D000500CED9017BB93FC552760027E0186
:0305DE00BF080053
:0505E100400DBF0A00FF
:0A05E6005008ED2417F987048C0675
:0305F000BF0A003F
:0505F3004011BF0C00E7
:0E05F800500CED9017BB93FC552860027E015D
:03060600BF0C0026
:05060900400DBF0E00D2
:0A060E005008ED2410F987048C0653
:03061800BF0E0012
:05061B004011BF1000BA
:0E062000500CED9017BB93FC551860027E0144
:03062E00BF1000FA
:050631004011BF1200A2
:0E063600500CED9017BB93FF551960027E012A
:0E0644007F007D007C008E828F838DF0EC2283
:0A065200C06E85816EAF8274015FF7
:04065C00FEBF0200DB
:0C066000E433FD601CE56E24FCF8E608A5
:0D066C0046700AEE9017C393FC52268008DA
:08067900EE9017BB93FC422632
:06068100ED7012BF040041
:0C068700500DEE2408F9E56E24FCF88606
:0306930005A705B3
:03069600BF04009E
:050699004012BF060045
:0C069E00500DEE240EF9E56E24FCF886E9
:0306AA0005A7059C
:0306AD00BF060085
:0506B0004021BF08001D
:0C06B500501CE56E24FCF8E60846700AB4
:0A06C100EE9017C393FD5227800846
:0806CB00EE9017BB93FD4227DE
:0306D300BF08005D
:0506D6004012BF0A0004
:0C06DB00500DEE2417F9E56E24FCF886A3
:0306E70005A7055F
:0306EA00BF0A0044
:0506ED004021BF0C00DC
:0C06F200501CE56E24FCF8E60846700A77
:0A06FE00EE9017C393FD5228800808
:08070800EE9017BB93FD42289F
:03071000BF0C001B
:050713004012BF0E00C2
:0C071800500DEE2410F9E56E24FCF8866C
:0307240007A7071D
:03072700D06E226F
:0D072A00AF82740F5FFE6008BE01028068A0
:03073700020801B4
:0C073A0030183D901DD2E493FD74075D63
:09074600F52F901DD3E493FD8D05
:0C074F002BD22C901DDAE493FD20E30374
:03075B0002080190
:0C075E00901DDAE493FD74075DF5329005
:0A076A001DDCE493FD8D3874024598
:040774002DF52D0230
:02077800080176
:07077A0074FD552DF52D90D3
:080781001DD7E493FD8D2BE56B
:0C0789002B600F901DD6E493FD74075DFB
:06079500F52FD22880665A
:04079B00C22C80628A
:0C079F0030183C901DD2E493C4540FFDB0
:0907AB008D30901DD4E493FD8D06
:0C07B4002CD22D901DDAE493FD30E741BB
:0D07C000901DDAE493C4540FFD74075DF53D
:0807CD0033901DDDE493FD8D66
:0607D500397402452EF507
:0307DB002E80234A
:0707DE0074FD552EF52E906D
:0807E5001DD8E493FD8D2CE505
:0C07ED002C600F901DD6E493C4540FFD47
:0607F9008D30D2298002C0
:0207FF00C22D09
:0B080100A22C722D922FD202BF020029
:05080C00400302088C0E
:0C081100301848EE9017BB93FD55257081
:0C081D000C74042E9017BB93FD553E7028
:01082900329C
:0C082A00C007C006C02374C4C0E08F8269
:0C083600120B111581D023D006D007EF63
:0C084200242BF9E7700CEF2412F9EF24CE
:06084E000AF88605A7056B
:08085400EF9017C393FD52253C
:0C085C0020182D74042E9017BB93FD553E
:0A0868003E6021EF2429F9EF24126D
:0C087200F88605A705EE242BF9E76008C6
:08087E00EE240AF87600800662
:06088600EE2412F87600DA
:0A088C00EF30E516301813EE242BB0
:0E089600F9E7700CEE2412F9EE240AF886073A
:0208A400A707A4
:0108A600222F
:0A08A70075D161053BE4B53B020585
:0108B1003C0A
:0A08B200E53B24FFFEE53C34FFFFA8
:0B08BC00EEF4FEEFF4FFE53B5206E512
:0508C7003C52077D001A
:0308CC00BD060066
:0C08CF00502EED242FF98704BC0102809C
:0108DB001507
:0E08DC00EC2CFB9017AF93CBA393FCEE5203D2
:0708EA00EF5204EB4C600B20
:0B08F100ED2435F9E7FC6003EC14F780
:0308FC000D80CD9F
:0208FF007F0078
:03090100BF020032
:0509040040030209AAF6
:0A090900EF242FF9E76072EF2435A8
:0C091300F9E7706BEF242BF88606A706AE
:0E091F00EF240AF98706EF2412F98705C3EDCD
:0E092D009E5023EF2412F907E7EF2412F987FA
:0E093B0006EF240CF98705C3EE9D500CEF2447
:0A09490012F9EF240CF88606A70649
:0E095300EF240AF98706EF2412F98705C3EE98
:0E0961009D501EEF2412F9E714F7EF2412F94F
:0E096F008706EF240CF98705C3EE9D5006EFB6
:05097D002412F87600D1
:0E098200EF9017BB93FE5525601AEF2412F973
:0E099000E77013EF9017C393522574042F9055
:08099E0017C393FE5225D2029B
:0409A6000F02090132
:0209AA007F03C9
:0309AC00BF050084
:0509AF004003020A31C3
:0C09B400EF24FDFEEF2435F9E77034EE6F
:0C09C000242DF9E7FD30E01074042E90A7
:0C09CC0017C393FC5225D20274FE5DF7A5
:0C09D800EE242DF9E7FD30E112C2F0C062
:0C09E40007C00685F0238E8212072AD07F
:0309F00006D00727
:0E09F300EE9017CB93FD55287030EE2414F9CA
:0E0A0100EE2412F88605A705EE2414F9E7602E
:0E0A0F001DEE2414F98705EE240CF98704C3AC
:0E0A1D00ED9C500CEE2414F9EE240CF8860625
:020A2B00A7061C
:040A2D000F0209ACFF
:010A310022A2
:0C0A3200E53E6525C4540FFFE525C454C3
:0A0A3E000FF526852627D2007E0062
:030A4800BE0100EC
:0E0A4B00502AEE9017BB93FD5F601E74062EBE
:0E0A5900F582C007C0061213EBD006D0077D51
:010A6700008E
:030A6800BD1E00B0
:020A6B00500732
:070A6D00E52470FC0D80F48C
:030A74000E80D120
:0D0A770074F055254280740F45255280C251
:050A84000285253E2261
:020A89007F06E6
:030A8B00BF0800A1
:040A8E0050117E0085
:030A9200BE1E0085
:020A9500500708
:070A9700E52470FC0E80F461
:030A9E000F80EADC
:0E0AA100901DC2E493FF74075F90179D93FFB2
:0E0AAF008F0C901DC2E4935470C4540FFF745A
:0E0ABD00075F90179D93FF8F0D75250085250F
:030ACB003E7F006B
:030ACE00BF020064
:0C0AD100503DEF242DF87600EF2412F8C1
:0E0ADD007600C00774E2C0E08F82120B111584
:0C0AEB0081D007C218EF240AF9E760026E
:020AF700D21813
:0C0AF90074204FFEA21892F0C00785F098
:0B0B0500238E8212072AD0070F80BE4B
:010B100022C2
:0A0B1100C06E85816EAF827E00EF9A
:0B0B1B007012E56E24FDF886827583E1
:090B26001DE493FD53050F80133B
:0A0B2F00E56E24FDF8868275831D33
:090B3900E49354F0FCC4540FFDD8
:040B4200ED7001FE53
:0B0B4600BD0108EF240CF987048C06A9
:080B5100ED24FE500EBD0C0066
:0B0B59005009ED24FE9017A593FCFE50
:0C0B6400BD0D25E56E24FDF8B6C41DEFA4
:0C0B70002429F98705EF240CF98704C341
:080B7C00ED9C40048D06800889
:080B8400EF240CF987058D0632
:090B8C00EF240AF8A606D06E223F
:0D0B95007580007584007585FFC2A9E4F528
:0A0BA2003BF53C75D16075D200757B
:0E0BAC00D31D75D161C2AF75E40075E71D75EC
:0E0BBA00E60375E50075E71D75E60475E508B0
:0E0BC80075E71D75E60C75E50075E71D75E611
:0E0BD6000D75E5FF75E468C28C5389F0438904
:0E0BE40002758C70758A70D28C53B8FC43B8C1
:0E0BF2000C53B7F543B705C28DD288D2A9D2F5
:040C0000A8D2AF22A5
:08179D000F1E2E3D4D5C6B7F19
:0A17A50019334B66809AB3CCE6FFBF
:0C17AF000000000008008000000800801E
:0817BB00010204081020408027
:0817C300FEFDFBF7EFDFBF7F25
:0417CB000B162C5875
:0600000002002302007F54
:03000B000200836D
:03001300020D7C5F
:03001B00020DAC27
:03007C0002001E61
:05001E00120C0480FE3D
:090C04007F00C218C007C02312D2
:0C0C0D00174AD023D00753BDFE75985045
:0E0C190043BAE043BD0275BF0075BE3043BD57
:0E0C270001759955901BFFE493901BFFE49319
:0A0C3500AD962DFE8E96C2977E004C
:030C3F00BE3200C2
:0E0C4200501AC28C901D17E493F58C901D186B
:080C5000E493F58AC28DD28CF9
:060C5800308DFD0E80E16D
:0C0C5E007E00C007C006C023120B95D01A
:040C6A0023C023126E
:080C6E000A89D023D006D0074B
:030C760030980EA5
:050C790010990280FB50
:090C7E00E5992400F98799C29858
:0B0C8700901D0DE493FDBDFF028003F3
:030C9200020D123E
:0A0C950020117AE56D20E075EE24D1
:0A0C9F000AF98705EE2412F9870414
:0C0CA900EDB50434EE2417F98705EE24A5
:0A0CB50012F98704EDB50402802255
:0A0CBF00EE2417F9EE2412F8860562
:0C0CC900A705D20074082EF582C007C0F9
:070CD50006C0231213EBD04F
:050CDC0023D006D00743
:030CE100BE020050
:050CE40050030E800228
:020CE9007E008B
:0C0CEB00748025D1500FC007C006C02344
:090CF7001208A7D023D006D00793
:0A0D000030020FC007C006C0231226
:080D0A000A32D023D006D00705
:0A0D1200E56C145407245DF9870511
:060D1C0020090DBD0400DA
:0A0D2200501BED24FA5016300A139E
:090D2C00C209C20AC007C006C0DA
:050D35002312143ED062
:050D3A0023D006D007E4
:060D3F00E56BB56C06E552
:050D4500697002C2000C
:080D4A00D297209712BFFF00B1
:050D520050030F8012A8
:060D5700201803636D810A
:040D5D00D218800820
:060D6100EF60031F800299
:020D6700C218B0
:080D6900E56D5401FDB4010029
:0B0D7100E433FD24FF9297020C762271
:0E0D7C00C0E0C0D0C2AAC28E740F55892420D8
:0E0D8A00F589758B35758D80C28FD28ED2ABF8
:060D9800756902C205D2DC
:050D9E000375680075FB
:090DA3006700D204D0D0D0E03288
:0C0DAC00C023C0E0C0F0C082C083C007BC
:0E0DB800C006C005C004C003C002C001C000D8
:0C0DC600C0D075D000E569FF24F1500397
:030DD2000210C943
:070DD500EF2F2F900DDC73DE
:070DDC00020E090210C9021A
:060DE3000E7C020F360237
:060DE9000F3F020FB402EF
:060DEF0010C90210C90248
:060DF50010C90210C90242
:060DFB000FD802104002B7
:060E010010C9021064029A
:020E070010B227
:0E0E0900C28E740F55892420F589758B807573
:0A0E17008D80C28FD28EE56BB56CA2
:030E2100028051FB
:080E2400E56C245DF9878212E0
:0B0E2C0011AF503DC2AAE5697032E52D
:0A0E37006C245DF9E7FF20E5077465
:060E4100204FF7756A0066
:0B0E470074FC256A400512111480168F
:060E5200056C536C07C2A1
:040E58000DC21212A3
:0C0E5C0010E8C28E758DF0758B00D28EF0
:050E6800D2AA0210C92E
:060E6D00056C536C070246
:020E730010C9A4
:070E7500C28ED2AA0210C9CF
:0A0E7C00A28BB39218C28B756903B4
:0A0E8600758D00E568700A756801BB
:050E9000C206C20702CA
:020E950010C982
:0A0E9700747F2568401C301808B273
:040EA10005E56825D6
:030EA50067F56787
:050EA800E5682568F576
:060EAD006860030210C999
:060EB3007568810210C900
:0A0EB900C28EC28FA205201801B3FB
:0A0EC3005026E565700E74CCB5678B
:030ECD0002D20648
:070ED000740CB56702D207A4
:070ED700200613200710E5BF
:050EDE00652446F8E563
:050EE30067F6626605E0
:030EE80065800220
:020EEB00C20340
:050EED00100D02801D44
:070EF20030061430031175F6
:070EF9006A041012028009D7
:070F0000E5412404F5415313
:020F0700413C6B
:060F09001210E80210C9FD
:070F0F0030031E20061B2029
:0C0F16000718740F55892410F589758D9B
:0C0F2200FA758B70D28E756904D2AA0299
:020F2E0010C9E8
:060F30001210E80210C9D6
:090F3600758D807569020210C975
:0A0F3F00300B64E56524FB505EC230
:0E0F49008E740F55892410F589758DEF758B08
:080F570042D28EA2109208E5BF
:080F5F004B30E71F854982C0F9
:0C0F67004A12115EAF821581BFFF0280AC
:010F7300027B
:020F7400D208A1
:090F7600E549701CE54A7018D22F
:030F7F00088014D3
:0C0F8200901D17E493FFB5490B901D185B
:080F8E00E493FFB54A02D2080A
:090F960074FFB56605300802D2B3
:010F9F000948
:060FA0007569050210C98D
:080FA600E56524FE5002D209AA
:060FAE001210E80210C958
:0A0FB400C28E74FFB5661330080A00
:060FBE00D20E121114C254
:040FC4000D0210C941
:060FC8001210E80210C93E
:060FCE00D20F121114C243
:040FD4000D0210C931
:080FD800E5652446F9870730A6
:040FE0000E027FCCB2
:050FE400300F027F0C3C
:090FE900C2AA740AB56902800372
:030FF2000210C921
:0A0FF500E568247F402CE5685F707A
:090FFF0008D296C20CB205800272
:02100800D20C08
:08100A00E5687007756801C27A
:0310120005800650
:05101500E5682568F507
:01101A00686D
:07101B00E5687003756881B0
:0510220075690B80134D
:09102700200506D296C20C8002DD
:02103000D20CE0
:06103200056575680075FC
:02103800690D40
:06103A00758D120210C9C1
:0A104000E56570077401B56802054C
:01104A006A3B
:0A104B00C296A20C828B5007C20D62
:051055001210E8800606
:06105A0075690A758D6E38
:04106000C28B80655A
:0E106400C296C28E740F55892410F589758DC1
:0A107200FB758B90D28E200E033028
:02107C000F055E
:05107E001210E8802BB8
:0C108300740F554BFF7E0074072FFFE434
:0C108F003EFEAC657D00C3EF9CEE64806B
:0C109B008DF063F08095F05007D20A122F
:0410A70010E88003CA
:0310AB0075690E56
:0410AE00C28B80175A
:0E10B200C28E740F55892420F589758D6E75D8
:0910C0008B80C28FD28E75690A83
:0C10C900D204D0D0D000D001D002D0035F
:0E10D500D004D005D006D007D083D082D0F052
:0510E300D0E0D0233233
:0A10E800756900C28BC28EC2AB75A1
:0A10F2006600756500C28E740F558C
:0C10FC00892410F589758D89758BAFC2B1
:0A1108000EC20FC28FD28ED2AAD2FF
:02111200AB220E
:0E111400C28E740F55892420F589758D6E7575
:0C1122008B80C28F740F554B2407FF75A3
:04112E0066FF7E00DA
:0C113200C3EE9F500BEE2446F9E7FD626F
:04113E00660E80F0C9
:07114200EF2446F8A666C287
:0411490006C207D201
:05114D000D75690A7533
:0A1152006800756500C2AAD28ED2B3
:02115C00AB22C4
:0A115E00C06E85816EAF827EFF90A7
:081168001D16E493FDBDFF001C
:0C1170005038201035901D16E493602EBE
:07117C00901D16E493FD1D18
:0E118300ED6024ED2DFC2417901D0093FBEF72
:0C119100B5031374182C901D0093FCE5AE
:0A119D006E24FDF8E6B504028D068D
:0311A7001D80D9CF
:0511AA008E82D06E22D0
:0A11AF00C06EE581F56E2404F581A1
:0C11B900AF82C2187DFE7E00EFA2E5E4CC
:0911C50033FC24FF9219BF8000E5
:0511CE0040030212FBCA
:0C11D300C005C006EF2323540124FF9246
:0B11DF001A53071F8F82C007C005C015
:0C11EA002312058AAA82AB83ACF0FED071
:0A11F60023D005D007A86E08A6025A
:0E12000008A60308A60408A606901D11E49394
:0E120E00FE0EEF2FFD2EFC04901D0093FEB58A
:04121C00070280063F
:06122000D006D005800F8E
:0E122600D006D0058C8275831DE493FCFD7EFE
:0112340000B9
:09123500BDFE06BE00030213DA3F
:0A123E007546BC901D17E493FC8C6C
:0A12480047901D18E493FC8C48ED5C
:0C1252002DFD2417901D0093FE8E4974A2
:0A125E00182D901D0093FE8E4A75B6
:061268004C00301A057570
:04126E004D4080036C
:03127200754D8037
:0E127500901D12E4932F2FFE2F2404901D00D5
:0C12830093FE24F95006EE24FBFE8002CE
:02128F007E01DE
:0C12910074E02EF54BEE24FE500F7406A6
:0A129D002E2446F9A86E088605A766
:0312A700058010AF
:0C12AA00A86E08743F56FAE4FBFCFDEA55
:0412B600254DF54D80
:0C12BA00EE24FD500E74052E2446F9A809
:0712C6006E08088605A7056C
:0C12CD00EE24FC500F74042E2446F9A8F7
:0812D9006E0808088605A70550
:0C12E100EE24FB501074032E2446F9A8E4
:0912ED006E080808088606A70631
:0512F600D2180213DA1A
:0A12FB007546B0901D17E493FE8EB7
:0A13050047901D18E493FE8E488502
:03130F003F4985CE
:0A131200404A53071FEF24FA50036E
:03131C000213D8E1
:07131F00EF2F2F901326733E
:071326000213D80213380284
:06132D00134402135B02F1
:05133300136C0213D24F
:08133800754B6074C22545F5F8
:041340004C0213D870
:08134400754B6374432541F56C
:05134C004C754D4075D9
:061351004E00754F12D2A0
:04135700120213D893
:07135B00754900754A007599
:061362004BE1754C017522
:041368004D40806C08
:02136C007F0000
:0A136E00C3EF95425042E543702C96
:0A137800740A2F2446F9EF25449073
:0C1382001C0093F7AD447E008F037C003C
:0E138E00EB2DFDEC3EFEBD601CBE0019740A86
:08139C002F2446F8A66D800F16
:0A13A400740A2F2446F9EF25449047
:0513AE001D0093FEF795
:0313B3000F80B8F0
:0913B60074632542F54B744245B5
:0613BF0041F54C744045AD
:0413C50042F54D851B
:0313C900434E850B
:0313CC00444FD2B9
:0313CF0012800683
:0613D200754B60754C81B3
:0213D800D21829
:0813DA0030190674DF5546F5D9
:0113E20046C4
:0613E300A218856E81D006
:0213E9006E2272
:0713EB00AF82C218BF4000F1
:0C13F200501B8F82C007C023121734E587
:0C13FE0082D023D0075444FEBE4402807D
:01140A0004DD
:04140B00D218802A49
:09140F00AD6B7E000DBD00010E65
:0C1418005305077E00AB6C7C00EBB505B3
:0714240006ECB50602800E84
:08142B00E56B245DF8A607053E
:051433006B536B07D2B2
:01143800189B
:05143900D28EA2182272
:08143E00C06E85816E0581C2BC
:0814460009AF4C74C35FFEAD59
:07144E004DE549FC7034E597
:091455004A7030E56D20E003024D
:02145E00163442
:0E146000EE700EBDC00BC006C005121719D0ED
:03146E0005D006A0
:05147100BE0102800332
:0314760002163427
:06147900ED6003021634D1
:09147F007582831213EB0216348E
:08148800E54B30E70302156299
:0C149000901D17E493FBECB503028003F1
:03149C0002163401
:0B149F00901D18E493FBB54A02800387
:0314AA00021634F3
:0514AD00BE42028018A0
:0514B200BE4302804F63
:0514B700BE8002806A06
:0514BC00BE8102807BEF
:0614C100BE830302155971
:0314C700021634D6
:0614CA002011030216349C
:0C14D000743C5FF5455305F0BD800D75C0
:0C14DC008281C0051213EB121639D005F6
:0614E800ED600302163462
:0414EE00854D428561
:0314F2004E4385E1
:0614F5004F4475828112D4
:0914FB0013EB7582841213EB025D
:0215040016349B
:0B150600743C5FF545BD800343A20864
:06151100ED600302163438
:0D1517007582811213EB7582821213EB02B4
:0215240016347B
:061526003011030216342F
:04152C00D21185470C
:031530003F8548AC
:0515330040754100C2FB
:041538001202163451
:07153C00E547B53F02800303
:0315430002163459
:07154600E548B540028003F7
:03154D000216344F
:0615500010110302163425
:0315560002163446
:091559007582851213EB021634B1
:06156200EE6003021634E6
:0C156800C005C04A8C8212115EAF8215D3
:0915740081D005BFFF030216340B
:0E157D00901D11E493FEF58275831DE4932505
:0D158B00E02EFC0E74C05DFBE4BB8001048B
:01159800FB57
:08159900C3EE9C40030216346E
:0E15A1008E8275831DE493FAEFB5020280037B
:0315AF0002162FF2
:0E15B200C004EE04901D0093FAF582C007C03D
:0E15C00006C005C003C002121734AC82D00270
:0C15CE00D003D005D006D007A86E08A6F8
:0C15DA0004D004EB6031C003A86E08745C
:0815E6001456FBBB1402800443
:0415EE00D003801F87
:0E15F200D0038A82C007C006C005C004C00333
:0E160000C0021200AAD002D003D004D005D040
:03160E0006D007FC
:0C161100ED701BC002A86E08740C56FAA5
:05161D00BA0C0280047C
:04162200D002800E64
:09162600D0028A8212057F8005C2
:05162F000E0E021599EA
:051634001581D06E22BB
:0A163900C06EE581F56E2404F58112
:08164300A86E08740F554DF666
:0A164B00E56970FCC2AF75E400AE63
:0A1655004FAD4E74015D241CFCA88B
:05165F006E0808760092
:0A166400A86E0808A96E09C3E697F6
:05166E00400302170E0D
:0C167300ED7030C0048E027C00A86E08F0
:0E167F000886037F00EB2AFAEF3CFCBA6005F8
:05168D00BC0002800416
:04169200D0048010F0
:0A169600D004A86E0808740A262488
:0616A00046F9876D80028F
:0216A6008CE7CF
:0A16A800A86E0808E62EF5E6A86E0D
:0C16B2000808740A262446F987E58E0318
:0A16BE007F00A86E0808E56E240303
:0C16C800F9E6F7097700E56E2403F8E668
:0E16D4002BFB08E63F53033F7F00BB3F25BFC3
:0C16E2000022A86E0886037F001BBBFFDF
:0216EE00011FDA
:0C16F000E56E2403F8E6B5030708E6B534
:0416FC00070280065B
:0617000075E46875E400C9
:08170600A86E08080602166433
:0A170E0075E468D2AF856E81D06EDD
:0117180022AE
:0C171900E56970FCC2AF75E40075E71DC7
:0A17250075E617854EE5854FE57562
:05172F00E468D2AF22C6
:0E173400AF82901D12E493FE0E0E0EEF2E2FCC
:081742002F901D0093F5822297
:0E174A0075950075911475924CC296758921A3
:0E175800758F00C28CC28E758D80758B80C21D
:0C1766008FC20475A88075E80075B804F7
:0A17720075B70CD28A756D2EC20601
:05177C00C207C20EC20D
:041781000FC209D2B8
:051785000B756B0075FF
:06178A006C00754100C275
:0417900012C211C2AE
:05179400101210E82214
:06005200E478FFF6D8FD82
:080030007900E94400601B7A2D
:05003800009017CF78D5
:03003D000075A0AB
:0A00400000E493F2A308B8000205E3
:08004A00A0D9F4DAF275A0FF61
:080058007800E84400600A7919
:030060000075A088
:0600630000E4F309D8FCE3
:080069007800E84400600C7906
:0B00710000900000E4F0A3D8FCD9FAD6
:0300230075816E76
:0A002600121799E582600302001E24
:041799007582002233
:00000001FF
