:0E007F0043910CAF925307F38F9275DBA0757F
:0E008D00D84475DD0075DC00D293D292D2E823
:03009B00D2AF22BF
:0E009E0043910C43920C75DBA075D84475DDC0
:0900AC001175DC11D293D29222ED
:0400B5007E007F004A
:0800B90020DB150EBE00010F53
:0E00C100C374B89E740B9F50EFC2DB7582FFB4
:0200CF008005AA
:0500D100C2DB75820096
:0100D6002207
:0A00D700C07D85817DAF82AE84AD4F
:0E00E100857584FF75850075DD1175DC117560
:0E00EF00D800D2DEC2D8D2DDC007C006C005E0
:0E00FD001200B5E582D005D006D0076005756B
:04010B0082FF80727D
:0E010F00C2DD75DAA0C007C006C0051200B53B
:0E011D00E582D005D006D00760057582FF8010
:01012B00557E
:0E012C0075DA00C007C006C0051200B5E582F6
:0D013A00D005D006D00760057582FF803A21
:0E0147008FDAC006C0051200B5E582D005D0E3
:080155000660057582FF80249D
:0C015D00E57D24FDF886DAC006C005121E
:0E01690000B5E582D005D00660057582FF80E6
:01017700097E
:09017800D2DC8E848D85758200B5
:03018100D07D220C
:0401840075243D326F
:0C018800C023C0E0C0F0C082C083C007EC
:0E019400C006C005C004C003C002C001C00008
:0E01A200C0D075D000758A09758CF912023D27
:0E01B000E51A24FF9283E51A24B45004D2828B
:0201BE008002BD
:0201C000C282F9
:0A01C200E51A24825004D281800265
:0201CC00C281EE
:0A01CE00E51A24235004D2808002B9
:0201D800C280E3
:0E01DA00E51B24FF9287E51B24B45004D28657
:0201E800800293
:0201EA00C286CB
:0A01EC00E51B24825004D285800236
:0201F600C285C0
:0A01F800E51B24235004D28480028A
:02020200C284B4
:0A020400E536B51A07E537B51B0211
:02020E0080105E
:0A021000851A36851B37851A82C057
:06021A001B1200D7158144
:0E022000D0D0D000D001D002D003D004D00541
:0D022E00D006D007D083D082D0F0D0E0D031
:02023B0023326C
:0C023D00AF80C2B075800074FA252D401F
:0502490004052D8003F7
:03024E00752D000B
:09025100852DF005F07401800216
:02025A0025E09D
:0E025C00D5F0FBFEF4FD8D848E858D80209301
:0A026A0041E52D242EF98706BEFEA3
:010274000089
:050275005003EE04F748
:07027A008706BEC8028003E5
:030281000203472E
:080284007401B52D0375080992
:08028C007402B52D0375080191
:080294007405B52D037509097D
:07029C007406B52D0280037A
:0302A3000203470C
:0602A60075090102034787
:0A02AC00E52D242EF98706C3741413
:0902B6009EE433FD7003020340D5
:0602BF00ED6055BEC80011
:0C02C50050507401B52D0FD2F0C0078519
:0A02D100F0237582001209D4D00753
:0B02DB007402B52D0FC2F0C00785F0C3
:0902E600237582001209D4D0072F
:0B02EF007405B52D0FD2F0C00785F09C
:0902FA00237582011209D4D0071A
:0B0303007406B52D0FC2F0C00785F096
:09030E00237582011209D4D00705
:0A031700E52D242EF9E7FE243850EE
:080321000F7401B52D028005E7
:050329007402B52D0374
:03032E007508004F
:070331007405B52D028005E3
:050338007406B52D0361
:03033D007509003F
:07034000E52D242EF87600E4
:0D0347008F807584007585FFD2B1D2B02281
:0A035400C07D85817DC0820581A86F
:0A035E007D08740156FE740F555C13
:07036800FDA87D08B60A00A4
:0B036F00400BA87D08E624F4400302C8
:02037A000586F6
:0D037C00EE901A2F93FC55286003020586B1
:06038900A87D08B6020089
:0E038F00502674042E901A2F93FC5528701AD5
:0C039D00ED24FF921892F0C006C0058508
:0803A900F023A87D08868212F2
:0603B10009D4D005D006BE
:0B03B700A87D08E624FE400302054973
:0603C200A87D08B604004E
:0503C80040030205499D
:0D03CD008D037C00C006C005C003C004A85D
:0C03DA007D0886821208FC15811581D078
:0E03E60005D00674075DFCFA7B001ABAFF0111
:0103F4001BED
:0C03F5008AF005F0A87D080874FF800263
:02040100C31323
:0A040300D5F0FBF6EC70030204D8FC
:0D040D00ED30E348C005EE2417F98704A880
:0C041A007D080886027D0074FFC39AFA7A
:0E042600E49DFD8C037C00C3EA9BED64808C9A
:0E043400F063F08095F0D0054013EE240BF934
:0C044200EE2417F88604A87D0808E62CBC
:03044E00F78059DB
:08045100EE240BF876FF805148
:0C045900C005EE2417F98704A87D0808F0
:0E04650086027B00EE240EF987057F00ED2A4B
:0E047300FAEF3BFB7F00C3EC9AEF64808BF046
:0E04810063F08095F0D0054014EE240BF9EEE8
:0C048F002417F88607A87D0808EFC39624
:03049B00F7800CDB
:0C049E00EE240BF9EE240EF88607A707E9
:0D04AA00EE700D901DC6E493FF74075FF522
:0304B7003E800E76
:0D04BA00901DC6E493C4540FFF74075FF556
:0104C7003FF5
:0C04C800EE243AF974C82E901D0093FF3A
:0404D400F7020549DD
:0E04D800EE700C901DCEE493FF740F5FFD805C
:0104E6000A0B
:0A04E700901DCEE493FFC4540FFDF6
:0E04F100ED30E348EE240BF98707EE2417F9EF
:0E04FF008704C3EF9C5037EE2417F98707746B
:0D050D00CB2E901D0093FCC3EF9C5024A842
:0A051A007D08E62444F974CF2E900A
:090524001D0093F7A87D08E624F0
:0A052D003EF974075DF7EE243CF977
:06053700870774014FF775
:0C053D00EE240BF9EE2417F88607A70740
:0A054900A87D08E624FC5035A87DCB
:0405530008B60600E0
:0C055700502DAC5D7F00C006C005C00444
:0C056300C007A87D0886821208FC1581E4
:0C056F001581D005D006C006C005C05D97
:0B057B008E821207811581D005D0068A
:0B058600A87D08E624F44003020617DD
:06059100A87D08B60E0073
:050597004003020617FD
:0C059C00EE901A3F93FF55287071AD5D82
:0705A800747F5DFFBF080036
:0E05AF0050668D047F00C006C005C004C00762
:0C05BD00A87D0886821208FC15811581BB
:0E05C900D005D006ED30E724C2AF75E4007512
:0E05D700E71D74075D24E7FFEEC40354F8FC33
:0E05E5002FF5E6EE2417F987E575E468D2AF2E
:0205F300802264
:0D05F500EEC40354F824E7FF74075D2F9057
:0D0602001D0093FFC006C005C0078E8212C8
:08060F0007811581D005D0061A
:0B061700A87D08E624F640030206F16F
:06062200A87D08B60C00E3
:0506280040030206F191
:0E062D0074015DFC901DC3E493FB74032E90DA
:0E063B001A2F93FA5B6C6048EE901A2F93FC16
:0E0649005528703E74DF2E901D0093FFC454A0
:0E0657000FFBBB0E0C74042E901A2F93FB4267
:03066500288003E7
:03066800EC422839
:0E066B0053070FEE241AF9C006C005C001C0E7
:0E067900068F82120711AC821581D001D005C8
:04068700D006A704EE
:0E068B0074015DFC901DC3E493FB74032E907C
:0E0699001A2F93FA5B6C6050EE901A2F93FCB0
:0E06A7005528604674DF2E901D0093C4540F3A
:0E06B500FFEE901A3793522874042E901A37D5
:0E06C30093FC5228BF0E0AEE2417F987048C10
:0306D10005801190
:0E06D400C006C0068F82120711AF821581D0BA
:0306E200068F057B
:0C06E500EE240BF8A605EE2417F8A6057D
:0906F10074F0B54D0474018001A0
:0106FA00E41B
:0406FB00FFB4010047
:0C06FF00E433FFAE255E54F06002D2012F
:06070B00857D81D07D22F6
:0A071100C07D85817DAF827E00BFB0
:0C071B00010DE57D24FDF8E6240EF987B1
:03072700058D0637
:08072A00EF24FE500EBF0C008D
:0B0732005009EF24FE901A1993FDFE01
:0C073D00BF0C0DE57D24FDF8E62417F943
:0407490087058D068D
:0A074D00BF0D2CE57D24FDF8E62425
:0A07570038F98707E57D24FDF8E678
:0E076100240EF98705C3EF9D40048F06800D1E
:0C076F00E57D24FDF8E6240EF987078FD5
:01077B000677
:05077C008E82D07D22F9
:0A078100C07D85817DE582FF700DCB
:0C078B00901DC6E493FE740F5EF53E80E6
:010797000E53
:0D079800901DC6E493C4540FFE740F5EF56F
:0107A5003F14
:0C07A600E57D24FDF8E6603D74042F9012
:0907B2001A2F934225D201EF90A9
:0C07BB001A2F934226EF240EF98706E562
:0C07C7007D24FDF8C3E69E400DEF240BDE
:0A07D300F8E57D24FDF9E7F6802526
:0E07DD00EF240BF9EF240EF88606A70680170E
:0E07EB00EF240BF87600EF901A2F934225D2E0
:0907F90001EF901A3793FE52261D
:0C080200EF243EF9E7FE30E30EEF241770
:0B080E00F9EF240BF88606A706800D0A
:0C081900EF243AF974C82F901D0093FFE3
:01082500F7DB
:03082600D07D2260
:0B082900AF8274402FF58212165F2290
:0B083400AF827E0074015FFDBF020078
:0E083F00E433FC600CED901A2F93FB552660FD
:03084D00027E0127
:06085000EC700DBF040076
:0A0856005008ED2408F987048C0611
:03086000BF0400D2
:05086300400DBF06007E
:0A0868005008ED2411F987048C06F6
:03087200BF0600BE
:050875004011BF080066
:0E087A00500CED901A2F93FC552760027E0162
:03088800BF0800A6
:05088B00400DBF0A0052
:0A0890005008ED2429F987048C06B6
:03089A00BF0A0092
:05089D004011BF0C003A
:0E08A200500CED901A2F93FC552860027E0139
:0308B000BF0C007A
:0508B300400DBF0E0026
:0A08B8005008ED2414F987048C06A3
:0308C200BF0E0066
:0508C5004011BF10000E
:0C08CA00500CED901A2F93FC552B60028F
:0208D6007E01A1
:0308D800BF10004E
:0508DB004011BF1200F6
:0C08E000500CED901A2F93FF552C600275
:0208EC007E018B
:0E08EE007F007D007C008E828F838DF0EC22D7
:0A08FC00C07D85817DAF8274015F2D
:04090600FEBF02002E
:0C090A00E433FD601CE57D24FCF8E608E9
:0D09160046700AEE901A3793FC52268008B6
:08092300EE901A2F93FC42260E
:06092B00ED7012BF040094
:0C093100500DEE2408F9E57D24FCF8864A
:03093D0005A70506
:03094000BF0400F1
:050943004012BF060098
:0C094800500DEE2411F9E57D24FCF8862A
:0309540005A705EF
:03095700BF0600D8
:05095A004021BF080070
:0C095F00501CE57D24FCF8E60846700AF8
:0A096B00EE901A3793FD5227800822
:08097500EE901A2F93FD4227BA
:03097D00BF0800B0
:050980004012BF0A0057
:0A098500500DEE2429F9E57D24FC55
:05098F00F88605A70534
:03099400BF0A0097
:050997004021BF0C002F
:0C099C00501CE57D24FCF8E60846700ABB
:0A09A800EE901A3793FD52288008E4
:0809B200EE901A2F93FD42287C
:0309BA00BF0C006F
:0509BD004012BF0E0016
:0C09C200500DEE2414F9E57D24FCF886AD
:0309CE0007A70771
:0309D100D07D22B4
:0D09D400AF82740F5FFE6008BE01028068F4
:0309E100020AAB5C
:0C09E40030183D901DD2E493FD74075DB7
:0909F000F53E901DD3E493FD8D4A
:0C09F9003AD22C901DDAE493FD20E303B9
:030A0500020AAB37
:0C0A0800901DDAE493FD74075DF5419049
:0A0A14001DDCE493FD8D47740245DC
:040A1E003CF53C0265
:020A22000AAB1D
:070A240074FD553CF53C9008
:080A2B001DD7E493FD8D3AE5AF
:0C0A33003A600F901DD6E493FD74075D3F
:060A3F00F53ED22880669E
:040A4500C22C8062DD
:0C0A490030183C901DD2E493C4540FFD03
:090A55008D3F901DD4E493FD8D4A
:0C0A5E003BD22D901DDAE493FD30E741FF
:0D0A6A00901DDAE493C4540FFD74075DF590
:080A770042901DDDE493FD8DAA
:060A7F00487402453DF53C
:030A85003D80238E
:070A880074FD553DF53D90A2
:080A8F001DD8E493FD8D3BE549
:0C0A97003B600F901DD6E493C4540FFD8B
:060AA3008D3FD229800204
:020AA900C22D5C
:0B0AAB00A22C722D922FD201BF02007E
:050AB6004003020B36B5
:0C0ABB00301848EE901A2F93FD5525705E
:0C0AC7000C74042E901A2F93FD554D70F6
:010AD30032F0
:0C0AD400C007C006C02374C4C0E08F82BD
:0C0AE000120DB91581D023D006D007EF0D
:0C0AEC00243AF9E7700CEF2417F9EF240E
:060AF8000BF88605A705BE
:080AFE00EF901A3793FD522519
:0C0B060020182D74042E901A2F93FD551A
:0A0B12004D6021EF2438F9EF24179D
:0C0B1C00F88605A705EE243AF9E760080A
:080B2800EE240BF876008006B4
:060B3000EE2417F8760028
:0A0B3600EF30E516301813EE243AF4
:0E0B4000F9E7700CEE2417F9EE240BF8860787
:020B4E00A707F7
:010B50002282
:0A0B510075D161054AE4B54A0205BA
:010B5B004B4E
:0A0B5C00E54A24FFFEE54B34FFFFDD
:0B0B6600EEF4FEEFF4FFE54A5206E556
:050B71004B52077D005E
:030B7600BD0600B9
:0C0B7900502EED243EF98704BC010280E0
:010B8500155A
:0E0B8600EC2CFB901A2393CBA393FCEE5203AE
:070B9400EF5204EB4C600B73
:0B0B9B00ED2444F9E7FC6003EC14F7C4
:030BA6000D80CDF2
:020BA9007F00CB
:030BAB00BF020086
:050BAE004003020C549D
:0A0BB300EF243EF9E76072EF2444DE
:0C0BBD00F9E7706BEF243AF88606A706F3
:0E0BC900EF240BF98706EF2417F98705C3ED1B
:0E0BD7009E5023EF2417F907E7EF2417F98744
:0E0BE50006EF240EF98705C3EE9D500CEF2499
:0A0BF30017F9EF240EF88606A70696
:0E0BFD00EF240BF98706EF2417F98705C3EEE6
:0E0C0B009D501EEF2417F9E714F7EF2417F998
:0E0C19008706EF240EF98705C3EE9D5006EF07
:050C27002417F876001F
:0E0C2C00EF901A2F93FE5525601AEF2417F94A
:0E0C3A00E77013EF901A3793522574042F9031
:080C48001A3793FE5225D20178
:040C50000F020BABD9
:020C54007F031C
:030C5600BF0500D7
:050C59004003020CDB6A
:0C0C5E00EF24FDFEEF2444F9E77034EEB3
:0C0C6A00243CF9E7FD30E01074042E90EB
:0C0C76001A3793FC5225D20174FE5DF782
:0C0C8200EE243CF9E7FD30E112C2F0C0A6
:0C0C8E0007C00685F0238E821209D4D026
:030C9A0006D0077A
:0E0C9D00EE901A3F93FD55287030EE241AF9A0
:0E0CAB00EE2417F88605A705EE241AF9E76077
:0E0CB9001DEE241AF98705EE240EF98704C3F8
:0E0CC700ED9C500CEE241AF9EE240EF8860671
:020CD500A70670
:040CD7000F020C56A6
:010CDB0022F6
:0C0CDC00E54D6525C4540FFFE525C45408
:080CE8000FF5268526277E008A
:030CF000BE010042
:0E0CF300502AEE901A2F93FD5F601E74062E9D
:0E0D0100F582C007C00612165FD006D0077D2F
:010D0F0000E3
:030D1000BD1E0005
:020D1300500787
:070D1500E52470FC0D80F4E1
:030D1C000E80D175
:0D0D1F0074F055254280740F45255280C2A6
:050D2C000185254D22A8
:020D31007F063B
:030D3300BF0800F6
:040D360050117E00DA
:030D3A00BE1E00DA
:020D3D0050075D
:070D3F00E52470FC0E80F4B6
:030D46000F80EA31
:0E0D4900901DC2E493FF74075F901A1193FF90
:0E0D57008F0E901DC2E4935470C4540FFF74AD
:0E0D6500075F901A1193FF8F0F7525008525EB
:030D73004D7F00B1
:030D7600BF0200B9
:0C0D7900503DEF243CF87600EF2417F802
:0E0D85007600C00774E2C0E08F82120DB9152F
:0C0D930081D007C218EF240BF9E76002C2
:020D9F00D21868
:0C0DA10074204FFEA21892F0C00785F0ED
:0B0DAD00238E821209D4D0070F80BEF5
:010DB8002218
:0A0DB900C07D85817DAF827E00EFD2
:0B0DC3007012E57D24FDF88682758328
:090DCE001DE493FD53050F801391
:0A0DD700E57D24FDF8868275831D7A
:090DE100E49354F0FCC4540FFD2E
:040DEA00ED7001FEA9
:0B0DEE00BD0108EF240EF987048C06FD
:080DF900ED24FE500EBD0C00BC
:0B0E01005009ED24FE901A1993FCFE2E
:0C0E0C00BD0D25E57D24FDF8B6C41DEFEA
:0C0E18002438F98705EF240EF98704C385
:080E2400ED9C40048D068008DE
:080E2C00EF240EF987058D0685
:090E3400EF240BF8A606D07D2284
:060E3D00E4F54CF54AF556
:0C0E43004B7584EE758511758000C2A906
:0E0E4F0075D16075D20075D31D75D161C2AF2B
:0E0E5D00C28C5389F0438901538FF0758CFFCE
:0E0E6B00AFA25307EF8FA2D2A9D28C53B8FCCE
:0E0E790043B80CC28DD288D2A975E40075E78B
:0E0E87001D75E60375E50075E71D75E604753B
:0E0E9500E50875E71D75E60C75E50075E71DAF
:0C0EA30075E60D75E5FF75E468D2AF221E
:081A11000F1E2E3D4D5C6B7FA2
:0A1A190019334B66809AB3CCE6FF48
:0C1A2300000000000800800000080080A7
:081A2F000102040810204080B0
:081A3700FEFDFBF7EFDFBF7FAE
:041A3F000B162C58FE
:060000000200230201844E
:03000B0002018867
:03001300020FF0E9
:03001B00021020B0
:03007C0002001E61
:05001E00120EAF80FE90
:090EAF007F00C218C007C0231225
:0C0EB80019BED023D00753BDFE75985022
:0E0EC40043BAE043BD0275BF0075BE3043BDAA
:0E0ED20001759955901BFFE493901BFFE4936C
:0A0EE000AD962DFE8E96C2977E009F
:030EEA00BE320015
:0E0EED00501AC28C901D17E493F58C901D18BE
:080EFB00E493F58AC28DD28C4C
:060F0300308DFD0E80E1BF
:0C0F09007E00C007C006C02312009ED06E
:040F150023C02312C0
:050F19000E3DD023C0D5
:050F1E0023120D31D08B
:050F230023D006D007F9
:0C0F2800901D0DE493FDBDFF77201074B8
:0A0F3400E57C20E06FEE240BF98746
:0C0F3E0005EE2417F98704EDB5042EEE33
:0A0F4A002429F98705EE2417F88624
:070F540004EDB50402801C4E
:0C0F5B00EE2417F88605A70574082EF593
:0B0F670082C007C006C02312165FD036
:050F720023D006D007AA
:030F7700BE0200B7
:050F7A0050030E80028F
:020F7F007E00F2
:0C0F8100748025D1500FC007C006C023AB
:090F8D00120B51D023D006D0074D
:0A0F960030010FC007C006C023128F
:080FA0000CDCD023D006D007C1
:050FA800100802801199
:090FAD00C209C007C006C02312EE
:080FB60016B2D023D006D007CB
:080FBE00D297209712BFFF003B
:050FC60050030F801232
:060FCB00201803637C8185
:040FD100D2188008AA
:060FD500EF60031F800223
:020FDB00C2183A
:080FDD00E57C5401FDB40100A4
:0B0FE500E433FD24FF9297020F282246
:0E0FF000C0E0C0D0C2AAC28E740F5589242062
:0E0FFE00F589758B35758D80C28FD28ED2AB82
:06100C00757802C204D257
:05101200027577007576
:091017007600D203D0D0D0E03203
:0C102000C023C0E0C0F0C082C083C00745
:0E102C00C006C005C004C003C002C001C00061
:0C103A00C0D075D000E578FF24F1500311
:0310460002133D55
:07104900EF2F2F90105073F0
:0710500002107D02133D02B6
:0610570010F00211AA02D4
:06105D0011B3021228028B
:06106300133D02133D02E3
:06106900133D02133D02DD
:06106F00124C0212B40253
:06107500133D0212D80237
:02107B0013263A
:0E107D00C28E740F55892420F589758B8075FD
:0A108B008D80C28FD28EE57AB57B0E
:0310950002805185
:08109800E57B246CF98782124C
:0B10A0001423503DC2AAE5787032E531
:0A10AB007B246CF9E7FF20E50774D1
:0610B500204FF7757900E1
:0B10BB0074FC25794005121388801694
:0610C600057B537B07C20D
:0410CC000CC211122F
:0C10D000135CC28E758DF0758B00D28E03
:0510DC00D2AA02133D41
:0610E100057B537B0702B2
:0210E700133DB7
:0710E900C28ED2AA02133DE2
:0A10F000A28BB39218C28B7578032F
:0A10FA00758D00E577700A75770127
:05110400C205C2060255
:02110900133D94
:0A110B00747F2577401C301808B2ED
:0411150004E5772551
:0311190076F576F2
:05111C00E5772577F5E1
:0611210077600302133D9C
:0611270075778102133D03
:0A112D00C28EC28FA204201801B385
:0A1137005026E574700E74CCB576F6
:0311410002D205D2
:07114400740CB57602D2061F
:07114B00200513200610E54A
:05115200742455F8E5CE
:0511570076F66275054B
:03115C007480029A
:02115F00C202CA
:05116100100C02801DCE
:071166003005143002117581
:07116D007904101102800952
:07117400E5502404F550537F
:02117B00503CE6
:06117D0012135C02133D99
:0711830030021E20051B20B5
:0C118A000618740F55892410F589758D26
:0C119600FA758B70D28E757804D2AA0214
:0211A200133DFB
:0611A40012135C02133D72
:0911AA00758D8075780202133D79
:0A11B300300A64E57424FB505EC2AC
:0E11BD008E740F55892410F589758DEF758B92
:0811CB0042D28EA20F9207E54B
:0811D3005A30E71F855882C065
:0C11DB00591213D2AF821581BFFF0280B1
:0111E7000205
:0211E800D2072C
:0911EA00E558701CE5597018D29B
:0311F3000780145E
:0C11F600901D17E493FFB5580B901D18D6
:08120200E493FFB55902D20785
:09120A0074FFB57505300702D22E
:0112130008D2
:0612140075780502133D90
:08121A00E57424FE5002D20825
:0612220012135C02133DF3
:0A122800C28E74FFB5751330070A7B
:06123200D20D121388C268
:041238000C02133D54
:06123C0012135C02133DD9
:06124200D20E121388C257
:041248000C02133D44
:08124C00E5742455F987073011
:041254000D027FCC3C
:05125800300E027F0CC6
:09125D00C2AA740AB578028003EC
:0312660002133D33
:0A126900E577247F402CE5775F70E5
:0912730008D296C20BB2048002FD
:02127C00D20B93
:08127E00E5777007757701C2E6
:03128600048006DB
:05128900E5772577F573
:01128E0077E8
:07128F00E57770037577811C
:0512960075780B8013C8
:09129B00200406D296C20B800269
:0212A400D20B6B
:0612A60005747577007568
:0212AC00780DBB
:0612AE00758D1202133DD4
:0A12B400E57470077401B5770205B8
:0112BE0079B6
:0A12BF00C296A20B828B5007C20CEE
:0512C90012135C800619
:0612CE0075780A758D6EB3
:0412D400C28B8065E4
:0E12D800C296C28E740F55892410F589758D4B
:0A12E600FB758B90D28E200D0330B3
:0212F0000E05E9
:0512F20012135C802BCB
:0C12F700740F555AFF7E0074072FFFE4AF
:0C1303003EFEAC747D00C3EF9CEE6480E5
:0C130F008DF063F08095F05007D20912B9
:04131B00135C8003DC
:03131F0075780ED0
:04132200C28B8017E3
:0E132600C28E740F55892420F589758D6E7561
:091334008B80C28FD28E75780AFD
:0C133D00D203D0D0D000D001D002D003E9
:0E134900D004D005D006D007D083D082D0F0DB
:05135700D0E0D02332BC
:0A135C00757800C28BC28EC2AB751B
:0A1366007500757400C28E740F55F7
:0C137000892410F589758D89758BAFC23A
:0A137C000DC20EC28FD28ED2AAD28B
:02138600AB2298
:0E138800C28E740F55892420F589758D6E75FF
:0C1396008B80C28F740F555A2407FF751E
:0413A20075FF7E0055
:0C13A600C3EE9F500BEE2455F9E7FD62EA
:0413B200750E80F044
:0713B600EF2455F8A675C2F3
:0413BD0005C206D28D
:0513C1000C75780A75AF
:0A13C6007700757400C2AAD28ED21F
:0213D000AB224E
:0A13D200C07D85817DAF827EFF9013
:0813DC001D16E493FDBDFF00A6
:0C13E4005038200F35901D16E493602E49
:0713F000901D16E493FD1DA2
:0E13F700ED6024ED2DFC2417901D0093FBEFFC
:0C140500B5031374182C901D0093FCE537
:0A1411007D24FDF8E6B504028D0607
:03141B001D80D958
:05141E008E82D07D224A
:0A142300C07DE581F57D2404F5810C
:0C142D00AF82C2187DFE7E00EFA2E5E455
:0914390033FC24FF9219BF80006E
:05144200400302156FDC
:0C144700C005C006EF2323540124FF92CF
:0B1453001A53071F8F82C007C005C09E
:0C145E0023120834AA82AB83ACF0FED04D
:0A146A0023D005D007A87D08A602D4
:0E14740008A60308A60408A606901D11E4931E
:0E148200FE0EEF2FFD2EFC04901D0093FEB514
:0414900007028006C9
:06149400D006D005800F18
:0E149A00D006D0058C8275831DE493FCFD7E88
:0114A8000043
:0914A900BDFE06BE000302164E52
:0A14B2007555BC901D17E493FC8CE7
:0A14BC0056901D18E493FC8C57EDC8
:0C14C6002DFD2417901D0093FE8E58741D
:0A14D200182D901D0093FE8E597531
:0614DC005B00301A0575EB
:0414E2005C408003E7
:0314E600755C80B2
:0E14E900901D12E4932F2FFE2F2404901D005F
:0C14F70093FE24F95006EE24FBFE800258
:021503007E0167
:0C15050074E02EF55AEE24FE500F740620
:0A1511002E2455F9A87D088605A7D1
:03151B0005801038
:0C151E00A87D08743F56FAE4FBFCFDEACF
:04152A00255CF55CEB
:0C152E00EE24FD500E74052E2455F9A883
:07153A007D08088605A705E6
:0C154100EE24FC500F74042E2455F9A871
:08154D007D0808088605A705CA
:0C155500EE24FB501074032E2455F9A85E
:091561007D080808088606A706AB
:05156A00D21802164E2C
:0A156F007555B0901D17E493FE8E31
:0A15790056901D18E493FE8E57856E
:031583004E58853A
:0A1586004F5953071FEF24FA5003DA
:0315900002164CF4
:07159300EF2F2F90159A7352
:07159A0002164C0215AC0221
:0615A10015B80215CF028F
:0515A70015E0021646EC
:0815AC00755A6074C22554F564
:0415B4005B02164C74
:0815B800755A6374432550F5D8
:0515C0005B755C407545
:0615C5005D00755E12D20C
:0415CB001102164CA7
:0715CF007558007559007505
:0615D6005AE1755B01758E
:0415DC005C40806C83
:0215E0007F008A
:0A15E200C3EF95515042E552702C02
:0A15EC00740A2F2455F9EF255390DF
:0C15F6001C0093F7AD537E008F037C00B7
:0E160200EB2DFDEC3EFEBD601CBE0019740A0F
:081610002F2455F8A67C800F81
:0A161800740A2F2455F9EF255390B2
:051622001D0093FEF71E
:031627000F80B879
:09162A0074632551F55A74424520
:0616330050F55B74404518
:0416390051F55C8586
:03163D00525D8576
:03164000535ED224
:031643001180060D
:06164600755A60755B811E
:02164C00D218B2
:08164E0030190674DF5555F553
:01165600553E
:06165700A218857D81D080
:02165D007D22EC
:07165F00AF82C218BF40007A
:0C166600501B8F82C007C0231219A8E59A
:0C16720082D023D0075444FEBE44028006
:01167E000467
:04167F00D218802AD3
:09168300AD7A7E000DBD00010EE0
:0C168C005305077E00AB7B7C00EBB5052E
:0716980006ECB50602800E0E
:08169F00E57A246CF8A60705AA
:0516A7007A537A07D21E
:0116AC001825
:0516AD00D28EA21822FC
:0816B200C07D85817D0581C228
:0816BA0008AF5B74C35FFEADD5
:0716C2005CE558FC7034E503
:0916C900597030E57C20E00302B9
:0216D20018A856
:0E16D400EE700EBDC00BC006C00512198DD001
:0316E20005D0062A
:0516E500BE01028003BC
:0316EA000218A83B
:0616ED00ED60030218A8E5
:0916F30075828312165F0218A82B
:0816FC00E55A30E7030217D69E
:0C170400901D17E493FBECB5030280037A
:031710000218A814
:0B171300901D18E493FBB55902800301
:03171E000218A806
:05172100BE4202801829
:05172600BE4302804FEC
:05172B00BE8002806A8F
:05173000BE8102807B78
:06173500BE83030217CD84
:03173B000218A8E9
:06173E002010030218A8B0
:0C174400743C5FF5545305F0BD800D753A
:0C1750008281C00512165F1218ADD00592
:06175C00ED60030218A875
:04176200855C5185CC
:031766005D52854C
:061769005E53758281123F
:09176F00165F75828412165F02F8
:0217780018A8AF
:0B177A00743C5FF554BD800343A208DF
:06178500ED60030218A84C
:0D178B0075828112165F75828212165F0250
:0217980018A88F
:06179A003010030218A844
:0417A000D210855688
:0317A4004E855718
:0517A7004F755000C267
:0417AC00110218A866
:0717B000E556B54E0280036F
:0317B7000218A86D
:0717BA00E557B54F02800363
:0317C1000218A863
:0617C4001010030218A83A
:0317CA000218A85A
:0917CD0075828512165F0218A84E
:0617D600EE60030218A8FA
:0C17DC00C005C0598C821213D2AF8215D8
:0917E80081D005BFFF030218A81F
:0E17F100901D11E493FEF58275831DE493258F
:0D17FF00E02EFC0E74C05DFBE4BB80010415
:01180C00FBE0
:08180D00C3EE9C40030218A881
:0E1815008E8275831DE493FAEFB50202800304
:031823000218A305
:0E182600C004EE04901D0093FAF582C007C0C6
:0E18340006C005C003C0021219A8AC82D00283
:0C184200D003D005D006D007A87D08A672
:0C184E0004D004EB6031C003A87D0874D6
:08185A001456FBBB14028004CC
:04186200D003801F10
:0E186600D0038A82C007C006C005C004C003BC
:0E187400C002120354D002D003D004D005D01D
:0318820006D00786
:0C188500ED701BC002A87D08740C56FA20
:05189100BA0C02800406
:04189600D002800EEE
:09189A00D0028A8212082980059F
:0518A3000E0E02180DFD
:0518A8001581D07D2236
:0A18AD00C07DE581F57D2404F5817E
:0818B700A87D08740F555CF6D2
:0A18BF00E57870FCC2AF75E400AEDE
:0A18C9005EAD5D74015D241CFCA8F7
:0518D3007D080876000D
:0A18D800A87D0808A97D09C3E69762
:0518E200400302198221
:0C18E700ED7030C0048E027C00A87D086B
:0E18F3000886037F00EB2AFAEF3CFCBA600582
:05190100BC000280049F
:04190600D004801079
:0A190A00D004A87D0808740A262402
:0619140055F9877C8002FA
:02191A008CE758
:0A191C00A87D0808E62EF5E6A87D78
:0C1926000808740A262455F987E58E0392
:0A1932007F00A87D0808E57D24036E
:0C193C00F9E6F7097700E57D2403F8E6E2
:0E1948002BFB08E63F53033F7F00BB3F25BF4C
:0C1956000022A87D0886037F001BBBFF59
:02196200011F63
:0C196400E57D2403F8E6B5030708E6B5AE
:0419700007028006E4
:0619740075E46875E40053
:08197A00A87D0808060218D838
:0A19820075E468D2AF857D81D07D49
:01198C002238
:0C198D00E57870FCC2AF75E40075E71D42
:0A19990075E617855DE5855EE575CE
:0519A300E468D2AF2250
:0E19A800AF82901D12E493FE0E0E0EEF2E2F56
:0819B6002F901D0093F5822221
:0E19BE0075950075911475924CC2967589212D
:0E19CC00758F00C28CC28E758D80758B80C2A7
:0C19DA008FC20375A88075E80075B80482
:0A19E60075B70CD28A757C2EC2057D
:0519F000C206C20DC299
:0419F5000EC208D244
:0519F9000A757A00757B
:0619FE007B00755000C2E1
:041A040011C210C239
:051A08000F12135C2227
:06005200E478FFF6D8FD82
:080030007900E94400601B7A2D
:0500380000901A43785E
:03003D000075A0AB
:0A00400000E493F2A308B8000205E3
:08004A00A0D9F4DAF275A0FF61
:080058007800E84400600A7919
:030060000075A088
:0600630000E4F309D8FCE3
:080069007800E84400600C7906
:0B00710000900000E4F0A3D8FCD9FAD6
:0300230075817D67
:0A002600121A0DE582600302001EAD
:041A0D0075820022BC
:00000001FF
