:0400000002002332A5
:03000B00020C36AE
:030013000211488F
:03001B0002117857
:03007C0002001E61
:05001E0012007F80FECE
:0A007F007F00C218E5A7C007C023E8
:08008900121B1BD023D00775E8
:0C0091000F0175C1FFC2AF75A7E575C275
:0E009D00A575C35AD2AFC2AF43A70475C2A562
:0900AB0075C35AD2AFC2977E0062
:0300B400BE320059
:0E00B700501AC28C901D17E493F58C901D1802
:0800C500E493F58AC28DD28C90
:0600CD00308DFD0E80E104
:0800D300C007C023120E63D028
:0A00DB0023D007C219901CFEE49325
:0200E500F52CF8
:0E00E700C2AF75C2A575C35AD2AF748025D1C1
:0B00F500502B75D161200F0DC007C01B
:0501000023120C55D094
:0501050023D007801863
:0A010A00E576249140040576800E8E
:0B011400758285C007C0231217B9D008
:03011F0023D007E3
:0A012200E524FE5401FD24FF921AAB
:04012C004002C219B2
:0C013000E57530E04D740F5580FDBD0EEC
:0A013C00157402252C400FA21AE4EE
:0A01460033FDBD0107201904052C4C
:02015000D219C2
:0A015200740F5580FDBD0D028003FF
:03015C000202B9E3
:09015F00E52C24FE40030202B964
:0A016800A21AE433FDBD010280037A
:030172000202B9CD
:060175003019030202B97B
:05017B00152CD2190251
:0201800002B9C2
:0B018200901D0DE493FDBDFF02800303
:03018D000202B9B2
:06019000300F030202B96A
:08019600E57530E0030202B937
:0A019E00740F5580FDB5280280158E
:0C01A800740F5580F582C007C006C0230C
:0901B400120376D023D006D00717
:0C01BD00901DFCE493FD20E7030202B952
:0A01C9007401B50F1DC202C007C08B
:0701D30006C023121011D039
:0901DA0023D006D0073002030215
:0201E30002B95F
:0601E500750F020202B9D1
:0A01EB007402B50F1AC007C006C069
:0501F50023120FECD005
:0A01FA0023D006D00740030202B92B
:06020400750F030202B9B0
:07020A007403B50F0280032D
:030211000202B92D
:0A021400C202758200C007C006C0D8
:06021E002312102385826B
:0502240008858309D0EC
:0902290023D006D00730020302C5
:0202320002B90F
:0A023400AC08AD09BCFF05BDFF02D8
:02023E0080340A
:0E024000901DFDE493FD3395E0FCC007C00661
:0C024E00C023C005C00490000A121B6A07
:0C025A00AC82AD8315811581D023D00645
:09026600D007EC2508F50AED357E
:05026F0009F50B8005FC
:05027400E4F50AF50BA2
:07027900750F00850A828564
:090280000B83C007C006C0231265
:0C02890009CAAC82AD83D02378F4A6042F
:0D02950008A605901DFCE493FD74075DF5BF
:0802A2003E901DFBE493FD8D6D
:0702AA003575820CC0231220
:0802B10017B9D023D006D007D5
:0C02B9007D00EEA2E3E43324FF921A7CE7
:0102C5000038
:0302C600BC040075
:0E02C900502D74E32C901D0093235401F4FB80
:0C02D700A21AE433FA420374042CF5F080
:0502E30005F0EB8002B4
:0202E80025E00F
:0E02EA00D5F0FBFB8D02EA42038B050C80CEA3
:0602F800ED5529F52A2056
:0502FE00070330080FAA
:07030300C208C007C023126D
:08030A00180CD023D007800A73
:020312007E6407
:080314008E051D8D06EE70F848
:08031C00D29720972ABFFF00D1
:0503240050030F802AC8
:060329002018036375813A
:0A032F00D218E57520E01DC2AF757D
:0C033900E40075E71C75E6FE852CE575F8
:06034500E468D2AF80085D
:06034B00EF60031F8002B9
:02035100C218D0
:0A035300E57530E007A21A92970248
:02035D0000E7B7
:0C035F00901DE2E493C45401FEB40100C0
:0B036B00E433FE24FF92970200E7221B
:06037600AF82AE2B7D00FA
:06037C00EEB52B02800328
:030382000DAE2B92
:0E038500ED243750F2740F5580FEB507537EFD
:010393000069
:03039400BE0400A4
:0A039700504A8EF005F07401800258
:0203A10025E055
:0C03A300D5F0FBFD5F601BED55287016C7
:0C03AF00C2F0C007C006C00585F0238E18
:0A03BB00821203E6D005D006D00739
:0C03C500ED5F7017ED55286012D2F0C0FB
:0C03D10007C00685F0238E821203E6D0E0
:0303DD0006D00740
:0303E0000E80B1DB
:0203E3008F2861
:0103E50022F5
:0A03E600C014858114C0820581A8AF
:0A03F0001408087600A81408E6259A
:0C03FA00E025E0FD24E9901D0093FCC20A
:0804060019A8140874E3269004
:0C040E001D0093FB530307BB0102801587
:06041A00BB02030205FA1B
:06042000BB030302077993
:06042600BB040302083DC7
:03042C000209C4FE
:0C042F00A8140874E326901D0093A2E3BB
:0C043B00E43324FF921A74E82D901D0099
:0A044700935401FB24FF921B3018B0
:0704510058301A03301B14A0
:0D04580074E72D901D009323235403FBA88F
:0704650014080874035BF6A4
:06046C00201A030205172F
:0E04720074E72D901D0093FB740C5B4480FB1F
:0A048000A8140808EB46F6A81408BB
:0B048A00740426FB242DF974E82D906B
:0C0495001D0093C313FAF7EB2436F87631
:0904A10000EB243FF87690806D19
:0604AA00301A03301B13A1
:0C04B00074E72D901D0093C4540FFBA8AE
:0704BC0014080874035BF64D
:0A04C300301A3FA814087404262420
:0704CD003FF98703BBA0000B
:0E04D400401774E72D901D0093540325E0257A
:0B04E200E0FBA8140808EB46F68018A9
:0C04ED00201B1574E72D901D0093C454D3
:0C04F9000FFB530303A8140808EB46F6A1
:0A050500A81408740426FB242DF846
:08050F007600EB243FF87600B2
:09051700A81408740426FB7D0001
:08052000ED24FD50030209C4A3
:0C052800A8140808740356FFBF010280ED
:010534000ABC
:05053500BF0202800975
:05053A00BF032F800843
:04053F00D219802924
:04054300C219802534
:0C054700C003ED2D25E0FBA81408EB26F6
:0E055300F582C005120A2CAA82AEF0FFD00578
:0B056100EA5401FA24FFB39219D00302
:0A056C00A8140808E654036076A204
:0C05760019E433FE7F00ED2D25E0FAA80B
:0C0582001408EA26F582C005C003C00280
:0C058E00C023C006C007120A6B158115BF
:0A059A0081D023D002D003D005A8C1
:0A05A400140808E630E50CEB243FD4
:0905AE00F9870774014FF780166C
:0C05B700A81408EA26F582C005C003C0A5
:0505C300231217B9D05E
:0505C80023D003D00563
:0C05CD00ED701BA21992F0C005C003C025
:0505D9002385F023A8BA
:0805DE0014088682120B84D080
:0505E60023D003D00545
:0C05EB00A8140808E60303543FF60D0DA9
:0305F700020520DA
:0C05FA0074E72D901D0093FF5307302084
:0506060018030206AF1D
:0E060B0074E72D901D0093FE30E215C2F0C082
:0A06190007C00585F023A814088629
:0806230082120B84D005D00700
:0A062B00A81408740426FE242DF91B
:0D06350074EA2D901D0093C313FBF7EE2413
:0C06420036F974E72D901D0093FE74073C
:0C064E005EF7BF201EC005A8140874044D
:0E065A0026F582120A2CAA82AB83FEEAD00596
:0706680030E3047F30800243
:02066F007F10FA
:0A067100BF1019A814087404262411
:0C067B003FF974E82D901D009354F0C46A
:06068700540FFE2428F7C9
:05068D00BF30028003F4
:030692000209C496
:0A069500A81408740426243FF97429
:0E069F00E82D901D0093FE740F5E2420F702DC
:0206AD0009C47E
:0A06AF00A81408740426243FF987FC
:0C06B900065306F0BE2071BF2019A814E3
:0E06C500088682120A2CAF82AE83ADF0FCEFE5
:0706D30030E0047F308002DB
:0206DA007F108F
:0C06DC00BF102A7401C0E0E4C0E0A814C4
:0C06E800088682120A6B15811581A81487
:0C06F4000886821217B9D2F085F023A806
:0907000014088682120B84805B50
:0B070900E4C0E0C0E0A81408868212E3
:0C0714000A6B15811581A814088682125A
:0807200017B9C2F085F023A80F
:0907280014088682120B84803350
:0A073100A81408E625E0FF24ECF907
:0C073B00EF24ECF8860608860753060839
:0E0747007F00A70609A70774E72D901D0093F9
:0C075500FF30E70BA81408740826F5829A
:030761001217B9B3
:0A076400A81408740426FF242DF8E1
:0B076E007600EF243FF876000209C47B
:0B07790030187974E72DFFF5827583BE
:0C0784001DE4935410C4540FFE7B00C011
:0C07900007C005C004C006C003A8140880
:0C079C008682120A6B15811581A81408D2
:0B07A80086821217B9D2F085F023A85A
:0C07B30014088682120B84D004D005D0FC
:0A07BF0007A81408740426FE242D78
:0B07C900F8A604EE2436F974E82D9029
:0C07D4001D0093C313FB74075BF7EE24B9
:0A07E0003FF98F8275831DE49354E6
:0B07EA0010C4540FFF2430F70209C4B4
:0A07F500A81408740426243FF987B5
:0407FF0007BF4000F0
:0E080300402A74E72D901D00935410C4540F2A
:0C081100FF7E00C007C006A81408868205
:0C081D00120A6B15811581A81408868250
:060829001217B90209C418
:0A082F00A81408740426243FF8768C
:04083900000209C4EC
:0E083D0074E72D901D0093C4035407FF53076A
:06084B0007BF000280154A
:06085100BF02030208F3E0
:06085700BF030302093695
:06085D00BF04030209992B
:030863000209C4C3
:0A086600301822A81408740426FFBD
:0C087000242DF9901DEAE493C313FEF759
:0A087C00EF2436F87600EF243FF871
:0508860076500209C4D8
:0A088B00A81408740426243FF9871E
:0B08950007BF5023A81408E625E0244C
:0C08A000ECF9ECC313FF7E00A70709A7CA
:0A08AC0006D2F085F023A814088698
:0608B60082120B84801782
:0A08BC00A81408E625E024ECF9EC8E
:0D08C600C313FF4307807E00A70709A706A4
:0C08D300A81408740826F5821217B9A8B2
:0A08DF001408740426FF243FF87685
:0A08E90000EF242DF876000209C488
:0608F3002018030209C4F5
:0A08F900A81408E625E024ECF98CB1
:0E090300068E077E0074EA2D901D00937A0088
:0C0911002EFEEA3FFFA70609A707A81466
:0D091D0008740826F5821217B9D2F085F093
:07092A0023A81408868212C5
:050931000B840209C463
:060936002018030209C4B1
:0A093C00A81408E625E024ECF98C6D
:0E094600068E077E0074EA2D901D00937B0044
:0E0954002EFEEB3FFFC001C006C00790000A58
:0E096200121B6AAE82AF83158115818E828FC3
:0E097000831209CAAE82AF83D001A70609A781
:0C097E0007A81408740826F5821217B9A7
:0A098A00D2F085F023A8140886823D
:05099400120B84802B12
:0A099900301828A81408E625E02411
:0A09A300ECF97F00A70409A707A8DC
:0C09AD001408740826F5821217B9D2F065
:0909B90085F023A81408868212BF
:0209C2000B84A4
:0609C400851481D014220D
:0A09CA00AE82E583FF20E71C7D00EC
:0E09D400C374FF9E74878FF063F08095F0501F
:0C09E20038EFA2E713CE13CEFF0D80E625
:0209EE007C008B
:0E09F000C3EF648094785016EFA2E713CE1385
:0E09FE00CEFF8E028F034303808A068B070C08
:020A0C0080E286
:0D0A0E008E028F035303878A068B07800238
:020A1B008D0448
:0E0A1D00ECC40354F8FDE44EF582ED4FF58372
:010A2B0022A8
:050A2C00AF82BF0800CD
:0A0A3100501F8FF005F0E510800261
:020A3B00C313E3
:0E0A3D00D5F0FB5401FE7D007C007B008E8214
:070A4B008D838CF0EB801895
:0C0A5200EF24F825E024ECF98706098762
:0C0A5E00077D007C008E828F838DF0EC01
:010A6A002269
:0A0A6B00C014858114AF82BF08009B
:0C0A7500502FE51424FCF8E6084670132E
:080A81008FF005F07401800202
:020A890025E066
:090A8B00D5F0FBF4FE52108026A8
:080A94008FF005F074018002EF
:020A9C0025E053
:080A9E00D5F0FBFE42108014AC
:0A0AA600EF24F825E0FF24ECF8E54A
:0A0AB0001424FCF9E7F60809E7F644
:030ABA00D0142233
:050ABD00AF82BF0C0038
:050AC2004003020B6778
:0E0AC700901D12E493FEEF75F003A42E24049C
:0C0AD500901D0093FE24F9401C743F5556
:0C0AE10055FD7C00C007C006C005C00425
:0D0AED008F82120A6B15811581D006D0078B
:0C0AFA00BE0719AC567D00C007C006C046
:0E0B060004C0058F82120A6B15811581D0067E
:020B1400D00708
:0A0B1600BE081FAD577E00AB568BE2
:0E0B200004E42DFDEC3EFEC007C005C0068FAC
:0A0B2E0082120A6B15811581D007B1
:030B3800BF0400F7
:0E0B3B00503BEF2F25E024E3901D0093C4549F
:0A0B49000FFE530607BE04028025CC
:0A0B5300E555540124FF921892F0BA
:0A0B5D0085F0238F82120B848011B3
:070B6700BF0D0E85562CAEF8
:0A0B6E002C7F0078F6A60608A60703
:010B7800225A
:0B0B7900AF8274402FF5821217B922E2
:050B8400AF82BF040078
:050B89004003020C35E1
:0E0B8E0074E32F901D0093C45407FE24F94019
:080B9C0065EE2E2E900BA473F0
:070BA400020BB9020BBD02B8
:060BAB000C02020C020224
:060BB1000BC1020BE30280
:020BB7000BE34E
:040BB900C218804599
:040BBD00D218804189
:0A0BC100D218EF243FF87610EF245D
:090BCB0036F87601EF242DF990B3
:0E0BD4001DE2E493C4540FC40354F8FDF780EF
:010BE2001FF3
:0E0BE3008F047D0074042CFCE43DFD8CF005B5
:050BF100F0E510800298
:020BF600C31327
:0A0BF800D5F0FB5401FC24FF921815
:080C0200530603BE0302B21801
:0C0C0A00AE29EF2404FF8FF005F0740108
:020C160080025A
:020C180025E0D5
:0C0C1A00D5F0FBF45206A218E433FD8F65
:060C2600F005F0ED800274
:020C2C0025E0C1
:070C2E00D5F0FBFF4EF52994
:010C3500229C
:0A0C3600C0E0C0D0052BC28DC3E55D
:080C40002C952B4008740F45B0
:050C48002AF580800385
:030C4D0075800FA0
:050C5000D0D0D0E0321D
:0D0C550075D16075D20775D33375D1610577
:060C620024E4B5240205A4
:010C68002566
:0A0C6900E52424FFFEE52534FFFF1B
:0A0C7300EEF4FEEFF4FFEE5524F559
:050C7D0026EF5525F5EE
:030C8200277F00C9
:030C8500BF10009D
:090C88005035E52630E0227E0023
:030C9100BE090099
:0C0C9400501BEE242DF9E7FD6010EE244B
:0C0CA00036F8860453040FECB50703ED92
:020CAC0014F73B
:030CAE000E80E0D5
:080CB100E527C313C52613C596
:060CB90026F5270F80C69E
:020CBF007F00B4
:030CC100BF080069
:050CC4004003020E5781
:0A0CC900EF242DF9E76003020E533B
:0C0CD300EF243FF88606740F5EFD74F0FD
:070CDF005EFCBC1002803D29
:050CE600BC200280604B
:060CEB00BC3003020DB451
:060CF100BC4003020E33BB
:060CF700BC5003020E399F
:060CFD00BC6003020E536F
:060D0300BC9003020E3D4E
:060D0900BCA003020E5322
:060D0F00BCB003020E530C
:060D1500BCC003020E53F6
:050D1B00BCF002803174
:030D2000020E536D
:030D2300BF04000A
:050D26004003020E5322
:0C0D2B00AC2974042FF5F005F074018071
:010D370002B9
:020D380025E0B4
:0C0D3A00D5F0FBF4FB5204740F4CF529BB
:050D46007600020E53CF
:060D4B00860474D04CF692
:0E0D51008D037C0074042FFAC007C002C0039B
:0E0D5F00C0048A82120A6B15811581D0028AA7
:0E0D6D00821217B9D007EF24FC25E025E02400
:0C0D7B00E9901D0093FC30E021EF242DD6
:0E0D8700FCEF24FC25E025E024E9901D0093FC
:0C0D9500C313FBA804A603EF2436F87675
:040DA10000020E53EB
:0A0DA500EF242DF87600EF243FF84C
:050DAF007600020E5366
:0E0DB4005305017C0074042FFBC007C003C070
:0E0DC20005C0048B82120A6B15811581D003C7
:0C0DD0008B821217B9D007EF242DFDEF25
:0E0DDC0024FC25E025E0FC24EA901D0093FB9A
:0C0DEA00A805A603EF2436FB74E82C904B
:0E0DF6001D0093C4035407FC74075CA803F6A9
:0C0E0400A805E6601EEF243FFCEF24FC74
:0E0E100025E025E024E7901D00935410C45403
:090E1E000FFB2440A804F6802C0F
:0C0E2700A8057600EF243FF8760080203C
:060E330076007700801A32
:040E39007660801649
:0E0E3D00EE30E00C74042FF582C0071217B9D6
:020E4B00D007CE
:060E4D00EF243FF876A03F
:040E53000F020CC1BD
:090E5700E5357007E50F70037525
:020E60000F0180
:010E6200226D
:020E63007F000E
:030E6500BF0400C7
:050E68005020BF08004E
:0A0E6D0050188FF005F074018002A8
:020E770025E074
:0E0E7900D5F0FBFE74FFC39EFE5284EE528540
:030E87000F80DBFE
:020E8A007F04E3
:030E8C00BF08009C
:0E0E8F00E433FE601DEE60178FF005F0740175
:020E9D008002D1
:020E9F0025E04C
:0D0EA100D5F0FBFE74FFC39E5284EE428527
:030EAE000F80DBD7
:0B0EB10075800F75280F75D181E4F5E6
:0A0EBC0024F525C2AF75E40075E7C8
:0E0EC6001D75E60375E50075E71D75E60475FC
:0E0ED400E54C75E71D75E60C75E50075E71D2C
:0B0EE20075E60D75E5FF75E4687F0004
:030EED00BF0D0036
:0E0EF0005015C007E4C0E0C0E08F82120A6B0C
:090EFE0015811581D0070F80E673
:020F07007F0069
:030F0900BF08001E
:0A0F0C00500FEF242DF87600EF24BB
:070F16003FF876000F80ECAC
:0C0F1D00752900C28C5389F043890275CD
:0E0F29008C47758A47D28C53B8FC43B80C53E2
:0C0F3700B7F443B704D2A9C28DD2AF2298
:081B90003F7DBCFA1926325E0C
:0A0F4300D218C2917582D2C02312A9
:080F4D001136D023D2917FFF81
:0A0F5500A291821892188F061E8EDA
:090F5F0007EF70F2B218A218228B
:040F6800AF827E01D5
:050F6C00BE0002803907
:060F7100EE5F601E7D0032
:030F7700BD0200B8
:070F7A005005C2910D80F645
:0E0F8100D291758217C007C006121136D00635
:040F8F00D0078012F5
:0E0F9300C291758219C007C006121136D00631
:040FA100D007D29112
:050FA500EE2EFE80C2EB
:010FAA002224
:040FAB007F007E0144
:050FAF00BE00028035C8
:020FB4007D00BE
:030FB600BD020079
:070FB9005005C2910D80F606
:0E0FC000D291758201C007C006121136D0060C
:080FCE00D007309103EE420749
:0E0FD60075820DC007C006121136D006D00776
:050FE400EE2EFE80C6A8
:030FE9008F8222D2
:020FEC007F0084
:030FEE00BF02003F
:070FF1005005C2910F80F6CC
:0C0FF800D291758201121136A29192185C
:0910040075820DC023121136D0D3
:04100D0023A21822E0
:0E101100120F43500C7582CC120F687582448A
:03101F00120F6845
:0110220022AB
:0A102300C01485811405810581AF1A
:0D102D0082C007120F43D0074003021120BC
:0E103A007582CCC007120F687582BE120F6857
:0E104800120FABAE82C006120FABAD82D00607
:07105600D007E4BF01010413
:0D105D00FF6038C007C006C005120FAB12BF
:06106A000FAB120FAB12E8
:0E1070000FAB120FABAC82D005D006D00753E9
:0E107E0005F8EEC4035407FB2DFDEEC4035429
:0C108C00F8FE5306F07410C39CFC2EFE0E
:0E10980074805DFC8D03E4FDFAEE2DFDEA3B55
:0B10A600FBEC6007C3E49DFDE49BFB36
:0E10B100C004C007C005C004C003C005C003D2
:0E10BF00900006121B6AAA82AE83158115816D
:0C10CD00D003D004D005D007A81408A65A
:0E10D9000208A606EBC313CD13CDC313CD132F
:0C10E700CDFBA814088604088606ED2C3A
:0C10F300FDEB3EFBA81408A60508A603B0
:0C10FF00D004EF600CA81408E624E7F60B
:05110B0008E634FFF6C8
:0C111000EC6015A81408C3E496F608E48F
:04111C0096F68008BB
:08112000A8140876FF0876FF11
:0A112800A814088682088683851447
:0411320081D0142232
:02113600AF8286
:07113800EF60047E0180025C
:02113F007E0030
:06114100EE60031F80F1C7
:011147002285
:081B9800010204081020408046
:0E114800C0E0C0D0C2AAC28E740F5589242008
:0E115600F589758B35758D80C28FD28ED2AB28
:06116400757102C203D206
:05116A00017570007525
:09116F006F00D202D0D0D0E032B2
:0C117800C023C0E0C0F0C082C083C007EC
:0E118400C006C005C004C003C002C001C00008
:0C119200C0D075D000E571FF24F15003BF
:03119E0002149B9D
:0711A100EF2F2F9011A8733E
:0711A8000211D502149B02A5
:0611AF00124802130802C1
:0611B50013110213860273
:0611BB00149B02149B02CC
:0611C100149B02149B02C6
:0611C70013AA021412023B
:0611CD00149B021436021F
:0211D300148482
:0E11D500C28E740F55892420F589758B8075A4
:0A11E3008D80C28FD28EE573B574C3
:0311ED000280512C
:0811F000E5742465F987821201
:0B11F8001581503DC2AAE5717032E580
:0A120300742465F9E7FF20E5077485
:06120D00204FF77572008E
:0B12130074FC257240051214E68016E2
:06121E000574537407C2C1
:041224000BC21012D7
:0C12280014BAC28E758DF0758B00D28E4A
:05123400D2AA02149B88
:0612390005745374070266
:02123F00149BFE
:07124100C28ED2AA02149B29
:0A124800A28BB39218C28B757103DC
:0A125200758D00E570700A757001DB
:05125C00C204C20502FE
:02126100149BDC
:0A126300747F2570401C301808B29B
:04126D0003E5702500
:031271006FF56FA7
:05127400E5702570F596
:0612790070600302149BEB
:06127F0075708102149B52
:0A128500C28EC28FA203201801B32D
:0A128F00502CE56D700E74CCB56FA5
:0312990002D2047A
:07129C00740CB56F02D205CE
:0712A300200419200516E5E7
:0812AA006D24E94010E56D24FC
:0612B2004EF8E56FF66244
:0512B8006E056D8002CF
:0212BD00C2016C
:0512BF00100B02801D70
:0712C4003004143001117524
:0712CB0072041010028009FB
:0712D200E5492404F549532E
:0212D900493C8E
:0612DB001214BA02149B7C
:0712E10030011E20041B2058
:0C12E8000518740F55892410F589758DC8
:0C12F400FA758B70D28E757104D2AA02BC
:02130000149B3C
:061302001214BA02149B54
:09130800758D8075710202149BC1
:0A131100300964E56D24FB505EC254
:0E131B008E740F55892410F589758DEF758B32
:0813290042D28EA20E9206E5ED
:081331005330E71F855182C013
:0C13390052121530AF821581BFFF0280F8
:0113450002A5
:02134600D206CD
:09134800E551701CE5527018D249
:03135100068014FF
:0C135400901D17E493FFB5510B901D187D
:08136000E493FFB55202D2062E
:0913680074FFB56E05300602D2D7
:011371000774
:0613720075710502149BD9
:08137800E56D24FE5002D207CE
:061380001214BA02149BD6
:0A138600C28E74FFB56E1330060A24
:06139000D20C1214E6C2AB
:041396000B02149B97
:06139A001214BA02149BBC
:0613A000D20D1214E6C29A
:0413A6000B02149B87
:0813AA00E56D244EF9870730C0
:0413B2000C027FCCDE
:0513B600300D027F0C68
:0913BB00C2AA740AB57102800394
:0313C40002149B75
:0A13C700E570247F402CE5705F7094
:0913D10008D296C20AB2038002A0
:0213DA00D20A35
:0813DC00E5707007757001C295
:0313E4000380067D
:0513E700E5702570F522
:0113EC007090
:0713ED00E5707003757081CB
:0513F40075710B801370
:0913F900200306D296C20A80020C
:02140200D20A0C
:06140400056D7570007516
:02140A00710D62
:06140C00758D1202149B15
:0A141200E56D70077401B570020566
:01141C00725D
:0A141D00C296A20A828B5007C20B90
:051427001214BA80065A
:06142C0075710A758D6E5A
:04143200C28B806584
:0E143600C296C28E740F55892410F589758DEB
:0A144400FB758B90D28E200C033054
:02144E000D058A
:051450001214BA802B0C
:0C145500740F5553FF7E0074072FFFE456
:0C1461003EFEAC6D7D00C3EF9CEE64808D
:0C146D008DF063F08095F05007D208125B
:0414790014BA80031E
:03147D0075710E78
:04148000C28B801784
:0E148400C28E740F55892420F589758D6E7502
:091492008B80C28FD28E75710AA5
:0C149B00D202D0D0D000D001D002D0038B
:0E14A700D004D005D006D007D083D082D0F07C
:0514B500D0E0D023325D
:0A14BA00757100C28BC28EC2AB75C3
:0A14C4006E00756D00C28E740F55A6
:0C14CE00892410F589758D89758BAFC2DB
:0A14DA000CC20DC28FD28ED2AAD22E
:0214E400AB2239
:0E14E600C28E740F55892420F589758D6E75A0
:0C14F4008B80C28F740F55532407FF75C6
:041500006EFF7E00FC
:0C150400C3EE9F500BEE244EF9E7FD6291
:041510006E0E80F0EB
:07151400EF244EF8A66EC2A1
:04151B0004C205D22F
:05151F000B75710A7557
:0A1524007000756D00C2AAD28ED2CD
:02152E00AB22EE
:0A153000C014858114AF827EFF9085
:08153A001D16E493FDBDFF0046
:0C1542005038200E35901D16E493602EEA
:07154E00901D16E493FD1D42
:0E155500ED6024ED2DFC2417901D0093FBEF9C
:0C156300B5031374182C901D0093FCE5D8
:0A156F001424FDF8E6B504028D0611
:031579001D80D9F9
:05157C008E82D0142254
:0A158100C014E581F5142404F5817F
:0C158B00AF82C2187DFE7E00EFA2E5E4F6
:0915970033FC24FF9219BF80000F
:0515A00040030216CD1E
:0C15A500C005C006EF2323540124FF9270
:0B15B1001A53071F8F82C007C005C03F
:0C15BC0023120A2CAA82AB83ACF0FED0F4
:0A15C80023D005D007A81408A602DE
:0E15D20008A60308A60408A606901D11E493BF
:0E15E000FE0EEF2FFD2EFC04901D0093FEB5B5
:0415EE00070280066A
:0615F200D006D005800FB9
:0E15F800D006D0058C8275831DE493FCFD7E29
:0116060000E3
:09160700BDFE06BE00030217A897
:0A161000754EBC901D17E493FC8C8E
:0A161A004F901D18E493FC8C50ED76
:0C1624002DFD2417901D0093FE8E5174C4
:0A163000182D901D0093FE8E5275D8
:06163A005400301A057592
:04164000554080038E
:0316440075558059
:0E164700901D12E4932F2FFE2F2404901D00FF
:0C16550093FE24F95006EE24FBFE8002F8
:021661007E0108
:0C16630074E02EF553EE24FE500F7406C8
:0A166F002E244EF9A814088605A7E2
:03167900058010D9
:0C167C00A81408743F56FAE4FBFCFDEAD9
:041688002555F5559A
:0C168C00EE24FD500E74052E244EF9A82B
:071698001408088605A705F0
:0C169F00EE24FC500F74042E244EF9A819
:0816AB00140808088605A705D4
:0C16B300EE24FB501074032E244EF9A806
:0916BF0014080808088606A706B5
:0516C800D2180217A872
:0A16CD00754EB0901D17E493FE8ED9
:0A16D7004F901D18E493FE8E50851D
:0316E100475185E9
:0A16E400485253071FEF24FA500389
:0316EE000217A63A
:0716F100EF2F2F9016F87394
:0716F8000217A602170A0207
:0616FF00171602172D0270
:05170500173E02179ED3
:08170A0075536074C2254DF512
:04171200540217A6C0
:0817160075536374432549F586
:05171E005475554075F3
:061723005600755712D2BA
:04172900100217A6ED
:07172D0075510075520075B3
:0617340053E1755401753C
:04173A00554080682E
:02173E007F002A
:0A174000C3EF954A503CE54B7026BC
:0A174A00740A2F244EF87600AD4C0F
:0E1754007E008F037C00EB2DFDEC3EFEBD60A1
:0B1762001CBE0019740A2F244EF8A6CC
:03176D0075800F75
:0A177000740A2F244EF9EF254C9067
:05177A001D0093FEF7C5
:03177F000F80BE1A
:091782007463254AF553744245D5
:06178B0049F554744045CD
:041791004AF555853B
:031795004B56852B
:031798004C57D2D9
:03179B00108008B3
:07179E00755360755481C210
:0117A5000F34
:0217A600D21857
:0817A80030190674DF554EF5FF
:0117B0004EEA
:0617B100A218851481D08E
:0217B7001422FA
:0717B900AF82C218BF40001F
:0C17C000501B8F82C007C023121B05E5E0
:0C17CC0082D023D0075444FEBE440280AB
:0117D800040C
:0417D900D218802A78
:0917DD00AD737E000DBD00010E8C
:0C17E6005305077E00AB747C00EBB505DA
:0717F20006ECB50602800EB3
:0817F900E5732465F8A607055D
:0518010073537307D2D0
:0118060018C9
:05180700D28EA21822A0
:0A180C00C014E581F5142404F581F1
:09181600C207AF5474C35FFEA8C1
:05181F001408A655E5C8
:0918240051FC7036E5527032E50A
:07182D007520E003021AE43C
:0C183400EE700DA81408B6C007C0061224
:041840001AEAD006CA
:05184400BE010280035B
:03184900021AE49C
:09184C00A81408E66003021AE486
:091855007582831217B9021AE42E
:08185E00E55330E703021A2FE5
:0C186600901D17E493FBECB50302800317
:03187200021AE473
:0B187500901D18E493FBB552028003A5
:03188000021AE465
:08188300757600BE4202801BD5
:06188B00BE43030219C375
:06189100BE80030219E90C
:06189700BE8103021A0BE2
:06189D00BE8303021A24C1
:0318A300021AE442
:0618A600200F03021AE40A
:0A18AC00743C5FF54DA81408E654E3
:0A18B600F0F6A81408B680028003C3
:0318C0000219A268
:0C18C3007582811217B9E556FB70030214
:0218CF0019A25C
:0518D100740F5555FFE6
:0A18D600E57170FCC2AF75E400AECE
:0A18E0005774015B241CFCA81408D7
:0318EA000876007D
:0C18ED00A8140808C3E69F400302199DE0
:0C18F900EB703CC003E5142403F8A606C5
:0C190500087600A814080886027D00E5A2
:0C191100142403F8EA26FAED0836FDBAAB
:07191D006005BD000280041B
:04192400D00380105C
:0A192800D003A8140808740A26244E
:061932004EF987758016D6
:0B1938008CE7A8140808E62EF5E6A8CE
:0A194300140808740A26244EF987E0
:01194D00E5B4
:0A194E008E027D00A8140808E514BD
:0C1958002403F9E6F7097700E5142403E6
:0E196400F8E62AFA08E63D53023F7D00BA3F3E
:0D19720022BD001F8F027D001ABAFF011D6B
:0C197F00E5142403F8E6B5020708E6B5FD
:04198B0005028006CB
:06198F0075E46875E40038
:08199500A8140808060218ED71
:05199D0075E468D2AF03
:0919A200A81408E66003021AE42F
:0419AB0085554A858F
:0319AF00564B850F
:0619B200574C7582811202
:0919B80017B97582841217B902F7
:0219C1001AE426
:0A19C300743C5FF54DA81408B680CF
:0419CD000343A20826
:0919D100A81408E66003021AE400
:0D19DA007582811217B97582821217B90249
:0219E7001AE400
:0619E900300F03021AE4B6
:0419EF00D20F854F3F
:0319F300478550D5
:0519F60048754900C224
:0C19FB001075D16075D20B75D3B375D197
:041A070061021AE47A
:071A0B00E54FB5470280031F
:031A1200021AE4D1
:071A1500E550B54802800313
:031A1C00021AE4C7
:051A1F00C20F021AE4F1
:091A24007582851217B9C20F0288
:021A2D001AE4B9
:061A2F00EE6003021AE460
:0C1A3500C0528C82121530AF821581BFA8
:051A4100FF03021AE49E
:0E1A4600901D11E493FEF58275831DE4932537
:0C1A5400E02EFD0EA8140874C056FCE43F
:041A6000BC80010441
:011A6400FC85
:081A6500C3EE9D4003021AE4E8
:0E1A6D008E8275831DE493FBEFB50366EE04D5
:0E1A7B00901D0093FBF582C007C006C005C099
:0E1A890004C003121B05AA82D003D004D005AE
:0E1A9700D006D007EC602EC00474145AFCBCBC
:041AA50014028004A3
:041AA900D004801FC6
:0E1AAD00D0048B82C007C006C005C004C00371
:0E1ABB00C002120ABDD002D003D004D005D064
:031AC90006D0073D
:0C1ACC00A81408E6700D53020CBA0C0CB4
:071AD8008B82120B798005DF
:051ADF000E0E021A6565
:061AE400851481D01422DC
:0C1AEA00E57170FCC2AF75E40075E71DEB
:0A1AF60075E6178556E58557E5757E
:051B0000E468D2AF22F1
:0E1B0500AF82901D12E493FE0E0E0EEF2E2FF7
:081B13002F901D0093F58222C2
:0E1B1B0075950075911475924CC296758921CE
:0E1B2900758F00C28CC28E758D80758B80C248
:0C1B37008FC20275A88075E80075B80424
:0A1B430075B70CD28A75752EC20426
:051B4D00C205C20CC23C
:041B52000DC207D2E7
:051B5600097573007524
:061B5B007400754900C290
:041B610010C20FC2DD
:051B65000E1214BA226B
:06005200E478FFF6D8FD82
:080030007900E94400601B7A2D
:0500380000901BA07800
:03003D000075A0AB
:0A00400000E493F2A308B8000205E3
:08004A00A0D9F4DAF275A0FF61
:0E1B6A0074FE2581F8E68582F0A4C0E0858235
:0E1B7800F018E6A4F582D0E025F0C58386F0D3
:061B8600A42583F5832273
:080058007800E84400600A7919
:030060000075A088
:0600630000E4F309D8FCE3
:080069007800E84400600C7906
:0B00710000900000E4F0A3D8FCD9FAD6
:030023007581766E
:0A002600121B8CE582600302001E2D
:041B8C00758200223C
:00000001FF
