:0400000002002332A5
:03000B00020C2FB5
:0300130002114196
:03001B000211715E
:03007C0002001E61
:05001E0012007F80FECE
:0A007F007F00C218E5A7C007C023E8
:08008900121B14D023D00775EF
:0C0091000F0175C1FFC2AF75A7E575C275
:0E009D00A575C35AD2AFC2AF43A70475C2A562
:0900AB0075C35AD2AFC2977E0062
:0300B400BE320059
:0E00B700501AC28C901D17E493F58C901D1802
:0800C500E493F58AC28DD28C90
:0600CD00308DFD0E80E104
:0800D300C007C023120E5CD02F
:0A00DB0023D007C219901CFEE49325
:0200E500F52CF8
:0E00E700C2AF75C2A575C35AD2AF748025D1C1
:0B00F500502B75D161200F0DC007C01B
:0501000023120C4ED09B
:0501050023D007801863
:0A010A00E576249140040576800E8E
:0B011400758285C007C0231217B2D00F
:03011F0023D007E3
:0A012200E524FE5401FD24FF921AAB
:04012C004002C219B2
:0C013000E57530E04D740F5580FDBD0EEC
:0A013C00157402252C400FA21AE4EE
:0A01460033FDBD0107201904052C4C
:02015000D219C2
:0A015200740F5580FDBD0D028003FF
:03015C000202B9E3
:09015F00E52C24FE40030202B964
:0A016800A21AE433FDBD010280037A
:030172000202B9CD
:060175003019030202B97B
:05017B00152CD2190251
:0201800002B9C2
:0B018200901D0DE493FDBDFF02800303
:03018D000202B9B2
:06019000300F030202B96A
:08019600E57530E0030202B937
:0A019E00740F5580FDB5280280158E
:0C01A800740F5580F582C007C006C0230C
:0901B400120376D023D006D00717
:0C01BD00901DFCE493FD20E7030202B952
:0A01C9007401B50F1DC202C007C08B
:0701D30006C02312100AD040
:0901DA0023D006D0073002030215
:0201E30002B95F
:0601E500750F020202B9D1
:0A01EB007402B50F1AC007C006C069
:0501F50023120FE5D00C
:0A01FA0023D006D00740030202B92B
:06020400750F030202B9B0
:07020A007403B50F0280032D
:030211000202B92D
:0A021400C202758200C007C006C0D8
:06021E002312101C858272
:0502240008858309D0EC
:0902290023D006D00730020302C5
:0202320002B90F
:0A023400AC08AD09BCFF05BDFF02D8
:02023E0080340A
:0E024000901DFDE493FD3395E0FCC007C00661
:0C024E00C023C005C00490000A121B630E
:0C025A00AC82AD8315811581D023D00645
:09026600D007EC2508F50AED357E
:05026F0009F50B8005FC
:05027400E4F50AF50BA2
:07027900750F00850A828564
:090280000B83C007C006C0231265
:0C02890009CAAC82AD83D02378F4A6042F
:0D02950008A605901DFCE493FD74075DF5BF
:0802A2003E901DFBE493FD8D6D
:0702AA003575820CC0231220
:0802B10017B2D023D006D007DC
:0C02B9007D00EEA2E3E43324FF921A7CE7
:0102C5000038
:0302C600BC040075
:0E02C900502D74E32C901D0093235401F4FB80
:0C02D700A21AE433FA420374042CF5F080
:0502E30005F0EB8002B4
:0202E80025E00F
:0E02EA00D5F0FBFB8D02EA42038B050C80CEA3
:0602F800ED5529F52A2056
:0502FE00070330080FAA
:07030300C208C007C023126D
:08030A001805D023D007800A7A
:020312007E6407
:080314008E051D8D06EE70F848
:08031C00D29720972ABFFF00D1
:0503240050030F802AC8
:060329002018036375813A
:0A032F00D218E57520E01DC2AF757D
:0C033900E40075E71C75E6FE852CE575F8
:06034500E468D2AF80085D
:06034B00EF60031F8002B9
:02035100C218D0
:0A035300E57530E007A21A92970248
:02035D0000E7B7
:0C035F00901DE2E493C45401FEB40100C0
:0B036B00E433FE24FF92970200E7221B
:06037600AF82AE2B7D00FA
:06037C00EEB52B02800328
:030382000DAE2B92
:0E038500ED243750F2740F5580FEB507537EFD
:010393000069
:03039400BE0400A4
:0A039700504A8EF005F07401800258
:0203A10025E055
:0C03A300D5F0FBFD5F601BED55287016C7
:0C03AF00C2F0C007C006C00585F0238E18
:0A03BB00821203E6D005D006D00739
:0C03C500ED5F7017ED55286012D2F0C0FB
:0C03D10007C00685F0238E821203E6D0E0
:0303DD0006D00740
:0303E0000E80B1DB
:0203E3008F2861
:0103E50022F5
:0A03E600C014858114C0820581A8AF
:0A03F0001408087600A81408E6259A
:0C03FA00E025E0FD24E9901D0093FCC20A
:0804060019A8140874E3269004
:0C040E001D0093FB530307BB0102801587
:06041A00BB02030205FA1B
:06042000BB030302077993
:06042600BB040302083DC7
:03042C000209C4FE
:0C042F00A8140874E326901D0093A2E3BB
:0C043B00E43324FF921A74E82D901D0099
:0A044700935401FB24FF921B3018B0
:0704510058301A03301B14A0
:0D04580074E72D901D009323235403FBA88F
:0704650014080874035BF6A4
:06046C00201A030205172F
:0E04720074E72D901D0093FB740C5B4480FB1F
:0A048000A8140808EB46F6A81408BB
:0B048A00740426FB242DF974E82D906B
:0C0495001D0093C313FAF7EB2436F87631
:0904A10000EB243FF87690806D19
:0604AA00301A03301B13A1
:0C04B00074E72D901D0093C4540FFBA8AE
:0704BC0014080874035BF64D
:0A04C300301A3FA814087404262420
:0704CD003FF98703BBA0000B
:0E04D400401774E72D901D0093540325E0257A
:0B04E200E0FBA8140808EB46F68018A9
:0C04ED00201B1574E72D901D0093C454D3
:0C04F9000FFB530303A8140808EB46F6A1
:0A050500A81408740426FB242DF846
:08050F007600EB243FF87600B2
:09051700A81408740426FB7D0001
:08052000ED24FD50030209C4A3
:0C052800A8140808740356FFBF010280ED
:010534000ABC
:05053500BF0202800975
:05053A00BF032F800843
:04053F00D219802924
:04054300C219802534
:0C054700C003ED2D25E0FBA81408EB26F6
:0E055300F582C005120A2CAA82AEF0FFD00578
:0B056100EA5401FA24FFB39219D00302
:0A056C00A8140808E654036076A204
:0C05760019E433FE7F00ED2D25E0FAA80B
:0C0582001408EA26F582C005C003C00280
:0C058E00C023C006C007120A6B158115BF
:0A059A0081D023D002D003D005A8C1
:0A05A400140808E630E50CEB243FD4
:0905AE00F9870774014FF780166C
:0C05B700A81408EA26F582C005C003C0A5
:0505C300231217B2D065
:0505C80023D003D00563
:0C05CD00ED701BA21992F0C005C003C025
:0505D9002385F023A8BA
:0805DE0014088682120B84D080
:0505E60023D003D00545
:0C05EB00A8140808E60303543FF60D0DA9
:0305F700020520DA
:0C05FA0074E72D901D0093FF5307302084
:0506060018030206AF1D
:0E060B0074E72D901D0093FE30E215C2F0C082
:0A06190007C00585F023A814088629
:0806230082120B84D005D00700
:0A062B00A81408740426FE242DF91B
:0D06350074EA2D901D0093C313FBF7EE2413
:0C06420036F974E72D901D0093FE74073C
:0C064E005EF7BF201EC005A8140874044D
:0E065A0026F582120A2CAA82AB83FEEAD00596
:0706680030E3047F30800243
:02066F007F10FA
:0A067100BF1019A814087404262411
:0C067B003FF974E82D901D009354F0C46A
:06068700540FFE2428F7C9
:05068D00BF30028003F4
:030692000209C496
:0A069500A81408740426243FF97429
:0E069F00E82D901D0093FE740F5E2420F702DC
:0206AD0009C47E
:0A06AF00A81408740426243FF987FC
:0C06B900065306F0BE2071BF2019A814E3
:0E06C500088682120A2CAF82AE83ADF0FCEFE5
:0706D30030E0047F308002DB
:0206DA007F108F
:0C06DC00BF102A7401C0E0E4C0E0A814C4
:0C06E800088682120A6B15811581A81487
:0C06F4000886821217B2D2F085F023A80D
:0907000014088682120B84805B50
:0B070900E4C0E0C0E0A81408868212E3
:0C0714000A6B15811581A814088682125A
:0807200017B2C2F085F023A816
:0907280014088682120B84803350
:0A073100A81408E625E0FF24ECF907
:0C073B00EF24ECF8860608860753060839
:0E0747007F00A70609A70774E72D901D0093F9
:0C075500FF30E70BA81408740826F5829A
:030761001217B2BA
:0A076400A81408740426FF242DF8E1
:0B076E007600EF243FF876000209C47B
:0B07790030187974E72DFFF5827583BE
:0C0784001DE4935410C4540FFE7B00C011
:0C07900007C005C004C006C003A8140880
:0C079C008682120A6B15811581A81408D2
:0B07A80086821217B2D2F085F023A861
:0C07B30014088682120B84D004D005D0FC
:0A07BF0007A81408740426FE242D78
:0B07C900F8A604EE2436F974E82D9029
:0C07D4001D0093C313FB74075BF7EE24B9
:0A07E0003FF98F8275831DE49354E6
:0B07EA0010C4540FFF2430F70209C4B4
:0A07F500A81408740426243FF987B5
:0407FF0007BF4000F0
:0E080300402A74E72D901D00935410C4540F2A
:0C081100FF7E00C007C006A81408868205
:0C081D00120A6B15811581A81408868250
:060829001217B20209C41F
:0A082F00A81408740426243FF8768C
:04083900000209C4EC
:0E083D0074E72D901D0093C4035407FF53076A
:06084B0007BF000280154A
:06085100BF02030208F3E0
:06085700BF030302093695
:06085D00BF04030209992B
:030863000209C4C3
:0A086600301822A81408740426FFBD
:0C087000242DF9901DEAE493C313FEF759
:0A087C00EF2436F87600EF243FF871
:0508860076500209C4D8
:0A088B00A81408740426243FF9871E
:0B08950007BF5023A81408E625E0244C
:0C08A000ECF9ECC313FF7E00A70709A7CA
:0A08AC0006D2F085F023A814088698
:0608B60082120B84801782
:0A08BC00A81408E625E024ECF9EC8E
:0D08C600C313FF4307807E00A70709A706A4
:0C08D300A81408740826F5821217B2A8B9
:0A08DF001408740426FF243FF87685
:0A08E90000EF242DF876000209C488
:0608F3002018030209C4F5
:0A08F900A81408E625E024ECF98CB1
:0E090300068E077E0074EA2D901D00937A0088
:0C0911002EFEEA3FFFA70609A707A81466
:0D091D0008740826F5821217B2D2F085F09A
:07092A0023A81408868212C5
:050931000B840209C463
:060936002018030209C4B1
:0A093C00A81408E625E024ECF98C6D
:0E094600068E077E0074EA2D901D00937B0044
:0E0954002EFEEB3FFFC001C006C00790000A58
:0E096200121B63AE82AF83158115818E828FCA
:0E097000831209CAAE82AF83D001A70609A781
:0C097E0007A81408740826F5821217B2AE
:0A098A00D2F085F023A8140886823D
:05099400120B84802B12
:0A099900301828A81408E625E02411
:0A09A300ECF97F00A70409A707A8DC
:0C09AD001408740826F5821217B2D2F06C
:0909B90085F023A81408868212BF
:0209C2000B84A4
:0609C400851481D014220D
:0A09CA00AE82E583FF20E71C7D00EC
:0E09D400C374FF9E74878FF063F08095F0501F
:0C09E20038EFA2E713CE13CEFF0D80E625
:0209EE007C008B
:0E09F000C3EF648094785016EFA2E713CE1385
:0E09FE00CEFF8E028F034303808A068B070C08
:020A0C0080E286
:0D0A0E008E028F035303878A068B07800238
:020A1B008D0448
:0E0A1D00ECC40354F8FDE44EF582ED4FF58372
:010A2B0022A8
:050A2C00AF82BF0800CD
:0A0A3100501F8FF005F0E510800261
:020A3B00C313E3
:0E0A3D00D5F0FB5401FE7D007C007B008E8214
:070A4B008D838CF0EB801895
:0C0A5200EF24F825E024ECF98706098762
:0C0A5E00077D007C008E828F838DF0EC01
:010A6A002269
:0A0A6B00C014858114AF82BF08009B
:0C0A7500502FE51424FCF8E6084670132E
:080A81008FF005F07401800202
:020A890025E066
:090A8B00D5F0FBF4FE52108026A8
:080A94008FF005F074018002EF
:020A9C0025E053
:080A9E00D5F0FBFE42108014AC
:0A0AA600EF24F825E0FF24ECF8E54A
:0A0AB0001424FCF9E7F60809E7F644
:030ABA00D0142233
:050ABD00AF82BF0C0038
:050AC2004003020B6778
:0E0AC700901D12E493FEEF75F003A42E24049C
:0C0AD500901D0093FE24F9401C743F5556
:0C0AE10055FD7C00C007C006C005C00425
:0D0AED008F82120A6B15811581D006D0078B
:0C0AFA00BE0719AC567D00C007C006C046
:0E0B060004C0058F82120A6B15811581D0067E
:020B1400D00708
:0A0B1600BE081FAD577E00AB568BE2
:0E0B200004E42DFDEC3EFEC007C005C0068FAC
:0A0B2E0082120A6B15811581D007B1
:030B3800BF0400F7
:0E0B3B00503BEF2F25E024E3901D0093C4549F
:0A0B49000FFE530607BE04028025CC
:0A0B5300E555540124FF921892F0BA
:0A0B5D0085F0238F82120B848011B3
:070B6700BF0D0E85562CAEF8
:0A0B6E002C7F0078F6A60608A60703
:010B7800225A
:0B0B7900AF8274402FF5821217B222E9
:050B8400AF82BF040078
:050B89004003020C2EE8
:0E0B8E0074E32F901D0093C45407FE24FA4018
:080B9C0066EE2E2E900BA473EF
:070BA400020BB6020BBA02BE
:060BAB000C03020BBE0268
:050BB1000BC2020BE481
:040BB600C218804998
:040BBA00D218804588
:040BBE00B2188041A8
:0A0BC200D218EF243FF87610EF245C
:090BCC0036F87601EF242DF990B2
:0E0BD5001DE2E493C4540FC40354F8FEF780ED
:010BE3001FF2
:0E0BE4008F057E0074042DFDE43EFE8DF005AD
:050BF200F0E510800297
:020BF700C31326
:0A0BF900D5F0FB5401FD24FF921813
:0C0C0300AE29EF2404FF8FF005F074010F
:020C0F00800261
:020C110025E0DC
:0C0C1300D5F0FBF45206A218E433FD8F6C
:060C1F00F005F0ED80027B
:020C250025E0C8
:070C2700D5F0FBFF4EF5299B
:010C2E0022A3
:0A0C2F00C0E0C0D0052BC28DC3E564
:080C39002C952B4008740F45B7
:050C41002AF58080038C
:030C460075800FA7
:050C4900D0D0D0E03224
:0D0C4E0075D16075D20775D33375D161057E
:060C5B0024E4B5240205AB
:010C6100256D
:0A0C6200E52424FFFEE52534FFFF22
:0A0C6C00EEF4FEEFF4FFEE5524F560
:050C760026EF5525F5F5
:030C7B00277F00D0
:030C7E00BF1000A4
:090C81005035E52630E0227E002A
:030C8A00BE0900A0
:0C0C8D00501BEE242DF9E7FD6010EE2452
:0C0C990036F8860453040FECB50703ED99
:020CA50014F742
:030CA7000E80E0DC
:080CAA00E527C313C52613C59D
:060CB20026F5270F80C6A5
:020CB8007F00BB
:030CBA00BF080070
:050CBD004003020E508F
:0A0CC200EF242DF9E76003020E4C49
:0C0CCC00EF243FF88606740F5EFD74F004
:070CD8005EFCBC1002803D30
:050CDF00BC2002806052
:060CE400BC3003020DAD5F
:060CEA00BC4003020E2CC9
:060CF000BC5003020E32AD
:060CF600BC6003020E4C7D
:060CFC00BC9003020E365D
:060D0200BCA003020E4C30
:060D0800BCB003020E4C1A
:060D0E00BCC003020E4C04
:050D1400BCF00280317B
:030D1900020E4C7B
:030D1C00BF040011
:050D1F004003020E4C30
:0C0D2400AC2974042FF5F005F074018078
:010D300002C0
:020D310025E0BB
:0C0D3300D5F0FBF4FB5204740F4CF529C2
:050D3F007600020E4CDD
:060D4400860474D04CF699
:0E0D4A008D037C0074042FFAC007C002C003A2
:0E0D5800C0048A82120A6B15811581D0028AAE
:0E0D6600821217B2D007EF24FC25E025E0240E
:0C0D7400E9901D0093FC30E021EF242DDD
:0E0D8000FCEF24FC25E025E024E9901D009303
:0C0D8E00C313FBA804A603EF2436F8767C
:040D9A0000020E4CF9
:0A0D9E00EF242DF87600EF243FF853
:050DA8007600020E4C74
:0E0DAD005305017C0074042FFBC007C003C077
:0E0DBB0005C0048B82120A6B15811581D003CE
:0C0DC9008B821217B2D007EF242DFDEF33
:0E0DD50024FC25E025E0FC24EA901D0093FBA1
:0C0DE300A805A603EF2436FB74E82C9052
:0E0DEF001D0093C4035407FC74075CA803F6B0
:0C0DFD00A805E6601EEF243FFCEF24FC7C
:0E0E090025E025E024E7901D00935410C4540A
:090E17000FFB2440A804F6802C16
:0C0E2000A8057600EF243FF87600802043
:060E2C0076007700801A39
:040E32007660801650
:0E0E3600EE30E00C74042FF582C0071217B2E4
:020E4400D007D5
:060E4600EF243FF876A046
:040E4C000F020CBACB
:090E5000E5357007E50F7003752C
:020E59000F0187
:010E5B002274
:020E5C007F0015
:030E5E00BF0400CE
:050E61005020BF080055
:0A0E660050188FF005F074018002AF
:020E700025E07B
:0E0E7200D5F0FBFE74FFC39EFE5284EE528547
:030E80000F80DB05
:020E83007F04EA
:030E8500BF0800A3
:0E0E8800E433FE601DEE60178FF005F074017C
:020E96008002D8
:020E980025E053
:0D0E9A00D5F0FBFE74FFC39E5284EE42852E
:030EA7000F80DBDE
:0B0EAA0075800F75280F75D181E4F5ED
:0A0EB50024F525C2AF75E40075E7CF
:0E0EBF001D75E60375E50075E71D75E6047503
:0E0ECD00E54C75E71D75E60C75E50075E71D33
:0B0EDB0075E60D75E5FF75E4687F000B
:030EE600BF0D003D
:0E0EE9005015C007E4C0E0C0E08F82120A6B13
:090EF70015811581D0070F80E67A
:020F00007F0070
:030F0200BF080025
:0A0F0500500FEF242DF87600EF24C2
:070F0F003FF876000F80ECB3
:0C0F1600752900C28C5389F043890275D4
:0E0F22008C47758A47D28C53B8FC43B80C53E9
:0C0F3000B7F443B704D2A9C28DD2AF229F
:081B89003F7DBCFA1926325E13
:0A0F3C00D218C2917582D2C02312B0
:080F4600112FD023D2917FFF8F
:0A0F4E00A291821892188F061E8EE1
:090F580007EF70F2B218A2182292
:040F6100AF827E01DC
:050F6500BE000280390E
:060F6A00EE5F601E7D0039
:030F7000BD0200BF
:070F73005005C2910D80F64C
:0E0F7A00D291758217C007C00612112FD00643
:040F8800D0078012FC
:0E0F8C00C291758219C007C00612112FD0063F
:040F9A00D007D29119
:050F9E00EE2EFE80C2F2
:010FA300222B
:040FA4007F007E014B
:050FA800BE00028035CF
:020FAD007D00C5
:030FAF00BD020080
:070FB2005005C2910D80F60D
:0E0FB900D291758201C007C00612112FD0061A
:080FC700D007309103EE420750
:0E0FCF0075820DC007C00612112FD006D00784
:050FDD00EE2EFE80C6AF
:030FE2008F8222D9
:020FE5007F008B
:030FE700BF020046
:070FEA005005C2910F80F6D3
:0C0FF100D29175820112112FA29192186A
:090FFD0075820DC02312112FD0E2
:0410060023A21822E7
:0E100A00120F3C500C7582CC120F617582449F
:03101800120F6153
:01101B0022B2
:0A101C00C01485811405810581AF21
:0D10260082C007120F3CD0074003021119D1
:0E1033007582CCC007120F617582BE120F616C
:0E104100120FA4AE82C006120FA4AD82D0061C
:07104F00D007E4BF0101041A
:0D105600FF6038C007C006C005120FA412CD
:061063000FA4120FA412FD
:0E1069000FA4120FA4AC82D005D006D00753FE
:0E10770005F8EEC4035407FB2DFDEEC4035430
:0C108500F8FE5306F07410C39CFC2EFE15
:0E10910074805DFC8D03E4FDFAEE2DFDEA3B5C
:0B109F00FBEC6007C3E49DFDE49BFB3D
:0E10AA00C004C007C005C004C003C005C003D9
:0E10B800900006121B63AA82AE83158115817B
:0C10C600D003D004D005D007A81408A661
:0E10D2000208A606EBC313CD13CDC313CD1336
:0C10E000CDFBA814088604088606ED2C41
:0C10EC00FDEB3EFBA81408A60508A603B7
:0C10F800D004EF600CA81408E624E7F612
:0511040008E634FFF6CF
:0C110900EC6015A81408C3E496F608E496
:0411150096F68008C2
:08111900A8140876FF0876FF18
:0A112100A81408868208868385144E
:04112B0081D0142239
:02112F00AF828D
:07113100EF60047E01800263
:021138007E0037
:06113A00EE60031F80F1CE
:01114000228C
:081B910001020408102040804D
:0E114100C0E0C0D0C2AAC28E740F558924200F
:0E114F00F589758B35758D80C28FD28ED2AB2F
:06115D00757102C203D20D
:0511630001757000752C
:091168006F00D202D0D0D0E032B9
:0C117100C023C0E0C0F0C082C083C007F3
:0E117D00C006C005C004C003C002C001C0000F
:0C118B00C0D075D000E571FF24F15003C6
:03119700021494AB
:07119A00EF2F2F9011A1734C
:0711A1000211CE02149402BA
:0611A800124102130102D6
:0611AE00130A02137F0288
:0611B400149402149402E1
:0611BA00149402149402DB
:0611C00013A302140B0250
:0611C600149402142F0234
:0211CC00147D90
:0E11CE00C28E740F55892420F589758B8075AB
:0A11DC008D80C28FD28EE573B574CA
:0311E60002805133
:0811E900E5742465F987821208
:0B11F100157A503DC2AAE5717032E58E
:0A11FC00742465F9E7FF20E507748D
:06120600204FF775720095
:0B120C0074FC257240051214DF8016F0
:061217000574537407C2C8
:04121D000BC21012DE
:0C12210014B3C28E758DF0758B00D28E58
:05122D00D2AA02149496
:061232000574537407026D
:0212380014940C
:07123A00C28ED2AA02149437
:0A124100A28BB39218C28B757103E3
:0A124B00758D00E570700A757001E2
:05125500C204C2050205
:02125A001494EA
:0A125C00747F2570401C301808B2A2
:0412660003E5702507
:03126A006FF56FAE
:05126D00E5702570F59D
:06127200706003021494F9
:0612780075708102149460
:0A127E00C28EC28FA203201801B334
:0A128800502CE56D700E74CCB56FAC
:0312920002D20481
:07129500740CB56F02D205D5
:07129C00200419200516E5EE
:0812A3006D24E94010E56D2403
:0612AB004EF8E56FF6624B
:0512B1006E056D8002D6
:0212B600C20173
:0512B800100B02801D77
:0712BD00300414300111752B
:0712C4007204101002800902
:0712CB00E5492404F5495335
:0212D200493C95
:0612D4001214B302149491
:0712DA0030011E20041B205F
:0C12E1000518740F55892410F589758DCF
:0C12ED00FA758B70D28E757104D2AA02C3
:0212F90014944B
:0612FB001214B30214946A
:09130100758D80757102021494CF
:0A130A00300964E56D24FB505EC25B
:0E1314008E740F55892410F589758DEF758B39
:0813220042D28EA20E9206E5F4
:08132A005330E71F855182C01A
:0C13320052121529AF821581BFFF028006
:01133E0002AC
:02133F00D206D4
:09134100E551701CE5527018D250
:03134A0006801406
:0C134D00901D17E493FFB5510B901D1884
:08135900E493FFB55202D20635
:0913610074FFB56E05300602D2DE
:01136A00077B
:06136B00757105021494E7
:08137100E56D24FE5002D207D5
:061379001214B3021494EB
:0A137F00C28E74FFB56E1330060A2B
:06138900D20C1214DFC2B9
:04138F000B021494A5
:061393001214B3021494D1
:06139900D20D1214DFC2A8
:04139F000B02149495
:0813A300E56D244EF9870730C7
:0413AB000C027FCCE5
:0513AF00300D027F0C6F
:0913B400C2AA740AB5710280039B
:0313BD0002149483
:0A13C000E570247F402CE5705F709B
:0913CA0008D296C20AB2038002A7
:0213D300D20A3C
:0813D500E5707007757001C29C
:0313DD0003800684
:0513E000E5702570F529
:0113E5007097
:0713E600E5707003757081D2
:0513ED0075710B801377
:0913F200200306D296C20A800213
:0213FB00D20A14
:0613FD00056D757000751E
:02140300710D69
:06140500758D1202149423
:0A140B00E56D70077401B57002056D
:011415007264
:0A141600C296A20A828B5007C20B97
:051420001214B3800668
:0614250075710A758D6E61
:04142B00C28B80658B
:0E142F00C296C28E740F55892410F589758DF2
:0A143D00FB758B90D28E200C03305B
:021447000D0591
:051449001214B3802B1A
:0C144E00740F5553FF7E0074072FFFE45D
:0C145A003EFEAC6D7D00C3EF9CEE648094
:0C1466008DF063F08095F05007D2081262
:0414720014B380032C
:0314760075710E7F
:04147900C28B80178B
:0E147D00C28E740F55892420F589758D6E7509
:09148B008B80C28FD28E75710AAC
:0C149400D202D0D0D000D001D002D00392
:0E14A000D004D005D006D007D083D082D0F083
:0514AE00D0E0D0233264
:0A14B300757100C28BC28EC2AB75CA
:0A14BD006E00756D00C28E740F55AD
:0C14C700892410F589758D89758BAFC2E2
:0A14D3000CC20DC28FD28ED2AAD235
:0214DD00AB2240
:0E14DF00C28E740F55892420F589758D6E75A7
:0C14ED008B80C28F740F55532407FF75CD
:0414F9006EFF7E0004
:0C14FD00C3EE9F500BEE244EF9E7FD6299
:041509006E0E80F0F2
:07150D00EF244EF8A66EC2A8
:0415140004C205D236
:051518000B75710A755E
:0A151D007000756D00C2AAD28ED2D4
:02152700AB22F5
:0A152900C014858114AF827EFF908C
:081533001D16E493FDBDFF004D
:0C153B005038200E35901D16E493602EF1
:07154700901D16E493FD1D49
:0E154E00ED6024ED2DFC2417901D0093FBEFA3
:0C155C00B5031374182C901D0093FCE5DF
:0A1568001424FDF8E6B504028D0618
:031572001D80D900
:051575008E82D014225B
:0A157A00C014E581F5142404F58186
:0C158400AF82C2187DFE7E00EFA2E5E4FD
:0915900033FC24FF9219BF800016
:0515990040030216C62C
:0C159E00C005C006EF2323540124FF9277
:0B15AA001A53071F8F82C007C005C046
:0C15B50023120A2CAA82AB83ACF0FED0FB
:0A15C10023D005D007A81408A602E5
:0E15CB0008A60308A60408A606901D11E493C6
:0E15D900FE0EEF2FFD2EFC04901D0093FEB5BC
:0415E7000702800671
:0615EB00D006D005800FC0
:0E15F100D006D0058C8275831DE493FCFD7E30
:0115FF0000EB
:09160000BDFE06BE00030217A1A5
:0A160900754EBC901D17E493FC8C95
:0A1613004F901D18E493FC8C50ED7D
:0C161D002DFD2417901D0093FE8E5174CB
:0A162900182D901D0093FE8E5275DF
:061633005400301A057599
:041639005540800395
:03163D0075558060
:0E164000901D12E4932F2FFE2F2404901D0006
:0C164E0093FE24F95006EE24FBFE8002FF
:02165A007E010F
:0C165C0074E02EF553EE24FE500F7406CF
:0A1668002E244EF9A814088605A7E9
:03167200058010E0
:0C167500A81408743F56FAE4FBFCFDEAE0
:041681002555F555A1
:0C168500EE24FD500E74052E244EF9A832
:071691001408088605A705F7
:0C169800EE24FC500F74042E244EF9A820
:0816A400140808088605A705DB
:0C16AC00EE24FB501074032E244EF9A80D
:0916B80014080808088606A706BC
:0516C100D2180217A180
:0A16C600754EB0901D17E493FE8EE0
:0A16D0004F901D18E493FE8E508524
:0316DA00475185F0
:0A16DD00485253071FEF24FA500390
:0316E70002179F48
:0716EA00EF2F2F9016F173A2
:0716F10002179F021703021C
:0616F800170F0217260285
:0516FE001737021797E9
:0817030075536074C2254DF519
:04170B005402179FCE
:08170F0075536374432549F58D
:051717005475554075FA
:06171C005600755712D2C1
:041722001002179FFB
:0717260075510075520075BA
:06172D0053E17554017543
:041733005540806835
:021737007F0031
:0A173900C3EF954A503CE54B7026C3
:0A174300740A2F244EF87600AD4C16
:0E174D007E008F037C00EB2DFDEC3EFEBD60A8
:0B175B001CBE0019740A2F244EF8A6D3
:0317660075800F7C
:0A176900740A2F244EF9EF254C906E
:051773001D0093FEF7CC
:031778000F80BE21
:09177B007463254AF553744245DC
:0617840049F554744045D4
:04178A004AF5558542
:03178E004B568532
:031791004C57D2E0
:03179400108008BA
:07179700755360755481C217
:01179E000F3B
:02179F00D2185E
:0817A10030190674DF554EF506
:0117A9004EF1
:0617AA00A218851481D095
:0217B000142201
:0717B200AF82C218BF400026
:0C17B900501B8F82C007C023121AFEE5EF
:0C17C50082D023D0075444FEBE440280B2
:0117D1000413
:0417D200D218802A7F
:0917D600AD737E000DBD00010E93
:0C17DF005305077E00AB747C00EBB505E1
:0717EB0006ECB50602800EBA
:0817F200E5732465F8A6070564
:0517FA0073537307D2D8
:0117FF0018D1
:05180000D28EA21822A7
:0A180500C014E581F5142404F581F8
:09180F00C207AF5474C35FFEA8C8
:051818001408A655E5CF
:09181D0051FC7036E5527032E511
:071826007520E003021ADD4A
:0C182D00EE700DA81408B6C007C006122B
:041839001AE3D006D8
:05183D00BE0102800362
:03184200021ADDAA
:09184500A81408E66003021ADD94
:09184E007582831217B2021ADD43
:08185700E55330E703021A28F3
:0C185F00901D17E493FBECB5030280031E
:03186B00021ADD81
:0B186E00901D18E493FBB552028003AC
:03187900021ADD73
:08187C00757600BE4202801BDC
:06188400BE43030219BC83
:06188A00BE80030219E21A
:06189000BE8103021A04F0
:06189600BE8303021A1DCF
:03189C00021ADD50
:06189F00200F03021ADD18
:0A18A500743C5FF54DA81408E654EA
:0A18AF00F0F6A81408B680028003CA
:0318B90002199B76
:0C18BC007582811217B2E556FB70030222
:0218C800199B6A
:0518CA00740F5555FFED
:0A18CF00E57170FCC2AF75E400AED5
:0A18D9005774015B241CFCA81408DE
:0318E30008760084
:0C18E600A8140808C3E69F4003021996EE
:0C18F200EB703CC003E5142403F8A606CC
:0C18FE00087600A814080886027D00E5AA
:0C190A00142403F8EA26FAED0836FDBAB2
:071916006005BD0002800422
:04191D00D003801063
:0A192100D003A8140808740A262455
:06192B004EF987758016DD
:0B1931008CE7A8140808E62EF5E6A8D5
:0A193C00140808740A26244EF987E7
:01194600E5BB
:0A1947008E027D00A8140808E514C4
:0C1951002403F9E6F7097700E5142403ED
:0E195D00F8E62AFA08E63D53023F7D00BA3F45
:0D196B0022BD001F8F027D001ABAFF011D72
:0C197800E5142403F8E6B5020708E6B504
:0419840005028006D2
:0619880075E46875E4003F
:08198E00A8140808060218E67F
:0519960075E468D2AF0A
:09199B00A81408E66003021ADD3D
:0419A40085554A8596
:0319A800564B8516
:0619AB00574C7582811209
:0919B10017B27582841217B2020C
:0219BA001ADD34
:0A19BC00743C5FF54DA81408B680D6
:0419C6000343A2082D
:0919CA00A81408E66003021ADD0E
:0D19D3007582811217B27582821217B2025E
:0219E0001ADD0E
:0619E200300F03021ADDC4
:0419E800D20F854F46
:0319EC00478550DC
:0519EF0048754900C22B
:0C19F4001075D16075D20B75D3B375D19E
:041A000061021ADD88
:071A0400E54FB54702800326
:031A0B00021ADDDF
:071A0E00E550B5480280031A
:031A1500021ADDD5
:051A1800C20F021ADDFF
:091A1D007582851217B2C20F0296
:021A26001ADDC7
:061A2800EE6003021ADD6E
:0C1A2E00C0528C82121529AF821581BFB6
:051A3A00FF03021ADDAC
:0E1A3F00901D11E493FEF58275831DE493253E
:0C1A4D00E02EFD0EA8140874C056FCE446
:041A5900BC80010448
:011A5D00FC8C
:081A5E00C3EE9D4003021ADDF6
:0E1A66008E8275831DE493FBEFB50366EE04DC
:0E1A7400901D0093FBF582C007C006C005C0A0
:0E1A820004C003121AFEAA82D003D004D005BD
:0E1A9000D006D007EC602EC00474145AFCBCC3
:041A9E0014028004AA
:041AA200D004801FCD
:0E1AA600D0048B82C007C006C005C004C00378
:0E1AB400C002120ABDD002D003D004D005D06B
:031AC20006D00744
:0C1AC500A81408E6700D53020CBA0C0CBB
:071AD1008B82120B798005E6
:051AD8000E0E021A5E73
:061ADD00851481D01422E3
:0C1AE300E57170FCC2AF75E40075E71DF2
:0A1AEF0075E6178556E58557E57585
:051AF900E468D2AF22F9
:0E1AFE00AF82901D12E493FE0E0E0EEF2E2FFF
:081B0C002F901D0093F58222C9
:0E1B140075950075911475924CC296758921D5
:0E1B2200758F00C28CC28E758D80758B80C24F
:0C1B30008FC20275A88075E80075B8042B
:0A1B3C0075B70CD28A75752EC2042D
:051B4600C205C20CC243
:041B4B000DC207D2EE
:051B4F0009757300752B
:061B54007400754900C297
:041B5A0010C20FC2E4
:051B5E000E1214B32279
:06005200E478FFF6D8FD82
:080030007900E94400601B7A2D
:0500380000901B997807
:03003D000075A0AB
:0A00400000E493F2A308B8000205E3
:08004A00A0D9F4DAF275A0FF61
:0E1B630074FE2581F8E68582F0A4C0E085823C
:0E1B7100F018E6A4F582D0E025F0C58386F0DA
:061B7F00A42583F583227A
:080058007800E84400600A7919
:030060000075A088
:0600630000E4F309D8FCE3
:080069007800E84400600C7906
:0B00710000900000E4F0A3D8FCD9FAD6
:030023007581766E
:0A002600121B85E582600302001E34
:041B85007582002243
:00000001FF
