:0400000002002332A5
:01000B0032C2
:03001300020B7667
:03001B00020BA62F
:03007C0002001E61
:05001E0012007F80FECE
:0A007F00C00885810805817F007E1E
:0B00890000C218E5A703540124FF92F9
:0800940019C007C006C02312C9
:0C009C001544D023D006D007D29720973F
:0A00A8000A301907A8080876008046
:0100B2000B42
:0B00B300901BFFE493FCA80808A604C3
:0E00BE00C297901BFFE493AB962BFC8C9653DD
:0900CC00963FD28C2019217C0022
:0300D500BC32003A
:0E00D800501AC28C901D17E493F58C901D18E1
:0800E600E493F58AC28DD28C6F
:0600EE00308DFD0C80E1E5
:0E00F40075C1FFC2AF75A7E575C2A575C35AE9
:0E010200D2AFC2AF43A70475C2A575C35AD2CF
:0B011000AFC007C006C023120AFBD0DE
:0A011B0023D006D00720190FC007FB
:08012500C006C023120A34D009
:05012D0023D006D007FD
:0E01320053BDFE75985043BAE043BD0275BF41
:0C0140002F75BEF043BD017599557C0081
:0E014C00C2AF75C2A575C35AD2AF901D0DE4A7
:07015A0093FBBBFF028003D1
:0301610002026B2C
:0601640030100302026BE3
:08016A00E57430E00302026BB2
:0E017200748025D1502F75D161C007C006C022
:0701800004C023120865D042
:0C01870023D004D006D0070CEC54037009
:0C01930013C007C006C004C023120660A1
:08019F00D023D004D006D007E4
:0E01A700308D1F740F5589FBBB011774F05586
:0E01B500892402F589758F01758C50C28D4327
:0601C300A210D292D28CC2
:0A01C900300113C007C006C004C0D7
:0501D300231208D5D045
:0701D80023D004D006D0077C
:0C01DF00E545605FC0048EF005F07A0179
:0401EB007B0080060F
:0601EF00EA2AFAEB33FBE3
:0C01F500D5F0F7AC457D00EC5202ED5255
:0E02010003D004EA4B6034740C2EF582C00763
:0A020F00C006C004C0231211E5D0A0
:0C02190023D004D006D00750228EF00540
:05022500F074018002ED
:02022A0025E0CD
:0C022C00D5F0FBFD74FFC39D52450E533E
:04023800060780082D
:06023C000E5306078002CC
:020242007E003C
:0B024400E57070237440258D401D20E4
:09024F000C1A901D99E493FDB511
:040258004102800FD0
:0C025C0075E40075E71D75E6998541E525
:0302680075E468D2
:06026B0020080330091910
:0A027100C208C209C007C006C0049D
:06027B00C023121238D06E
:0902810023D004D006D007800A46
:02028A007D6491
:08028C008D031B8B05ED70F8DA
:0602940010980302031C98
:05029A00AD99BD6308F1
:05029F0010990280FB34
:0302A400759955F4
:0902A700BD2B061596A8080816E7
:0902B000BD2D060596A8080806FC
:0E02B900BD7715C2AF75E40075E71B75E6FF53
:0A02C700A8080886E575E468D2AFC8
:0602D100BD70036374819F
:0302D700BD7608E9
:0502DA0010990280FBF9
:0302DF00759925E9
:0302E200BD7408E0
:0502E50010990280FBEE
:0302EA0075990102
:0302ED00BD310020
:0E02F000402AED24C74025ED24CFF5F005F09F
:0402FE007401800205
:0203020025E0F4
:0C030400D5F0FB6241C007C006C004C079
:05031000231208D5D006
:0703150023D004D006D0073D
:08031C00D297209712BFFF00E9
:0503240050030F8012E0
:060329002018036374813B
:04032F00D218800858
:06033300EF60031F8002D1
:02033900C218E8
:08033B00E5745401FDB401005A
:0D034300E433FD24FF929702014C1581D098
:02035000082281
:0A035200AF8274015554FEBF08008D
:0C035C005017EE24FF921892F0C007C06A
:0C0368000685F0238F82120570D006D0AD
:010374000781
:08037500EF24F840030203F835
:03037D00BF0C00B2
:0503800040030203F838
:0C038500BF082FE54120E02AEE6027436E
:060391003A014341019016
:0B0397001DE2E493FD74804DF53690EC
:0B03A2001DE4E493FD74804DF52E90E7
:0A03AD001DFAE493C4540FFD8D24E3
:0C03B700BF092FE54120E72AEE60274334
:0603C3003B8043418090E5
:0B03C9001DE3E493FD74804DF53790B8
:0B03D4001DE5E493FD74804DF53590AD
:0A03DF001DFAE493FD740F5DF52B89
:0E03E9007D00C006C0058F821204B515811577
:0103F7008184
:0703F800E542B5410280025D
:0203FF00D20129
:0104010022D8
:0B040200AF8274402FF5821211E5223A
:07040D00AF827E00BF080072
:0E041400E433FD6027C0068FF005F07B017C0D
:0304220000800651
:06042500EB2BFBEC33FCA5
:0C042B00D5F0F7AA3E7E00EA5203EE5224
:0904370004D006EB4C60027E01CA
:06044000ED7033BF0C005B
:0E044600502E8F047D00EC24F8FCED34FF8C6A
:09045400F005F07C017D0080063A
:06045D00EC2CFCED33FD68
:0C046300D5F0F7AA407B00EA5204EB52EF
:07046F0005EC4D60027E0167
:03047600BF0C00B8
:0E047900402C7D00EF24F4FFED34FF8FF005E2
:07048700F07F017D008006FB
:06048E00EF2FFFED33FD2E
:0C049400D5F0F7AB3F7C00EB5207EC52B8
:0704A00005EF4D60027E0133
:0E04A7007F007D007C008E828F838DF0EC2222
:0A04B500C008858108AF82BF08006F
:0C04BF00E433FE6030E50824FCF8E60899
:0B04CB004670168FF005F074018002EF
:0204D60025E01F
:0C04D800D5F0FBFD74FFC39D523E801068
:0804E4008FF005F074018002A5
:0204EC0025E009
:0604EE00D5F0FBFD423ECB
:0604F400EE703BBF0C009E
:0C04FA005036E50824FCF8E608467019AE
:0B050600EF24F8F5F005F0740180020E
:0205110025E0E3
:0C051300D5F0FBFE740FC39E5240801315
:0B051F00EF24F8F5F005F074018002F5
:02052A0025E0CA
:06052C00D5F0FBFE424089
:03053200BF0C00FB
:0C0535004036E50824FCF8E60846701982
:0B054100EF24F4F5F005F074018002D7
:02054C0025E0A8
:0C054E00D5F0FBFE74FFC39E523F8013EB
:0B055A00EF24F4F5F005F074018002BE
:0205650025E08F
:06056700D5F0FBFF423F4E
:03056D00D0082291
:0E057000AF82901DEBE493FE8FF005F0EE805D
:01057E00027A
:02057F00C313A4
:0B058100D5F0FB5401FE24FF9219206E
:05058C00180330190600
:0605910020180302065FC2
:0A059700A218E433FD7E00C007C087
:0C05A10023C005C0068F821204B515812E
:0C05AD001581D023D0078FF005F07D01F0
:0405B9007E0080063A
:0605BD00ED2DFDEE33FE02
:0C05C300D5F0F7AB437C00EB5205EC5286
:0805CF0006ED4E600302065F19
:0905D700901DFAE49320183890FD
:0C05E0001DF2E493FE8FF005F0EE8002A7
:0205EC00C31337
:0E05EE00D5F0FB20E0138FF005F074018002C1
:0205FC0025E0F8
:0905FE00D5F0FBF4FE524180101F
:080607008FF005F07401800280
:02060F0025E0E4
:06061100D5F0FBFE4241A2
:0C061700A218E433FEBE0140901DDCE49C
:0E06230093FE7038901DF2E493FE8FF005F008
:03063100EE800256
:02063400C313EE
:0E063600D5F0FB20E0128FF005F07401800279
:0206440025E0AF
:08064600D5F0FBFE42418011DA
:08064E008FF005F07401800239
:0206560025E09D
:07065800D5F0FBF4FF524155
:01065F002278
:070660000538E4B53802057E
:010667003959
:0A066800E53824FFFEE53934FFFFFA
:0B067200EEF4FEEFF4FFE5385206E561
:05067D003952077D0069
:03068200BD1000A8
:080685005032EE30E0247C004D
:03068D00BC0A00A4
:0C069000501DEC2424F9870353030FEBEA
:0C069C00B5050DEC242EF9E7FB247F507F
:0406A80003EB14F755
:0306AC000C80DEE1
:0A06AF00EFC313CE13CEFF0D80C978
:0C06B9007480B53662901DE2E493FF747B
:0A06C500804FF536E53A30E7177470
:0E06CF0001C0E0E4C0E075820A1204B5158196
:0806DD00158175820A1211E576
:0506E500E53A253AF59D
:0406EA003A4241D27D
:0306EE00017F0089
:0306F100BF08003F
:0C06F400502AEF90159793FEE53A5E60E7
:0C0700001CEF242EF9901DE4E493FE741D
:0C070C00804EF7EF2424F9901DFAE493CE
:05071800C4540FFEF7C0
:03071D000F80D179
:0C0720007480B53762901DE3E493FF7411
:0A072C00804FF537E53B30E017740D
:0E07360001C0E0E4C0E075820B1204B515812D
:08074400158175820B1211E50D
:07074C00E53BC313F53B423E
:0507530041D2017F000E
:03075800BF0800D7
:0C075B00502AEF90159793FEE53B5E607E
:0C0767001CEF242EF9901DE5E493FE74B5
:0C077300804EF7EF2424F9901DFAE49367
:05077F00FE740F5EF79F
:030784000F80D112
:020787007F00F1
:08078900EF24F850030208649C
:0B079100EF242EF98706BE80028003D3
:03079C00020860F0
:0A079F00D2018FF005F07401800212
:0207A90025E049
:0C07AB00D5F0FBFEEF2424F9E7FD20E46C
:0407B7000302083BF6
:0D07BB00901DF2E493FD8FF005F0ED80023B
:0207C800C31359
:0B07CA00D5F0FB20E005EE4241800569
:0507D500EEF4FD5241AD
:0C07DA00EF242EF87600901DEAE493FD59
:0707E6008FF005F0ED800229
:0207ED00C31334
:0E07EF00D5F0FBFC74015CFDBD01668F037C40
:0607FD00000BBB00010C23
:0E080300ECA2E713CB13CB74F92B901D0093DE
:0D081100FC74015FFBBB010553040F800860
:08081E0074F05CFBC4540FFCF4
:0E08260074E22F901D0093FB6030ED602D7486
:07083400804BF6A7048025AC
:0D083B00901DF2E493FD8FF005F0ED8002BA
:02084800C313D8
:0C084A00D5F0FB20E007EEF4FD524180E9
:01085600039E
:03085700EE42412D
:06085A00EF242EF87600E9
:040860000F020789F3
:010864002271
:0A0865007F00053D7407553DFE7449
:0B086F000F5589FDBD025EE570705A58
:0C087A003092FDE58A248D40F7C203ADEA
:0E08860080D293EE90159793FEF4FC8C807B4D
:01089400055E
:0C0895008B021A8A03EB70F8A2939218F1
:0908A1008D802018048E058D07DE
:0C08AA00EE5FFDEE553CFBEDB503028057
:0108B6001D24
:0408B700854241E550
:0C08BB003CF4FDEF5205EE5205ED600527
:0508C700ED6241D201C9
:0808CC00EE5F423CEC4F523C90
:0108D4002201
:0B08D500AE427F00EEF4FEEFF4FFAC3B
:0C08E000417D00EC5206ED5207EE4F6027
:0C08EC001FC28C53A2E9C292854180C259
:0E08F8008DE4F58CF58A74F0558904F5897548
:060906008F00D28C80037B
:03090C00854180A2
:08090F00901DF3E4936541F52E
:030917003F7F001F
:03091A00BF080013
:0A091D0050218FF005F074018002F4
:0209270025E0C9
:0A092900D5F0FBFE5541FDEE5542EE
:07093300FCEDB50402800396
:03093A00EE424545
:03093D000F80DA4E
:04094000854142C2E9
:0209440001228E
:0C094600AF82E5426FFEE4FCFDEE30E005
:0B0952000EEF30E0067C007D208004EA
:04095D007C007D108D
:0D096100EE30E10CEF30E1054304088003A7
:03096E004304043B
:0D097100EE30E20CEF30E20543058080031C
:03097E00430540EE
:0D098100EE30E30CEF30E305430402800389
:03098E004304011E
:0D099100EE30E40CEF30E4054304808003F9
:03099E00430440CF
:0D09A100EE30E50CEF30E505430502800364
:0309AE00430501FD
:0D09B100EE30E60CEF30E605430420800335
:0309BE00430410DF
:0D09C100EE30E70CEF30E70543050880033A
:0309CE00430504DA
:0509D1008C828D8322E1
:0C09D600AE82AF838E04AE41C282C283A9
:0209E2007D0096
:0E09E400ED24F8402674805C23540124FF9219
:0E09F20080EC2CFCD283C28374805E235401FF
:0E0A0000FB24FF9284EE2EFED285C2850D806F
:010A0E00D512
:060A0F00D286C2867E00C3
:0E0A1500EE24F8401574805F235401FD24FF89
:0C0A23009280EF2FFFD283C2830E80E68A
:050A2F00D282C2822208
:080A3400901D99E493F5419037
:070A3C001DF6E493FF7E00AC
:0E0A4300EE24FC4046EE75F002A4FCADF08CF3
:060A5100F005F0EF800249
:020A5700C313C7
:0E0A5900D5F0FBFC74035CFDBD01148EF005AE
:050A6700F074018002A3
:020A6C0025E083
:0A0A6E00D5F0FBFC74FFC39C52415D
:0B0A7800BD02108EF005F0740180023A
:020A830025E06C
:060A8500D5F0FBFC42412C
:030A8B000E80B525
:080A8E00901DF7E493FF7E00C8
:0E0A9600EE24FC404CEE75F002A4FBACF08B9D
:060AA400F005F0EF8002F6
:020AAA00C31374
:0E0AAC00D5F0FBFB74035BFDBD011774042E37
:080ABA00F5F005F07401800263
:020AC20025E02D
:0A0AC400D5F0FBFC74FFC39C524107
:0E0ACE00BD021374042EF5F005F074018002D1
:020ADC0025E013
:060ADE00D5F0FBFD4241D2
:030AE4000E80AFD2
:060AE700754200D20190EF
:070AED001DF3E4936541F5E0
:050AF4003FE541F44262
:020AF900452294
:0C0AFB00753C007580007584007585FF57
:0E0B070074F055892402F589758F01758C50A4
:0C0B150043A210D28CC2A9D28875400007
:060B2100E4F543F538F590
:040B270039F544C296
:0C0B2B0000C2AF75E40075E71D75E6031D
:0E0B370075E50075E71D75E60475E50475E7C4
:0E0B45001D75E60C75E50075E468D2AFC28838
:0D0B530075D16075D20375D39A75D161908C
:0B0B60001DF9E493C4540FFF8F2C908C
:0B0B6B001DFAE493FF740F5FF52D22CC
:0815970001020408102040804D
:0E0B7600C0E0C0D0C2AAC28E740F55892420E0
:0E0B8400F589758B35758D80C28FD28ED2AB00
:060B9200757002C204D2DE
:050B980002756F0075FD
:090B9D006E00D203D0D0D0E0328A
:0C0BA600C023C0E0C0F0C082C083C007C4
:0E0BB200C006C005C004C003C002C001C000E0
:0C0BC000C0D075D000E570FF24F1500398
:030BCC00020EC353
:070BCF00EF2F2F900BD673EE
:070BD600020C03020EC30232
:060BDD000C76020D30024F
:060BE3000D39020DAE0207
:060BE9000EC3020EC30260
:060BEF000EC3020EC3025A
:060BF5000DD2020E3A02CF
:060BFB000EC3020E5E02B3
:020C01000EAC37
:0E0C0300C28E740F55892420F589758B80757B
:0A0C11008D80C28FD28EE572B5739C
:030C1B0002805103
:080C1E00E5732464F9878212DA
:0B0C26000FA9503DC2AAE5707032E536
:0A0C3100732464F9E7FF20E507745F
:060C3B00204FF775710067
:0B0C410074FC25714005120F0E801698
:060C4C000573537307C29B
:040C52000CC21112AD
:0C0C56000EE2C28E758DF0758B00D28E00
:050C6200D2AA020EC33E
:060C670005735373070240
:020C6D000EC3B4
:070C6F00C28ED2AA020EC3DF
:0A0C7600A28BB39218C28B757003B5
:0A0C8000758D00E56F700A756F01B5
:050C8A00C205C20602D4
:020C8F000EC392
:0A0C9100747F256F401C301808B274
:040C9B0004E56F25D8
:030C9F006EF56E81
:050CA200E56F256FF570
:060CA7006F6003020EC3A2
:060CAD00756F81020EC309
:0A0CB300C28EC28FA204201801B304
:0A0CBD005026E56C700E74CCB56E85
:030CC70002D20551
:070CCA00740CB56E02D206A6
:070CD100200513200610E5C9
:050CD8006C244DF8E55D
:050CDD006EF6626D05DA
:030CE2006C800221
:020CE500C20249
:050CE700100C02801D4D
:070CEC003005143002117500
:070CF30071041011028009D9
:070CFA00E5482404F548530E
:020D0100483C6C
:060D0300120EE2020EC315
:070D090030021E20051B2033
:0C0D10000618740F55892410F589758DA4
:0C0D1C00FA758B70D28E757004D2AA029A
:020D28000EC3F8
:060D2A00120EE2020EC3EE
:090D3000758D80757002020EC37E
:0A0D3900300A64E56C24FB505EC232
:0E0D43008E740F55892410F589758DEF758B10
:080D510042D28EA20F9207E5C9
:080D59005230E71F855082C0F3
:0C0D610051120F58AF821581BFFF0280B5
:010D6D000283
:020D6E00D207AA
:090D7000E550701CE5517018D229
:030D7900078014DC
:0C0D7C00901D17E493FFB5500B901D185C
:080D8800E493FFB55102D2070C
:090D900074FFB56D05300702D2B5
:010D99000851
:060D9A00757005020EC396
:080DA000E56C24FE5002D208AC
:060DA800120EE2020EC370
:0A0DAE00C28E74FFB56D1330070A02
:060DB800D20D120F0EC265
:040DBE000C020EC352
:060DC200120EE2020EC356
:060DC800D20E120F0EC254
:040DCE000C020EC342
:080DD200E56C244DF9870730A0
:040DDA000D027FCCBB
:050DDE00300E027F0C45
:090DE300C2AA740AB57002800373
:030DEC00020EC331
:0A0DEF00E56F247F402CE56F5F7074
:090DF90008D296C20BB20480027C
:020E0200D20B11
:080E0400E56F7007756F01C274
:030E0C0004800659
:050E0F00E56F256FF501
:010E14006F6E
:070E1500E56F7003756F81AA
:050E1C0075700B80134E
:090E2100200406D296C20B8002E7
:020E2A00D20BE9
:060E2C00056C756F0075F6
:020E3200700D41
:060E3400758D12020EC3D1
:0A0E3A00E56C70077401B56F020546
:010E4400713C
:0A0E4500C296A20B828B5007C20C6C
:050E4F00120EE2800616
:060E540075700A758D6E39
:040E5A00C28B806562
:0E0E5E00C296C28E740F55892410F589758DC9
:0A0E6C00FB758B90D28E200D033031
:020E76000E0567
:050E7800120EE2802BC8
:0C0E7D00740F5552FF7E0074072FFFE435
:0C0E89003EFEAC6C7D00C3EF9CEE64806C
:0C0E95008DF063F08095F05007D2091238
:040EA1000EE28003DA
:030EA50075700E57
:040EA800C28B801762
:0E0EAC00C28E740F55892420F589758D6E75E0
:090EBA008B80C28FD28E75700A84
:0C0EC300D203D0D0D000D001D002D00368
:0E0ECF00D004D005D006D007D083D082D0F05A
:050EDD00D0E0D023323B
:0A0EE200757000C28BC28EC2AB75A2
:0A0EEC006D00756C00C28E740F5586
:0C0EF600892410F589758D89758BAFC2B9
:0A0F02000DC20EC28FD28ED2AAD209
:020F0C00AB2216
:0E0F0E00C28E740F55892420F589758D6E757D
:0C0F1C008B80C28F740F55522407FF75A4
:040F28006DFF7E00DB
:0C0F2C00C3EE9F500BEE244DF9E7FD6270
:040F38006D0E80F0CA
:070F3C00EF244DF8A66DC281
:040F430005C206D20B
:050F47000C75700A7535
:0A0F4C006F00756C00C2AAD28ED2AD
:020F5600AB22CC
:0A0F5800C008858108AF827EFF907B
:080F62001D16E493FDBDFF0024
:0C0F6A005038200F35901D16E493602EC7
:070F7600901D16E493FD1D20
:0E0F7D00ED6024ED2DFC2417901D0093FBEF7A
:0C0F8B00B5031374182C901D0093FCE5B6
:0A0F97000824FDF8E6B504028D06FB
:030FA1001D80D9D7
:050FA4008E82D008223E
:0A0FA900C008E581F5082404F58175
:0C0FB300AF82C2187DFE7E00EFA2E5E4D4
:090FBF0033FC24FF9219BF8000ED
:050FC80040030210F5DA
:0C0FCD00C005C006EF2323540124FF924E
:0B0FD9001A53071F8F82C007C005C01D
:0C0FE4002312040DAA82AB83ACF0FED0F7
:0A0FF00023D005D007A80808A602C8
:0E0FFA0008A60308A60408A606901D11E4939D
:0E100800FE0EEF2FFD2EFC04901D0093FEB592
:041016000702800647
:06101A00D006D005800F96
:0E102000D006D0058C8275831DE493FCFD7E06
:01102E0000C1
:09102F00BDFE06BE00030211D44F
:0A103800754DBC901D17E493FC8C6D
:0A1042004E901D18E493FC8C4FED56
:0C104C002DFD2417901D0093FE8E5074A3
:0A105800182D901D0093FE8E5175B7
:061062005300301A057571
:04106800544080036D
:03106C0075548038
:0E106F00901D12E4932F2FFE2F2404901D00DD
:0C107D0093FE24F95006EE24FBFE8002D6
:021089007E01E6
:0C108B0074E02EF552EE24FE500F7406A7
:0A1097002E244DF9A808088605A7CD
:0310A100058010B7
:0C10A400A80808743F56FAE4FBFCFDEAC3
:0410B0002554F5547A
:0C10B400EE24FD500E74052E244DF9A80A
:0710C0000808088605A705DA
:0C10C700EE24FC500F74042E244DF9A8F8
:0810D300080808088605A705BE
:0C10DB00EE24FB501074032E244DF9A8E5
:0910E70008080808088606A7069F
:0510F000D2180211D42A
:0A10F500754DB0901D17E493FE8EB8
:0A10FF004E901D18E493FE8E4F85FD
:03110900465085C8
:0A110C00475153071FEF24FA500368
:031116000211D2F1
:07111900EF2F2F901120734E
:071120000211D2021132029C
:06112700113E0211550209
:05112D0011660211CC67
:0811320075526074C2254CF5F2
:04113A00530211D279
:08113E0075526374432548F566
:051146005375544075D3
:06114B005500755612D29A
:04115100110211D2A4
:071155007550007551007593
:06115C0052E1755301751C
:041162005440806C09
:021166007F0008
:0A116800C3EF95495042E54A702C90
:0A117200740A2F244DF9EF254B906D
:0C117C001C0093F7AD4B7E008F037C003D
:0E118800EB2DFDEC3EFEBD601CBE0019740A8E
:081196002F244DF8A674800F10
:0A119E00740A2F244DF9EF254B9041
:0511A8001D0093FEF79D
:0311AD000F80B8F8
:0911B00074632549F552744245AF
:0611B90048F553744045A7
:0411BF0049F5548515
:0311C3004A558505
:0311C6004B56D2B3
:0311C9001180068C
:0611CC00755260755381AD
:0211D200D21831
:0811D40030190674DF554DF5DA
:0111DC004DC5
:0611DD00A218850881D074
:0211E3000822E0
:0711E500AF82C218BF4000F9
:0C11EC00501B8F82C007C02312152EE597
:0C11F80082D023D0075444FEBE44028085
:0112040004E5
:04120500D218802A51
:09120900AD727E000DBD00010E66
:0C1212005305077E00AB737C00EBB505B4
:07121E0006ECB50602800E8C
:08122500E5722464F8A6070538
:05122D0072537207D2AC
:0112320018A3
:05123300D28EA218227A
:08123800C0088581080581C290
:0812400008AF5374C35FFEAD5B
:0712480054E550FC7034E591
:09124F00517030E57420E0030247
:02125800142E52
:0E125A00EE700EBDC00BC006C005121513D0FD
:0312680005D006A8
:05126B00BE010280033A
:0312700002142E37
:06127300ED600302142EE1
:091279007582831211E502142EA6
:08128200E55230E70302135CA2
:0C128A00901D17E493FBECB503028003F9
:0312960002142E11
:0B129900901D18E493FBB55102800388
:0312A40002142E03
:0512A700BE42028018A8
:0512AC00BE4302804F6B
:0512B100BE8002806A0E
:0512B600BE8102807BF7
:0612BB00BE830302135381
:0312C10002142EE6
:0612C40020100302142EAD
:0C12CA00743C5FF54C5305F0BD800D75C1
:0C12D6008281C0051211E5121433D0050E
:0612E200ED600302142E72
:0412E800855449855B
:0312EC00554A85DB
:0612EF00564B75828112CE
:0912F50011E57582841211E50275
:0212FE00142EAC
:0B130000743C5FF54CBD800343A20865
:06130B00ED600302142E48
:0D1311007582811211E57582821211E502CC
:02131E00142E8B
:0613200030100302142E40
:04132600D210854E0E
:03132A0046854FA6
:05132D0047754800C2F5
:041332001102142E62
:07133600E54EB546028003FD
:03133D0002142E69
:07134000E54FB547028003F1
:0313470002142E5F
:06134A0010100302142E36
:0313500002142E56
:091353007582851211E502142EC9
:06135C00EE600302142EF6
:0C136200C005C0518C82120F58AF8215DC
:09136E0081D005BFFF0302142E1B
:0E137700901D11E493FEF58275831DE493250D
:0D138500E02EFC0E74C05DFBE4BB80010493
:01139200FB5F
:08139300C3EE9C400302142E7E
:0E139B008E8275831DE493FAEFB50202800383
:0313A90002142902
:0E13AC00C004EE04901D0093FAF582C007C045
:0E13BA0006C005C003C00212152EAC82D00280
:0C13C800D003D005D006D007A80808A666
:0C13D40004D004EB6031C003A8080874CA
:0813E0001456FBBB140280044B
:0413E800D003801F8F
:0E13EC00D0038A82C007C006C005C004C0033B
:0E13FA00C002120352D002D003D004D005D09E
:0314080006D00704
:0C140B00ED701BC002A80808740C56FA13
:05141700BA0C02800484
:04141C00D002800E6C
:09142000D0028A82120402800548
:051429000E0E021393FA
:05142E001581D0082229
:0A143300C008E581F5082404F581E6
:08143D00A80808740F5554F6CD
:0A144500E57070FCC2AF75E400AE64
:0A144F0056AD5574015D241CFCA885
:05145900080808760000
:0A145E00A8080808A90809C3E697CA
:0514680040030215081D
:0C146D00ED7030C0048E027C00A808085E
:0E1479000886037F00EB2AFAEF3CFCBA600500
:05148700BC000280041E
:04148C00D0048010F8
:0A149000D004A8080808740A2624F6
:06149A004DF98774800289
:0214A0008CE7D7
:0A14A200A8080808E62EF5E6A808E1
:0C14AC000808740A26244DF987E58E0319
:0A14B8007F00A8080808E5082403D7
:0C14C200F9E6F7097700E5082403F8E6D6
:0E14CE002BFB08E63F53033F7F00BB3F25BFCB
:0C14DC000022A8080886037F001BBBFF4D
:0214E800011FE2
:0C14EA00E5082403F8E6B5030708E6B5A2
:0414F6000702800663
:0614FA0075E46875E400D2
:08150000A80808080602145EA9
:0A15080075E468D2AF850881D008B1
:0115120022B6
:0C151300E57070FCC2AF75E40075E71DC8
:0A151F0075E6178555E58556E5755C
:05152900E468D2AF22CE
:0E152E00AF82901D12E493FE0E0E0EEF2E2FD4
:08153C002F901D0093F582229F
:0E15440075950075911475924CC296758921AB
:0E155200758F00C28CC28E758D80758B80C225
:0C1560008FC20375A88075E80075B80400
:0A156C0075B70CD28A75742EC20503
:05157600C206C20DC217
:04157B000EC208D2C2
:05157F000A7572007501
:061584007300754800C26F
:04158A0011C210C2B8
:05158E000F120EE22225
:06005200E478FFF6D8FD82
:080030007900E94400601B7A2D
:050038000090159F7807
:03003D000075A0AB
:0A00400000E493F2A308B8000205E3
:08004A00A0D9F4DAF275A0FF61
:080058007800E84400600A7919
:030060000075A088
:0600630000E4F309D8FCE3
:080069007800E84400600C7906
:0B00710000900000E4F0A3D8FCD9FAD6
:0300230075817470
:0A002600121593E582600302001E2C
:04159300758200223B
:00000001FF
