:06007C00E4F546F54775AE
:0600820048FF754900C2B1
:0500880009754B007535
:06008D0025007526007538
:060093003F00E4F542F518
:0400990043F544F5F2
:04009D0045C200C296
:0400A10001C202C2D4
:0300A50003C2048F
:0C00AB00AE82AF83BE6005BF000280186B
:0800B700BEC005BF0002801667
:0800BF00BE8005BF01028014A0
:0800C700BE401DBF021A8012A9
:0600CF007EF07F028016A6
:0600D5007E707F01801027
:0600DB007EB07F00800AE8
:0600E1007E707F00800428
:0400E7007E307F00E8
:0E00EB0053BDFE5391FC5392FC75985143BADD
:0E00F900E043BD028FBF8EBE43BD01D29922EF
:02010700AF82C5
:0501090010990280FBCB
:03010E008F9922A4
:0C011100AD82AE83AFF07401B525280567
:03011D00257C003E
:0501200010990280FBB4
:0E012500EC2DF9E43EFA8F0389828A838BF079
:0B0133001218B5F98999B90302800683
:06013E000CEC24F950DC7A
:010144002298
:0A014500C008858108C082C083C095
:0C014F00F0AC99C298E53F7020BC02386B
:05015B00AB3F053FA8C9
:0C0160000808EB26FAE40836FB088607C6
:0C016C008A828B838FF0EC12182F801B0E
:05017800AF3F053FA8A8
:0C017D000808EF26FFE40836FE0886059F
:0A0189008F828E838DF0EC12182F88
:0C01930074F0253F50147582061201071D
:0A019F00758206120107753F007516
:0401A90025008005A8
:0501AD00BC0302052562
:0601B200850881D008223F
:0601B800855682C05712BB
:0C01BE001274AF821581BFFF0302024ED5
:0C01CA00901D11E493FEF58275831DE486
:0901D60093FD74022EFC0E7B0067
:0E01DF00C3EB9D506AC004EB2BFA2E901D005E
:0801ED0093FCEFB5040280044D
:0401F500D004805260
:0E01F900D004C006EA2C901D0093FAF582C0D7
:0E02070007C005C004C003C002121712AE8269
:0E021500D002D003D004D005D007530614BE8B
:04022300140280043D
:04022700D00680205D
:0B022B00D006EA700DE55A30E004D266
:0302360000800441
:04023900C200C2033A
:0A023D00BA010BE55A30E004D201CB
:02024700800233
:02024900C201F0
:03024B000B809194
:01024E00228D
:06024F00855682C0571223
:0E025500172AAF8215818F82C007121712AED2
:0C02630082D00753060CBE0C058F2675D8
:02026F00250167
:01027100226A
:07027200854282854383856C
:0502790044F0E5452200
:09027E00AF82E52570030207D9E7
:080287007401B52503753F0069
:08028F00EF24E9500302074DC2
:0D029700EF240983C0E0EF241A83C0E022A9
:0202A400D2F195
:0202A600101630
:0202A8001C9E9A
:0202AA004A8088
:0202AC00A8396F
:0202AE007ABB19
:0202B000E30B5E
:0202B200335BBC
:0202B40083AB1A
:0202B600D2EB89
:0202B800041D23
:0102BA00360D
:0202BB0002023D
:0202BD00030339
:0202BF00030337
:0202C100040433
:0202C300040530
:0202C50005052D
:0202C70005062A
:0202C900060627
:0202CB00060625
:0202CD00060623
:0202CF0007071F
:0102D1000725
:0702D2007401B52502800351
:0302D90002074DCC
:0702DC00A200E433F54275B6
:0602E300430075440075A4
:0602E90045007525050229
:0202EF00074DB9
:0702F1007401B52502800332
:0302F80002074DAD
:0702FB00A201E433F5427596
:0603020043007544007584
:0603080045007525050209
:02030E00074D99
:0603100075250002074DF7
:0603160075250002074DF1
:0E031C00901BDA75F080C007120111D0077433
:06032A0004B5250280036A
:0303300002074D74
:040333008538427552
:060337004300754400754F
:04033D0045008544AE
:03034100458543AC
:03034400448542AB
:0503470043754200AB0C
:0A034C0039E4FCFDFEEB4242EC42F6
:0603560043ED4244EE42BB
:03035C0045854490
:03035F004585438E
:030362004485428D
:0503650043754200ABEE
:0A036A003AE4FCFDFEEB4242EC42D7
:0603740043ED4244EE429D
:03037A0045854472
:03037D0045854370
:030380004485426F
:0503830043754200ABD0
:0A0388003BE4FCFDFEEB4242EC42B8
:0603920043ED4244EE427F
:0403980045052502F0
:02039C00074D0B
:0E039E00901BE075F080C007120111D00774AB
:0603AC0004B525028003E8
:0303B20002074DF2
:0403B50085384275D0
:0603B900430075440075CD
:0403BF00450085442C
:0303C3004585432A
:0303C60044854229
:0503C90043754200AB8A
:0A03CE0039E4FCFDFEEB4242EC4274
:0603D80043ED4244EE4239
:0303DE004585440E
:0303E1004585430C
:0303E4004485420B
:0503E70043754200AB6C
:0A03EC003AE4FCFDFEEB4242EC4255
:0603F60043ED4244EE421B
:0303FC00458544F0
:0303FF00458543EE
:03040200448542EC
:0504050043754200AB4D
:0A040A003BE4FCFDFEEB4242EC4235
:0604140043ED4244EE42FC
:06041A0045E545C313F5A2
:0504200045E54413F561
:0504250044E54313F55E
:05042A0043E54213F55B
:06042F0042E545C313F590
:0504350045E54413F54C
:05043A0044E54313F549
:05043F0043E54213F546
:040444004205250246
:02044800074D5E
:0E044A00901BE675F080C007120111D00774F8
:0604580004B5250280033B
:03045E0002074D45
:0A046100AE387D00AB397C00EB42A1
:0A046B0005EC42068D42EEF5433326
:0704750095E0F544F5450593
:04047C002502074D01
:0E048000901BE675F080C007120111D00774C2
:06048E0004B52502800305
:0304940002074D0F
:04049700853B4275EA
:06049B00430075440075EA
:0504A1004500052502E5
:0204A600074D00
:0E04A800901BEC75F080C007120111D0077494
:0604B60004B525028003DD
:0304BC0002074DE7
:0A04BF00AE387D00AB397C00EB4243
:0A04C90005EC42068D42EEF54333C8
:0904D30095E0F544F545C007C0B1
:0404DC0042C043C017
:0A04E00044C0459023E0E4F5F0125B
:0704EA0018D18582428583D1
:0504F1004385F044F515
:0C04F60045E58124FCF5817488C0E074A9
:0C05020013C0E0E4C0E0C0E08542828548
:06050E0043838544F0E583
:0605140045121848858223
:06051A004285834385F0D9
:0A05200044F545E58124FCF58190C7
:0B052A00004275F040120A51D0070596
:040535002502074D47
:0E053900901BEC75F080C007120111D0077402
:0605470004B5250280034B
:03054D0002074D55
:0C055000E53B75F032A42430FDE5F034EA
:09055C00F88D42F5433395E0F5FA
:0405650044F5459084
:0D056900004275F040C007120A51D007058E
:040576002502074D06
:0E057A00901BEC75F080C007120111D00774C1
:0605880004B5250280030A
:03058E0002074D14
:0C059100E53A75F032A42430FDE5F034AA
:09059D00F88D42F5433395E0F5B9
:0405A60044F5459043
:0D05AA00004275F040C007120A51D007054D
:0405B7002502074DC5
:0E05BB00901BE675F080C007120111D0077486
:0605C90004B525028003C9
:0305CF0002074DD3
:0405D200853A4275AF
:0605D600430075440075AE
:0505DC004500052502A9
:0205E100074DC4
:0E05E300901BF275F080C007120111D0077452
:0605F10004B525028003A1
:0305F70002074DAB
:0405FA008538427589
:0605FE0043007544007586
:05060400450005250280
:02060900074D9B
:0E060B00901BF275F080C007120111D0077429
:0606190004B52502800378
:03061F0002074D82
:04062200853942755F
:060626004300754400755D
:05062C00450005250258
:02063100074D73
:0E063300901BF275F080C007120111D0077401
:0606410004B52502800350
:0306470002074D5A
:04064A00853A427536
:06064E0043007544007535
:05065400450005250230
:02065900074D4B
:0E065B00901BF275F080C007120111D00774D9
:0606690004B52502800328
:03066F0002074D32
:04067200853B42750D
:060676004300754400750D
:05067C00450005250208
:02068100074D23
:0E068300901BF875F080C007120111D00774AB
:0606910004B52502800300
:0306970002074D0A
:04069A0085384275E8
:06069E00430075440075E5
:0506A4004500052502E0
:0206A900074DFB
:0E06AB00901BF875F080C007120111D0077483
:0606B90004B525028003D8
:0306BF0002074DE2
:0406C20085394275BF
:0606C600430075440075BD
:0606CC0045000525807BBE
:0A06D2007401B52576A202E433F5A9
:0506DC004275430075AA
:0606E100440075450075A0
:0406E7002505806203
:0A06EB007401B5255DA202E433F5A9
:0506F500427543007591
:0606FA0044007545007587
:040700002505804902
:0A0704007401B52544A202E433F5A8
:05070E00427543007577
:060713004400754500756D
:040719002505803002
:0A071D007401B5252BA204E433F5A6
:0507270042754300755E
:06072C0044007545007554
:040732002505801702
:0A0736007401B52512A204E433F5A6
:05074000427543007545
:060745004400754500753B
:02074B00250582
:0C074D007402B5253F3098149000277509
:0C075900F040C007120145D007E4F5464F
:04076500F5478028AC
:05076900AD46AE47059E
:06076E0046E4B546020559
:01077400473D
:0E077500BD0019BE0616758206C007120107E8
:0C078300758206120107D007753F007553
:02078F00250043
:0B0791007403B52525758206C0071211
:07079C0001077437C0E0748F
:0C07A30000C0E07440C0E090002775F03A
:0C07AF00401207DA158115811581D00772
:0B07BB007405B525198F821214CF922F
:0A07C600204010E53F600675820632
:0307D0001201070C
:0607D300753F00752500D2
:0107D90022FD
:0A07DA00C008858108C082C083C0FA
:0907E400F005817C0005257B0075
:0307ED00BB080046
:0C07F0005020C004E50824FBF8EB26FABA
:0E07FC00E40836FC0886078A828C838FF0E4BE
:08080A0012182F0BD00480DB53
:040812007F007E00E5
:09081600C3EE953F40030208FC0B
:0C081F00A80808EE26FAE40836FB08865C
:0E082B00058A828B838DF01218B5FDBD030384
:030839000208FCB6
:08083C00EC700DBD0202800307
:030844000208F8AF
:050847007C010208F82D
:0A084C00E5082404F87600BD300032
:0C085600400EED24C64009E5082404F81B
:04086200ED24D0F6BB
:0C086600C004A80808EE26FAE40836FCDE
:0E0872000886058A828C838DF01218B5FDBDB4
:02088000410035
:0C088200D004400EED24B94009E5082424
:06088E0004F8ED24C9F698
:0C089400EF20E02CC004EFC313FDE508CA
:0E08A00024FBF8ED26FAE40836FC088605E590
:0C08AE00082404F8E6C454F0FB8A828C95
:0A08BA00838DF012182FD004803354
:0C08C400C004EFC313FDE50824FBF8EDB1
:0E08D00026FDE40836FB0886028D828B838AA3
:0C08DE00F01218B5FCE5082404F8E6420E
:0D08EA00048D828B838AF0EC12182FD0044D
:0108F7000FF1
:0408F8000E020816CE
:0A08FC00EFC313F582850881D008D0
:0109060022CE
:0A090700AD82AE83AFF02002033092
:020911000402DE
:02091300802D35
:0C091500300009AC905304FB8C90802152
:0C09210030011B8D828E838FF01218B500
:0D092D00FD30E109AF905307FB8F9080086B
:05093A0043900480035E
:03093F00439004DE
:010942002292
:0609430020000330010357
:03094900020A504F
:05094C00E5482548F517
:0A09510048740455900303543F421C
:0A095B0048740F5548FFBF0F09C292
:0409650002C2047551
:040969004900801DA4
:09096D00E548540F7009D202C2E2
:0609760004754900800E2B
:09097C00C20274FC254940040587
:03098500498002A4
:02098800D20497
:07098A00E5257071A20220B7
:030991000501B3AA
:070994004069A20292057503
:06099B00261275250190F3
:0C09A1001DF8E493FF30E75630024CD202
:0909AD0003901DF9E493601F9012
:0E09B6001DF8E493FF747F5F75F03CA4AFF072
:0809C4002540FEEF3541FF78EC
:0809CC000DA60608A607801A1B
:0D09D400901DF8E493FF53077F7E00EF2590
:0709E10040FFEE3541FE78F6
:0609E8000DA60708A6069B
:0809EE00780D06B600020806B0
:0209F600800778
:0509F800200302D209FA
:0209FD00C20333
:0709FF00E5257012A204209F
:030A06000601B333
:070A0900400AA204920675E9
:050A100026157525010B
:070A1500E5257012A2072085
:030A1C000201B321
:070A1F00400AA202920775D4
:050A26002613752501F7
:070A2B00E5257012A208206E
:030A32000401B309
:070A3500400AA204920875BB
:050A3C002616752501DE
:090A4100E525700B100902800686
:060A4A007526147525015C
:010A50002283
:0A0A5100C008858108C082C083C080
:0C0A5B00F0E5812406F581E5082404F88C
:040A6700E4F608F6B3
:0C0A6B00A8080886820886830886F0121E
:0A0A770018B5FCA31218B5FDA31278
:0E0A810018B5FEA31218B5FFC3EC94FFED9458
:0C0A8F0007EE9400EF94004038E50824C6
:080A9B0004F806B6000208068B
:0E0AA300EFC313FFEE13FEED13FBEC13FAA8E6
:0C0AB100080886820886830886F0EA1296
:0A0ABD00182FA3EB12182FA3EE125E
:090AC700182FA3EF12182F809BD9
:0C0AD000A8080886820886830886F0E5E6
:0A0ADC00082406F91218B5F7A3125A
:0C0AE60018B509F7A31218B509F7A31200
:0C0AF20018B509F7E5082404F8E6C40371
:0C0AFE0054F8FFE4FAFEFDE5082406F8B9
:0E0B0A00E6420208E6420708E6420608E64216
:0C0B180005A8080886820886830886F07D
:0C0B2400EA12182FA3EF12182FA3EE12F4
:080B3000182FA3ED12182F8508
:050B38000881D0082235
:0E0B3D0075D16075D27075D38090004A75F046
:080B4B0040120907120943E5FD
:070B53004A20E003020D45FA
:070B5A000540E4B54002056F
:010B61004152
:090B62007809E6B5400708E6B584
:040B6B0041028002C1
:020B6F00805DA7
:0C0B7100901DFAE493FF30E754E5256086
:090B7D000A780906B60002080618
:020B86008046A7
:070B8800752612752501908E
:0E0B8F001DFBE493601F901DFAE493FF747F3A
:0C0B9D005F75F03CA4AFF02540FEEF3582
:0A0BA90041FF7809A60608A60780A0
:010BB3001A27
:0D0BB400901DFAE493FF53077F7E00EF25AC
:070BC10040FFEE3541FE7814
:060BC80009A60708A606BD
:090BCE00780BE6B5400708E6B516
:040BD7004102800255
:020BDB00805D3B
:0C0BDD00901DF6E493FF30E754E525601E
:090BE9000A780B06B600020806AA
:020BF20080463B
:070BF400752615752501901F
:0E0BFB001DF7E493601F901DF6E493FF747FD6
:0C0C09005F75F03CA4AFF02540FEEF3515
:0A0C150041FF780BA60608A6078031
:010C1F001ABA
:0D0C2000901DF6E493FF53077F7E00EF2543
:070C2D0040FFEE3541FE78A7
:060C34000BA60708A6064E
:070C3A0030032E780DE6B532
:090C4100400708E6B541028002FB
:020C4A00801F09
:0C0C4C00901DF8E493FF30E716E52560EA
:090C58000A780D06B60002080638
:020C6100800809
:060C6300C20375261475A2
:020C6900250163
:090C6B00780FE6B5400708E6B574
:040C740041028002B7
:020C7800806397
:0C0C7A00901DF4E493FF30E75AE525607C
:090C86000A780F06B60002080608
:020C8F00804C97
:0C0C9100754B04901DF4E493FF30E74025
:0E0C9D00901DF5E493601F901DF4E493FF7426
:0C0CAB007F5F75F03CA4AFF02540FEEF29
:0A0CB7003541FF780FA60608A607D6
:020CC100801A97
:0D0CC300901DF4E493FF53077F7E00EF25A2
:070CD00040FFEE3541FE7804
:060CD7000FA60708A606A7
:090CDD00E5257064E54B6060E55B
:0C0CE6004B24F54029901DFCE493FFAD69
:0C0CF2004B7E00ED24FCFDEE34FFFE8D77
:060CFE00F005F0EF80029A
:020D0400C31317
:0A0D0600D5F0FB30E02F854B267579
:040D10002501802712
:0C0D1400901DFDE493FFAD4B7E00ED242C
:0D0D2000F5FDEE34FFFE8DF005F0EF8002D2
:020D2D00C313EE
:0A0D2F00D5F0FB30E006854B267579
:020D3900250192
:080D3B00054B7412B54B037562
:020D43004B0063
:060D4500054A75D1612290
:0E0D4B007584037585037580FB439104439204
:0E0D5900044390049000601200AB75D27075D8
:0A0D6700D38075D161E4F540F54139
:0C0D7100901DFAE49360077809760208F0
:020D7D007600FE
:0C0D7F00901DF6E4936007780B760408E2
:020D8B007600F0
:0C0D8D00901DF4E4936007780F760608D0
:020D99007600E2
:0E0D9B00C2AF75E40075E71D75E60375E5004F
:0E0DA90075E71D75E60475E54C75E71D75E6EA
:0E0DB7000575E50375E71D75E60675E5F27531
:0E0DC500E71D75E60775E50175E71D75E60C7F
:0E0DD30075E50075E71D75E60D75E5FF75E722
:0E0DE1001D75E61275E5A075E468D2AF75C108
:0E0DEF00FFC2AF75A7E575C2A575C35AD2AF96
:0D0DFD007582061201077582061201072299
:0E1BDA0002303436340302303936390302301B
:0E1BE8004237320302304337330302304437B2
:081BF6003403023045373503CA
:0400000002002332A5
:01000B0032C2
:03001300020E9248
:03001B00020EC210
:0300A80002001E35
:05001E00120E0A80FE35
:050E0A001217CF7F006C
:030E0F00BF3200EF
:0E0E1200501AC28C901D17E493F58C901D1899
:080E2000E493F58AC28DD28C27
:060E2800308DFD0F80E19A
:030E2E00120D4B57
:0C0E3100901D0DE493FFBFFF0E20180B76
:090E3D00E57A20E0068526821208
:020E4600027E2A
:060E480030100312150238
:090E4E00748025D15003120B3D04
:0E0E5700C2AF75C2A575C35AD2AFD29720970D
:030E6500107F6497
:080E68008F061E8E07EF70F8E3
:060E70003097FD637A815A
:080E7600E57A5401FEB401000D
:090E7E00E433FE24FF92977F6427
:0B0E87008F061E8E07EF70F880A0227F
:0E0E9200C0E0C0D0C2AAC28E740F55892420C1
:0E0EA000F589758B35758D80C28FD28ED2ABE1
:060EAE00757602C20CD2B1
:050EB4000A75750075D0
:090EB9007400D20BD0D0D0E0325D
:0C0EC200C024C0E0C0F0C082C083C007A4
:0E0ECE00C006C005C004C003C002C001C000C1
:0C0EDC00C0D075D000E576FF24F1500373
:030EE8000211DF15
:070EEB00EF2F2F900EF273B0
:070EF200020F1F0211DF02D5
:060EF9000F9202104C02F2
:060EFF0010550210CA02AA
:060F050011DF0211DF0202
:060F0B0011DF0211DF02FC
:060F110010EE0211560271
:060F170011DF02117A0255
:020F1D0011C8F9
:0E0F1F00C28E740F55892420F589758B80755C
:0A0F2D008D80C28FD28EE578B57971
:030F3700028051E4
:080F3A00E579246AF9878212AF
:0B0F420012C7503DC2AAE5767032E5F0
:0A0F4D0079246AF9E7FF20E5077434
:060F5700204FF775770042
:0B0F5D0074FC2577400512122A801654
:060F68000579537907C270
:040F6E0014C219127E
:0C0F720011FEC28E758DF0758B00D28EC2
:050F7E00D2AA0211DF00
:060F830005795379070215
:020F890011DF76
:070F8B00C28ED2AA0211DFA1
:0A0F9200A28BB39220C28B75760388
:0A0F9C00758D00E575700A7575018A
:050FA600C20DC20E02A5
:020FAB0011DF54
:0A0FAD00747F2575401C302008B247
:040FB7000CE57525AB
:030FBB0074F57456
:050FBE00E5752575F545
:060FC3007560030211DF5E
:060FC9007575810211DFC5
:0A0FCF00C28EC28FA20C202001B3D5
:0A0FD9005026E572700E74CCB5745A
:030FE30002D20D2A
:070FE600740CB57402D20E79
:070FED00200D13200E10E59A
:050FF400722453F8E532
:050FF90074F6627305AF
:030FFE00728002FC
:02100100C20A21
:05100300101402801D25
:07100800300D14300A1175D0
:07100F0077041019028009AB
:07101600E54E2404F54E53E2
:02101D004E3C47
:06101F001211FE0211DFB8
:07102500300A1E200D1B2004
:0C102C000E18740F55892410F589758D7D
:0C103800FA758B70D28E757604D2AA0275
:0210440011DFBA
:061046001211FE0211DF91
:09104C00758D807576020211DF3A
:0A105500301264E57224FB505EC205
:0E105F008E740F55892410F589758DEF758BF1
:08106D0042D28EA217920FE59A
:081075005830E71F855682C0C8
:0C107D0057121274AF821581BFFF028071
:011089000264
:02108A00D20F83
:09108C00E556701CE5577018D2FE
:031095000F8014B5
:0C109800901D17E493FFB5560B901D1837
:0810A400E493FFB55702D20FDF
:0910AC0074FFB57305300F02D288
:0110B500102A
:0610B6007576050211DF52
:0810BC00E57224FE5002D2107F
:0610C4001211FE0211DF13
:0A10CA00C28E74FFB57313300F0AD5
:0610D400D21512122AC21F
:0410DA00140211DF0C
:0610DE001211FE0211DFF9
:0610E400D21612122AC20E
:0410EA00140211DFFC
:0810EE00E5722453F987073075
:0410F60015027FCC94
:0510FA003016027F0C1E
:0910FF00C2AA740AB5760280034E
:031108000211DFF2
:0A110B00E575247F402CE5755F7048
:0911150008D296C213B20C80024C
:02111E00D213EA
:08112000E5757007757501C249
:031128000C800632
:05112B00E5752575F5D6
:011130007549
:07113100E57570037575817F
:0511380075760B801329
:09113D00200C06D296C2138002B8
:02114600D213C2
:06114800057275750075CB
:02114E00760D1C
:06115000758D120211DF93
:0A115600E57270077401B57502051B
:011160007717
:0A116100C296A213828B5007C2143D
:05116B001211FE8006D8
:0611700075760A758D6E14
:04117600C28B806543
:0E117A00C296C28E740F55892410F589758DAA
:0A118800FB758B90D28E201503300A
:02119200160540
:051194001211FE802B8A
:0C119900740F5558FF7E0074072FFFE410
:0C11A5003EFEAC727D00C3EF9CEE648047
:0C11B1008DF063F08095F05007D2111211
:0411BD0011FE80039C
:0311C10075760E32
:0411C400C28B801743
:0E11C800C28E740F55892420F589758D6E75C1
:0911D6008B80C28FD28E75760A5F
:0C11DF00D20BD0D0D000D001D002D00341
:0E11EB00D004D005D006D007D083D082D0F03B
:0511F900D0E0D024321B
:0A11FE00757600C28BC28EC2AB757D
:0A1208007300757200C28E740F555A
:0C121200892410F589758D89758BAFC299
:0A121E0015C216C28FD28ED2AAD2DA
:02122800AB22F7
:0E122A00C28E740F55892420F589758D6E755E
:0C1238008B80C28F740F55582407FF757F
:0412440073FF7E00B6
:0C124800C3EE9F500BEE2453F9E7FD624B
:04125400730E80F0A5
:07125800EF2453F8A673C256
:04125F000DC20ED2DC
:051263001475760A7508
:0A1268007500757200C2AAD28ED282
:02127200AB22AD
:0A127400C008858108AF827EFF905C
:08127E001D16E493FDBDFF0005
:0C128600503A201737901D16E49360309A
:021292007D01DC
:0E129400901D16E493FCC39D4024ED2DFC2418
:0E12A20017901D0093FBEFB5031374182C90EA
:0C12B0001D0093FCE50824FDF8E6B504E1
:0312BC00028D069A
:0312BF000D80D2CD
:0512C2008E82D008221D
:0A12C700C008E581F5082404F58154
:0C12D100AF82C220EFA2E5E433FE24FF50
:0512DD009221BF80001A
:0512E20040030213DFD0
:0C12E700EF2323540124FF922253071F21
:0C12F3008F82C007C024120272AB82ACD4
:0A12FF0083ADF0FED024D007A8084C
:0E13090008A60308A60408A60508A6068F82FB
:0C131700C007C024121783AA82AE83D046
:0C13230024D0078A05ED4E70030214BEB2
:0A132F007553BC901D17E493FC8C6D
:0A13390054901D18E493FC8C558EAF
:06134300048C568D577565
:0613490059003022057579
:04134F005A4080037D
:03135300755A8048
:0E135600901D12E493FEEF75F003A42E240404
:0E136400901D0093FE24F95006EE24FBFE803F
:011372000278
:021373007E01F9
:0C13750074E02EF558EE24FE500F7406B4
:0A1381002E2453F9A808088603A7DC
:03138B00038010CC
:0C138E00A80808743F56FAE4FBFCFDEAD6
:04139A00255AF55A81
:0C139E00EE24FD500E74052E2453F9A817
:0713AA000808088605A705ED
:0C13B100EE24FC500F74042E2453F9A805
:0813BD00080808088605A705D1
:0C13C500EE24FB501074032E2453F9A8F2
:0913D10008080808088606A706B2
:0513DA00D2200214BE48
:0A13DF007553B0901D17E493FE8EC5
:0A13E90054901D18E493FE8E558504
:0313F3004C5685D0
:0A13F6004D5753071FEF24FA500370
:031400000214BC17
:07140300EF2F2F90140A7374
:07140A000214BC02141C02D5
:06141100142802143F0242
:0514170014500214B6A0
:08141C0075586074C22552F5F9
:04142400590214BC99
:081428007558637443254EF56D
:0514300059755A4075DA
:061435005B00755C12D2A1
:04143B00190214BCC2
:07143F00755600755700759A
:0614460058E17559017523
:04144C005A40806C16
:021450007F001B
:0A145200C3EF954F5042E550702C97
:0A145C00740A2F2453F9EF25519074
:0C1466001C0093F7AD517E008F037C004A
:0E147200EB2DFDEC3EFEBD601CBE0019740AA1
:081480002F2453F8A67A800F17
:0A148800740A2F2453F9EF25519048
:051492001D0093FEF7B0
:031497000F80B80B
:09149A007463254FF558744245B6
:0614A3004EF559744045AE
:0414A9004FF55A851C
:0314AD00505B850C
:0314B000515CD2BA
:0314B30019800697
:0614B600755860755981B4
:0214BC00D2203C
:0814BE0030210674DF5553F5DF
:0114C60053D2
:0614C700A220850881D07F
:0214CD000822F3
:0A14CF00AF82C220AD787E000DBD93
:0314D90000010E01
:0C14DC005305077E00AB797C00EBB505E2
:0714E80006ECB50602800EC0
:0814EF00E578246AF8A6070560
:0514F70078537807D2D4
:0114FC0020CF
:0514FD00D28EA22022A6
:09150200C210AF5974C35FFEADC5
:07150B005AE556FC7034E5BF
:09151200577030E57A20E0030275
:02151B001616A2
:0E151D00EE700EBDC00BC006C0051216F7D052
:03152B0005D006E2
:05152E00BE0102800374
:0315330002161687
:06153600ED600302161631
:09153C007582831214CF02161609
:08154500E55830E7030215FF31
:0C154D00901D17E493FBECB50302800333
:0315590002161661
:0B155C00901D18E493FCB557028003BB
:0315670002161653
:05156A00BE42028017E3
:05156F00BE43028044B0
:05157400BE8002805B57
:05157900BE8102806844
:05157E00BE8302807431
:0315830002161637
:0C158600743C5FF5525305F0BD800D75FC
:0C1592008281C0051214CF121617D0057C
:07159E00ED7075855A4F85C1
:0315A5005B508513
:0615A8005C517582811206
:0A15AE0014CF7582841214CF805E02
:0B15B800743C5FF552BD800343A208A5
:0D15C300ED70507582811214CF7582821276
:0415D00014CF804272
:0615D40020183FD218852B
:0315DA00544C85E9
:0315DD00554D75F4
:0615E0004E00C21980302C
:0615E600E554B54C2BE5B5
:0515EC0055B54D26106D
:0415F100180280213B
:0215F500801F55
:0815F7007582851214CF8017E4
:0D15FF00EE701474C05DFFBF8007C00512C0
:04160C0001B8D0054C
:06161000ED700312024F11
:0116160022B1
:0A161700C008E581F5082404F58100
:08162100A80808740F555AF6E1
:0A162900E57670FCC2AF75E400AE78
:0A1633005CAD5B74015D241CFCA893
:05163D0008080876001A
:0A164200A8080808A90809C3E697E4
:05164C0040030216EC52
:0C165100ED7030C0048E027C00A8080878
:0E165D000886037F00EB2AFAEF3CFCBA60051A
:05166B00BC0002800438
:04167000D004801012
:0A167400D004A8080808740A262410
:06167E0053F9877A800297
:021684008CE7F1
:0A168600A8080808E62EF5E6A808FB
:0C1690000808740A262453F987E58E032D
:0A169C007F00A8080808E5082403F1
:0C16A600F9E6F7097700E5082403F8E6F0
:0E16B2002BFB08E63F53033F7F00BB3F25BFE5
:0C16C0000022A8080886037F001BBBFF67
:0216CC00011FFC
:0C16CE00E5082403F8E6B5030708E6B5BC
:0416DA00070280067D
:0616DE0075E46875E400EC
:0816E400A808080806021642DE
:0A16EC0075E468D2AF850881D008CC
:0116F60022D1
:0C16F700E57670FCC2AF75E40075E71DDD
:0A17030075E617855BE5855CE5756A
:05170D00E468D2AF22E8
:0E171200AF82901D12E493FE0E0E0EEF75F0E6
:0A17200003A42E901D0093F5822211
:0A172A00C008858108AF827EFFC071
:0C17340006E50824FDF8E6C0E08F8212F4
:0E1740001274AF821581D006901D11E493FD46
:0D174E00F58275831DE493FCBFFF0280232C
:03175B007B000D03
:0E175E00C3EB9C501B8D8275831DE493FAEF44
:0D176C00B5020AED04901D0093FAFE8C03F7
:051779000B0D0D80E0E6
:05177E008E82D008225C
:0E178300AF827EFE901D11E493FD0DEF2F2D21
:0E179100FD04901D0093FCB507098D82758341
:05179F001DE493FFFEB4
:0517A400BEFE02801DE5
:0E17A900EE2EFE2417901D0093FD7F00741895
:0E17B7002E901D0093FE7C002FFFEC3DFD8068
:0117C500041F
:0417C6007F007D0023
:0517CA008F828D8322D7
:0E17CF0075950075911475924CC2967589211E
:0E17DD00758F00C28CC28E758D80758B80C298
:0C17EB008F75D20E75D3A075D161C20BB2
:0E17F70075A80075E800C2ABC2A8C2AAD2AFA6
:0C18050075B80475B70CD28A757A2EC233
:041811000DC20EC234
:0418150015C216C220
:0418190010D2127562
:06181D00780075790075EA
:051823004E00C219C2D5
:0418280018C21712B9
:03182C0011FE2288
:06005200E478FFF6D8FD82
:080030007900E94400601B7A2D
:0500380000901945785D
:03003D000075A0AB
:0A00400000E493F2A308B8000205E3
:08004A00A0D9F4DAF275A0FF61
:0E182F0020F71030F6118883A88220F507F606
:05183D00A88375830083
:011842002283
:03184300F280F739
:02184600F0228E
:080058007800E84400600A7919
:030060000075A088
:0600630000E4F309D8FCE3
:080069007800E84400600C7906
:0B00710000900000E4F0A3D8FCD9FAD6
:06184800FBE58124FBF822
:0A184E00E6F9087A20E4FCFDFEFF35
:0E185800E5822582F582E58333F583E5F033E2
:0B186600F5F0EB33FB4017DAE980429D
:0E187100E5822582F582E58333F583E5F033C9
:05187F00F5F0EB33FB66
:0E188400EC33FCED33FDEE33FEEF33FFEC9959
:0E189200ED96EE0896EF089618184013EC99A4
:0E18A000FCED96FDEE0896FEEF0896FF181878
:0318AE0043820171
:0218B100DABE9D
:0218B300EB2226
:0300230075817A6A
:0A002600121941E582600302001E7A
:0E18B50020F71430F6148883A88220F507E689
:0618C300A88375830022DA
:0318C900E280F7C3
:0318CC00E4932280
:0218CF00E02215
:0E18D100AAF0FB74FB2581F8E58286F0A9F0F1
:0E18DF0008A4FCADF0E58389F0A42DFDE435EE
:0E18ED00F0FEE58286F0A42DFDE5F03EFEE45F
:0E18FB0033FFEA89F0A42EFEE5F03FFFE583FF
:0E19090086F0A42EFEE5F03FFFE5820886F092
:0E191700A42EFEE5F03FFFEB89F0A42FFFE5C4
:0E1925008386F0A42FFFEA1886F0A42FFFE5BA
:0E19330082080886F0A42F8EF08D838C82220D
:041941007582002289
:00000001FF
