:0400000002002332A5
:03000B000202AF3F
:0300130002095B84
:03001B0002098B4C
:03007C0002001E61
:05001E001200C780FE86
:0E007F0075C1FFC2AF75A7E575C2A575C35A5E
:03008D00D2AF22CD
:0B009000C2AF75C2A575C35AD2AF22E3
:0C009B00A2AF9218C2AF43A70475C2A523
:0800A70075C35AA21892AF22A2
:0C00AF00A2AF9218C2AFAFA75307FB8F9F
:0C00BB00A775C2A575C35AA21892AF2207
:0900C7007F00C218C219C007C075
:0500D00023121298D07C
:0C00D50023D007C297901BFFE493FE901D
:0E00E1001BFFE493AC962CFD8D9653BDFE5391
:0E00EF0091FC5392FC75985043BAE043BD0259
:0E00FD0075BF2F75BEF043BD017599557D008E
:03010B00BD320002
:0E010E00501AC28C901D17E493F58C901D18AA
:08011C00E493F58AC28DD28C38
:06012400308DFD0D80E1AD
:0A012A00C007C006C02312007FD0FA
:0401340023C02312AF
:05013800009BD023C074
:05013D00231208D9D0D7
:0401420023C02312A1
:0A01460008D8D023D006D0077D00B2
:0C015000C007C006C005C023120090D0FC
:0C015C0023D005D006D007901D0DE493C1
:06016800FCBCFF02800355
:03016E0002024941
:06017100301303020249F5
:08017700E55230E003020249E9
:0C017F00E5D130E71AC007C006C005C07B
:05018B00231205C3D0A2
:0401900023C0231253
:0A01940007BFD023D005D006D00726
:05019E00109802804AE8
:0501A300AC99BC6308EB
:0501A80010990280FB2C
:0301AD00759955EC
:0601B000BC2B0315961E96
:0601B600BC2D0305960EAE
:0E01BC00BC7712C2AF75E40075E71B75E6FF55
:0701CA008EE575E468D2AF79
:0601D100BC7003635281C3
:0301D700BC7608EB
:0501DA0010990280FBFA
:0301DF007599000F
:0301E200BC7408E2
:0501E50010990280FBEF
:0301EA0075990004
:0601ED00208751BDFF0058
:0501F30050030D8051D6
:0C01F800201942901DEEE493FC30E33926
:0B020400D201D2F0C007C006C005C048
:05020F002385F023121D
:0B0214000560D023D005D006D0079075
:0E021F001DEEE493FC30E01675821AC007C095
:09022D0006C005C023120F98D091
:0702360023D005D006D0071C
:04023D00D21980084A
:06024100ED60031F8002C6
:02024700C219DA
:0A024900E5511454072442F987041C
:09025300200B06BC191A300C172F
:0A025C00C20BC20CC007C006C005AB
:06026600C023120FCBD0F3
:07026C0023D005D006D007E6
:08027300D297209712BFFF0093
:05027B0050030F80128A
:0602800020180363528107
:04028600D218800802
:06028A00EF60031F80027B
:02029000C21892
:08029200E5525401FBB4010028
:09029A00E433FB24FF92977C641D
:0C02A3008C031B8B04EC70F8020150224D
:0702AF00C0E0051AE51B5534
:0702B6001A6004D2868002E9
:0202BD00C286F7
:0302BF00D0E0325A
:0802C200C01D85811D05818529
:0502CA002E82C02F127E
:0C02CF000D3DAF821581BFFF0302041B30
:0C02DB00901D11E493F58275831DE493DF
:0602E700FFA81D087600CF
:0B02ED00A81D08C3E69F400302041B8D
:0C02F800901D11E493FD0DA81D08E625E3
:0C030400E0FC2D901D0093FD852E82C0B2
:0C03100007C005C004C02F120D3DAB82D9
:0E031C001581D004D005D007EBB50502800393
:03032A00020414B6
:0E032D00901D11E49324022C901D0093FDF509
:0E033B0082C007C0051211DBAC82D005D007CE
:08034900EC54147003020414CB
:0D03510074075DFCEDC423541FFB740155BF
:0C035E0032FAED24E8405CC00774FA2B72
:0C036A00901D0093FF8CF005F0EF800266
:02037600C313AF
:0E037800D5F0FB54016AD0076014C007EB24D7
:0C0386000DF98707EC9012FC93FE4FF776
:04039200D007802BE5
:0E039600C00774F12B901D0093FEEC9012FC3A
:0C03A400935ED0077017EB240DF987065C
:0C03B000EC90130493FC5EF7EB2411F9B1
:0503BC008706EC5EF76E
:0603C100BD180385331096
:0E03C700BD1A2E901DEEE49303540124FF9204
:0C03D500188A06E433FC6E6018D2F0C0F9
:0C03E10007C005C00285F023120560D0A3
:0903ED0002D005D007D201800204
:0203F600C20142
:0E03F800BD1B19901DEEE4932323540124FF36
:0A0406009218E433FE6A6004D2028B
:02041000800268
:02041200C20224
:07041400A81D08060202ED1D
:05041B001581D01D2237
:06042000852E82C02F12A0
:0B04260011F3AF821581BFFF0280229E
:0E0431008F82C007120454D0078F82C00712BA
:0E043F0011DBAE82D00753060CBE0C087440D1
:06044D002FF582120F984A
:010453002286
:0E045400AF827E0074075FFDEFC423541FFCCF
:0C046200EF24E8401DEC240DF987037422
:0E046E00FA2C901D0093FC6203ED9012FC939B
:08047C00FD5B60617E01805D03
:05048400BF1802AE10DC
:0E048900BF191A901DEDE49323540124FF9235
:0704970018A200E433FDA2EE
:08049E0018E433FC62058D0631
:0E04A600BF1A1A901DEEE49303540124FF9236
:0704B40018A201E433FDA2D0
:0804BB0018E433FC62058D0614
:0E04C300BF1B1B901DEEE4932323540124FF66
:0804D1009218A202E433FFA21D
:0804D90018E433FD62078F06F1
:0E04E1007F007D007C008E828F838DF0EC22E8
:0A04EF00C01D85811DE582FFC423B6
:0D04F900541FFE74075FFDEF24E8402AE564
:0B0506001D24FCF8E608467010EE24EF
:0C0511000DF98704ED90130493FB5CF7D8
:02051D00803E1E
:0C051F00EE240DF98706ED9012FC93FD10
:04052B004EF7802ED9
:0C052F00BF180BE51D24FCF886057E00BB
:02053B008D1021
:0C053D00BF190DE51D24FCF8E65401FE7A
:0405490024FF9200F9
:0C054D00BF1A0DE51D24FCF8E65401FF68
:0405590024FF9201E8
:03055D00D01D228C
:0A05600030185F901DF1E493F4558C
:04056A000DF50D90EE
:08056E001DF1E493F45511F5B1
:0805760011901DF2E493F4550D
:04057E000EF50E90D8
:080582001DF2E493F45512F59B
:08058A0012901DF3E493F455F7
:040592000FF50F90C2
:080596001DF3E493F45513F585
:04059E0013E50D450F
:0405A20011F511E559
:0405A6000E4512F5F7
:0405AA0012E50F4502
:0405AE0013F513909E
:0C05B2001DEDE493FF20E208D2007582EA
:0405BE0019120F9867
:0105C2002216
:0C05C30075D16105147E017F0074F625DF
:0A05CF001450077514007E037F002E
:0905D900E50BFD6004ED14F50BC7
:0A05E200E50A30E00FE50CFD6013A0
:0A05EC00EE30E10FED14F50C80096C
:0905F600E50CFF6004EF14F50CA4
:0805FF00E50B70383002119089
:0C0607001DEEE493FF530734BF2405757B
:0406130015FF80054A
:05061700E515F4F515E6
:0C061C00300211901DEEE493FF530734F0
:08062800BF34057516008003C4
:030630007516FF3D
:08063300901DEFE493FF8F0B13
:07063B00E50C60030206FF5D
:0E064200901DEDE493FF530760BF2002800D72
:05065000BF4002802EF6
:05065500BF60028029D6
:03065A000206F99C
:08065D00E51C7011751C0190F1
:080665001DFDE493FF8F0C75ED
:05066D000A000206FF77
:0A067200751C00901DFEE493FF8F3D
:05067C000C750A0102EB
:0206810006FF72
:09068300E51724FC50030206FFF8
:05068C00E5172517250C
:050691001790069673AE
:070696000206A20206B502F4
:05069D0006C50206E69F
:0706A200751C0175170190A2
:0806A9001DFDE493FF8F0C75A9
:0406B1000A00804A71
:0A06B500751702901DFDE493FF8FFE
:0606BF000C751C00803ADE
:0A06C500751703901DFDE493FF8FED
:0C06CF000C901DEDE493FF530760BF602A
:0606DB0005751C03801EE2
:0506E100751C018019E9
:0A06E600751700901DFEE493FF8FCE
:0506F0000C750A017504
:0406F5001C0080065F
:0606F900750C00751C00E9
:0B06FF00AE117F00EEF4FEEFF4FFAC44
:0C070A000D7D00EC5206ED5207EE4F7022
:0B0716002EAE12FFEEF4FEEFF4FFAC7D
:0C0721000E7D00EC5206ED5207EE4F700A
:0B072D0017AE13FFEEF4FEEFF4FFAC7C
:0C0738000F7D00EC5206ED5207EE4F6002
:0107440005AF
:0507450075180180039E
:03074A007518001F
:0C074D0020000D901DEDE493FF30E3232D
:04075900E518601F20
:0C075D00E51C601B901DEEE493FF30E2F1
:040769000320020F58
:0A076D00E51C30E105751B0880084B
:05077700751B04800366
:03077C00751B00EA
:04077F0012078322B8
:0C078300901DEDE493FF30E0073000040F
:04078F007FFF80293F
:0E079300901DEDE493FE20E009901DF0E4932C
:0407A100FEFF8017C0
:0C07A500901DF0E493FEC3E5109E500987
:0907B100901DF0E493FEFF8002AC
:0207BA00AF107E
:0307BC008F8C22FD
:0607BF00E516550FFF9046
:0B07C5001DF9E493F4FEE5154206E583
:0907D000134E5FF5821208A9E541
:0507D90016550EFF9013
:0B07DE001DF8E493F4FEE5154206E56B
:0907E900124E5FF5821208A9E529
:0507F20016550DFF90FB
:0B07F7001DF7E493F4FEE5154206E553
:09080200114E5FF5821208A99065
:0B080B001DEDE493FF20E1030208A8AC
:0B081600901DF4E493FFE50D5207ADC8
:0C082100117E00EDF4FDEEF4FE7C00EF13
:0E082D005205EC5206ED4E7040901DF5E4931E
:0A083B00FFE50E5207AD127E00ED3E
:0E084500F4FDEEF4FE7C00EF5205EC5206EDE1
:0C0853004E7020901DF6E493FFE50F525C
:0C085F0007AD137E00EDF4FDEEF4FE7C0E
:0B086B0000EF5205EC5206ED4E601E3F
:0708760020002F30020E905C
:0B087D001DEEE493FF530734BF14008E
:02088800501E00
:0A088A00D200758219120F98801435
:0C089400300011901DEDE493FF30E208ED
:0808A000C200758219120F98C5
:0108A800222D
:0808A900AF82C282C2817E0011
:0E08B100EE24F8401974805F235401FD24FFEB
:0E08BF009280EF2FFFD281D281D281C2810EB2
:0208CD0080E2C7
:0908CF00D282C280C280C28222E2
:0108D80022FD
:0C08D90075800075840075857FC2A975CC
:0C08E5001400C2AF75E40075E71D75E655
:0E08F1000375E50075E71D75E60475E54C75A9
:0E08FF00E71D75E60C75E50075E71D75E60D45
:0E090D0075E5FF75E46853B8FD53B7FD43B8B8
:0C091B000243B708C28DD2A9D2AF7515F7
:0E0927000075D16075D21675D38075D16175DB
:060935001700750B0175AF
:0C093B000C0174F055892402F589758FB9
:0E09470001120783758C7F43A210D292D28CCE
:06095500D2877516FF2297
:0812FC000102040810204080EB
:08130400FEFDFBF7EFDFBF7FE8
:0E095B00C0E0C0D0C2AAC28E740F55892420FD
:0E096900F589758B35758D80C28FD28ED2AB1D
:06097700754E02C207D21A
:05097D0005754D007539
:090982004C00D206D0D0D0E032C6
:0C098B00C023C0E0C0F0C082C083C007E1
:0E099700C006C005C004C003C002C001C000FD
:0C09A500C0D075D000E54EFF24F15003D7
:0309B100020CA88D
:0709B400EF2F2F9009BB7328
:0709BB000209E8020CA8028A
:0609C2000A5B020B1502A6
:0609C8000B1E020B93025E
:0609CE000CA8020CA802B7
:0609D4000CA8020CA802B1
:0609DA000BB7020C1F0226
:0609E0000CA8020C43020A
:0209E6000C9172
:0E09E800C28E740F55892420F589758B807599
:0A09F6008D80C28FD28EE550B551FE
:030A000002805120
:080A0300E5512442F98782123B
:0B0A0B000D90503DC2AAE54E7032E590
:0A0A1600512442F9E7FF20E50774C0
:060A2000204FF7754F00A6
:0B0A260074FC254F4005120CF38016F5
:060A31000551535107C2FC
:040A37000FC21412C4
:0C0A3B000CC7C28E758DF0758B00D28E3A
:050A4700D2AA020CA878
:060A4C00055153510702A1
:020A52000CA8EE
:070A5400C28ED2AA020CA819
:0A0A5B00A28BB39218C28B754E03F4
:0A0A6500758D00E54D700A754D0116
:050A6F00C208C20902EB
:020A74000CA8CC
:0A0A7600747F254D401C301808B2B3
:040A800007E54D2514
:030A84004CF54CE2
:050A8700E54D254DF5D1
:060A8C004D6003020CA8FE
:060A9200754D81020CA865
:0A0A9800C28EC28FA207201801B31E
:0A0AA2005026E54A700E74CCB54CE6
:030AAC0002D2086B
:070AAF00740CB54C02D209E2
:070AB600200813200910E5E0
:050ABD004A242BF8E5BE
:050AC2004CF6624B053B
:030AC7004A800260
:020ACA00C20563
:050ACC00100F02801D67
:070AD1003008143005117517
:070AD8004F04101402800915
:070ADF00E5262404F526536F
:020AE600263CAC
:060AE800120CC7020CA86D
:070AEE0030051E20081B204B
:0C0AF5000918740F55892410F589758DBF
:0C0B0100FA758B70D28E754E04D2AA02D9
:020B0D000CA832
:060B0F00120CC7020CA845
:090B1500758D80754E02020CA8DA
:0A0B1E00300D64E54A24FB505EC26E
:0E0B28008E740F55892410F589758DEF758B2D
:080B360042D28EA212920AE5E0
:080B3E003030E71F852E82C054
:0C0B46002F120D3DAF821581BFFF028011
:010B520002A0
:020B5300D20AC4
:090B5500E52E701CE52F7018D28A
:030B5E000A8014F6
:0C0B6100901D17E493FFB52E0B901D189B
:080B6D00E493FFB52F02D20A48
:090B750074FFB54B05300A02D2F1
:010B7E000B6B
:060B7F00754E05020CA8F2
:080B8500E54A24FE5002D20BE8
:060B8D00120CC7020CA8C7
:0A0B9300C28E74FFB54B13300A0A3E
:060B9D00D210120CF3C29D
:040BA3000F020CA889
:060BA700120CC7020CA8AD
:060BAD00D211120CF3C28C
:040BB3000F020CA879
:080BB700E54A242BF987073001
:040BBF0010027FCCD5
:050BC3003011027F0C5F
:090BC800C2AA740AB54E028003B2
:030BD100020CA86B
:0A0BD400E54D247F402CE54D5F70D5
:090BDE0008D296C20EB207800293
:020BE700D20E2C
:080BE900E54D7007754D01C2D6
:030BF10007800674
:050BF400E54D254DF563
:010BF9004DAE
:070BFA00E54D7003754D810C
:050C0100754E0B80138D
:090C0600200706D296C20E8002FE
:020C0F00D20E03
:060C1100054A754D007557
:020C17004E0D80
:060C1900758D12020CA80B
:0A0C1F00E54A70077401B54D0205A7
:010C29004F7B
:0A0C2A00C296A20E828B5007C20F83
:050C3400120CC7800650
:060C3900754E0A758D6E78
:040C3F00C28B80657F
:0E0C4300C296C28E740F55892410F589758DE6
:0A0C5100FB758B90D28E201003304B
:020C5B00110581
:050C5D00120CC7802B02
:0C0C6200740F5530FF7E0074072FFFE474
:0C0C6E003EFEAC4A7D00C3EF9CEE6480AB
:0C0C7A008DF063F08095F05007D20C1252
:040C86000CC7800314
:030C8A00754E0E96
:040C8D00C28B80177F
:0E0C9100C28E740F55892420F589758D6E75FD
:090C9F008B80C28FD28E754E0AC3
:0C0CA800D206D0D0D000D001D002D00382
:0E0CB400D004D005D006D007D083D082D0F077
:050CC200D0E0D0233258
:0A0CC700754E00C28BC28EC2AB75E1
:0A0CD1004B00754A00C28E740F55E7
:0C0CDB00892410F589758D89758BAFC2D6
:0A0CE70010C211C28FD28ED2AAD221
:020CF100AB2234
:0E0CF300C28E740F55892420F589758D6E759B
:0C0D01008B80C28F740F55302407FF75E3
:040D0D004BFF7E001A
:0C0D1100C3EE9F500BEE242BF9E7FD62AF
:040D1D004B0E80F009
:070D2100EF242BF8A64BC2E2
:040D280008C209D222
:050D2C000F754E0A7571
:0A0D31004D00754A00C2AAD28ED20E
:020D3B00AB22E9
:0A0D3D00C01D85811DAF827EFF906E
:080D47001D16E493FDBDFF0041
:0C0D4F00503A201237901D16E4936030DB
:020D5B007D0118
:0E0D5D00901D16E493FCC39D4024ED2DFC2454
:0E0D6B0017901D0093FBEFB5031374182C9026
:0C0D79001D0093FCE51D24FDF8E6B50408
:030D8500028D06D6
:030D88000D80D209
:050D8B008E82D01D2244
:0A0D9000C01DE581F51D2404F58166
:0C0D9A00AF82C218EFA2E5E433FE24FF94
:050DA6009219BF80005E
:050DAB004003020EA848
:0C0DB000EF2323540124FF921A53071F65
:0C0DBC008F82C007C023120454AB82AC2D
:0A0DC80083ADF0FED023D007A81D74
:0E0DD20008A60308A60408A60508A6068F8238
:0C0DE000C007C02312124CAA82AE83D0C0
:0C0DEC0023D0078A05ED4E7003020F872C
:0A0DF800752BBC901D17E493FC8CD2
:0A0E02002C901D18E493FC8C2D8E3B
:060E0C00048C2E8D2F75F1
:060E12003100301A0575E5
:040E180032408003E1
:030E1C00753280AC
:0E0E1F00901D12E493FEEF75F003A42E240440
:0E0E2D00901D0093FE24F95006EE24FBFE807B
:010E3B0002B4
:020E3C007E0135
:0C0E3E0074E02EF530EE24FE500F740618
:0A0E4A002E242BF9A81D088603A72B
:030E540003801008
:0C0E5700A81D08743F56FAE4FBFCFDEAFD
:040E63002532F5320D
:0C0E6700EE24FD500E74052E242BF9A87B
:070E73001D08088605A70514
:0C0E7A00EE24FC500F74042E242BF9A869
:080E86001D0808088605A705F8
:0C0E8E00EE24FB501074032E242BF9A856
:090E9A001D080808088606A706D9
:050EA300D218020F87C8
:0A0EA800752BB0901D17E493FE8E29
:0A0EB2002C901D18E493FE8E2D8590
:030EBC00242E855C
:0A0EBF00252F53071FEF24FA5003FC
:030EC900020F8590
:070ECC00EF2F2F900ED373EE
:070ED300020F85020EE5028B
:060EDA000EF1020F0802F8
:050EE0000F19020F7F55
:080EE50075306074C2252AF586
:040EED0031020F853A
:080EF10075306374432526F5FA
:050EF900317532407567
:060EFE003300753412D22E
:040F040014020F853F
:070F0800752E00752F007526
:060F0F0030E175310175AF
:040F15003240806C7A
:020F19007F0057
:0A0F1B00C3EF95275042E528702C23
:0A0F2500740A2F242BF9EF25299000
:0C0F2F001C0093F7AD297E008F037C00AE
:0E0F3B00EB2DFDEC3EFEBD601CBE0019740ADD
:080F49002F242BF8A652800FA3
:0A0F5100740A2F242BF9EF252990D4
:050F5B001D0093FEF7EC
:030F60000F80B847
:090F630074632527F53074424542
:060F6C0026F5317440453A
:040F720027F53285A8
:030F760028338598
:030F79002934D246
:030F7C00148006D8
:060F7F0075306075318140
:020F8500D21880
:080F870030190674DF552BF54B
:010F8F002B36
:060F9000A218851D81D0AE
:020F96001D221A
:0A0F9800AF82C218AD507E000DBDFF
:030FA20000010E3D
:0C0FA5005305077E00AB517C00EBB50546
:070FB10006ECB50602800EFC
:080FB800E5502442F8A60705EC
:050FC00050535007D260
:010FC5001813
:050FC600D28EA21822EA
:090FCB00C20BAF3174C35FFEAD2F
:070FD40032E52EFC7034E54C
:090FDB002F7030E55220E0030202
:020FE40010DF1C
:0E0FE600EE700EBDC00BC006C0051211C0D0CB
:030FF40005D0061F
:050FF700BE01028003B1
:030FFC000210DF01
:060FFF00ED60030210DFAB
:09100500758283120F980210DFBE
:08100E00E53030E7030210C8D1
:0C101600901D17E493FBECB5030280036F
:031022000210DFDA
:0B102500901D18E493FCB52F0280031F
:031030000210DFCC
:05103300BE420280171F
:05103800BE43028044EC
:05103D00BE8002805B93
:05104200BE8102806880
:05104700BE830280746D
:03104C000210DFB0
:0C104F00743C5FF52A5305F0BD800D7560
:0C105B008281C005120F981210E0D00531
:07106700ED7075853227854D
:03106E003328859F
:0610710034297582811292
:0A1077000F98758284120F98805EB6
:0B108100743C5FF52ABD800343A20809
:0D108C00ED7050758281120F9875828212EE
:041099000F988042EA
:06109D0020133FD2138571
:0310A3002C248575
:0310A6002D257580
:0610A9002600C214803095
:0610AF00E52CB5242BE541
:0510B5002DB5252610F9
:0410BA00130280217C
:0210BE00801F91
:0810C000758285120F9880175C
:0D10C800EE701474C05DFFBF8007C00512FC
:0410D50002C2D0057E
:0610D900ED70031204207B
:0110DF0022EE
:0A10E000C01DE581F51D2404F58113
:0810EA00A81D08740F5532F631
:0A10F200E54E70FCC2AF75E400AEDD
:0A10FC0034AD3374015D241CFCA820
:051106001D0808760041
:0A110B00A81D0808A91D09C3E697F6
:0511150040030211B5CA
:0C111A00ED7030C0048E027C00A81D089F
:0E1126000886037F00EB2AFAEF3CFCBA600556
:05113400BC0002800474
:04113900D00480104E
:0A113D00D004A81D0808740A262437
:061147002BF98752800223
:02114D008CE72D
:0A114F00A81D0808E62EF5E6A81D0D
:0C1159000808740A26242BF987E58E0391
:0A1165007F00A81D0808E51D240303
:0C116F00F9E6F7097700E51D2403F8E617
:0E117B002BFB08E63F53033F7F00BB3F25BF21
:0C1189000022A81D0886037F001BBBFF8E
:02119500011F38
:0C119700E51D2403F8E6B5030708E6B5E3
:0411A30007028006B9
:0611A70075E46875E40028
:0811AD00A81D08080602110B41
:0A11B50075E468D2AF851D81D01DDE
:0111BF00220D
:0C11C000E54E70FCC2AF75E40075E71D41
:0A11CC0075E6178533E58534E575F7
:0511D600E468D2AF2225
:0E11DB00AF82901D12E493FE0E0E0EEF75F023
:0A11E90003A42E901D0093F582224E
:0A11F300C01D85811DAF827EFFC084
:0C11FD0006E51D24FDF8E6C0E08F82121C
:0E1209000D3DAF821581D006901D11E493FDBE
:0D121700F58275831DE493FCBFFF02802368
:031224007B000D3F
:0E122700C3EB9C501B8D8275831DE493FAEF80
:0D123500B5020AED04901D0093FAFE8C0333
:051242000B0D0D80E022
:051247008E82D01D2283
:0E124C00AF827EFE901D11E493FD0DEF2F2D5D
:0E125A00FD04901D0093FCB507098D8275837D
:051268001DE493FFFEF0
:05126D00BEFE02801D21
:0E127200EE2EFE2417901D0093FD7F007418D1
:0E1280002E901D0093FE7C002FFFEC3DFD80A4
:01128E00045B
:04128F007F007D005F
:051293008F828D832213
:0E12980075950075911475924CC2967589215A
:0E12A600758F00C28CC28E758D80758B80C2D4
:0C12B4008F75D20E75D3A075D161C206F3
:0E12C00075A80075E800C2ABC2A8C2AAD2AFE2
:0C12CE0075B80475B70CD28A75522EC298
:0412DA0008C209C27B
:0412DE0010C211C267
:0412E2000BD20D75A9
:0612E60050007551007577
:0512EC002600C214C23F
:0412F10013C2121200
:0312F5000CC72201
:06005200E478FFF6D8FD82
:080030007900E94400601B7A2D
:050038000090130C789C
:03003D000075A0AB
:0A00400000E493F2A308B8000205E3
:08004A00A0D9F4DAF275A0FF61
:080058007800E84400600A7919
:030060000075A088
:0600630000E4F309D8FCE3
:080069007800E84400600C7906
:0B00710000900000E4F0A3D8FCD9FAD6
:0300230075815292
:0A0026001212F8E582600302001ECA
:0412F80075820022D9
:00000001FF
