:0400000002002332A5
:01000B0032C2
:030013000211C710
:03001B000211F7D8
:03007C0002001E61
:05001E0012007F80FECE
:0C007F007F00C218E5A703540124FF9283
:06008B0019C007C023129A
:0C0091001BB8D023D007C2972097032093
:02009D00190543
:05009F00901CCCE4936D
:0E00A400901CCCE493AD962DFE8E9653963FA5
:0700B200C2972019217E0016
:0300B900BE320054
:0E00BC00501AC28C901D17E493F58C901D18FD
:0800CA00E493F58AC28DD28C8B
:0600D200308DFD0E80E1FF
:0E00D80075C1FFC2AF75A7E575C2A575C35A05
:0E00E600D2AFC2AF43A70475C2A575C35AD2EC
:0900F400AFC007C02312115DD05A
:0900FD0023D00720190BC007C035
:05010600231210A2D03D
:03010B0023D007F7
:0E010E00C2AF75C2A575C35AD2AF901D0DE4E5
:07011C0093FEBEFF02800309
:0301230002024B8A
:0601260030110302024B40
:08012C00E57C30E00302024B08
:0B013400748025D1500BC007C02312BF
:06013F000C2DD023D007B7
:020145007E003A
:03014700BE0800EF
:05014A0040030201F476
:0B014F00C2197D00EE901C2D93FC55A2
:06015A002470030201F015
:0C01600074035E2448F9E7FC543360038C
:03016C000201F09D
:0C016F0074035E240B2435F9E77076BEA3
:02017B0004007E
:0C017D00500CEE24D6F987048C057C029F
:020189008042B2
:0B018B0074035E24DAF9E77005FCC283
:0301960019801DB0
:0A019900D21974035E24DAF987031B
:0701A300BBFF047C00800C8F
:0C01AA007C0174035E24DAF987038B05E6
:0C01B60074035EFB901C2D93FA4224EBB6
:0A01C20024DEF9EB24EAF88603A717
:0101CC00032F
:0C01CD0053040FC007C006C023C004C0CC
:0A01D90005A21992F085F0238E8232
:0C01E3001206CF15811581D023D006D064
:0101EF000708
:0401F0000E020147B3
:0E01F400308D1F740F5589FEBE011774F05533
:0E020200892402F589758F01758C50C28D43D9
:06021000A210D292D28C74
:0802160030000BC007C02312E9
:06021E001024D023D007DC
:0B022400E57870237440258D401D20FC
:0A022F000D1A901CCAE493FEB50FEF
:0302390002800F31
:0C023C0075E40075E71C75E6CA850FE547
:0302480075E468F2
:05024B00100902800F04
:07025000C20AC007C023121F
:0802570018ACD023D007800A87
:02025F007E64BB
:080261008E051D8D06EE70F8FC
:08026900D297209712BFFF009D
:0502710050030F801294
:06027600201803637C81E7
:04027C00D21880080C
:06028000EF60031F800285
:02028600C2189C
:08028800E57C5401FEB4010005
:0B029000E433FE24FF929702010E22CF
:021D03000004DA
:011D0C0000D6
:011D0D00FFD6
:0C029B00AF8274035FFEE55CFD5401FCC3
:0702A70024FF9218BF0800BC
:0C02AE005018E4C0E0E4C0E0A21892F098
:0C02BA0085F0238F821206CF158115817C
:0202C60080387E
:0E02C800EF24F4401274042E901C2D93FC427F
:0902D60024EE24DAF9A75D802171
:0C02DF00EF24F04010EE901C2D93FC4228
:0902EB0024EE24D6F9A75D800C75
:0C02F400530501C0058F821203B615816E
:0103000022DA
:0B030100AF8274402FF58212185922C1
:07030C00AF827E00BF080074
:0E031300500EEF901C2D93FD550B60347E01B3
:0203210080302A
:03032300BF0C000C
:0E032600500CEF24F824EEF987058D06801F99
:03033400BF1000F7
:0E033700500CEF24F424EAF987058D06800EA1
:0E034500EF24F0901C2D93FF550C60027E01FA
:0E0353007F007D007C008E828F838DF0EC2277
:0A036100C008858108AF82BF0800C4
:0C036B005022E50824FCF8E60846700E5D
:0E037700EF901C2D93FE74FFC39E520B802E40
:0A038500EF901C2D93FE420B802424
:0C038F00EF24F0FFE50824FCF8E6084627
:0E039B00700EEF901C2D93FE74FFC39E520C4B
:0203A9008008CA
:0803AB00EF901C2D93FF420CA2
:0303B300D008224D
:0A03B600C008858108058105810556
:0603C00081AF82BF1400B2
:0A03C600400F74015FFEC201E5085C
:0703D00024FDF876018031E5
:0E03D700EF24F0FE901DE2E493FD8EF005F0A1
:0603E5007B407C00800655
:0603EB00EB2BFBEC33FCE0
:0E03F100D5F0F77A00ED5203EA5204EB4CB45B
:0203FF000100FB
:07040100E433FB24FF92012C
:0C040800E50824FDF886047D0053071F62
:0E041400C006C004C0058F8212036115811559
:0C04220081D006E50824FDF8E624FF92D6
:05042E0018300101B3CC
:0E0433005017EE2E25E0FF8FF005F0740F80BD
:0104410002B8
:0204420025E0B3
:08044400D5F0FBFF42468025C4
:0D044C00EE2E25E0FF8FF005F0740F80020A
:0204590025E09C
:0C045B00D5F0FBFF74FFC39F52467409EC
:0A0467002EF582C006120FF2D00637
:0C047100901DF1E493FFE5465207EFC434
:0C047D004FF50FE547F4FDE50F5205A810
:0A048900080808A605E50FF4FCE5DD
:0A049300475204E5082403F8A6040C
:06049D003002030206C953
:0604A300850F47BE0200B8
:0804A900E433FEA80808760008
:0B04B100A80808E624FC50030206C95E
:0C04BC007A00A8080808E630E027C00617
:0C04C800901DF0E493FEA808088604E4F0
:0D04D400CC25E0CC33FD8CF005F0EE80026D
:0204E100C31343
:0A04E300D5F0FBFE74035EFAD006AC
:0C04ED00E5082403F8E630E027C0069084
:0C04F9001DEFE493FDA808088604E4CC85
:0C05050025E0CC33FE8CF005F0ED800208
:02051100C31312
:0A051300D5F0FBFD74035DFAD0067D
:0B051D00EA6028EAC31324FF9218A82C
:0C0528000808740C26FDC006E4C0E0E4E6
:0A053400C0E0A21892F085F0238DBC
:0A053E00821206CF15811581D00648
:0A054800E5082403F8E6C313F6A843
:0B055200080808E6C313F6EE60030281
:02055D0006C2D4
:0E055F00C006901DF3E493235401FD901DF49B
:0E056D00E49323235403FC74025C42058D07C3
:0E057B00740C550C0303543FFDEF62058D0216
:0C058900A80808E6C31324E2901D0093AC
:0C059500FFA80808740156FD7E008D03CD
:0E05A100EECB25E0CB33FCED2BFDEE3CFE8DCA
:0605AF00F005F0EF8002F0
:0205B500C3136E
:0E05B700D5F0FBFD74075D901C2D93FFEA90BC
:0C05C5001C4B9352078F02A8080874F327
:0E05D10026901D0093FFFCD006EA606D5304D7
:0B05DF007FA80808E624E6F9C001A987
:0C05EA000809E724EEF8D0018607A707F7
:0C05F600A80808E624DAF9EC2CFFECC39E
:0C060200132FFF75F014EC842FF7A808EC
:0C060E0008E624E2F9C001A90809E7246D
:0C061A00EAF8D0018607A707A8080874BA
:0C062600F726901D0093FF747F5FFCA876
:0C0632000808E624D6F9EC2CFFECC313FA
:0C063E002FFF75F014EC84FD2FF7806195
:0C064A00A8080874F726901D0093FF30EC
:0C065600E72CA80808E624DAF9C001A986
:0C0662000809E724E6F8D0018607A70786
:0A066E00A80808E624D6F9C001A987
:0C0678000809E724E2F8D0018607A70774
:0C068400A8080874FB26901D0093FF746A
:0C069000C05FFABA4009A80808E624DAA6
:03069C00F87600ED
:0C069F00BA8009A80808E624DAF876FF03
:0C06AB00A80808740426901C2D93FFA8DA
:0A06B7000808E6901C2D93FD4F4249
:0106C1002414
:0706C200A80808060204B1BC
:0606C900850881D0082223
:0A06CF00C00885810805810581AF90
:0C06D900827E0174035F2448F98705A8A5
:0A06E5000808740F5DF6A80808A9C4
:0A06EF00080909E6F7301821740726
:0C06F9005FF582C007C006C0237401C07A
:0C070500E0E4C0E012036115811581D012
:0707110023D006D007801D74
:0C07180074075FF582C007C006C023E430
:0C072400C0E0C0E012036115811581D017
:0507300023D006D007F4
:0C07350074075FFB8BF005F0740180027C
:0207410025E0B1
:0A074300D5F0FB550F6008BF100051
:05074D005003020B0E39
:06075200530707BF04007D
:0507580040030208ABA4
:0C075D00E50824FCF8E6702EEFC313241E
:0E076900E8901D0093FB74015F75F003A4F58A
:06077700F005F0EB80022A
:02077D00C313A4
:0D077F00D5F0FB5407FB43038074EA2F9074
:07078C001D0093FAFE8045F9
:0C0793007B42EF24EAF98702E50824FD10
:0C079F00F8E6C39AFAEF24D6F8E5082427
:0C07AB00FDF9E7F6EF24EAF98704E50801
:0C07B70024FDF8C3EC965004D218801505
:0707C300EA6004C218800E79
:0C07CA00C0037E00EF901C2D93F452241D
:0207D600D0034E
:0E07D800C003901DE5E4930303543FFB740F30
:0E07E6005B901C3593FB8BF0EE842EFAC39EC5
:0607F400D00350027AFF61
:0607FA00EE7003020A95F7
:0A080000A80808E654336051A80868
:0E080A0008740356FDC007C0058F82120F5000
:0A0818001581D007A80808A90809F7
:0E0822000974CC56F7EF2410F9EF2410F88675
:0C08300005743F5DF7EF2435F876007486
:0E083C00042FFD2410F9ED2410F8C0078607E4
:0C084A00743F5FF7ED2435F87600D0070E
:03085600020A95FE
:06085900EE7003020A9597
:0B085F00EF2410F8A603EF2435F9A2E7
:0A086A0018E433FD04F720181CA861
:0A0874000808A9080909741046F7E6
:0A087E00A8080808E654DFF6EF248E
:0708880025F8A602020A9503
:0A088F00A80808A90809097420460A
:0B089900F7A8080808E654EFF6EF246B
:0708A40025F8A606020A95E3
:0E08AB0074035FFDC31324FB901D0093FC74C7
:0D08B900015F75F003A4F5F005F0EC80027E
:0208C600C3135A
:0E08C800D5F0FB5407FC74804CFB74DA2D90C5
:0C08D6001D0093FDFCE50824FCF8E67012
:0B08E2000AEC0303543F2CFDFE805B7A
:0C08ED00C00374035FFD24EEF98703E5EF
:0C08F9000824FDF8E6C39BFAED24EEF99C
:0C0905008705E50824FDF8C3ED96D0033B
:060911005004D21880061C
:06091700C218C3E49AFAC5
:0D091D00C0038C037D007C00C007C003C038
:0C092A0023C002C0048B828D83121C07C6
:0C093600AD8315811581D023D003D007BC
:060942008D068E04D003B7
:0E094800901DE5E4930303543FFD740F5D9092
:0E0956001C3593FD8DF0EE842EFDFAC3EE9C51
:0409640050027EFFC0
:07096800C3EA9E50027AFF72
:0D096F00901DF2E493FD8FF005F0ED800285
:02097C00C313A3
:0D097E00D5F0FBFD530501EE7003020A6F7A
:0C098B0078DE860478DEA60420186EEDED
:0A0997007008EF2435F876018006A1
:0609A100EF2435F8760991
:0A09A700A80808A908090974104601
:0A09B100F7EF2425F8A602A80808B5
:0B09BB00E654116006EF2410F8A603BC
:0C09C600A80808E654337006EF2410F86F
:0209D200A6037A
:0B09D400A80808E654227003020A780D
:0E09DF00C007C0037405C0E08F82120F5015D0
:0C09ED0081D003D007A8080808E654DFFA
:0B09F900F6EF2410F9747F5BF78074A8
:0B0A0400ED7008EF2435F87602800644
:060A0F00EF2435F8760A21
:0A0A1500A80808A908090974204682
:0A0A1F00F7EF2425F8A606A8080842
:0B0A2900E654226006EF2410F8A6033C
:0C0A3400A80808E654337006EF2410F800
:020A4000A6030B
:0C0A4200A80808E65411602EC007C0038D
:0E0A4E007406C0E08F82120F501581D003D0C5
:0C0A5C0007A8080808E654EFF6EF241085
:070A6800F9747F5BF78009C0
:090A6F00EF901C2D93F4FE5224BB
:0B0A7800EF24FCFE2425F87600EE249D
:0C0A830035F87600EE2410F9EE2410F88F
:060A8F008606743F5EF7CD
:0A0A9500A8080808A90809E6F7EF11
:0C0A9F0024F8405D74035F240B2435F93B
:0D0AAB00870674075EFC74075CFEBE040045
:0C0AB8005027A8080808E6C4540FFE5C94
:0E0AC4005403601974035F240BFE2410F876AF
:0A0AD20000EE2425F87600EE24352E
:050ADC00F876007C002B
:0C0AE100EC30E20AA8080808E654F0F621
:020AED00801176
:0A0AEF00EC5407700CA80808A908D1
:070AF9000909E6C4540FF7E0
:0A0B000074035F2448F8A9080909EE
:040B0A00E7F6D20038
:060B0E00850881D00822D9
:0A0B1400C00885810805810581AF46
:0E0B1E008274035FFEC31324FD901D0093FD3F
:0A0B2C00EE30E006EDC423541FFD77
:060B3600530507BD03009A
:0E0B3C00403774DE2E901D0093FC7B00ED9080
:0E0B4A001C4593FD7A00C007C006C005C0021E
:0E0B58008C828B83121C07AC82AD8315811535
:0C0B660081D006D007A80808A60408A645
:030B720005801CDF
:0C0B750074DE2E901D0093FB7A00A8088F
:0E0B810008A603EAC313C613C6C313C613C6E1
:020B8F0008F666
:030B9100BF04009E
:0E0B94005044C007EE24EAF9EE24F2F886037E
:0E0BA2008B027B00EE24F2F886078F057F00A1
:0C0BB000EBC39DFBEA9FFAC006C001A841
:0C0BBC000808E6C0E008E6C0E08B828A72
:0E0BC80083121196AD8215811581D001D006E1
:040BD600A705D00798
:030BDA00BF080051
:0E0BDD005040EE24EEF9EE24F6F886078F0560
:0E0BEB007F00EE24F6F886047B00EFC39CFF2B
:0E0BF900ED9BFD74DA2E901D0093FE7C00C073
:0E0C070001C006C0048F828D83121196AE824A
:0A0C1500AF8315811581D001A706F9
:0A0C1F00A80808868208868385086D
:040C290081D008224C
:0E0C2D0075D16174012509F509E4350AF50A4F
:0E0C3B00E50924FFFEE50A34FFFFEEF4FEEFAC
:0C0C4900F4FFE5095206E50A52077D00A1
:030C5500BD1000CF
:050C58004003020DEE57
:0E0C5D0074035DFCED2410F9E7FB54C0700336
:030C6B00020CEC8C
:0B0C6E00ED2410F98703BB8202801EFA
:0D0C7900ED2410F9870353037FEB2BFA9055
:0E0C86001C4F93CAA393FBEE5202EF5203EAF7
:030C94004B60555D
:0C0C9700ED2425F9E7FB600CED2410F8BB
:080CA300E6FA30E703EB14F759
:030CAB00BD040085
:050CAE00403CBD080000
:0C0CB3005037EC2448F9E7FB30E00FEC70
:0E0CBF0024F6F9E76008EC24F6F9E7FA14F7DA
:0E0CCD00EB30E11BEC24F6F9870374DA2C906F
:0E0CDB001D0093FAC3EB9A5008EC24F6F9E7DB
:030CE900FB04F712
:030CEC00BD080040
:050CEF004003020DEAC4
:0A0CF400ED2425F9E77003020DEA74
:0C0CFE00EC2448F9E7FB30E020EC24FA7D
:0E0D0A00F9E714F7EC24FAF9E7FB5403700F35
:0E0D1800EC24F2F9E76008EC24F2F9E7FB1492
:010D2600F7D5
:0C0D2700EC2448F9E7FB30E14DEC24FA25
:0E0D3300F907E7EC24FAF98703530303BB0327
:0E0D41003BC006C007EC24F2F9870374082CAF
:0E0D4F00F582C006C005C004C003120B14AA32
:0E0D5D0082AF83D003D004D005D0067E00C341
:0E0D6B00EB9AEE9FD007D0065008EC24F2F968
:040D7900E7FB04F799
:0E0D7D008C82C007C006C005C004120B14D043
:0E0D8B0004D005D006D007EC2410F9E7FB30A9
:0C0D9900E64FEC2448F9E7FB30E025C0F1
:0E0DA50006C007EC24EAF98702EC24D6F98791
:0C0DB30007C3EF9AD007D006400CEC24D8
:0A0DBF0025F87600EC2410F8768089
:0E0DC900EB30E11DEC24EAF98703EC24D6F9A7
:0C0DD7008702C3EB9A400CEC2425F87650
:070DE30000EC2410F87680FB
:040DEA000D020C5595
:020DEE007F0084
:080DF000EF24F05003020F2470
:0C0DF800EF2435F987068E05ED7003022C
:020E04000F20BD
:0A0E0600EF2425F9E76003020F2036
:0C0E1000EF2410F9E7FC20E703020F209C
:080E1C00EF24F85003020EA4BC
:0E0E2400EF2410F9EF2410F88604743F5CF7F9
:0C0E3200EE20E30A74035F2448F8760009
:020E3E00800E24
:0C0E400074035F2448F9E7FEC454F0FC82
:020E4C004EF75F
:0C0E4E00EF2435F87600C007C005C00591
:0E0E5A008F82120F501581D005D007BF040003
:0C0E6800E433FE7025EF901C2D93FC5528
:0C0E740024601BEF24FCFB24D6F9EB24C7
:0C0E8000DEF88602A702ECF45224EB908E
:060E8C001C2D93FC422422
:0C0E9200EE600FEF901C2D93FE552460C5
:060E9E0005EEF4FE5224F3
:0C0EA400BF091ABD0117753E02C007C04F
:0E0EB000057401C0E07582301203B61581D0C2
:030EBE0005D00755
:0C0EC100BF0A16BD0113753F02C0077484
:0D0ECD0001C0E07582311203B61581D00717
:030EDA00BF0B004B
:0C0EDD00403FEF24F1403AEF24F5244898
:0E0EE900F9E7C4540FF7EF2410F87600EF2459
:0A0EF70025F87600EF2435F87600A8
:0C0F0100EF24F92435F9E7FE54F76011E5
:0E0F0D00EF24F9FE2410F9EE2410F886067485
:030F1B00804EF70E
:020F1E00D200FF
:040F20000F020DF0BF
:010F240022AA
:0E0F250075821012030CAC82530401C00475D7
:0E0F330082101203B6158175821112030CACE8
:0E0F410082530401C0047582111203B615819B
:010F4F00227F
:0A0F5000C008858108AF8274035FBA
:0A0F5A00FE240BFD2435F8E5082401
:0E0F6400FDF9E7F6901DEEE493FCE4CE25E0E7
:0A0F7200CE33FB8EF005F0EC800298
:020F7C00C3139D
:0D0F7E00D5F0FB5403FE600ABE010280099D
:050F8B00BE020E80080B
:040F90007E04800A51
:040F94007E0880064D
:040F98007E10800245
:020F9C007E27AE
:0E0F9E008F82C007C006C005120B14D005D00C
:060FAC0006D007BF04009F
:0E0FB200401674035F2404F582C007C006C019
:0A0FC00005121859D005D006D0071D
:060FCA0074035F240CFF1C
:0E0FD0008F82C007C006C005121859D005D088
:0C0FDE0006D00750EDED2425F8A606ED26
:080FEA002410F87683D00822E0
:0E0FF200AF82901DD9E493540FFE6019EF24D6
:0C10000025F9EE901C5B93FEF7EF241026
:0B100C00F87685EF2435F87601800CA3
:0C101700EF2410F87600EF2435F8760086
:0110230022AA
:0E102400750D00901DE4E493FF30E7047F019A
:0210320080023A
:021034007F0338
:03103600754C00F6
:0A103900E54C24FC4023EF554C2445
:0A10430048F98706530603E54C2523
:09104D004CFD8DF005F0EE80026F
:0210560025E093
:0A105800D5F0FBFE420D054C80D7D9
:0E106200AE0E7F00EEF4FEEFF4FFAC0D7D004D
:0E107000EC5206ED5207EE4F601FC28C53A2E9
:0E107E00E9C292850D80C28DE4F58CF58A746E
:0D108C00F0558904F589758F00D28C800322
:03109900850D8042
:06109C00850D0EC20022CA
:0D10A200901CCAE493F50FE4F509F50AFF70
:0C10AF00EF24F04015EF2435F87600EF38
:0C10BB002410F87600EF2425F876000FD2
:0210C70080E6C1
:0210C9007F00A6
:0810CB00EF24FC500302114B5D
:0D10D300901DF1E493FE8FF005F0EE800219
:0210E000C31338
:0910E200D5F0FB541160028011ED
:0810EB008FF005F07411800282
:0210F30025E0F6
:0710F500D5F0FBF4FE520FE1
:0E10FC00901DD9E493FE5306C0BE400280054D
:05110A00BE803A801DCB
:0E110F00740C2FF582C007E4C0E0E4C0E0C21B
:0C111D00F085F0231206CF15811581D05B
:0311290007801B21
:0E112C00740C2FF582C007E4C0E0E4C0E0D2EE
:0C113A00F085F0231206CF15811581D03E
:0111460007A1
:041147000F0210CBB8
:0C114B00750E00D200758209120FF275BB
:06115700820A120FF222D1
:0A115D00754500C20275800075841C
:0E116700007585FF74F055892402F589758F97
:0E11750001758C5043A210D28CC2A9D288E41E
:0E118300F50FF509F50A75D16075D20175D327
:05119100CD75D16122C3
:081C2D000102040810204080B0
:0E1C3500FFC8644332211914110E0D0B0A086A
:021C4300060396
:061C4500010101044080D2
:041C4B000012141E51
:0C1C4F00000000000000080080000008F9
:0E1C5B0000020406080A0C0E1012141624488B
:021C69006DDA32
:0A119600E58124FEF8E6F918E6F8FA
:0511A0007A10E4FBFCE5
:0E11A500E58225E0F582E58333F583EB33FB2D
:0E11B300EC33FCEB98F5F0EC994006FCABF049
:0311C10043820165
:0311C400DADF224D
:0E11C700C0E0C0D0C2AAC28E740F5589242089
:0E11D500F589758B35758D80C28FD28ED2ABA9
:0611E300757802C205D27E
:0511E90003757700759D
:0911EE007600D204D0D0D0E0322A
:0C11F700C023C0E0C0F0C082C083C0076D
:0E120300C006C005C004C003C002C001C00088
:0C121100C0D075D000E578FF24F1500338
:03121D00021514A3
:07122000EF2F2F901227733E
:07122700021254021514022B
:06122E0012C70213810249
:06123400138A0213FF0201
:06123A0015140215140258
:0612400015140215140252
:06124600142302148B02C8
:06124C0015140214AF02AC
:0212520014FD89
:0E125400C28E740F55892420F589758B807524
:0A1262008D80C28FD28EE57AB57B35
:03126C00028051AC
:08126F00E57B246CF987821273
:0B12770015FA503DC2AAE5787032E580
:0A1282007B246CF9E7FF20E50774F8
:06128C00204FF775790008
:0B12920074FC2579400512155F8016E2
:06129D00057B537B07C234
:0412A3000DC2121254
:0C12A7001533C28E758DF0758B00D28E51
:0512B300D2AA0215148F
:0612B800057B537B0702D9
:0212BE00151405
:0712C000C28ED2AA02151430
:0A12C700A28BB39218C28B75780356
:0A12D100758D00E577700A7577014E
:0512DB00C206C207027B
:0212E0001514E3
:0A12E200747F2577401C301808B215
:0412EC0005E5772578
:0312F00076F5761A
:0512F300E5772577F509
:0612F800776003021514EB
:0612FE0075778102151452
:0A130400C28EC28FA205201801B3AB
:0A130E005026E574700E74CCB5761D
:0313180002D206F8
:07131B00740CB57602D20745
:07132200200613200710E56F
:05132900742455F8E5F5
:05132E0076F662750572
:03133300748002C1
:02133600C203F0
:05133800100D02801DF4
:07133D0030061430031175A6
:071344007904101202800978
:07134B00E5502404F55053A6
:02135200503C0D
:061354001215330215140E
:07135A0030031E20061B20DA
:0C1361000718740F55892410F589758D4C
:0C136D00FA758B70D28E757804D2AA023B
:02137900151449
:06137B00121533021514E7
:09138100758D80757802021514C7
:0A138A00300B64E57424FB505EC2D2
:0E1394008E740F55892410F589758DEF758BB9
:0813A20042D28EA2109208E570
:0813AA005A30E71F855882C08C
:0C13B200591215A9AF821581BFFF0280FF
:0113BE00022C
:0213BF00D20852
:0913C100E558701CE5597018D2C2
:0313CA0008801484
:0C13CD00901D17E493FFB5580B901D18FD
:0813D900E493FFB55902D208AC
:0913E10074FFB57505300802D255
:0113EA0009F9
:0613EB00757805021514DF
:0813F100E57424FE5002D2094C
:0613F90012153302151469
:0A13FF00C28E74FFB5751330080AA2
:06140900D20E12155FC2B5
:04140F000D021514A1
:061413001215330215144E
:06141900D20F12155FC2A4
:04141F000D02151491
:08142300E5742455F987073038
:04142B000E027FCC62
:05142F00300F027F0CEC
:09143400C2AA740AB57802800313
:03143D0002151481
:0A144000E577247F402CE5775F700C
:09144A0008D296C20CB205800222
:02145300D20CB9
:08145500E5777007757701C20D
:03145D0005800601
:05146000E5772577F59A
:01146500770F
:07146600E577700375778143
:05146D0075780B8013EF
:09147200200506D296C20C80028E
:02147B00D20C91
:06147D000574757700758F
:02148300780DE2
:06148500758D1202151422
:0A148B00E57470077401B5770205DF
:0114950079DD
:0A149600C296A20C828B5007C20D13
:0514A000121533800667
:0614A50075780A758D6EDA
:0414AB00C28B80650B
:0E14AF00C296C28E740F55892410F589758D72
:0A14BD00FB758B90D28E200E0330D9
:0214C7000F050F
:0514C900121533802B19
:0C14CE00740F555AFF7E0074072FFFE4D6
:0C14DA003EFEAC747D00C3EF9CEE64800D
:0C14E6008DF063F08095F05007D20A12E0
:0414F200153380032B
:0314F60075780EF8
:0414F900C28B80170B
:0E14FD00C28E740F55892420F589758D6E7589
:09150B008B80C28FD28E75780A24
:0C151400D204D0D0D000D001D002D0030F
:0E152000D004D005D006D007D083D082D0F002
:05152E00D0E0D02332E3
:0A153300757800C28BC28EC2AB7542
:0A153D007500757400C28E740F551E
:0C154700892410F589758D89758BAFC261
:0A1553000EC20FC28FD28ED2AAD2B0
:02155D00AB22BF
:0E155F00C28E740F55892420F589758D6E7526
:0C156D008B80C28F740F555A2407FF7545
:0415790075FF7E007C
:0C157D00C3EE9F500BEE2455F9E7FD6211
:04158900750E80F06B
:07158D00EF2455F8A675C21A
:0415940006C207D2B2
:051598000D75780A75D5
:0A159D007700757400C2AAD28ED246
:0215A700AB2275
:0A15A900C008858108AF827EFF9024
:0815B3001D16E493FDBDFF00CD
:0C15BB005038201035901D16E493602E6F
:0715C700901D16E493FD1DC9
:0E15CE00ED6024ED2DFC2417901D0093FBEF23
:0C15DC00B5031374182C901D0093FCE55F
:0A15E8000824FDF8E6B504028D06A4
:0315F2001D80D980
:0515F5008E82D00822E7
:0A15FA00C008E581F5082404F5811E
:0C160400AF82C2187DFE7E00EFA2E5E47C
:0916100033FC24FF9219BF800095
:0516190040030217462A
:0C161E00C005C006EF2323540124FF92F6
:0B162A001A53071F8F82C007C005C0C5
:0C1635002312030CAA82AB83ACF0FED0A1
:0A16410023D005D007A80808A60270
:0E164B0008A60308A60408A606901D11E49345
:0E165900FE0EEF2FFD2EFC04901D0093FEB53B
:0416670007028006F0
:06166B00D006D005800F3F
:0E167100D006D0058C8275831DE493FCFD7EAF
:01167F00006A
:09168000BDFE06BE00030218487D
:0A1689007555BC901D17E493FC8C0E
:0A16930056901D18E493FC8C57EDEF
:0C169D002DFD2417901D0093FE8E587444
:0A16A900182D901D0093FE8E597558
:0616B3005B00301A057512
:0416B9005C4080030E
:0316BD00755C80D9
:0E16C000901D12E4932F2FFE2F2404901D0086
:0C16CE0093FE24F95006EE24FBFE80027F
:0216DA007E018F
:0C16DC0074E02EF55AEE24FE500F740648
:0A16E8002E2455F9A808088605A76E
:0316F20005801060
:0C16F500A80808743F56FAE4FBFCFDEA6C
:04170100255CF55C12
:0C170500EE24FD500E74052E2455F9A8AA
:071711000808088605A70582
:0C171800EE24FC500F74042E2455F9A898
:08172400080808088605A70566
:0C172C00EE24FB501074032E2455F9A885
:0917380008080808088606A70647
:05174100D21802184857
:0A1746007555B0901D17E493FE8E58
:0A17500056901D18E493FE8E578595
:03175A004E588561
:0A175D004F5953071FEF24FA500301
:031767000218461F
:07176A00EF2F2F90177173A0
:071771000218460217830273
:06177800178F0217A60204
:05177E0017B80218403D
:08178300755A6074C22554F58B
:04178B005B0218469F
:08178F00755A6374432550F5FF
:051797005B755C40756C
:06179C005D00755E12D233
:0417A20012021846D1
:0717A600755800755900752C
:0617AD005AE1755B0175B5
:0517B3005C4002184635
:0217B8007F00B0
:0A17BA00C3EF95515064E552702C06
:0A17C400740A2F2455F9EF25539005
:0C17CE001C0093F7AD537E008F037C00DD
:0E17DA00EB2DFDEC3EFEBD603EBE003B740AF2
:0817E8002F2455F8A67C803186
:0A17F0007401B55211740A2F24553C
:0C17FA00F9EF2553901D0093FEF7801BB3
:0A180600740A2F2455F9AD537E003B
:0E1810008F037C00EB2DFDEC3EED2400F886EE
:03181E0006A70614
:031821000F80969F
:0918240074632551F55A74424524
:06182D0050F55B7440451C
:0418330051F55C858A
:03183700525D857A
:03183A00535ED228
:03183D0012800610
:06184000755A60755B8122
:02184600D218B6
:0818480030190674DF5555F557
:011850005542
:06185100A218850881D0F9
:02185700082265
:07185900AF82C218BF40007E
:0C186000501B8F82C007C023121BA2E5A2
:0C186C0082D023D0075444FEBE4402800A
:01187800046B
:04187900D218802AD7
:09187D00AD7A7E000DBD00010EE4
:0C1886005305077E00AB7B7C00EBB50532
:0718920006ECB50602800E12
:08189900E57A246CF8A60705AE
:0518A1007A537A07D222
:0118A6001829
:0518A700D28EA2182200
:0818AC00C0088581080581C216
:0818B40009AF5B74C35FFEADD8
:0718BC005CE558FC7034E507
:0918C300597030E57C20E00302BD
:0218CC001AA25E
:0E18CE00EE700EBDC00BC006C005121B87D009
:0318DC0005D0062E
:0518DF00BE01028003C0
:0318E400021AA243
:0618E700ED6003021AA2ED
:0918ED00758283121859021AA237
:0818F600E55A30E7030219D0A6
:0C18FE00901D17E493FBECB5030280037F
:03190A00021AA21C
:0B190D00901D18E493FBB55902800305
:03191800021AA20E
:05191B00BE420280182D
:05192000BE4302804FF0
:05192500BE8002806A93
:05192A00BE8102807B7C
:06192F00BE83030219C78C
:03193500021AA2F1
:06193800201103021AA2B7
:0C193E00743C5FF5545305F0BD800D753E
:0C194A008281C005121859121AA7D0059E
:06195600ED6003021AA27D
:04195C00855C5185D0
:031960005D528550
:061963005E537582811243
:0919690018597582841218590204
:021972001AA2B7
:0B197400743C5FF554BD800343A208E3
:06197F00ED6003021AA254
:0D198500758281121859758282121859025C
:021992001AA297
:06199400301103021AA24B
:04199A00D21185568B
:03199E004E85571C
:0519A1004F755000C26B
:0419A60012021AA26D
:0719AA00E556B54E02800373
:0319B100021AA275
:0719B400E557B54F02800367
:0319BB00021AA26B
:0619BE00101103021AA241
:0319C400021AA262
:0919C700758285121859021AA25A
:0619D000EE6003021AA202
:0C19D600C005C0598C821215A9AF821503
:0919E20081D005BFFF03021AA227
:0E19EB00901D11E493FEF58275831DE4932593
:0D19F900E02EFC0E74C05DFBE4BB80010419
:011A0600FBE4
:081A0700C3EE9C4003021AA289
:0E1A0F008E8275831DE493FAEFB50202800308
:031A1D00021A9D0D
:0E1A2000C004EE04901D0093FAF582C007C0CA
:0E1A2E0006C005C003C002121BA2AC82D0028B
:0C1A3C00D003D005D006D007A80808A6EB
:0C1A480004D004EB6031C003A80808744F
:081A54001456FBBB14028004D0
:041A5C00D003801F14
:0E1A6000D0038A82C007C006C005C004C003C0
:0E1A6E00C00212029BD002D003D004D005D0DB
:031A7C0006D0078A
:0C1A7F00ED701BC002A80808740C56FA99
:051A8B00BA0C0280040A
:041A9000D002800EF2
:091A9400D0028A821203018005D0
:051A9D000E0E021A0705
:051AA2001581D00822AF
:0A1AA700C008E581F5082404F5816C
:081AB100A80808740F555CF64B
:0A1AB900E57870FCC2AF75E400AEE2
:0A1AC3005EAD5D74015D241CFCA8FB
:051ACD00080808760086
:0A1AD200A8080808A90809C3E69750
:051ADC004003021B7C29
:0C1AE100ED7030C0048E027C00A80808E4
:0E1AED000886037F00EB2AFAEF3CFCBA600586
:051AFB00BC00028004A4
:041B0000D00480107D
:0A1B0400D004A8080808740A26247B
:061B0E0055F9877C8002FE
:021B14008CE75C
:0A1B1600A8080808E62EF5E6A80866
:0C1B20000808740A262455F987E58E0396
:0A1B2C007F00A8080808E50824035C
:0C1B3600F9E6F7097700E5082403F8E65B
:0E1B42002BFB08E63F53033F7F00BB3F25BF50
:0C1B50000022A8080886037F001BBBFFD2
:021B5C00011F67
:0C1B5E00E5082403F8E6B5030708E6B527
:041B6A0007028006E8
:061B6E0075E46875E40057
:081B7400A808080806021AD2B5
:0A1B7C0075E468D2AF850881D00837
:011B8600223C
:0C1B8700E57870FCC2AF75E40075E71D46
:0A1B930075E617855DE5855EE575D2
:051B9D00E468D2AF2254
:0E1BA200AF82901D12E493FE0E0E0EEF2E2F5A
:081BB0002F901D0093F5822225
:0E1BB80075950075911475924CC29675892131
:0E1BC600758F00C28CC28E758D80758B80C2AB
:0C1BD4008FC20475A88075E80075B80485
:0A1BE00075B70CD28A757C2EC20680
:051BEA00C207C20EC29B
:041BEF000FC209D246
:051BF3000B757A00757E
:061BF8007B00755000C2E5
:041BFE0012C211C23C
:051C0200101215332251
:06005200E478FFF6D8FD82
:080030007900E94400601B7A2D
:0500380000901C6B7834
:03003D000075A0AB
:0A00400000E493F2A308B8000205E3
:08004A00A0D9F4DAF275A0FF61
:0E1C070074FE2581F8E68582F0A4C0E0858297
:0E1C1500F018E6A4F582D0E025F0C58386F035
:061C2300A42583F58322D5
:080058007800E84400600A7919
:030060000075A088
:0600630000E4F309D8FCE3
:080069007800E84400600C7906
:0B00710000900000E4F0A3D8FCD9FAD6
:0300230075817C68
:0A002600121C29E582600302001E8F
:041C2900758200229E
:00000001FF
