:0400000002002332A5
:01000B0032C2
:0300130002125D79
:03001B0002128D41
:03007C0002001E61
:05001E0012007F80FECE
:0C007F007F00C218E5A703540124FF9283
:06008B0019C007C023129A
:090091001C41D023D007C29720C6
:04009A00191D7E00AE
:03009E00BE32006F
:0E00A1005016C28C901D17E493F58C758AFFE3
:0400AF00C28DD28CA0
:0600B300308DFD0E80E51A
:0E00B90075C1FFC2AF75A7E575C2A575C35A24
:0E00C700D2AFC2AF43A70475C2A575C35AD20B
:0900D500AFC007C0231211F3D0E3
:0900DE0023D00720190BC007C054
:0500E70023121135D0C9
:0300EC0023D00717
:0E00EF00C2AF75C2A575C35AD2AF901D0DE405
:0700FD0093FEBEFF02800329
:030104000202E113
:06010700300E030202E1CC
:08010D00E57D30E0030202E190
:0B011500748025D1500BC007C02312DE
:060120000D49D023D007B9
:0D012600901DE8E493FE30E6047E008002A8
:020133007E0448
:020135008E0535
:03013700BD080000
:05013A00400302021A5F
:0A013F00C007C2197E00AA0F7B0062
:0C014900EAF4FAEBF4FBAC247F00EC526B
:0E01550002EF5203ED901CB4937C005202ECBA
:0B0163005203D007EA4B7003020216A3
:0C016E0074035D240B2435F9E7600302E4
:02017A0002037E
:0C017C0074035D2448F9E7FC5433707BE9
:03018800BD0400B3
:0C018B00500CED24D6F987048C067C0291
:020197008045A1
:0B01990074035D24DAF9E77005FCC276
:0301A40019801DA2
:0A01A700D21974035D24DAF987030E
:0701B100BBFF047C00800C81
:0C01B8007C0174035D24DAF987038B06D8
:0D01C400EC601774035DFB901CB493FA42CD
:0701D10024EB24DEF9EB240E
:0601D800EAF88603A7030C
:0C01DE0053040FC007C005C023C004C0BC
:0A01EA0006A21992F085F0238D8221
:0C01F40012075815811581D023D005D0CA
:0302000007801361
:0A020300E54D30E60EED2425F876F7
:09020D000074042D2425F876008C
:040216000D0201379D
:0E021A00308D1F740F5589FDBD011774F0550E
:0E022800892402F589758F01758C50C28D43B3
:06023600A210D292D28C4E
:0C023C00300079901DE4E493FD30E704ED
:040248007D018002B2
:02024C007D0330
:03024E00754C00EC
:0A025100E54C24FC4022ED554C243E
:0A025B0048F98704530403E54C251D
:090265004CFB8BF005F0EC80026B
:02026E0025E089
:09027000D5F0FBF50D054C80D81A
:0B027900AC0E7D00ECF4FCEDF4FDAADF
:0C0284000D7B00EA5204EB5205EC4D60CB
:0C0290001FC28C53A2E9C292850D80C2EF
:0E029C008DE4F58CF58A74F0558904F58975AA
:0602AA008F00D28C8003DE
:0302B000850D8039
:0402B300850D0EC2E5
:0102B7000046
:0B02B800E57970497440258D4043201B
:0A02C3000B40901CFFE493FDB50F03
:0302CD0002803577
:0C02D00075E40075E71C75E6FF850FE57E
:0502DC0075E4688024B8
:0C02E100748025D1501E300E1B75D161B9
:0A02ED00E57E24914004057E800E9A
:0B02F700758285C007C0231218EDD0EF
:0303020023D007FE
:05030500100702800F4B
:07030A00C208C007C0231266
:080311001940D023D007800A37
:020319007E6400
:08031B008E051D8D06EE70F841
:08032300D297209712BFFF00E2
:05032B0050030F8012D9
:06033000201803637D812B
:04033600D218800851
:06033A00EF60031F8002CA
:02034000C218E1
:08034200E57D5401FEB4010049
:0B034A00E433FE24FF92970200EF2234
:011D0000FFE3
:021D0100040BD1
:021D03000004DA
:011D0C0000D6
:011D0D00FBDA
:021D1700FFFFCC
:0C035500AF8274035FFEE55DFD5401FC07
:0703610024FF9218BF080001
:0A0368005021E54D30E604E5247055
:01037200503A
:0C037300E4C0E0E4C0E0A21892F085F0C5
:0C037F00238F82120758158115818038E9
:0E038B00EF24F4401274042E901CB493FC4234
:0903990024EE24DAF9A75E8021AC
:0C03A200EF24F04010EE901CB493FC42DD
:0903AE0024EE24D6F9A75E800CB0
:0C03B700530501C0058F8212042415813B
:0103C3002217
:0B03C400AF8274402FF5821218ED226A
:0703CF00AF827E00BF0800B1
:0E03D600500EEF901CB493FD550B60347E0169
:0203E400803067
:0303E600BF0C0049
:0E03E900500CEF24F824EEF987058D06801FD6
:0303F700BF100034
:0E03FA00500CEF24F424EAF987058D06800EDE
:0E040800EF24F0901CB493FF550C60027E01AF
:0E0416007F007D007C008E828F838DF0EC22B3
:0A042400C008E581F5082404F58105
:0C042E00AF827D00E5082404F87600BFD2
:02043A001400AC
:0C043C004012A8080874015FF67B00E580
:080448000824FDF87601802A6A
:0C045000A80808EF24F0F6901DE2E493E9
:0E045C007A00F4FFEAF4FAA2E7CF33CF33A21E
:0D046A00E7CF33CF33CF540330E10244FC21
:03047700FA8F03F6
:0A047A00E50824FDF8E6600DA8086F
:0B04840008E6901CB493FF420C800CB3
:0C048F00A80808E6901CB493F4FF520C7F
:06049B00A80808B60200EB
:0E04A100E433FF6070C007EB650CFA74035A79
:0C04AF00FB7F00F4FCEFF4FFA8080886B7
:0804BB00027E000ABA00010EE6
:0D04C300EA5204EE5207EC4FD0076017A874
:0C04D0000808740926F582C007C005C0AA
:0A04DC0003121103D003D005D0076E
:0E04E600EBF4FE901DE9E49323235403FC5233
:0C04F40006E5082404F8A606EB30E00240
:020500007D0F6D
:07050200EB30E1034305F0BB
:0D050900901DF1E4935205EDC4FE4DF50F79
:0A051600E547F4FEE50F5206A808C1
:0C0520000808A606E50FF4FCE5475204AD
:0A052C00E5082403F8A604850F4734
:020536007A0049
:08053800EA24FC500302075203
:0C0540007D00A8080808E630E03CC00779
:0E054C00901DF0E493FF8A04E4CC25E0CC334C
:08055A00FE8CF005F0EF8002B9
:02056200C313C1
:0E056400D5F0FBFF74035FFDEA24CEF9EA2414
:0E057200EAF88607A707EA24D2F9EA24EEF891
:060580008607A707D00763
:0A058600E5082403F8E630E057E52D
:0C059000082404F8E6602BEA24D6F9EAFF
:0E059C0024CEF88606A706EA24DAF9EA24D26D
:0C05AA00F88606A706EA901CB4934224D1
:0C05B60074042A901CB493FE422480249C
:0E05C200C007901DEFE493FE8A04E4CC25E010
:0A05D000CC33FF8CF005F0EE800242
:0205DA00C31349
:0A05DC00D5F0FBFE74035EFDD007AE
:0C05E600ED6029EDC31324FF921874147B
:0D05F2002AFEC007C002E4C0E0E4C0E0A2A1
:0905FF001892F085F0238E82129F
:0A060800075815811581D002D007B4
:0A061200E5082403F8E6C313F6A878
:0B061C00080808E6C313F6EF600302B5
:02062700074E7C
:0E062900EA901CB493FEE50F5E600302074EDC
:0E063700C007901DF3E493235401FC901DF4C2
:0E064500E49323235403FF74025F42048C03EA
:0E065300740C550C0303543FFF630303EB626A
:0E066100078F03EAC31324E2901D0093FFEA03
:0C066F00901CCC93FC8CF005F0EF800296
:02067B00C313A7
:0E067D00D5F0FBFF74075F901CB493FFEB9069
:0E068B001CD693FC52078F0574F32A901D00B5
:0E06990093FBD007ED605053037FEA24E6F98F
:0E06A700EA24EEF88605A705EA24DAF9EB2B23
:0E06B500FDEBC3132DFD75F014EB842DF7EA59
:0E06C30024E2F9EA24EAF88605A70574F72A6E
:0E06D100901D0093FD747F5DFBEA24D6F9EBCB
:0E06DF002BFDEBC3132DFD75F014EB84FC2DE9
:0306ED00F7805340
:0E06F00074F72A901D0093FD30E71AEA24DA11
:0E06FE00F9EA24E6F88605A705EA24D6F9EA0B
:09070C0024E2F88605A705802E01
:0E07150074FB2A901D0093FD74C05DFBBB4079
:0707230006EA24DAF8760073
:05072A00E4BB800104A6
:09072F00FD6006EA24DAF876FF09
:0B073800ED600874042A2425F8760008
:0B07430074042A901CB493FD4E422465
:04074E000A0205385E
:06075200850881D0082299
:0A075800C008858108C082058105F4
:0A076200817E01A8080874035624E4
:0A076C0048F98705A8080808740F73
:0A0776005DF6A80808088604A8082C
:0C07800008740756901CB493FB30180559
:05078C00EB420B8005AB
:05079100EBF4FA520B2D
:0B079600E50F5B600BA80808B6100020
:0507A1005003020C2AC8
:0A07A600A80808E65407F6E5082449
:0C07B000FCF8E6701AA80808740356FB59
:0C07BC002404901CB493F4FA5224EB9037
:0707C8001CB493F4FB522462
:0607CF00A80808B60400B2
:0507D50040030209626F
:0A07DA00E50824FCF8E67036A808D4
:0C07E40008E6C31324E8901D0093FBA856
:0C07F0000808E6901CCC93FA8AF005F093
:0307FC00EB80028D
:0207FF00C31322
:0C080100D5F0FB5407FB430380A8080857
:0B080D0074EA26901D0093FAFE80554F
:0C081800C0047B42A80808E624EAF98727
:0B08240002E50824FDF8E6C39AFAA8DC
:0A082F000808E624D6F8E50824FDC9
:0C083900F9E7F6A80808E624EAF98704AD
:0C084500E50824FDF8C3EC96D004500434
:04085100D218801821
:07085500EA6004C2188011E3
:0C085C00C0037E00A80808E6901CB493BE
:05086800F45224D0034E
:0E086D00C003901DE5E4930303543FFB740F9A
:0E087B005B901CBC93FB8BF0EE842EFDC39EA5
:06088900D00350027DFFC8
:06088F00EE7003020B9F56
:0A089500A8080808E65433607CA8A8
:0A089F000808E62435F9E76009E5D2
:0808A900082403F87600800723
:0708B100E5082403F87604BA
:0A08B800A8080808740356FDA808FC
:0C08C20008E5082403F9E726FFC0058FB5
:0C08CE00821210611581A808080874CC83
:0C08DA0056FCA80808E62410F9C001A98B
:0C08E6000809E72410F8D0018607743FD1
:0A08F2005FF7A80808E62435F87641
:0C08FC0000A80808740426FF2410F9EF7F
:0C0908002410F88605743F5DF7EF2435DD
:06091400F87600020B9FC3
:0A091A00A80808E62410F8A603A8B8
:070924000808E62435F9A2E2
:0A092B0018E433FF04F7201817A8A2
:0B093500080808741046FC5304DFA8FB
:090940000808E62425F8A60502CA
:020949000B9F02
:0C094B00A8080808742046FC5304EFA81C
:090957000808E62425F8A60602B2
:020960000B9FEB
:0C096200C004A80808740356FFC3132447
:0C096E00FB901D0093FDA80808740156C2
:0C097A00901CCC93FC8CF005F0ED80028A
:02098600C31399
:0E098800D5F0FB5407FD74804DFB74DA2F9000
:0C0996001D0093FFE5082403F8A607D01D
:0A09A20004E50824FCF8E67016E5F1
:0B09AC00082403F8E60303543FFFE5B6
:0A09B700082403F8EF26FFFE806716
:0C09C100A80808740356FF24EEF987050F
:0C09CD00E50824FDF8E6C39DFDFAEF24C8
:0C09D900EEF98707E50824FDF8C3EF964F
:0609E5005004D218800648
:0609EB00C218C3E49AFAF1
:0C09F100C003E5082403F886057F007BA6
:0C09FD0000C004C003C023C002C0038D72
:0E0A0900828F83121C8EAD82AF831581158102
:0A0A1700D023D003D0048F06E508B9
:070A21002403F8A606D00330
:0E0A2800901DE5E4930303543FFF740F5F90AD
:0C0A36001CBC93FF8FF0EE842EFFFDE54A
:0B0A4200082403F8C3EE9650027EFF6C
:070A4D00C3ED9E50027DFF86
:0C0A5400901DF2E493FFA8080886F0054E
:040A6000F0EF800231
:020A6400C313BA
:0D0A6600D5F0FBFF530701EE7003020B7388
:060A7300301803020AF82E
:0A0A7900EF700BA80808E62435F81A
:040A8300760180096F
:090A8700A80808E62435F87609F8
:0A0A9000A8080808741046FCA80826
:0A0A9A0008E62425F8A605A80808C0
:0C0AA40008E654116009A80808E62410B8
:030AB000F8A603A2
:0A0AB300A8080808E654337009A8EB
:080ABD000808E62410F8A60366
:0C0AC500A8080808E654227003020B7F0A
:0C0AD100C004C0037405C0E0A80808863B
:0E0ADD00821210611581D003D0045304DFA8EB
:0B0AEB000808E62410F9747F5BF70296
:020AF6000B7F74
:0A0AF800EF700BA80808E62435F89B
:040B020076028009EE
:090B0600A80808E62435F8760A77
:0A0B0F00A8080808742046FCA80896
:0A0B190008E62425F8A606A808083F
:0C0B230008E654226009A80808E6241027
:030B2F00F8A60322
:0A0B3200A8080808E654337009A86B
:080B3C000808E62410F8A603E6
:0C0B4400A8080808E654116032C004C084
:0B0B5000037406C0E0A80808868212AB
:0C0B5B0010611581D003D0045304EFA8F2
:0C0B67000808E62410F9747F5BF7800C8E
:0B0B7300A80808E6901CB493F4FF52A1
:010B7E002452
:0A0B7F00A80808E624FCFF2425F86E
:0C0B89007600EF2435F87600EF2410F918
:0A0B9500EF2410F88607743F5FF7A5
:0A0B9F00A8080808A604A80808E644
:0C0BA90024F84070A80808740356240BC0
:0A0BB5002435F98707E5082403F84A
:0C0BBF0074075FF6E5082403F8B6040094
:0C0BCB005031ECC4540FFFE5082403F87F
:0C0BD700EF5654036021A8080874035670
:0C0BE300240BFF2410F87600EF2425F806
:0A0BEF007600EF2435F87600E508E3
:050BF9002403F8760062
:0C0BFE00E5082403F8E630E2055304F09B
:020C0A00801157
:0A0C0C00E5082403F8E67009A808C3
:070C16000808E6C4540FFCBE
:0A0C1D00A808087403562448F8A63E
:030C270004D200F4
:060C2A00850881D00822BC
:0A0C3000C00885810805810581AF29
:0E0C3A008274035FFEC31324FD901D0093FD22
:0A0C4800EE30E006EDC423541FFD5A
:060C5200530507BD03007D
:0E0C5800403774DE2E901D0093FC7B00ED9063
:0E0C66001CD093FD7A00C007C006C005C00276
:0E0C74008C828B83121C8EAC82AD8315811591
:0C0C820081D006D007A80808A60408A628
:030C8E0005801CC2
:0C0C910074DE2E901D0093FB7A00A80872
:0E0C9D0008A603EAC313C613C6C313C613C6C4
:020CAB0008F649
:030CAD00BF040081
:0E0CB0005044C007EE24EAF9EE24F2F8860361
:0E0CBE008B027B00EE24F2F886078F057F0084
:0C0CCC00EBC39DFBEA9FFAC006C001A824
:0C0CD8000808E6C0E008E6C0E08B828A55
:0E0CE4008312122CAD8215811581D001D0062D
:040CF200A705D0077B
:030CF600BF080034
:0E0CF9005040EE24EEF9EE24F6F886078F0543
:0E0D07007F00EE24F6F886047B00EFC39CFF0D
:0E0D1500ED9BFD74DA2E901D0093FE7C00C055
:0E0D230001C006C0048F828D8312122CAE8296
:0A0D3100AF8315811581D001A706DC
:0A0D3B00A808088682088683850850
:040D450081D008222F
:0E0D490075D16075D20175D3CD75D16174017D
:0E0D57002509F509E4350AF50AE50924FFFE31
:0E0D6500E50A34FFFFEEF4FEEFF4FFE509525D
:070D730006E50A52077D00AE
:030D7A00BD1000A9
:050D7D004003020F2AF3
:0E0D820074035DFCED2410F9E7FB54C0700310
:030D9000020E2C24
:0B0D9300ED2410F98703BB8202801ED4
:0D0D9E00ED2410F9870353033FEB2BFA906F
:0E0DAB001CDA93CAA393FBEE5202EF5203EA46
:030DB9004B60701C
:0C0DBC00ED2425F9E7FB600CED2410F895
:080DC800E6FA30E703EB14F733
:030DD000BD08005B
:0E0DD300505774042C2410F9870353033FEB90
:0E0DE1002BFA901CDA93CAA393FBEE5202EF9A
:0C0DEF005203EA4B6037EC2448F9E7FBA4
:0E0DFB0030E00FEC24F6F9E76008EC24F6F97E
:040E0900E7FA14F7F9
:0E0E0D00EB30E11BEC24F6F9870374DA2C902D
:0E0E1B001D0093FAC3EB9A5008EC24F6F9E799
:030E2900FB04F7D0
:030E2C00BD0800FE
:050E2F004003020F2644
:0A0E3400ED2425F9E77003020F26F4
:0C0E3E00EC2448F9E7FB30E020EC24FA3B
:0E0E4A00F9E714F7EC24FAF9E7FB5403700FF4
:0E0E5800EC24F2F9E76008EC24F2F9E7FB1451
:010E6600F794
:0C0E6700EC2448F9E7FB30E14DEC24FAE4
:0E0E7300F907E7EC24FAF98703530303BB03E6
:0E0E81003BC006C007EC24F2F9870374082C6E
:0E0E8F00F582C006C005C004C003120C30AAD4
:0E0E9D0082AF83D003D004D005D0067E00C300
:0E0EAB00EB9AEE9FD007D0065008EC24F2F927
:040EB900E7FB04F758
:0E0EBD008C82C007C006C005C004120C30D0E5
:0E0ECB0004D005D006D007EC2410F9E7FB3068
:0C0ED900E64BEC2448F9E7FB30E021C0B8
:0E0EE50003EC24EAF98702EC24D6F98703C354
:0C0EF300EB9AD003400CEC2425F87600AC
:060EFF00EC2410F87680DF
:0E0F0500EB30E11DEC24EAF98703EC24D6F969
:0C0F13008702C3EB9A400CEC2425F87612
:070F1F0000EC2410F87680BD
:040F26000D020D7A31
:020F2A007F0046
:080F2C00EF24F05003021060F5
:0C0F3400EF2435F987068E05ED700302EE
:020F4000105C43
:0A0F4200EF2425F9E7600302105CBC
:0C0F4C00EF2410F9E7FC20E70302105C22
:080F5800EF24F85003020FE042
:0E0F6000EF2410F9EF2410F88604743F5CF7BC
:0C0F6E00EE20E30A74035F2448F87600CC
:020F7A00800EE7
:0C0F7C0074035F2448F9E7FEC454F0FC45
:020F88004EF722
:0C0F8A00EF2435F87600C007C005C00554
:0E0F96008F821210611581D005D007BF0400B4
:0C0FA400E433FE7025EF901CB493FC5564
:0C0FB00024601BEF24FCFB24D6F9EB248A
:0C0FBC00DEF88602A702ECF45224EB9051
:060FC8001CB493FC42245E
:0C0FCE00EE600FEF901CB493FE55246001
:060FDA0005EEF4FE5224B6
:0C0FE000BF091ABD0117753E02C007C012
:0E0FEC00057401C0E07582301204241581D016
:030FFA0005D00718
:0C0FFD00BF0A16BD0113753F02C0077447
:0D10090001C0E07582311204241581D0076A
:03101600BF0B000D
:0C101900403FEF24F1403AEF24F524485A
:0E102500F9E7C4540FF7EF2410F87600EF241B
:0A10330025F87600EF2435F876006A
:0C103D00EF24F92435F9E7FE54F76011A8
:0E104900EF24F9FE2410F9EE2410F886067448
:03105700804EF7D1
:02105A00D200C2
:04105C000F020F2C44
:01106000226D
:0A106100C008858108AF8274035FA8
:0A106B00FE240BFD2435F8E50824EF
:0E107500FDF9E7F6901DEEE493FCE4CE25E0D5
:0A108300CE33FB8EF005F0EC800286
:02108D00C3138B
:0D108F00D5F0FB5403FE600ABE010280098B
:05109C00BE020E8008F9
:0410A1007E04800A3F
:0410A5007E0880063B
:0410A9007E10800233
:0210AD007E279C
:0E10AF008F82C007C006C005120C30D005D0DD
:0610BD0006D007BF04008D
:0E10C300401674035F2408F582C007C006C003
:0A10D100051218EDD005D006D00777
:0610DB0074035F240CFF0A
:0E10E1008F82C007C006C0051218EDD005D0E2
:0C10EF0006D00750EDED2425F8A606ED14
:0810FB002410F87683D00822CE
:0E110300AF82901DD9E493540FFE6019EF24C3
:0C11110025F9EE901CE693FEF7EF241089
:0B111D00F87685EF2435F87601800C91
:0C112800EF2410F87600EF2435F8760074
:011134002298
:0D113500901CFFE493F50FE4F509F50AFFA7
:0C114200EF24F04015EF2435F87600EFA4
:0C114E002410F87600EF2425F876000F3E
:02115A0080E62D
:05115C007524007F0076
:08116100EF24FC50030211E130
:0D116900901DF1E493FE8FF005F0EE800282
:02117600C313A1
:09117800D5F0FB54116002801156
:081181008FF005F074118002EB
:0211890025E05F
:07118B00D5F0FBF4FE520F4A
:0E119200901DD9E493FE5306C0BE40028005B6
:0511A000BE803A801D35
:0E11A50074142FF582C007E4C0E0E4C0E0C27D
:0C11B300F085F02312075815811581D03B
:0311BF0007801B8B
:0E11C20074142FF582C007E4C0E0E4C0E0D250
:0C11D000F085F02312075815811581D01E
:0111DC00070B
:0411DD000F0211618B
:0C11E100750E00D2007582091211037512
:0611ED00820A1211032228
:0C11F3007545007580007584007585FF4F
:0E11FF0074F055892402F589758F01758C50A6
:0E120D0043A210D28CC2A9D288E4F50FF509D5
:0E121B00F50A75D181901DE3E493FF74C05F66
:03122900F54D225E
:081CB400010204081020408029
:0E1CBC00FFC8644332211914110E0D0B0A08E3
:021CCA0006030F
:041CCC00000300030E
:061CD00001010104408047
:041CD6000012141EC6
:0C1CDA000000000000000800800000086E
:0E1CE60000020406080A0C0E10121416244800
:021CF4006DDAA7
:0A122C00E58124FEF8E6F918E6F863
:051236007A10E4FBFC4E
:0E123B00E58225E0F582E58333F583EB33FB96
:0E124900EC33FCEB98F5F0EC994006FCABF0B2
:03125700438201CE
:03125A00DADF22B6
:0E125D00C0E0C0D0C2AAC28E740F55892420F2
:0E126B00F589758B35758D80C28FD28ED2AB12
:06127900757902C203D2E8
:05127F00017578007507
:091284007700D202D0D0D0E03294
:0C128D00C023C0E0C0F0C082C083C007D6
:0E129900C006C005C004C003C002C001C000F2
:0A12A700C0D075D000C008E581F545
:0A12B100082404F581E579FF24F11B
:0512BB005003021803BE
:0712C000EF2F2F9012C773FE
:0712C7000212F402180302F9
:0612CE00159D02165D02F1
:0612D40016660216F0028E
:0612DA00180302180302D4
:0612E000180302180302CE
:0612E600171202177A0244
:0612EC00180302179E0228
:0212F20017ECF7
:0E12F400C28E740F55892420F589758B807584
:0A1302008D80C28FD28EE57BB57C92
:04130C00030215962D
:08131000E57C246DF98707C29A
:0C131800187DFE7E00EFA2E5E433FC240B
:06132400FF9219BF8000DA
:05132A00400302146AFB
:0C132F00C005C006EF2323540124FF92E8
:0B133B001A53071F8F82C007C005C0B7
:0C134600231203CFAA82AB83ACF0FED0D0
:0A13520023D005D007A80808A60262
:0E135C0008A60308A60408A606901D11E49337
:0E136A00FE0EEF2FFD2EFC04901D0093FEB52D
:0413780007028006E2
:06137C00D006D005800F31
:0E138200D006D0058C8275831DE493FCFD7EA1
:01139000005C
:09139100BDFE06BE000302154575
:0E139A00901D12E4932F2F2FFC0C0C0C8C8254
:0E13A80075831DE493540325E025E0FB74B02B
:0A13B6004BF556901D17E493FB8BD6
:0A13C00057901D18E493FB8B58EDC5
:0C13CA002DFD2417901D0093FE8E597419
:0A13D600182D901D0093FE8E5A752D
:0613E0005C00301A0575E7
:0413E6005D408003E3
:0313EA00755D80AE
:0E13ED00EC04901D0093FE24F95006EE24FB44
:0313FB00FE80026F
:0213FE007E016E
:0C14000074E02EF55BEE24FE500F740625
:0A140C002E2456F9A808088605A74B
:031416000580103E
:0C141900A80808743F56FAE4FBFCFDEA4A
:04142500255DF55DEF
:0C142900EE24FD500E74052E2456F9A888
:071435000808088605A70561
:0C143C00EE24FC500F74042E2456F9A876
:08144800080808088605A70545
:0C145000EE24FB501074032E2456F9A863
:09145C0008080808088606A70626
:05146500D2180215453C
:0A146A007556B0901D17E493FE8E36
:0A14740057901D18E493FE8E588572
:03147E004F59853E
:0A148100505A53071FEF24FA5003DE
:03148B0002154304
:07148E00EF2F2F901495735E
:071495000215430214A70237
:06149C0014B30214CA02A1
:0514A20014DB02153B04
:0814A700755B6074C22555F568
:0414AF005C02154383
:0814B300755B6374432551F5DC
:0514BB005C755D407549
:0614C0005E00755F12D210
:0414C6000F021543B9
:0714CA00755900755A007509
:0614D1005BE1755C017592
:0414D7005D4080688C
:0214DB007F0090
:0A14DD00C3EF9552503CE553702612
:0A14E700740A2F2456F87600AD5465
:0E14F1007E008F037C00EB2DFDEC3EFEBD6007
:0B14FF001CBE0019740A2F2456F8A62A
:03150A007D800FD2
:0A150D00740A2F2456F9EF255490BC
:051517001D0093FEF72A
:03151C000F80BE7F
:09151F0074632552F55B7442452A
:0615280051F55C74404522
:04152E0052F55D8590
:03153200535E8580
:03153500545FD22E
:031538000F800819
:07153B00755B60755C81C265
:011542000E9A
:02154300D218BC
:0815450030190674DF5556F55C
:01154D005647
:0A154E0030183DC2AAE5797032E5BD
:0A1558007C246DF9E7FF20E507741D
:06156200204FF7757A002E
:0B15680074FC257A400512185580160F
:06157300057C537C07C259
:041579000BC20F1280
:0C157D001827C28E758DF0758B00D28E81
:05158900D2AA021803C4
:06158E00057C537C0702FE
:0215940018033A
:07159600C28ED2AA02180365
:0A159D00A28BB39218C28B7579037C
:0A15A700758D00E578700A75780173
:0515B100C204C20502A6
:0215B600180318
:0A15B800747F2578401C301808B23B
:0415C20003E57825A0
:0315C60077F5773F
:0515C900E5782578F52E
:0615CE007860030218031F
:0615D40075788102180386
:0A15DA00C28EC28FA203201801B3D5
:0A15E400502CE575700E74CCB5773D
:0315EE0002D20422
:0715F100740CB57702D2056E
:0715F800200419200516E58F
:0815FF007524E94010E5752494
:0616070056F8E577F662DB
:05160D00760575800266
:02161200C20113
:05161400100B02801D17
:0716190030041430011175CB
:071620007A04100F0280099B
:07162700E5512404F55153C5
:02162E00513C2D
:0616300012182702180346
:0716360030011E20041B20FF
:0C163D000518740F55892410F589758D6F
:0C164900FA758B70D28E757904D2AA025B
:02165500180378
:061657001218270218031F
:09165D00758D80757902021803F5
:061666002009030216EA50
:0C166C00E57524F85078C28E740F558983
:0D1678002410F589758DEF758B42D28EC25E
:0716850006E55B30E71F855D
:05168C005982C05A1252
:0B169100189FAF821581BFFF0280028E
:02169C00D20674
:09169E00E559701CE55A7018D2E0
:0316A700068014A6
:0C16AA00901D17E493FFB5590B901D181C
:0816B600E493FFB55A02D206CD
:0A16BE0074FFB57621740F555BFF31
:0C16C8007E0074082FFFE43EFEAC757D30
:0C16D40000EFB5040BEEB50507D2103096
:0416E0000602D20725
:0616E400757905021803F0
:0616EA001218270218038C
:0916F000C28E30101330060AD23C
:0516F9000C121855C29F
:0416FE000B021803C0
:0617020012182702180373
:06170800D20D121855C2BB
:04170E000B021803AF
:08171200E5752456F987073044
:04171A000C027FCC72
:05171E00300D027F0CFC
:09172300C2AA740AB57902800320
:03172C000218039D
:0A172F00E578247F402CE5785F7018
:0917390008D296C20AB203800234
:02174200D20AC9
:08174400E5787007757801C219
:03174C0003800611
:05174F00E5782578F5A6
:01175400781C
:07175500E57870037578814F
:05175C0075790B8013FC
:09176100200306D296C20A8002A0
:02176A00D20AA1
:06176C000575757800759B
:02177200790DEF
:06177400758D120218033E
:0A177A00E57570077401B5780205EB
:011784007AEA
:0A178500C296A20A828B5007C20B25
:05178F0012182780067E
:0617940075790A758D6EE7
:04179A00C28B806519
:0E179E00C296C28E740F55892410F589758D80
:0A17AC00FB758B90D28E200C0330E9
:0217B6000D051F
:0517B800121827802B30
:0C17BD00740F555BFF7E0074072FFFE4E3
:0C17C9003EFEAC757D00C3EF9CEE64801A
:0C17D5008DF063F08095F05007D20812F0
:0417E1001827800342
:0317E50075790E05
:0417E800C28B801719
:0E17EC00C28E740F55892420F589758D6E7597
:0917FA008B80C28FD28E75790A32
:06180300D202850881D02D
:0C18090008D0D0D000D001D002D003D015
:0E18150004D005D006D007D083D082D0F0D00A
:04182300E0D02332BC
:0A182700757900C28BC28EC2AB754A
:0A1831007600757500C28E740F5525
:0C183B00892410F589758D89758BAFC26A
:0A1847000CC20DC28FD28ED2AAD2BD
:04185100ABC21022F4
:0E185500C28E740F55892420F589758D6E752D
:0C1863008B80C28F740F555B2407FF754B
:04186F0076FF7E0082
:0C187300C3EE9F500BEE2456F9E7FD6217
:04187F00760E80F071
:07188300EF2456F8A676C21F
:04188A0004C205D2BD
:05188E000B75790A75DD
:0A1893007800757500C2AAD28ED24B
:02189D00AB227C
:0A189F00C008858108AF827EFF902B
:0818A9001D16E493FDBDFF00D4
:0E18B1005035901D16E493602E901D16E493A2
:0218BF00FD1D0D
:0E18C100ED6024ED2DFC2417901D0093FBEF2D
:0C18CF00B5031374182C901D0093FCE569
:0A18DB000824FDF8E6B504028D06AE
:0318E5001D80D98A
:0518E8008E82D00822F1
:0718ED00AF82C218BF4000EA
:0C18F400501B8F82C007C023121C2BE584
:0C19000082D023D0075444FEBE44028075
:01190C0004D6
:04190D00D218802A42
:09191100AD7B7E000DBD00010E4E
:0C191A005305077E00AB7C7C00EBB5059C
:0719260006ECB50602800E7D
:08192D00E57B246DF8A6070517
:051935007B537B07D28B
:01193A001894
:05193B00D28EA218226B
:0A194000C008E581F5082404F581D4
:09194A00C207AF5C74C35FFEA884
:051953000808A65DE597
:0919580059FC7049E55A7045E59F
:071961007D20E003021C25BC
:09196800EE7020A80808B6C01AB0
:0C197100E57970FCC2AF75E40075E71D5D
:0A197D0075E617855EE5855FE575E8
:04198700E468D2AF8F
:05198B00BE0102800313
:03199000021C2511
:09199300A80808E66003021C2507
:09199C007582831218ED021C256E
:0819A500E55B30E703021B7053
:0C19AD00901D17E493FBECB503028003CF
:0319B900021C25E8
:0B19BC00901D18E493FBB55A02800355
:0319C700021C25DA
:0819CA00757E00BE4202801B85
:0619D200BE4303021B04EA
:0619D800BE8003021B2A81
:0619DE00BE8103021B4C58
:0619E400BE8303021B6537
:0319EA00021C25B7
:0619ED00200E03021C2580
:0A19F300743C5FF555A80808E6549F
:0A19FD00F0F6A80808B68002800387
:031A0700021AE3DD
:0B1A0A007582811218ED740F555DFF0E
:0A1A1500E57970FCC2AF75E400AA89
:0A1A1F005E74015A241CFCAE5FA89F
:051A290008080876002A
:0C1A2E00A8080808C3E69F4003021ADE67
:0C1A3A00EA703CC002E5082403F8A60690
:0C1A4600087600A808080886037D00E56B
:0C1A5200082403F8EB26FBED0836FDBB72
:071A5E006005BD00028004D9
:041A6500D002802605
:0A1A6900D002A8080808740A262419
:061A730056F9877D801684
:0B1A79008CE7A8080808E62EF5E6A898
:0A1A8400080808740A262456F987A2
:011A8E00E572
:0A1A8F008E037D00A8080808E50892
:0C1A99002403F9E6F7097700E5082403B0
:0E1AA500F8E62BFB08E63D53033F7D00BB3FF8
:0D1AB30022BD001F8F037D001BBBFF011D26
:0C1AC000E5082403F8E6B5030708E6B5C6
:041ACC000502800689
:061AD00075E46875E400F6
:081AD600A808080806021A2EF8
:051ADE0075E468D2AFC1
:091AE300A80808E66003021C25B6
:041AEC00855D52853D
:031AF0005E5385BD
:061AF3005F5475828112B0
:091AF90018ED7582841218ED024B
:021B02001C25A0
:0A1B0400743C5FF555A80808B68090
:041B0E000343A208E3
:091B1200A80808E66003021C2586
:0D1B1B007582811218ED7582821218ED029C
:021B28001C257A
:061B2A00300E03021C2531
:041B3000D20E8557F5
:031B34004F855882
:051B370050755100C2D1
:0C1B3C000F75D16075D20B75D3B375D155
:041B480061021C25F5
:071B4C00E557B54F028003CD
:031B5300021C254C
:071B5600E558B550028003C1
:031B5D00021C2542
:051B6000C20E021C256D
:091B65007582851218EDC20E0212
:021B6E001C2534
:061B7000EE6003021C25DB
:0C1B7600C05A8C8212189FAF821581BFEC
:051B8200FF03021C2519
:0E1B8700901D11E493FEF58275831DE49325F5
:0C1B9500E02EFD0EA8080874C056FCE409
:041BA100BC800104FF
:011BA500FC43
:081BA600C3EE9D4003021C2563
:0E1BAE008E8275831DE493FBEFB50366EE0493
:0E1BBC00901D0093FBF582C007C006C005C057
:0E1BCA0004C003121C2BAA82D003D004D00545
:0E1BD800D006D007EC602EC00474145AFCBC7A
:041BE6001402800461
:041BEA00D004801F84
:0E1BEE00D0048B82C007C006C005C004C0032F
:0E1BFC00C002120355D002D003D004D005D091
:031C0A0006D007FA
:0C1C0D00A80808E6700D53020CBA0C0C7D
:071C19008B821203C4800559
:051C20000E0E021BA6E0
:061C2500850881D00822B1
:0E1C2B00AF82901D12E493FE0E0E0EEF2E2FD0
:081C39002F901D0093F582229B
:0E1C410075950075911475924CC296758921A7
:0E1C4F00758F00C28CC28E758D80758B80C221
:0C1C5D008FC20275A88075E80075B804FD
:0A1C690075B70CD28A757D2EC204F7
:051C7300C205C20CC215
:041C78000DC207D2C0
:051C7C0009757B0075F5
:061C81007C00755100C259
:041C87000FC20E1268
:031C8B00182722F5
:06005200E478FFF6D8FD82
:080030007900E94400601B7A2D
:0500380000901CF678A9
:03003D000075A0AB
:0A00400000E493F2A308B8000205E3
:08004A00A0D9F4DAF275A0FF61
:0E1C8E0074FE2581F8E68582F0A4C0E0858210
:0E1C9C00F018E6A4F582D0E025F0C58386F0AE
:061CAA00A42583F583224E
:080058007800E84400600A7919
:030060000075A088
:0600630000E4F309D8FCE3
:080069007800E84400600C7906
:0B00710000900000E4F0A3D8FCD9FAD6
:0300230075817E66
:0A002600121CB0E582600302001E08
:041CB0007582002217
:00000001FF
