:0400000002002332A5
:01000B0032C2
:03001300020DC01B
:03001B00020DF0E3
:03007C0002001E61
:05001E0012007F80FECE
:0C007F007F00C218E5A703540124FF9283
:06008B0019C007C023129A
:0C009100178ED023D007D297209707309D
:06009D0019047E0080073B
:0700A300901BFFE493FDFE3A
:0E00AA00901BFFE493AC962CFD8D9653963F71
:0700B800C2972019217D0011
:0300BF00BD32004F
:0E00C200501AC28C901D17E493F58C901D18F7
:0800D000E493F58AC28DD28C85
:0600D800308DFD0D80E1FA
:0E00DE0075C1FFC2AF75A7E575C2A575C35AFF
:0E00EC00D2AFC2AF43A70475C2A575C35AD2E6
:0B00FA00AFC007C006C023120D57D096
:0A01050023D006D00720190FC00711
:08010F00C006C023120CB4D09D
:0501170023D006D00713
:0E011C0053BDFE5391FC5392FC75985043BAAC
:0E012A00E043BD0275BF2F75BEF043BD0175E9
:020138009955D7
:0E013A00C2AF75C2A575C35AD2AF901D0DE4B9
:0A01480093FDBDFF78201175E57BE3
:0E01520020E070748025D1500FC007C006C099
:05016000231208FDD090
:0501650023D006D007C5
:0E016A00308D1F740F5589FDBD011774F055BF
:0E017800892402F589758F01758C50C28D4364
:06018600A210D292D28CFF
:0A018C0030000FC007C006C02312A8
:080196000C36D023D006D0077F
:0B019E00E57770237440258D401D2084
:0A01A9000D1A901BFDE493FDB50F45
:0301B30002800FB8
:0C01B60075E40075E71B75E6FD850FE59C
:0301C20075E46879
:0501C500100902801387
:0901CA00C20AC007C006C02312DE
:0A01D3001482D023D006D007800A62
:0201DD007D643F
:0801DF008D041C8C05ED70F885
:0501E700109802804A9F
:0501EC00AD99BD6308A0
:0501F10010990280FBE3
:0301F600759955A3
:0601F900BD2B0315961E4C
:0601FF00BD2D0305960E64
:0E020500BD7712C2AF75E40075E71B75E6FF0A
:070213008EE575E468D2AF2F
:06021A00BD7003637B814F
:03022000BD7608A0
:0502230010990280FBB0
:0302280075990BBA
:03022B00BD740897
:05022E0010990280FBA5
:03023300759904B6
:08023600D297209712BFFF00D0
:05023E0050030F8012C7
:06024300201803637B811B
:04024900D21880083F
:06024D00EF60031F8002B8
:02025300C218CF
:08025500E57B5401FDB401003A
:0B025D00E433FD24FF929702013A22D7
:05026800AF82BF080099
:0A026D005019200216E55B5401242D
:0A027700FF921892F0C00785F023F3
:070281008F821204F3D00785
:03028800BF1000A4
:0C028B004013EF24EE400E7401555BFEA2
:09029700C0068F82120389158153
:0102A000223B
:0B02A100AF8274402FF58212142F2250
:0702AC00AF827E00BF0800D5
:0C02B30050258FF005F07C017D008006D6
:0602BF00EC2CFCED33FD08
:0E02C500D5F0F7AA0B7B00EA5204EB5205ECD1
:0702D3004D60307E01802C1C
:0E02DA007D00EF24F0FFED34FF8FF005F07F84
:0502E800017D0080060D
:0602ED00EF2FFFED33FDD1
:0E02F300D5F0F7AB0C7C00EB5207EC5205EF98
:050301004D60027E01C9
:0E0306007F007D007C008E828F838DF0EC22C4
:0A031400C008858108AF82BF080011
:0C031E005032E50824FCF8E60846701692
:08032A008FF005F07401800260
:0203320025E0C4
:0C033400D5F0FBFE74FFC39E520B804608
:080340008FF005F0740180024A
:0203480025E0AE
:08034A00D5F0FBFE420B8034EC
:0C035200EF24F0FFE50824FCF8E6084664
:0A035E0070168FF005F074018002A4
:0203680025E08E
:0C036A00D5F0FBFE74FFC39E520C801007
:080376008FF005F07401800214
:02037E0025E078
:06038000D5F0FBFF420C6A
:03038600D008227A
:0A038900C008858108E582FF24ED1D
:0A039300500F74015FFEC201E5087F
:07039D0024FDF87601803118
:0E03A400EF24F0FE901DE2E493FD8EF005F0D4
:0603B2007B407C00800688
:0603B800EB2BFBEC33FC13
:0E03BE00D5F0F77A00ED5203EA5204EB4CB48E
:0203CC0001002E
:0703CE00E433FB24FF920160
:0C03D500E50824FDF886047D0053071F96
:0E03E100C006C004C0058F82120314158115DA
:0C03EF0081D006E50824FDF8E624FF920A
:0503FB0018300101B300
:0E0400005017EE2E25E0FF8FF005F0740F80F0
:01040E0002EB
:02040F0025E0E6
:08041100D5F0FBFF42458021FC
:0D041900EE2E25E0FF8FF005F0740F80023D
:0204260025E0CF
:0C042800D5F0FBFF74FFC39F5245740920
:060434002EF582120C04FB
:0C043A00901DF1E493FFE5455207EFC46C
:0C0446004FF50FE546F4FFE50F5207E507
:0A0452000FF4FEE5465206300203E7
:03045C000204F0A7
:05045F00850F467D0041
:08046400ED24FC50030204F03A
:0E046C007C00EF30E024C006901DF0E493FB0E
:0E047A008D02E4CA25E0CA33FE8AF005F0EBDD
:020488008002F0
:02048A00C3139A
:0A048C00D5F0FBFB74035BFCD00607
:0E049600EE30E024C006901DEFE493FB8D02D3
:0E04A400E4CA25E0CA33FE8AF005F0EB8002C0
:0204B200C31372
:0A04B400D5F0FBFB74035BFCD006DF
:0C04BE00EC6023ECC31324FF9218740CB4
:0C04CA002DFCA21892F0C007C006C0056F
:0C04D60085F0238C821204F3D005D006C0
:0204E200D00741
:0C04E400EEC313FEEFC313FF0D0204640F
:0304F000D008220F
:0A04F300C00885810805810581AF6E
:0A04FD008274035F2447F98706A804
:0A0507000808740F5EF6A8080886C5
:0C0511000530182174075FF582C007C098
:0B051D0005C0237401C0E0E4C0E01240
:0C052800031415811581D023D005D007E5
:02053400801D28
:0C05360074075FF582C007C005C023E415
:0C054200C0E0C0E012031415811581D048
:05054E0023D005D007D9
:0D05530074075FFCF582C007C005C004C03E
:0705600023121778AB82D0D3
:0C05670023D004D005D0078CF005F07400
:0305730001800202
:0205760025E07E
:0E057800D5F0FB550F7008530314BB1402801E
:01058600086C
:03058700BF0800AA
:05058A0050030208F718
:06058F00530707BF040042
:0505950040030206B561
:0E059A00EFC31324E8901D0093FC74015F75FD
:0A05A800F003A4F5F005F0EC80026A
:0205B200C31371
:0D05B400D5F0FB5407FC43048074EA2F903F
:0C05C1001D0093FBC40354072BFA201804
:0A05CD0071A80808E654336039A84D
:0C05D7000808740356FEC007C0068F829F
:0C05E300120BA71581D007A8080874CCE3
:0C05EF0056FDEF2410F87600EF2434F8DD
:0D05FB00760074042FFE2410F87600EE2424
:0706080034F8760002089AA5
:0B060F00A80808E65433600302089AB4
:06061A00EB700302089AD8
:0C062000A80808741046FD5305DFEF2405
:0C062C0010F8A604EF2424F8A602EF2426
:0706380034F8760102089A74
:0A063F00A80808E65433603EA8083E
:0E06490008740356FEC007C004C003C0068F2D
:0D06570082120BA71581D003D004D007A894
:0C066400080874CC56FDEF2410F8760056
:0C067000EF2434F8760074042FFE2410F0
:09067C00F87600EE2434F8760053
:0B068500A80808E65433600302089A3E
:06069000EB700302089A62
:0C069600A80808742046FD5305EFEF246F
:0C06A20010F8A604EF2424F8A603EF24AF
:0706AE0034F8760202089AFD
:0E06B500C00574035FFEC31324FB901D009369
:0E06C300FD74015F75F003A4F5F005F0ED8005
:0106D1000226
:0206D200C31350
:0E06D400D5F0FB5407FD74804DFC74DA2E90B7
:0E06E2001D0093FB0303543F2BFBC40354077E
:0E06F0002BFA901DF2E493FE8FF005F0EE80E1
:0106FE0002F9
:0206FF00C31323
:0C070100D5F0FBFEA808080874015EF6A5
:08070D00D0053018030207C7F4
:0A071500A80808E654116035A80892
:0C071F0008741046FDEF24FCFE2424F8B2
:0C072B007600EE2434F87600EE2410F87E
:0C0737007600A8080808E67012EF2410F5
:0B074300F8A604EF2424F8A602EF241F
:04074E0034F8760104
:0A075200A80808E654337020A80838
:0C075C0008741046FDA8080808E670129A
:0C076800EF2410F8A604EF2424F8A602E9
:06077400EF2434F87601C9
:0B077A00A80808E65422700302089A49
:0D078500C007C004C0027405C0E08F8212DE
:0C0792000BA71581D002D004D007A808E6
:0C079E0008741046FD5305DFA808080889
:0607AA00E6600302089A5C
:0C07B000EF2410F9747F5CF7EF2424F8AC
:0B07BC00A602EF2434F8760102089A30
:0A07C700A80808E654226035A808CF
:0E07D10008742046FDEF24FCFE2410F876008C
:0A07DF00EE2424F87600EE2434F82E
:0C07E9007600A8080808E67012EF241043
:0B07F500F8A604EF2424F8A603EF246C
:0408000034F8760250
:0A080400A80808E654337035A80870
:0E080E0008742046FDEF24FCFE2410F876004E
:0A081C00EE2424F87600EE2434F8F0
:0C0826007600A8080808E67012EF241005
:0B083200F8A604EF2424F8A603EF242E
:04083D0034F8760213
:0C084100A80808E654116051C007C0046C
:0E084D00C0037406C0E08F82120BA71581D085
:0C085B0003D004D007A80808742046FD54
:0E0867005305EFEF24FCFE2410F87600EE247B
:0A08750024F87600EE2434F8760033
:0C087F00A8080808E67014EF2410F974B3
:0B088B007F5CF7EF2424F8A603EF24A5
:0408960034F87602BA
:0C089A00A80808A605EF24F840497403E4
:0C08A6005F240B2434F98706530607BEBC
:0208B200040040
:0E08B4005023EDC4540FFC5E5403601974030E
:0C08C2005F240BFC2410F87600EC2424CA
:0B08CE00F87600EC2434F876007E0081
:0908D900EE30E2055305F0800B3E
:0B08E200EE7008A80808E6C4540FFDE3
:0A08ED0074035F2447F8A605D2004B
:0608F700850881D00822F3
:0E08FD0075D16174012509F509E4350AF50A83
:0E090B00E50924FFFEE50A34FFFFEEF4FEEFDF
:0C091900F4FFE5095206E50A52077D00D4
:03092500BD100002
:0E0928005040ED2410F9E7FC30E734ED2410C8
:08093600F98704BC8202801E57
:0D093E00ED2410F9870453047FEC2CFB908E
:0E094B0017E193CBA393FCEE5203EF5204EBA3
:030959004C600BE4
:0B095C00ED2424F9E7FC6003EC14F725
:030967000D80BB45
:02096A007F000C
:08096C00EF24F05003020A66BB
:0B097400EF2434F9E7FE7003020A6272
:0A097F00EF2424F8E66003020A6288
:0E098900EF2410FDC000A8058605D000ED206B
:05099700E703020A6203
:0E099C00EF24F84026EF2410C000F87600D0BB
:0C09AA0000E4F6F774035F2447F87600C1
:0E09B600C007C006C0068F82120BA71581D0A5
:0309C40006D00753
:0C09C700BF091ABE0117753D02C007C031
:0E09D300067401C0E07582301203891581D0D0
:0309E10006D00736
:0C09E400BF0A1ABE0117753E02C007C012
:0E09F000067401C0E07582311203891581D0B2
:0309FE0006D00719
:030A0100BF0B0028
:0C0A0400403DEF24F14038EF24F524477A
:0E0A1000F9E7C4540FFDF7EF2410F87600EF5D
:0A0A1E002424F87600EF2434F87663
:0C0A280000EF24F92434F9E76011EF24FA
:0E0A3400F9FD2410F9ED2410F8860574804DAC
:010A4200F7BC
:030A4300BF0F00E2
:080A46004018BE1203754322A3
:0A0A4E00BE0109751F837543127580
:020A5800331455
:060A5A00BE040375430811
:020A6000D200C2
:040A62000F02096C0A
:0D0A6600901DE5E493FF54C06003120A7474
:010A73002260
:0A0A7400740F5589FFBF02028003D2
:030A7E00020B7BED
:070A8100E5776003020B7B27
:0E0A88003092FDE58A248D40F774075509FF72
:080A96008FF005F074018002ED
:020A9E0025E051
:0C0AA000D5F0FBFFF4F58020930CE54C32
:0A0AAC007008740755092408F54C82
:080AB600850E80BF8002800361
:030ABE00020B7BAD
:0A0AC100AF4C754C00EF30E313E575
:060ACB00446003020B660B
:0A0AD100754301751F827533320270
:020ADB000B66A8
:080ADD00E54420E303020B666F
:0A0AE500E54330E529B202751F0059
:070AEF007543007533003070
:040AF60002147E0068
:0C0AFA00EE24FC4009EE2447F876000EC4
:020B060080F27B
:040B0800D200800790
:070B0C00C007120B7CD007AB
:090B1300300247E54330E122E520
:0A0B1C0044540124FF921874075599
:0A0B260044C313240CF582A21892B8
:0C0B3000F0C00785F0231204F3D007800A
:010B3C002098
:0A0B3D00E544540124FF92187407E8
:0A0B47005544C3132408F582A218D8
:0C0B510092F0C00785F0231204F3D007D7
:090B5D00751F83754304753374A0
:080B66008F44E54330E30EC2A9
:080B6E0002751F0075430075BC
:050B76003300120B7CAE
:010B7B002257
:0E0B7C007582101202ACAC82530401C00475E5
:0E0B8A00821012038915817582111202ACAC23
:0E0B980082530401C004758211120389158175
:010BA600222C
:0A0BA700C008858108AF82530703E0
:0A0BB100740B2FFE2434F8E508242D
:0E0BBB00FDF9E7F6901DEEE493FDE4CF25E092
:0A0BC900CF33FC8FF005F0ED800241
:020BD300C3134A
:0D0BD500D5F0FB5403FF600ABF0102800948
:050BE200BF020E8008B7
:040BE7007F04800AFD
:040BEB007F088006F9
:040BEF007F108002F1
:020BF3007F275A
:0C0BF500EE2424F8A607EE2410F8768306
:030C0100D00822F6
:0E0C0400AF82901DD9E493540FFE6019EF24C7
:0C0C120024F9EE9017ED93FEF7EF24108C
:0B0C1E00F87685EF2434F87601800C96
:0C0C2900EF2410F87600EF2434F8760079
:010C3500229C
:0E0C3600750D00901DE4E493FF30E7047F018C
:020C440080022C
:020C46007F032A
:030C4800754B00E9
:0A0C4B00E54B24FC4023EF554B2439
:0A0C550047F98706530603E54B2517
:090C5F004BFD8DF005F0EE800262
:020C680025E085
:0A0C6A00D5F0FBFE420D054B80D7CC
:0E0C7400AE0E7F00EEF4FEEFF4FFAC0D7D003F
:0E0C8200EC5206ED5207EE4F601FC28C53A2DB
:0E0C9000E9C292850D80C28DE4F58CF58A7460
:0D0C9E00F0558904F589758F00D28C800314
:030CAB00850D8034
:060CAE00850D0EC20022BC
:0D0CB400901BFDE493F50FE4F509F50AFF30
:0C0CC100EF24F04015EF2434F87600EF2B
:0C0CCD002410F87600EF2424F876000FC5
:020CD90080E6B3
:020CDB007F0098
:0E0CDD00EF24FC4063901DF1E493FE8FF005C0
:040CEB00F0EE8002A5
:020CEF00C3132D
:090CF100D5F0FB541160028011E2
:080CFA008FF005F07411800277
:020D020025E0EA
:070D0400D5F0FBF4FE520FD5
:0E0D0B00901DD9E493FE5306C0BE4002800541
:050D1900BE80268013DE
:0C0D1E00740C2FF582C2F0C00785F02392
:070D2A001204F3D007801151
:0C0D3100740C2FF582D2F0C00785F0236F
:050D3D001204F3D007D1
:030D42000F809887
:0C0D4500750E00D200758209120C0475B6
:060D5100820A120C0422CC
:0A0D5700754400C202758000758427
:0E0D6100007585FF74F055892402F589758FA1
:0E0D6F0001758C5043A210D28CC2A9D288E428
:0E0D7D00F50FF509F50AF509C2AF75E400752A
:0E0D8B00E71D75E60375E50075E71D75E604C6
:0E0D990075E50475E71D75E60C75E50075E758
:0E0DA7001D75E60D75E5FF75E468D2AF75D1D8
:0B0DB5006075D20175D3CD75D16122AD
:0C17E1000000000000000800800000086C
:0E17ED0000020406080A0C0E101214162448FE
:0217FB006DDAA5
:0E0DC000C0E0C0D0C2AAC28E740F5589242094
:0E0DCE00F589758B35758D80C28FD28ED2ABB4
:060DDC00757702C205D28A
:050DE2000375760075A9
:090DE7007500D204D0D0D0E03236
:0C0DF000C023C0E0C0F0C082C083C00778
:0E0DFC00C006C005C004C003C002C001C00094
:0C0E0A00C0D075D000E577FF24F1500344
:030E160002110DB9
:070E1900EF2F2F900E207354
:070E2000020E4D02110D024C
:060E27000EC0020F7A026A
:060E2D000F83020FF80222
:060E3300110D02110D0279
:060E3900110D02110D0273
:060E3F00101C02108402E9
:060E4500110D0210A802CD
:020E4B0010F69F
:0E0E4D00C28E740F55892420F589758B80752F
:0A0E5B008D80C28FD28EE579B57A42
:030E6500028051B7
:080E6800E57A246BF987821280
:0B0E700011F3503DC2AAE5777032E597
:0A0E7B007A246BF9E7FF20E5077405
:060E8500204FF775780014
:0B0E8B0074FC257840051211588016F9
:060E9600057A537A07C241
:040E9C000DC212125F
:0C0EA000112CC28E758DF0758B00D28E67
:050EAC00D2AA02110DA5
:060EB100057A537A0702E6
:020EB700110D1B
:070EB900C28ED2AA02110D46
:0A0EC000A28BB39218C28B75770362
:0A0ECA00758D00E576700A7576015B
:050ED400C206C2070286
:020ED900110DF9
:0A0EDB00747F2576401C301808B221
:040EE50005E5762584
:030EE90075F57527
:050EEC00E5762576F516
:060EF10076600302110D02
:060EF70075768102110D69
:0A0EFD00C28EC28FA205201801B3B7
:0A0F07005026E573700E74CCB5752A
:030F110002D20603
:070F1400740CB57502D20751
:070F1B00200613200710E57A
:050F2200732454F8E502
:050F270075F66274057F
:030F2C00738002CD
:020F2F00C203FB
:050F3100100D02801DFF
:070F360030061430031175B1
:070F3D007804101202800984
:070F4400E54F2404F54F53B3
:020F4B004F3C19
:060F4D0012112C02110D2F
:070F530030031E20061B20E5
:0C0F5A000718740F55892410F589758D57
:0C0F6600FA758B70D28E757704D2AA0247
:020F7200110D5F
:060F740012112C02110D08
:090F7A00758D8075770202110DDE
:0A0F8300300B64E57324FB505EC2DE
:0E0F8D008E740F55892410F589758DEF758BC4
:080F9B0042D28EA2109208E57B
:080FA3005930E71F855782C099
:0C0FAB00581211A2AF821581BFFF028016
:010FB7000237
:020FB800D2085D
:090FBA00E557701CE5587018D2CF
:030FC3000880148F
:0C0FC600901D17E493FFB5570B901D1809
:080FD200E493FFB55802D208B8
:090FDA0074FFB57405300802D261
:010FE3000904
:060FE40075770502110DF6
:080FEA00E57324FE5002D20958
:060FF20012112C02110D8A
:0A0FF800C28E74FFB5741330080AAE
:06100200D20E121158C2CB
:041008000D02110DB7
:06100C0012112C02110D6F
:06101200D20F121158C2BA
:041018000D02110DA7
:08101C00E5732454F987073045
:041024000E027FCC6D
:05102800300F027F0CF7
:09102D00C2AA740AB5770280031F
:0310360002110D97
:0A103900E576247F402CE5765F7019
:0910430008D296C20CB20580022D
:02104C00D20CC4
:08104E00E5767007757601C21A
:031056000580060C
:05105900E5762576F5A7
:01105E00761B
:07105F00E576700375768150
:0510660075770B8013FB
:09106B00200506D296C20C800299
:02107400D20C9C
:061076000573757600759C
:02107C00770DEE
:06107E00758D1202110D38
:0A108400E57370077401B5760205EC
:01108E0078E9
:0A108F00C296A20C828B5007C20D1E
:0510990012112C80067D
:06109E0075770A758D6EE6
:0410A400C28B806516
:0E10A800C296C28E740F55892410F589758D7D
:0A10B600FB758B90D28E200E0330E4
:0210C0000F051A
:0510C20012112C802B2F
:0C10C700740F5559FF7E0074072FFFE4E2
:0C10D3003EFEAC737D00C3EF9CEE648019
:0C10DF008DF063F08095F05007D20A12EB
:0410EB00112C800341
:0310EF0075770E04
:0410F200C28B801716
:0E10F600C28E740F55892420F589758D6E7594
:091104008B80C28FD28E75770A30
:0C110D00D204D0D0D000D001D002D0031A
:0E111900D004D005D006D007D083D082D0F00D
:05112700D0E0D02332EE
:0A112C00757700C28BC28EC2AB754E
:0A1136007400757300C28E740F552B
:0C114000892410F589758D89758BAFC26C
:0A114C000EC20FC28FD28ED2AAD2BB
:02115600AB22CA
:0E115800C28E740F55892420F589758D6E7531
:0C1166008B80C28F740F55592407FF7551
:0411720074FF7E0088
:0C117600C3EE9F500BEE2454F9E7FD621D
:04118200740E80F077
:07118600EF2454F8A674C227
:04118D0006C207D2BD
:051191000D75770A75E1
:0A1196007600757300C2AAD28ED253
:0211A000AB2280
:0A11A200C008858108AF827EFF902F
:0811AC001D16E493FDBDFF00D8
:0C11B4005038201035901D16E493602E7A
:0711C000901D16E493FD1DD4
:0E11C700ED6024ED2DFC2417901D0093FBEF2E
:0C11D500B5031374182C901D0093FCE56A
:0A11E1000824FDF8E6B504028D06AF
:0311EB001D80D98B
:0511EE008E82D00822F2
:0A11F300C008E581F5082404F58129
:0C11FD00AF82C2187DFE7E00EFA2E5E488
:0912090033FC24FF9219BF8000A0
:05121200400302133F40
:0C121700C005C006EF2323540124FF9201
:0B1223001A53071F8F82C007C005C0D0
:0C122E00231202ACAA82AB83ACF0FED00D
:0A123A0023D005D007A80808A6027B
:0E12440008A60308A60408A606901D11E49350
:0E125200FE0EEF2FFD2EFC04901D0093FEB546
:0412600007028006FB
:06126400D006D005800F4A
:0E126A00D006D0058C8275831DE493FCFD7EBA
:011278000075
:09127900BDFE06BE000302141EB6
:0A1282007554BC901D17E493FC8C1A
:0A128C0055901D18E493FC8C56EDFC
:0C1296002DFD2417901D0093FE8E577450
:0A12A200182D901D0093FE8E587564
:0612AC005A00301A05751E
:0412B2005B4080031A
:0312B600755B80E5
:0E12B900901D12E4932F2FFE2F2404901D0091
:0C12C70093FE24F95006EE24FBFE80028A
:0212D3007E019A
:0C12D50074E02EF559EE24FE500F740654
:0A12E1002E2454F9A808088605A77A
:0312EB000580106B
:0C12EE00A80808743F56FAE4FBFCFDEA77
:0412FA00255BF55B20
:0C12FE00EE24FD500E74052E2454F9A8B7
:07130A000808088605A7058D
:0C131100EE24FC500F74042E2454F9A8A4
:08131D00080808088605A70571
:0C132500EE24FB501074032E2454F9A891
:0913310008080808088606A70652
:05133A00D21802141E90
:0A133F007554B0901D17E493FE8E64
:0A13490055901D18E493FE8E5685A2
:031353004D57856E
:0A1356004E5853071FEF24FA50030E
:0313600002141C58
:07136300EF2F2F90136A73B6
:07136A0002141C02137C02B7
:06137100138802139F0225
:0513770013B002141682
:08137C0075596074C22553F598
:041384005A02141CD9
:081388007559637443254FF50C
:051390005A755B407579
:061395005C00755D12D240
:04139B001202141C0A
:07139F007557007558007539
:0613A60059E1755A0175C2
:0413AC005B40806CB6
:0213B0007F00BC
:0A13B200C3EF95505042E551702C36
:0A13BC00740A2F2454F9EF25529013
:0C13C6001C0093F7AD527E008F037C00EA
:0E13D200EB2DFDEC3EFEBD601CBE0019740A42
:0813E0002F2454F8A67B800FB6
:0A13E800740A2F2454F9EF255290E7
:0513F2001D0093FEF751
:0313F7000F80B8AC
:0913FA0074632550F55974424555
:061403004FF55A7440454C
:0414090050F55B85BA
:03140D00515C85AA
:03141000525DD258
:031413001280063E
:06141600755960755A8152
:02141C00D218E4
:08141E0030190674DF5554F586
:011426005471
:06142700A218850881D027
:02142D00082293
:07142F00AF82C218BF4000AC
:0C143600501B8F82C007C023121778E5FE
:0C14420082D023D0075444FEBE44028038
:01144E000499
:04144F00D218802A05
:09145300AD797E000DBD00010E13
:0C145C005305077E00AB7A7C00EBB50561
:0714680006ECB50602800E40
:08146F00E579246BF8A60705DE
:0514770079537907D252
:01147C001857
:05147D00D28EA218222E
:08148200C0088581080581C244
:08148A0009AF5A74C35FFEAD07
:071492005BE557FC7034E537
:09149900587030E57B20E00302ED
:0214A2001678BA
:0E14A400EE700EBDC00BC006C00512175DD065
:0314B20005D0065C
:0514B500BE01028003EE
:0314BA000216789F
:0614BD00ED600302167849
:0914C30075828312142F021678C1
:0814CC00E55930E7030215A603
:0C14D400901D17E493FBECB503028003AD
:0314E00002167879
:0B14E300901D18E493FBB55802800335
:0314EE000216786B
:0514F100BE420280185C
:0514F600BE4302804F1F
:0514FB00BE8002806AC2
:05150000BE8102807BAA
:06150500BE830302159DE8
:03150B000216784D
:06150E0020110302167813
:0C151400743C5FF5535305F0BD800D756D
:0C1520008281C00512142F12167DD00528
:06152C00ED6003021678D9
:04153200855B508500
:031536005C518580
:061539005D527582811273
:09153F00142F75828412142F028E
:02154800167813
:0B154A00743C5FF553BD800343A20812
:06155500ED6003021678B0
:0D155B0075828112142F75828212142F02E6
:021568001678F3
:06156A00301103021678A7
:04157000D2118555BA
:031574004D85564C
:051577004E754F00C29B
:04157C0012021678C9
:07158000E555B54D028003A3
:03158700021678D1
:07158A00E556B54E02800397
:03159100021678C7
:061594001011030216789D
:03159A00021678BE
:09159D0075828512142F021678E4
:0615A600EE60030216785E
:0C15AC00C005C0588C821211A2AF82153D
:0915B80081D005BFFF0302167883
:0E15C100901D11E493FEF58275831DE49325C1
:0D15CF00E02EFC0E74C05DFBE4BB80010447
:0115DC00FB13
:0815DD00C3EE9C4003021678E6
:0E15E5008E8275831DE493FAEFB50202800337
:0315F3000216736A
:0E15F600C004EE04901D0093FAF582C007C0F9
:0E16040006C005C003C002121778AC82D002E7
:0C161200D003D005D006D007A80808A619
:0C161E0004D004EB6031C003A80808747D
:08162A001456FBBB14028004FE
:04163200D003801F42
:0E163600D0038A82C007C006C005C004C003EE
:0E164400C002120268D002D003D004D005D03C
:0316520006D007B8
:0C165500ED701BC002A80808740C56FAC7
:05166100BA0C02800438
:04166600D002800E20
:09166A00D0028A821202A180055F
:051673000E0E0215DD62
:051678001581D00822DD
:0A167D00C008E581F5082404F5819A
:08168700A80808740F555BF67A
:0A168F00E57770FCC2AF75E400AE11
:0A1699005DAD5C74015D241CFCA82B
:0516A3000808087600B4
:0A16A800A8080808A90809C3E6977E
:0516B200400302175285
:0C16B700ED7030C0048E027C00A8080812
:0E16C3000886037F00EB2AFAEF3CFCBA6005B4
:0516D100BC00028004D2
:0416D600D0048010AC
:0A16DA00D004A8080808740A2624AA
:0616E40054F9877B80022F
:0216EA008CE78B
:0A16EC00A8080808E62EF5E6A80895
:0C16F6000808740A262454F987E58E03C6
:0A1702007F00A8080808E50824038A
:0C170C00F9E6F7097700E5082403F8E689
:0E1718002BFB08E63F53033F7F00BB3F25BF7E
:0C1726000022A8080886037F001BBBFF00
:02173200011F95
:0C173400E5082403F8E6B5030708E6B555
:041740000702800616
:0617440075E46875E40085
:08174A00A8080808060216A811
:0A17520075E468D2AF850881D00865
:01175C00226A
:0C175D00E57770FCC2AF75E40075E71D75
:0A17690075E617855CE5855DE57502
:05177300E468D2AF2282
:0E177800AF82901D12E493FE0E0E0EEF2E2F88
:081786002F901D0093F5822253
:0E178E0075950075911475924CC2967589215F
:0E179C00758F00C28CC28E758D80758B80C2D9
:0C17AA008FC20475A88075E80075B804B3
:0A17B60075B70CD28A757B2EC206AF
:0517C000C207C20EC2C9
:0417C5000FC209D274
:0517C9000B75790075AD
:0617CE007A00754F00C215
:0417D40012C211C26A
:0517D8001012112C228B
:06005200E478FFF6D8FD82
:080030007900E94400601B7A2D
:05003800009017FD78A7
:03003D000075A0AB
:0A00400000E493F2A308B8000205E3
:08004A00A0D9F4DAF275A0FF61
:080058007800E84400600A7919
:030060000075A088
:0600630000E4F309D8FCE3
:080069007800E84400600C7906
:0B00710000900000E4F0A3D8FCD9FAD6
:0300230075817B69
:0A0026001217DDE582600302001EE0
:0417DD0075820022EF
:00000001FF
