:0400000002002332A5
:03000B000202BD31
:0300130002089848
:03001B000208C810
:03007C0002001E61
:05001E001200C780FE86
:0E007F0075C1FFC2AF75A7E575C2A575C35A5E
:03008D00D2AF22CD
:0B009000C2AF75C2A575C35AD2AF22E3
:0C009B00A2AF9218C2AF43A70475C2A523
:0800A70075C35AA21892AF22A2
:0C00AF00A2AF9218C2AFAFA75307FB8F9F
:0C00BB00A775C2A575C35AA21892AF2207
:0900C7007F00C218C219C007C075
:0500D00023121266D0AE
:0C00D50023D007C297901BFFE493FE901D
:0E00E1001BFFE493AC962CFD8D9653BDFE5391
:0E00EF0091FC5392FC75985043BAE043BD0259
:0E00FD0075BF2F75BEF043BD01759955C297B2
:02010B007D0075
:03010D00BD320000
:0E011000501AC28C901D17E493F58C901D18A8
:08011E00E493F58AC28DD28C36
:06012600308DFD0D80E1AB
:0A012C00C007C006C02312007FD0F8
:0401360023C02312AD
:05013A00009BD023C072
:05013F0023120816D098
:0401440023C023129F
:0A0148000815D023D006D0077D0073
:0C015200C007C006C005C023120090D0FA
:0C015E0023D005D006D007901D0DE493BF
:06016A00FCBCFF02800353
:0301700002025731
:06017300301303020257E5
:08017900E55230E003020257D9
:0C018100E5D130E71AC007C006C005C079
:05018D0023120500D063
:0401920023C0231251
:0A01960006FCD023D005D006D007E8
:0501A000109802804AE6
:0501A500AC99BC6308E9
:0501AA0010990280FB2A
:0301AF00759955EA
:0601B200BC2B0315961E94
:0601B800BC2D0305960EAC
:0E01BE00BC7712C2AF75E40075E71B75E6FF53
:0701CC008EE575E468D2AF77
:0601D300BC7003635281C1
:0301D900BC7608E9
:0501DC0010990280FBF8
:0301E1007599000D
:0301E400BC7408E0
:0501E70010990280FBED
:0301EC0075990002
:0601EF0020875DBDFF004A
:0501F50050030D805DC8
:0C01FA0020194E901DEEE493FC30E3024F
:02020600D20123
:0E020800901DEEE493FC30E718D2F0C007C062
:0902160006C005C02385F0231287
:0A021F00049DD023D005D006D007BF
:0E022900901DEEE493FC530409BC0916758287
:0C0237001AC007C006C005C023120F0744
:08024300D023D005D006D0073E
:04024B00D21980083C
:06024F00ED60031F8002B8
:02025500C219CC
:0A025700E5511454072442F987040E
:09026100200B06BC191A300C1721
:0A026A00C20BC20CC007C006C0059D
:06027400C023120F5AD056
:07027A0023D005D006D007D8
:08028100D297209712BFFF0085
:0502890050030F80127C
:06028E00201803635281F9
:04029400D2188008F4
:06029800EF60031F80026D
:02029E00C21884
:0802A000E5525401FBB401001A
:0902A800E433FB24FF92977C640F
:0C02B1008C031B8B04EC70F8020152223D
:0A02BD00C0E0051AE51B6004D286BC
:0202C7008002B3
:0202C900C286EB
:0302CB00D0E0324E
:0E02CE00AF8274075FFEEFC423541FFD74015E
:0C02DC005532FCEF24E8405274FA2D90DB
:0B02E8001D0093FB8EF005F0EB800280
:0202F300C31333
:0C02F500D5F0FB5401FB6C6010ED240DF3
:0D030100F98703EE9012B993FA4BF78028AC
:0E030E0074F12D901D0093FBEE9012B993FA3E
:0B031C005B7017ED240DF98703EE90D5
:0C03270012C193FE5BF7ED2411F987056D
:03033300EE5DF785
:06033600BF18038533101F
:0E033C00BF1A2A901DEEE49303540124FF9291
:0C034A00188C06E433FD6E6014D2F0C085
:0C03560007C00485F02312049DD004D0E1
:0503620007D20180023A
:02036700C201D1
:0E036900BF1B19901DEEE4932323540124FFC3
:0A0377009218E433FF6C6004D20218
:020381008002F8
:02038300C202B4
:010385002255
:0B038600AF8274402FF582120F072297
:0E039100AF827E0074075FFDEFC423541FFC93
:0C039F00EF24E8401DEC240DF9870374E6
:0E03AB00FA2C901D0093FC6203ED9012B993A2
:0803B900FD5B60617E01805DC7
:0503C100BF1802AE10A0
:0E03C600BF191A901DEDE49323540124FF92F9
:0703D40018A200E433FDA2B2
:0803DB0018E433FC62058D06F5
:0E03E300BF1A1A901DEEE49303540124FF92FA
:0703F10018A201E433FDA294
:0803F80018E433FC62058D06D8
:0E040000BF1B1B901DEEE4932323540124FF29
:08040E009218A202E433FFA2E0
:0804160018E433FD62078F06B4
:0E041E007F007D007C008E828F838DF0EC22AB
:0A042C00C01D85811DE582FFC42379
:0D043600541FFE74075FFDEF24E8402AE527
:0B0443001D24FCF8E608467010EE24B3
:0C044E000DF98704ED9012C193FB5CF7E0
:02045A00803EE2
:0C045C00EE240DF98706ED9012B993FD17
:040468004EF7802E9D
:0C046C00BF180BE51D24FCF886057E007F
:020478008D10E5
:0C047A00BF190DE51D24FCF8E65401FE3E
:0404860024FF9200BD
:0C048A00BF1A0DE51D24FCF8E65401FF2C
:0404960024FF9201AC
:03049A00D01D2250
:0A049D0030185F901DF1E493F45550
:0404A7000DF50D90B2
:0804AB001DF1E493F45511F575
:0804B30011901DF2E493F455D1
:0404BB000EF50E909C
:0804BF001DF2E493F45512F55F
:0804C70012901DF3E493F455BB
:0404CF000FF50F9086
:0804D3001DF3E493F45513F549
:0404DB0013E50D45D3
:0404DF0011F511E51D
:0404E3000E4512F5BB
:0404E70012E50F45C6
:0404EB0013F5139062
:0C04EF001DEDE493FF20E208D2007582AE
:0404FB0019120F07BC
:0104FF0022DA
:0C05000075D16105147E017F0074F625A2
:0A050C001450077514007E037F00F1
:09051600E50BFD6004ED14F50B8A
:0A051F00E50A30E00FE50CFD601363
:0A052900EE30E10FED14F50C80092F
:09053300E50CFF6004EF14F50C67
:08053C00E50B7038300211904C
:0C0544001DEEE493FF530734BF2405753F
:0405500015FF80050E
:05055400E515F4F515AA
:0C055900300211901DEEE493FF530734B4
:08056500BF3405751600800388
:03056D007516FF01
:08057000901DEFE493FF8F0BD7
:07057800E50C600302063CE4
:0E057F00901DEDE493FF530760BF2002800D36
:05058D00BF4002802EBA
:05059200BF600280299A
:0305970002063623
:08059A00E51C7011751C0190B5
:0805A2001DFDE493FF8F0C75B1
:0505AA000A0002063CFE
:0A05AF00751C00901DFEE493FF8F01
:0505B9000C750A0102AF
:0205BE00063CF9
:0905C000E51724FC500302063C7F
:0505C900E517251725D0
:0505CE00179005D37336
:0705D3000205DF0205F20240
:0505DA000602020623E9
:0705DF00751C017517019066
:0805E6001DFDE493FF8F0C756D
:0405EE000A00804A35
:0A05F200751702901DFDE493FF8FC2
:0605FC000C751C00803AA2
:0A060200751703901DFDE493FF8FB0
:0C060C000C901DEDE493FF530760BF60ED
:0606180005751C03801EA5
:05061E00751C018019AC
:0A062300751700901DFEE493FF8F91
:05062D000C750A0175C7
:040632001C00800622
:06063600750C00751C00AC
:0B063C00AE117F00EEF4FEEFF4FFAC07
:0C0647000D7D00EC5206ED5207EE4F70E6
:0B0653002EAE12FFEEF4FEEFF4FFAC41
:0C065E000E7D00EC5206ED5207EE4F70CE
:0B066A0017AE13FFEEF4FEEFF4FFAC40
:0C0675000F7D00EC5206ED5207EE4F60C6
:010681000573
:05068200751801800362
:03068700751800E3
:0C068A0020000D901DEDE493FF30E323F1
:04069600E518601FE4
:0C069A00E51C601B901DEEE493FF30E2B5
:0406A6000320020F1C
:0A06AA00E51C30E105751B0880080F
:0506B400751B0480032A
:0306B900751B00AE
:0406BC001206C02240
:0C06C000901DEDE493FF30E007300004D3
:0406CC007FFF802903
:0E06D000901DEDE493FE20E009901DF0E493F0
:0406DE00FEFF801784
:0C06E200901DF0E493FEC3E5109E50094B
:0906EE00901DF0E493FEFF800270
:0206F700AF1042
:0306F9008F8C22C1
:0806FC00C282E516550FFF90C4
:0B0704001DF9E493F4FEE5154206E544
:09070F00134E5FF5821207F0E5BC
:0507180016550EFF90D4
:0B071D001DF8E493F4FEE5154206E52C
:09072800124E5FF5821207F0E5A4
:0507310016550DFF90BC
:0B0736001DF7E493F4FEE5154206E514
:0C074100114E5FF5821207F0D282C280D8
:0E074D00C280C282901DEDE493FF20E1030202
:02075B0007EFA6
:0B075D00901DF4E493FFE50D5207AD82
:0C076800117E00EDF4FDEEF4FE7C00EFCD
:0E0774005205EC5206ED4E7040901DF5E493D8
:0A078200FFE50E5207AD127E00EDF8
:0E078C00F4FDEEF4FE7C00EF5205EC5206ED9B
:0C079A004E7020901DF6E493FFE50F5216
:0C07A60007AD137E00EDF4FDEEF4FE7CC8
:0B07B20000EF5205EC5206ED4E601EF9
:0707BD0020002F30020E9016
:0B07C4001DEEE493FF530734BF140048
:0207CF00501EBA
:0A07D100D200758219120F07801480
:0C07DB00300011901DEDE493FF30E208A7
:0807E700C200758219120F0710
:0107EF0022E7
:0607F000AF82C2817E0011
:0E07F600EE24F8401974805F235401FD24FFA7
:0E0804009280EF2FFFD281D281D281C2810E6D
:0208120080E282
:0108140022C1
:0108150022C0
:0C08160075800075840075857FC2A9758F
:0C0822001400C2AF75E40075E71D75E618
:0E082E000375E50075E71D75E60475E54C756C
:0E083C00E71D75E60C75E50075E71D75E60D08
:0E084A0075E5FF75E46853B8FD53B7FD43B87C
:0C0858000243B708C28DD2A9D2AF7515BB
:0E0864000075D16075D21675D38075D161759F
:060872001700750B017573
:0C0878000C0174F055892402F589758F7D
:0E088400011206C0758C7F43A210D292D28C56
:06089200D2877516FF225B
:0812B90001020408102040802E
:0812C100FEFDFBF7EFDFBF7F2C
:0E089800C0E0C0D0C2AAC28E740F55892420C1
:0E08A600F589758B35758D80C28FD28ED2ABE1
:0608B400754E02C207D2DE
:0508BA0005754D0075FD
:0908BF004C00D206D0D0D0E0328A
:0C08C800C023C0E0C0F0C082C083C007A5
:0E08D400C006C005C004C003C002C001C000C1
:0C08E200C0D075D000E54EFF24F150039B
:0308EE00020BE515
:0708F100EF2F2F9008F873B0
:0708F800020925020BE502D5
:0608FF000998020A5202F2
:060905000A5B020AD002A9
:06090B000BE5020BE50202
:060911000BE5020BE502FC
:060917000AF4020B5C0271
:06091D000BE5020B800255
:020923000BCEF9
:0E092500C28E740F55892420F589758B80755C
:0A0933008D80C28FD28EE550B551C1
:03093D00028051E4
:08094000E5512442F9878212FF
:0B0948000CCB503DC2AAE54E7032E51A
:0A095300512442F9E7FF20E5077484
:06095D00204FF7754F006A
:0B09630074FC254F4005120C3080167C
:06096E000551535107C2C0
:040974000FC2141288
:0C0978000C04C28E758DF0758B00D28EC1
:05098400D2AA020BE500
:0609890005515351070265
:02098F000BE576
:07099100C28ED2AA020BE5A1
:0A099800A28BB39218C28B754E03B8
:0A09A200758D00E54D700A754D01DA
:0509AC00C208C20902AF
:0209B1000BE554
:0A09B300747F254D401C301808B277
:0409BD0007E54D25D8
:0309C1004CF54CA6
:0509C400E54D254DF595
:0609C9004D6003020BE586
:0609CF00754D81020BE5ED
:0A09D500C28EC28FA207201801B3E2
:0A09DF005026E54A700E74CCB54CAA
:0309E90002D2082F
:0709EC00740CB54C02D209A6
:0709F300200813200910E5A4
:0509FA004A242BF8E582
:0509FF004CF6624B05FF
:030A04004A800223
:020A0700C20526
:050A0900100F02801D2A
:070A0E0030081430051175DA
:070A15004F041014028009D8
:070A1C00E5262404F5265332
:020A2300263C6F
:060A2500120C04020BE5B7
:070A2B0030051E20081B200E
:0C0A32000918740F55892410F589758D82
:0C0A3E00FA758B70D28E754E04D2AA029D
:020A4A000BE5BA
:060A4C00120C04020BE590
:090A5200758D80754E02020BE562
:0A0A5B00300D64E54A24FB505EC232
:0E0A65008E740F55892410F589758DEF758BF1
:080A730042D28EA212920AE5A4
:080A7B003030E71F852E82C018
:0C0A83002F120C7AAF821581BFFF028099
:010A8F000264
:020A9000D20A88
:090A9200E52E701CE52F7018D24E
:030A9B000A8014BA
:0C0A9E00901D17E493FFB52E0B901D185F
:080AAA00E493FFB52F02D20A0C
:090AB20074FFB54B05300A02D2B5
:010ABB000B2F
:060ABC00754E05020BE57A
:080AC200E54A24FE5002D20BAC
:060ACA00120C04020BE512
:0A0AD000C28E74FFB54B13300A0A02
:060ADA00D210120C30C224
:040AE0000F020BE511
:060AE400120C04020BE5F8
:060AEA00D211120C30C213
:040AF0000F020BE501
:080AF400E54A242BF9870730C5
:040AFC0010027FCC99
:050B00003011027F0C22
:090B0500C2AA740AB54E02800375
:030B0E00020BE5F2
:0A0B1100E54D247F402CE54D5F7098
:090B1B0008D296C20EB207800256
:020B2400D20EEF
:080B2600E54D7007754D01C299
:030B2E0007800637
:050B3100E54D254DF526
:010B36004D71
:070B3700E54D7003754D81CF
:050B3E00754E0B801351
:090B4300200706D296C20E8002C2
:020B4C00D20EC7
:060B4E00054A754D00751B
:020B54004E0D44
:060B5600758D12020BE593
:0A0B5C00E54A70077401B54D02056B
:010B66004F3F
:0A0B6700C296A20E828B5007C20F47
:050B7100120C048006D7
:060B7600754E0A758D6E3C
:040B7C00C28B806543
:0E0B8000C296C28E740F55892410F589758DAA
:0A0B8E00FB758B90D28E201003300F
:020B9800110545
:050B9A00120C04802B89
:0C0B9F00740F5530FF7E0074072FFFE438
:0C0BAB003EFEAC4A7D00C3EF9CEE64806F
:0C0BB7008DF063F08095F05007D20C1216
:040BC3000C0480039B
:030BC700754E0E5A
:040BCA00C28B801743
:0E0BCE00C28E740F55892420F589758D6E75C1
:090BDC008B80C28FD28E754E0A87
:0C0BE500D206D0D0D000D001D002D00346
:0E0BF100D004D005D006D007D083D082D0F03B
:050BFF00D0E0D023321C
:0A0C0400754E00C28BC28EC2AB75A4
:0A0C0E004B00754A00C28E740F55AA
:0C0C1800892410F589758D89758BAFC299
:0A0C240010C211C28FD28ED2AAD2E4
:020C2E00AB22F7
:0E0C3000C28E740F55892420F589758D6E755E
:0C0C3E008B80C28F740F55302407FF75A7
:040C4A004BFF7E00DE
:0C0C4E00C3EE9F500BEE242BF9E7FD6273
:040C5A004B0E80F0CD
:070C5E00EF242BF8A64BC2A6
:040C650008C209D2E6
:050C69000F754E0A7535
:0A0C6E004D00754A00C2AAD28ED2D2
:020C7800AB22AD
:0A0C7A00C01D85811DAF827EFF9032
:080C84001D16E493FDBDFF0005
:0C0C8C005038201235901D16E493602EA5
:070C9800901D16E493FD1D01
:0E0C9F00ED6024ED2DFC2417901D0093FBEF5B
:0C0CAD00B5031374182C901D0093FCE597
:0A0CB9001D24FDF8E6B504028D06C7
:030CC3001D80D9B8
:050CC6008E82D01D220A
:0A0CCB00C01DE581F51D2404F5812C
:0C0CD500AF82C2187DFE7E00EFA2E5E4B5
:090CE10033FC24FF9219BF8000CE
:050CEA004003020E179B
:0C0CEF00C005C006EF2323540124FF922F
:0B0CFB001A53071F8F82C007C005C0FE
:0C0D060023120391AA82AB83ACF0FED054
:0A0D120023D005D007A81D08A60293
:0E0D1C0008A60308A60408A606901D11E4937D
:0E0D2A00FE0EEF2FFD2EFC04901D0093FEB573
:040D38000702800628
:060D3C00D006D005800F77
:0E0D4200D006D0058C8275831DE493FCFD7EE7
:010D500000A2
:090D5100BDFE06BE0003020EF611
:0A0D5A00752BBC901D17E493FC8C70
:0A0D64002C901D18E493FC8C2DED7B
:0C0D6E002DFD2417901D0093FE8E2E74A6
:0A0D7A00182D901D0093FE8E2F75BA
:060D84003100301A057574
:040D8A003240800370
:030D8E007532803B
:0E0D9100901D12E4932F2FFE2F2404901D00BE
:0C0D9F0093FE24F95006EE24FBFE8002B7
:020DAB007E01C7
:0C0DAD0074E02EF530EE24FE500F7406AA
:0A0DB9002E242BF9A81D088605A7BB
:030DC30005801098
:0C0DC600A81D08743F56FAE4FBFCFDEA8F
:040DD2002532F5329F
:0C0DD600EE24FD500E74052E242BF9A80D
:070DE2001D08088605A705A6
:0C0DE900EE24FC500F74042E242BF9A8FB
:080DF5001D0808088605A7058A
:0C0DFD00EE24FB501074032E242BF9A8E8
:090E09001D080808088606A7066A
:050E1200D218020EF6EB
:0A0E1700752BB0901D17E493FE8EBA
:0A0E21002C901D18E493FE8E2D8521
:030E2B00242E85ED
:0A0E2E00252F53071FEF24FA50038D
:030E3800020EF4B3
:070E3B00EF2F2F900E427310
:070E4200020EF4020E54023F
:060E49000E60020E7702AC
:050E4F000E88020EEE0A
:080E540075306074C2252AF517
:040E5C0031020EF45D
:080E600075306374432526F58B
:050E68003175324075F8
:060E6D003300753412D2BF
:040E730014020EF463
:070E7700752E00752F0075B8
:060E7E0030E17531017541
:040E84003240806C0C
:020E88007F00E9
:0A0E8A00C3EF95275042E528702CB5
:0A0E9400740A2F242BF9EF25299092
:0C0E9E001C0093F7AD297E008F037C0040
:0E0EAA00EB2DFDEC3EFEBD601CBE0019740A6F
:080EB8002F242BF8A652800F35
:0A0EC000740A2F242BF9EF25299066
:050ECA001D0093FEF77E
:030ECF000F80B8D9
:090ED20074632527F530744245D4
:060EDB0026F531744045CC
:040EE10027F532853A
:030EE5002833852A
:030EE8002934D2D8
:030EEB001480066A
:060EEE00753060753181D2
:020EF400D21812
:080EF60030190674DF552BF5DD
:010EFE002BC8
:060EFF00A218851D81D040
:020F05001D22AB
:070F0700AF82C218BF4000D9
:0C0F0E00501B8F82C007C023121250E558
:0C0F1A0082D023D0075444FEBE44028065
:010F260004C6
:040F2700D218802A32
:090F2B00AD507E000DBD00010E69
:0C0F34005305077E00AB517C00EBB505B7
:070F400006ECB50602800E6D
:080F4700E5502442F8A607055D
:050F4F0050535007D2D1
:010F54001884
:050F5500D28EA218225B
:080F5A00C01D85811D0581C247
:080F62000BAF3174C35FFEAD5B
:070F6A0032E52EFC7034E5B6
:090F71002F7030E55220E003026C
:020F7A00115014
:0E0F7C00EE700EBDC00BC006C005121235D0BF
:030F8A0005D00689
:050F8D00BE010280031B
:030F9200021150F9
:060F9500ED6003021150A3
:090F9B00758283120F0702115048
:080FA400E53030E70302107E86
:0C0FAC00901D17E493FBECB503028003DA
:030FB800021150D3
:0B0FBB00901D18E493FBB52F0280038B
:030FC600021150C5
:050FC900BE4202801889
:050FCE00BE4302804F4C
:050FD300BE8002806AEF
:050FD800BE8102807BD8
:060FDD00BE830302107543
:030FE300021150A8
:060FE6002013030211506C
:0C0FEC00743C5FF52A5305F0BD800D75C4
:0C0FF8008281C005120F07121155D005B0
:06100400ED600302115033
:04100A00853227857F
:03100E00332885FF
:06101100342975828112F2
:091017000F07758284120F070215
:0210200011506D
:0B102200743C5FF52ABD800343A20868
:06102D00ED60030211500A
:0D103300758281120F07758282120F07026D
:0210400011504D
:06104200301303021150FF
:04104800D213852C0E
:03104C0024852DCB
:05104F0025752600C21A
:041054001402115021
:07105800E52CB52402800322
:03105F000211502B
:07106200E52DB52502800316
:0310690002115021
:06106C00101303021150F5
:0310720002115018
:09107500758285120F070211506B
:06107E00EE6003021150B8
:0C108400C005C02F8C82120C7AAF8215C0
:0910900081D005BFFF03021150DD
:0E109900901D11E493FEF58275831DE49325EE
:0D10A700E02EFC0E74C05DFBE4BB80010474
:0110B400FB40
:0810B500C3EE9C400302115040
:0E10BD008E8275831DE493FAEFB50202800364
:0310CB0002114BC4
:0E10CE00C004EE04901D0093FAF582C007C026
:0E10DC0006C005C003C002121250AC82D00242
:0C10EA00D003D005D006D007A81D08A632
:0C10F60004D004EB6031C003A81D087496
:081102001456FBBB140280042B
:04110A00D003801F6F
:0E110E00D0038A82C007C006C005C004C0031B
:0E111C00C0021202CED002D003D004D005D003
:03112A0006D007E5
:0C112D00ED701BC002A81D08740C56FADF
:05113900BA0C02800465
:04113E00D002800E4D
:09114200D0028A821203868005A6
:05114B000E0E0210B5BC
:051150001581D01D22F5
:0A115500C01DE581F51D2404F5819D
:08115F00A81D08740F5532F6BB
:0A116700E54E70FCC2AF75E400AE67
:0A11710034AD3374015D241CFCA8AA
:05117B001D08087600CC
:0A118000A81D0808A91D09C3E69781
:05118A00400302122ADF
:0C118F00ED7030C0048E027C00A81D082A
:0E119B000886037F00EB2AFAEF3CFCBA6005E1
:0511A900BC00028004FF
:0411AE00D0048010D9
:0A11B200D004A81D0808740A2624C2
:0611BC002BF987528002AE
:0211C2008CE7B8
:0A11C400A81D0808E62EF5E6A81D98
:0C11CE000808740A26242BF987E58E031C
:0A11DA007F00A81D0808E51D24038E
:0C11E400F9E6F7097700E51D2403F8E6A2
:0E11F0002BFB08E63F53033F7F00BB3F25BFAC
:0C11FE000022A81D0886037F001BBBFF19
:02120A00011FC2
:0C120C00E51D2403F8E6B5030708E6B56D
:041218000702800643
:06121C0075E46875E400B2
:08122200A81D08080602118056
:0A122A0075E468D2AF851D81D01D68
:011234002297
:0C123500E54E70FCC2AF75E40075E71DCB
:0A12410075E6178533E58534E57581
:05124B00E468D2AF22AF
:0E125000AF82901D12E493FE0E0E0EEF2E2FB5
:08125E002F901D0093F5822280
:0E12660075950075911475924CC2967589218C
:0E127400758F00C28CC28E758D80758B80C206
:0C1282008FC20675A88075E80075B804DE
:0A128E0075B70CD28A75522EC20803
:05129800C209C210C2F2
:04129D0011C20BD29D
:0512A1000D7550007501
:0612A6005100752600C294
:0412AC0014C213C293
:0512B00012120C0422E3
:06005200E478FFF6D8FD82
:080030007900E94400601B7A2D
:05003800009012C978E0
:03003D000075A0AB
:0A00400000E493F2A308B8000205E3
:08004A00A0D9F4DAF275A0FF61
:080058007800E84400600A7919
:030060000075A088
:0600630000E4F309D8FCE3
:080069007800E84400600C7906
:0B00710000900000E4F0A3D8FCD9FAD6
:0300230075815292
:0A0026001212B5E582600302001E0D
:0412B500758200221C
:00000001FF
