:03007C00753800D4
:01008200225B
:0E008300AF82C0071216B2AE82D00753060C31
:0B009100BE0C0874402FF582121373A0
:01009C002241
:0A009D00C009E581F5092404F5818E
:0E00A700E582FF20E0348F82C007120112AD07
:0C00B50082AE83D007A80908A60508A6A3
:0E00C10006087600087600EFC31325E0FA2447
:0E00CF00E6F9EA24F6F88602088606A702097A
:0400DD00A706801ED4
:0800E1008FF005F0E537800205
:0200E900C3133F
:0C00EB00D5F0FB5401FFA80908A6070887
:0800F70076000876000876008F
:0C00FF00A8090886820886830886F0089D
:07010B00E6850981D00922FD
:0A011200C009858109C0820581A89B
:0A011C000908A9090909E6C313F751
:0E0126007C847DEA901DA4E493C4540FFBA8D2
:0C01340009080886F005F07A017E0080C2
:0101400006B8
:06014100EA2AFAEE33FE8B
:0E014700D5F0F77F00EB5202EF5206EA4E6051
:0A0155003DA80908E625E0FF7EFF43
:0E015F00EF24F6F9870209870319C3EC9AED25
:0E016D0064808BF063F08095F050130E7446A2
:0E017B002CFCE43DFDEE30E0DB0CBC00D70DAB
:0201890080D420
:08018B007F008E828F83804704
:0C019300A8090808E625E0FF24F6F9871B
:0E019F000509E7FEC423CDC423541F6DCD54C3
:0901AD001FCD6DCD30E40244E0E9
:0E01B600FE53060774182EFEEF24F6F9870498
:0E01C40009E7FF30E70C8D048E0774802FFFD3
:0401D2008C058F0603
:0401D6008D828E8305
:0601DA00850981D0092215
:0A01E000AF82C21075380053070308
:0C01EA00EF2FFE04F53E746D2F901D00F9
:0C01F60093F53D74712F901D0093FD7473
:0C0202007F5D75F0B4A42484F53974EA23
:0C020E0035F0F53A74752F901D0093FF39
:0C021A00747F5F75F0B4A42484F53B747D
:0C022600EA35F0F53CEE24EEF9870509FE
:0A0232008707C3ED953BEF6480855C
:0A023C003CF063F08095F04004E50B
:0302460045602AE6
:0C024900EE24F6F98705098707C3E53BA2
:0C0255009DE53C64808FF063F08095F024
:0A0261005010E53D540C600AE53D25
:08026B0003035401F538D21021
:0C027300EE24EEF98705098707C3ED951E
:0A027F0039EF6480853AF063F080E7
:0802890095F04004E545602AF0
:0C029100EE24F6F98705098707C3E5395C
:0C029D009DE53A64808FF063F08095F0DE
:0A02A9005010E53D54C0600AE53D29
:0802B30023235401F538D21099
:0C02BB00EE24EEF98705098707C3E5393A
:0C02C7009DE53A64808FF063F08095F0B4
:0602D3004004E54560292E
:0C02D900EE24F6F98705098707C3ED95B0
:0A02E50039EF6480853AF063F08081
:0B02EF0095F0500FE53D54306009E52C
:0702FA003DC45401F538D2A8
:0103010010EB
:0C030200EE24EEF98705098707C3E53BF0
:0C030E009DE53C64808FF063F08095F06A
:06031A004004E5456028E7
:0C032000EE24F6F98705098707C3ED9568
:0A032C003BEF6480853CF063F08035
:0C03360095F0500EE53D54036008740182
:05034200553DF538D225
:0103470010A5
:0A034800E5386013853EF005F074FF
:0303520001800225
:0203550025E0A1
:08035700D5F0FBFF42378012D4
:09035F00853EF005F074018002F6
:0203680025E08E
:07036A00D5F0FBF4FF523750
:0803710030100EE545700A850D
:090379003E82C006121373D00687
:0E038200EE24EEF9EE24F6F88606088607A7AC
:050390000609A7072289
:0E039500AF8253070374652F901D0093FE2066
:0503A300E70302043233
:0E03A80074652F901D0093FE747F5E75F0B497
:0A03B600A4FDAEF08D3F8E40EF2F46
:0E03C000FE24F6F98704098705EE24E6F98786
:0E03CE0002098703C3EA9CEB64808DF063F0A4
:0E03DC008095F0401DEE24E6F98704098705A0
:0D03EA00EE24F6F98702098703ECC39AF5AB
:0703F70041ED9BF542801B64
:0E03FE00EE24F6F98704098705EE24E6F98758
:0C040C0003098706ECC39BF541ED9EF54B
:0104180042A1
:06041900AD41AE42C3E557
:0A041F003F9DE5409E500C74042F31
:09042900242CF9870774804FF7B9
:0104320022A7
:0A04330075D1610535E4B535020509
:01043D003688
:0A043E00E53524FFFEE53634FFFF2C
:0B044800EEF4FEEFF4FFE5355206E590
:050453003652077D0098
:03045800BD1000D4
:08045B005032EE30E0247C0079
:03046300BC0900D1
:0C046600501DEC2423F9870353030FEB17
:0C047200B5050DEC242CF9E7FB247F50AD
:04047E0003EB14F781
:030482000C80DE0D
:0A048500EFC313CE13CEFF0D80C9A4
:02048F007F00EC
:08049100EF24F7500302055EA1
:0C049900901D79E493EF242CF98706BE37
:0404A500800280034E
:0304A90002055AEF
:0E04AC00EF24FC403474612F901D0093F7EF95
:0E04BA002FFEF582C007C006121373D006D0C5
:0D04C8000774752F901D0093FD20E70302BF
:0204D500055AC6
:0E04D700EE04F582C007121373D00702055A17
:0E04E500EF24F8403FEF24FCFE25E0F582C036
:0E04F30007C006121373D006D007EE30E014D7
:0C050100EF242CF9EEC3132469901D00B8
:08050D0093FD740F5DF78045BA
:0C051500EF242CF9EEC3132469901D00A4
:0805210093C4540FFEF7803172
:0C052900753400901D79E493FE530655D4
:020535007D0047
:0E053700ED24F9401EEE30E6118D82C007C0A3
:0C05450006C005121373D005D006D007C5
:09055100EE2E25E0FE0D0D80DD0B
:04055A000F020491F7
:01055E00227A
:0A055F00E5082508FF8FF005F07491
:030569008080028D
:02056C00C313B7
:0C056E00D5F0FBFE5545601D8F82C007D4
:0D057A00121373D0078FF005F0748080021B
:02058700C3139C
:0A058900D5F0FBFE74FFC39E52453F
:080593008FF005F074408002B6
:02059B00C31388
:0C059D00D5F0FBFE55456011EF04F5821F
:0C05A900C006121373D00674FFC39E52EC
:0105B5004500
:0105B6002222
:0E05B70075D16075D20E75D3A0758400758560
:0E05C50000AF915307FC8F91AF925307FC8F4C
:0C05D30092C2AC75980075BA00752B043C
:0C05DF00901DA0E493C313FF74804FF53F
:0B05EB0034901D79E493FF74AA5FF5C3
:0305F600457F003E
:0805F900EF24FC50030206C0D0
:0C060100EF2423F9901D60E493FE740FB9
:0C060D005EF7EF242CF974612F901D00A3
:0E06190093F774712F901D0093FE530680EF2F
:0E06270075F002A42401FCE435F0FD8CF00512
:04063500F0EE800261
:02063900C313E9
:0C063B00D5F0FB4245EF2FFE24F6F876C8
:0E06470000087600EE24EEF87600087600EE4D
:0E06550024E6F87600087600EF30E016740414
:0C0663002F242CF9EFC3132469901D0014
:08066F0093FE740F5EF7801486
:0C06770074042F242CF9EFC313246990A5
:080683001D0093C4540FFEF7A3
:0C068B0074042F242CF9E7600A74042F7B
:070697002423F87603801E06
:0C069E0074042F242CF9E7FE24FA500A03
:0A06AA0074042F2423F8760380085F
:0806B40074042F2423F87600E2
:0406BC000F0205F92B
:0706C000754401E4F508F5A3
:0706C70035F53675D1612203
:0400000002002332A5
:01000B0032C2
:03001300020D0AD1
:03001B00020D3A99
:03007F0002001E5E
:05001E001206CE80FE79
:0C06CE007F00C2107584FF7585FFC00717
:0606DA00C0221216C8D078
:0706E00022D007C2977E0043
:0306E700BE320020
:0E06EA00501AC28C901D17E493F58C901D18C9
:0806F800E493F58AC28DD28C57
:06070000308DFD0E80E1CA
:08070600C007C0221205B7D0A4
:03070E0022D007EF
:0B071100901D0DE493FEBEFF0280036C
:03071C000207F9D8
:06071F00300E030207F991
:08072500E57430E0030207F95E
:0B072D00748025D1500BC007C02212C1
:060738000433D022D007BB
:0A073E007401B54419C201C007C0E0
:0507480022120BC0D0DD
:07074D0022D0073001030276
:0207540007F9A3
:060756007544020207F9E0
:0A075C007402B54416C007C0221253
:090766000B2CD022D00740030245
:02076F0007F988
:060771007544030207F9C4
:09077700C201E508C313246B90D4
:0C0780001D0093FEAC087D00ECF4FCEDC5
:0E078C00F4530401E4CC25E0CC33CC25E0CCC2
:09079A0033FD8CF005F0EE800245
:0207A300C3137E
:0C07A500D5F0FB540FF582C007C02212F3
:0B07B1000BD2AD82AE83D022D0072017
:0507BC00013BE50825EA
:0A07C1000824F6F8A60508A6068530
:0707CB000882C007C02212E2
:0507D20001E0D02285CA
:0507D7000882C022129F
:0707DC000395D022D007E5D0
:0807E30045600BC007C02212A3
:0607EB00055FD022D007DB
:0607F100754401050853E8
:0207F7000803F5
:0607F90020060330071189
:0707FF00C206C207C007C0DB
:05080600221213C6D010
:05080B0022D007800A65
:020810007E6404
:080812008E051D8D06EE70F845
:08081A00D297209712BF7F0066
:0508220050030F8012DD
:0608270020100363748140
:04082D00D21080085D
:06083100EF60031F8002CE
:02083700C210ED
:08083900E5745401FEB4010056
:0B084100E433FE24FF9297020711220F
:08173C000102040810204080A6
:021D03000008D6
:021D05000438A0
:011D0C0000D6
:011D0D00FFD6
:09084C00D210E50824FC5003025F
:0208550008EBAE
:05085700E5082508255D
:05085C00089008617323
:0708610002086D02088D0280
:0508680008AD0208CDFF
:0B086D00C2809009C4C022120CE5D02C
:0508780022D2807FFF89
:0A087D00A280821092108F061E8EDA
:0608870007EF70F2805E35
:0B088D00C2819009C4C022120CE5D00B
:0508980022D2817FFF68
:0A089D00A281821092108F061E8EB9
:0608A70007EF70F2803E35
:0B08AD00C2829009C4C022120CE5D0EA
:0508B80022D2827FFF47
:0A08BD00A282821092108F061E8E98
:0608C70007EF70F2801E35
:0B08CD00C2839009C4C022120CE5D0C9
:0508D80022D2837FFF26
:0A08DD00A283821092108F061E8E77
:0408E70007EF70F2B5
:0508EB00B210A2102272
:0B08F000AF82E50824FC5003020A144C
:0508FB00E508250825B9
:050900000890090573D9
:070905000209110209520270
:05090C0009930209D46B
:020911007E0165
:06091300BE0003020A14FD
:06091900EE5F601E7D0090
:03091F00BD020016
:070922005005C2800D80F6B4
:0E092900D280900104C007C006120CE5D00673
:04093700D007801253
:0E093B00C280900113C007C006120CE5D00662
:04094900D007D28081
:05094D00EE2EFE80C14A
:020952007E0124
:06095400BE0003020A14BC
:06095A00EE5F601E7D004F
:03096000BD0200D5
:070963005005C2810D80F672
:0E096A00D281900104C007C006120CE5D00631
:04097800D007801212
:0E097C00C281900113C007C006120CE5D00620
:04098A00D007D2813F
:05098E00EE2EFE80C109
:020993007E01E3
:06099500BE0003020A147B
:06099B00EE5F601E7D000E
:0309A100BD020094
:0709A4005005C2820D80F630
:0E09AB00D282900104C007C006120CE5D006EF
:0409B900D0078012D1
:0E09BD00C282900113C007C006120CE5D006DE
:0409CB00D007D282FD
:0509CF00EE2EFE80C1C8
:0209D4007E01A2
:0509D600BE00028039A3
:0609DB00EE5F601E7D00CE
:0309E100BD020054
:0709E4005005C2830D80F6EF
:0E09EB00D283900104C007C006120CE5D006AE
:0409F900D007801291
:0E09FD00C283900113C007C006120CE5D0069D
:040A0B00D007D283BB
:050A0F00EE2EFE80C286
:010A140022BF
:0B0A15007F00E50824FC5003020B29C1
:050A2000E50825082592
:050A250008900A2A738D
:070A2A00020A36020A730202
:050A31000AB0020AED0D
:020A36007E013F
:060A3800BE0003020B29C1
:020A3E007D0039
:030A4000BD0200F4
:070A43005005C2800D80F692
:0E0A4A00D280900001C007C006120CE5D00655
:080A5800D007308003EE4207D5
:0E0A600090008CC007C006120CE5D006D0072F
:050A6E00EE2EFE80C524
:020A73007E0102
:060A7500BE0003020B2984
:020A7B007D00FC
:030A7D00BD0200B7
:070A80005005C2810D80F654
:0E0A8700D281900001C007C006120CE5D00617
:080A9500D007308103EE420797
:0E0A9D0090008CC007C006120CE5D006D007F2
:050AAB00EE2EFE80C5E7
:020AB0007E01C5
:060AB200BE0003020B2947
:020AB8007D00BF
:030ABA00BD02007A
:070ABD005005C2820D80F616
:0E0AC400D282900001C007C006120CE5D006D9
:080AD200D007308203EE420759
:0E0ADA0090008CC007C006120CE5D006D007B5
:050AE800EE2EFE80C5AA
:020AED007E0188
:050AEF00BE000280358D
:020AF4007D0083
:030AF600BD02003E
:070AF9005005C2830D80F6D9
:0E0B0000D283900001C007C006120CE5D0069B
:080B0E00D007308303EE42071B
:0E0B160090008CC007C006120CE5D006D00778
:050B2400EE2EFE80C66C
:030B29008F822296
:090B2C00C210E50824FC5003028C
:020B35000BB300
:050B3700E5082508257A
:050B3C0008900B41735D
:070B4100020B4D020B6702DD
:050B48000B81020B9B74
:020B4D007F0027
:030B4F00BF0200E2
:070B52005005C2800F80F680
:0C0B5900D280900001120CE5A2809210E6
:020B6500804CC2
:020B67007F000D
:030B6900BF0200C8
:070B6C005005C2810F80F665
:0C0B7300D281900001120CE5A2819210CA
:020B7F008032C2
:020B81007F00F3
:030B8300BF0200AE
:070B86005005C2820F80F64A
:0C0B8D00D282900001120CE5A2829210AE
:020B99008018C2
:020B9B007F00D9
:030B9D00BF020094
:070BA0005005C2830F80F62F
:0C0BA700D283900001120CE5A283921092
:090BB30090008CC022120CE5D068
:040BBC0022A210223F
:0E0BC00012084C500C7582CC1208F07582445D
:030BCE001208F01A
:010BD1002201
:0A0BD200C00985810905810581AF86
:0D0BDC0082C00712084CD0074003020CCF66
:0E0BE9007582CCC0071208F07582BE1208F0AB
:0E0BF700120A15AE82C006120A15AD82D00693
:070C0500D007E4BF02010467
:0D0C0C00FF6038C007C006C005120A1512AF
:060C19000A15120A151273
:0E0C1F000A15120A15AC82D005D006D0075374
:0E0C2D0005F8EEC4035407FB2DFDEEC403547E
:0C0C3B00F8FE5306F07410C39CFC2EFE63
:0E0C470074805DFC8D03E4FDFAEE2DFDEA3BAA
:0B0C5500FBEC6007C3E49DFDE49BFB8B
:0E0C6000C004C007C005C004C003C005C00327
:0E0C6E00900006121716AA82AE83158115811A
:0C0C7C00D003D004D005D007A80908A6BA
:0E0C88000208A606EBC313CD13CDC313CD1384
:0C0C9600CDFBA809088604088606ED2C9A
:0C0CA200FDEB3EFBA80908A60508A60310
:0C0CAE00D004EF600CA80908E624E7F66B
:050CBA0008E634FFF61E
:0C0CBF00EC6015A80908C3E496F608E4F0
:040CCB0096F6800811
:080CCF00A8090876FF0876FF72
:0A0CD700A8090886820886838509B3
:040CE10081D0092293
:0E0CE500AE82AF83C28C8E048F0574FFC39C59
:0E0CF300FC74FF9DFD8C068D078F8C8E8AC2CF
:030D01008DD28C04
:060D0400308DFDC28C22BF
:0E0D0A00C0E0C0D0C2AAC28E740F558924204A
:0E0D1800F589758B35758D80C28FD28ED2AB6A
:060D2600757002C202D24A
:050D2C0000756F007569
:090D31006E00D201D0D0D0E032F6
:0C0D3A00C022C0E0C0F0C082C083C0072F
:0E0D4600C006C005C004C003C002C001C0004A
:0C0D5400C0D075D000E570FF24F1500302
:030D600002105727
:070D6300EF2F2F900D6A73C2
:070D6A00020D970210570271
:060D71000E0A020EC4028E
:060D77000ECD020F420246
:060D7D001057021057029E
:060D830010570210570298
:060D89000F66020FCE020E
:060D8F001057020FF202F2
:020D950010400C
:0E0D9700C28E740F55892420F589758B8075E6
:0A0DA5008D80C28FD28EE572B57307
:030DAF000280516E
:080DB200E5732464F987821245
:0B0DBA00113D503DC2AAE5707032E50B
:0A0DC500732464F9E7FF20E50774CA
:060DCF00204FF7757100D2
:0B0DD50074FC257140051210A280166E
:060DE0000573537307C206
:040DE6000AC20F121C
:0C0DEA001076C28E758DF0758B00D28ED5
:050DF600D2AA02105713
:060DFB00057353730702AB
:020E0100105788
:070E0300C28ED2AA021057B3
:0A0E0A00A28BB39210C28B75700327
:0A0E1400758D00E56F700A756F011F
:050E1E00C203C2040242
:020E2300105766
:0A0E2500747F256F401C301008B2E6
:040E2F0002E56F2544
:030E33006EF56EEB
:050E3600E56F256FF5DA
:060E3B006F600302105776
:060E4100756F81021057DD
:0A0E4700C28EC28FA202201001B378
:0A0E51005026E56C700E74CCB56EEF
:030E5B0002D203BD
:070E5E00740CB56E02D20412
:070E6500200313200410E537
:050E6C006C244DF8E5C7
:050E71006EF6626D0544
:030E76006C80028B
:020E7900C200B5
:050E7B00100A02801DB9
:070E8000300314300011756E
:070E87007104100F02800945
:070E8E00E5482404F5485378
:020E9500483CD7
:060E970012107602105754
:070E9D0030001E20031B20A2
:0C0EA4000418740F55892410F589758D11
:0C0EB000FA758B70D28E757004D2AA0205
:020EBC001057CD
:060EBE001210760210572D
:090EC400758D8075700202105753
:0A0ECD00300864E56C24FB505EC29F
:0E0ED7008E740F55892410F589758DEF758B7B
:080EE50042D28EA20D9205E538
:080EED005230E71F855082C05E
:0C0EF500511210ECAF821581BFFF02808B
:010F010002ED
:020F0200D20516
:090F0400E550701CE5517018D293
:030F0D0005801448
:0C0F1000901D17E493FFB5500B901D18C6
:080F1C00E493FFB55102D20578
:090F240074FFB56D05300502D221
:010F2D0006BD
:060F2E007570050210576A
:080F3400E56C24FE5002D20618
:060F3C00121076021057AE
:0A0F4200C28E74FFB56D1330050A6E
:060F4C00D20B1210A2C23C
:040F52000A02105728
:060F560012107602105794
:060F5C00D20C1210A2C22B
:040F62000A02105718
:080F6600E56C244DF98707300A
:040F6E000B027FCC27
:050F7200300C027F0CB1
:090F7700C2AA740AB570028003DD
:030F800002105705
:0A0F8300E56F247F402CE56F5F70DE
:090F8D0008D296C209B2028002EA
:020F9600D2097E
:080F9800E56F7007756F01C2DF
:030FA000028006C6
:050FA300E56F256FF56C
:010FA8006FD9
:070FA900E56F7003756F8115
:050FB00075700B8013B9
:090FB500200206D296C209800256
:020FBE00D20956
:060FC000056C756F007561
:020FC600700DAC
:060FC800758D12021057A6
:0A0FCE00E56C70077401B56F0205B1
:010FD80071A7
:0A0FD900C296A209828B5007C20ADB
:050FE3001210768006EB
:060FE80075700A758D6EA4
:040FEE00C28B8065CD
:0E0FF200C296C28E740F55892410F589758D34
:0A100000FB758B90D28E200B03309D
:02100A000C05D3
:05100C00121076802B9C
:0C101100740F5552FF7E0074072FFFE49F
:0C101D003EFEAC6C7D00C3EF9CEE6480D6
:0C1029008DF063F08095F05007D20712A4
:0410350010768003AE
:0310390075700EC1
:04103C00C28B8017CC
:0E104000C28E740F55892420F589758D6E754A
:09104E008B80C28FD28E75700AEE
:0C105700D201D0D0D000D001D002D003D4
:0E106300D004D005D006D007D083D082D0F0C4
:05107100D0E0D02232A6
:0A107600757000C28BC28EC2AB750C
:0A1080006D00756C00C28E740F55F0
:0C108A00892410F589758D89758BAFC223
:0A1096000BC20CC28FD28ED2AAD278
:0210A000AB2281
:0E10A200C28E740F55892420F589758D6E75E8
:0C10B0008B80C28F740F55522407FF750F
:0410BC006DFF7E0046
:0C10C000C3EE9F500BEE244DF9E7FD62DB
:0410CC006D0E80F035
:0710D000EF244DF8A66DC2EC
:0410D70003C204D27A
:0510DB000A75700A75A2
:0A10E0006F00756C00C2AAD28ED218
:0210EA00AB2237
:0A10EC00C009858109AF827EFF90E4
:0810F6001D16E493FDBDFF008F
:0C10FE005038200D35901D16E493602E34
:07110A00901D16E493FD1D8A
:0E111100ED6024ED2DFC2417901D0093FBEFE4
:0C111F00B5031374182C901D0093FCE520
:0A112B000924FDF8E6B504028D0664
:031135001D80D941
:051138008E82D00922A7
:0A113D00C009E581F5092404F581DD
:0C114700AF82C2107DFE7E00EFA2E5E446
:0911530033FC24FF9211BF80005F
:05115C004003021289AE
:0C116100C005C006EF2323540124FF92B8
:0B116D001253071F8F82C007C005C08F
:0C1178002212009DAA82AB83ACF0FED0D6
:0A11840022D005D007A80908A60232
:0E118E0008A60308A60408A606901D11E49307
:0E119C00FE0EEF2FFD2EFC04901D0093FEB5FD
:0411AA0007028006B2
:0611AE00D006D005800F01
:0E11B400D006D0058C8275831DE493FCFD7E71
:0111C200002C
:0911C300BDFE06BE00030213622A
:0A11CC00754DBC901D17E493FC8CD8
:0A11D6004E901D18E493FC8C4FEDC1
:0C11E0002DFD2417901D0093FE8E50740E
:0A11EC00182D901D0093FE8E517522
:0611F600530030120575E4
:0411FC0054408003D8
:03120000755480A2
:0E120300901D12E4932F2FFE2F2404901D0047
:0C12110093FE24F95006EE24FBFE800240
:02121D007E0150
:0C121F0074E02EF552EE24FE500F740611
:0A122B002E244DF9A809088605A736
:0312350005801021
:0C123800A80908743F56FAE4FBFCFDEA2C
:041244002554F554E4
:0C124800EE24FD500E74052E244DF9A874
:071254000908088605A70543
:0C125B00EE24FC500F74042E244DF9A862
:08126700090808088605A70527
:0C126F00EE24FB501074032E244DF9A84F
:09127B0009080808088606A70608
:05128400D2100213620C
:0A128900754DB0901D17E493FE8E22
:0A1293004E901D18E493FE8E4F8567
:03129D0046508533
:0A12A000475153071FEF24FA5003D3
:0312AA00021360CC
:0712AD00EF2F2F9012B47324
:0712B4000213600212C602E2
:0612BB0012D20212E9024A
:0512C10012FA02135AAD
:0812C60075526074C2254CF55D
:0412CE005302136054
:0812D20075526374432548F5D1
:0512DA0053755440753E
:0612DF005500755612D205
:0412E5000F02136081
:0712E90075500075510075FE
:0612F00052E17553017587
:0412F600544080667A
:0212FA007F0073
:0A12FC00C3EF9549503CE54A702607
:0A130600740A2F244DF87600AD4B59
:0E1310007E008F037C00EB2DFDEC3EFEBD60E9
:0B131E001CBE0019740A2F244DF8A615
:0313290074800FBE
:0A132C00740A2F244DF9EF254B90B1
:051336001D0093FEF70D
:03133B000F80BE62
:09133E0074632549F5527442451F
:0613470048F55374404517
:04134D0049F5548585
:031351004A558575
:031354004B56D223
:031357000F8006FE
:06135A007552607553811D
:02136000D210A9
:0813620030110674DF554DF552
:01136A004D35
:06136B00A210850981D0EB
:0213710009224F
:07137300AF82C210BF400071
:0C137A00501B8F82C007C0221216B2E583
:0C13860082D022D0075444FEBE440280F6
:011392000456
:04139300D210802ACA
:09139700AD727E000DBD00010ED7
:0C13A0005305077E00AB737C00EBB50525
:0713AC0006ECB50602800EFD
:0813B300E5722464F8A60705A9
:0513BB0072537207D21D
:0113C000101C
:0513C100D28EA21022F3
:0A13C600C009E581F5092404F58152
:0913D000C206AF5374C35FFEA80E
:0513D9000908A654E51F
:0913DE0050FC7036E5517032E557
:0713E7007420E003021691DF
:0C13EE00EE700DA80908B6C007C006127A
:0413FA001697D0066C
:0513FE00BE01028003A6
:031403000216913D
:09140600A80908E6600302169132
:09140F0075828312137302169119
:08141800E55230E7030215DC88
:0C142000901D17E493FBECB50302800361
:03142C0002169114
:0B142F00901D18E493FBB551028003F0
:03143A0002169106
:05143D00BE4202801B0D
:06144200BE430302157A0F
:06144800BE80030215A0A6
:06144E00BE81030215B689
:06145400BE83030215D364
:03145A00021691E6
:06145D00200E03021691AF
:0A146300743C5FF54CA80908E6543C
:0A146D00F0F6A80908B6800280031B
:0314770002155902
:0C147A00758281121373E555FB700302AC
:021486001559F6
:05148800740F5554FF34
:0A148D00E57070FCC2AF75E400AE1C
:0A1497005674015B241CFCA8090830
:0314A100087600CA
:0C14A400A8090808C3E69F400302155485
:0C14B000EB703CC003E5092403F8A6061D
:0C14BC00087600A809080886027D00E5FB
:0C14C800092403F8EA26FAED0836FDBA04
:0714D4006005BD0002800469
:0414DB00D0038010AA
:0A14DF00D003A8090808740A2624A7
:0614E9004DF98774801626
:0B14EF008CE7A8090808E62EF5E6A827
:0A14FA00090808740A26244DF9873A
:01150400E501
:0A1505008E027D00A8090808E50920
:0C150F002403F9E6F7097700E50924033E
:0E151B00F8E62AFA08E63D53023F7D00BA3F8B
:0D15290022BD001F8F027D001ABAFF011DB8
:0C153600E5092403F8E6B5020708E6B555
:041542000502800618
:0615460075E46875E40085
:08154C00A8090808060214A416
:0515540075E468D2AF50
:09155900A80908E66003021691DE
:0415620085544985DE
:03156600554A855E
:06156900564B7582811251
:09156F00137375828412137302D8
:021578001691CA
:0A157A00743C5FF54CA80908B68028
:041584000343A20873
:09158800A80908E66003021691AF
:0D159100758281121373758282121373022A
:02159E001691A4
:0615A000300E030216915B
:0415A600D20E854E8E
:0315AA0046854F24
:0515AD0047754800C273
:0415B2000F0216917D
:0715B600E54EB5460280037B
:0315BD0002169182
:0715C000E54FB5470280036F
:0315C70002169178
:0615CA00100E0302169151
:0315D0000216916F
:0915D30075828512137302169152
:0615DC00EE60030216910F
:0C15E200C0518C821210ECAF821581BF4A
:0515EE00FF030216914D
:0E15F300901D11E493FEF58275831DE493258F
:0C160100E02EFD0EA8090874C056FCE4A1
:04160D00BC80010498
:01161100FCDC
:08161200C3EE9D400302169196
:0E161A008E8275831DE493FBEFB50366EE042C
:0E162800901D0093FBF582C007C006C005C0F0
:0E16360004C0031216B2AA82D003D004D0055D
:0E164400D006D007EC602EC00474145AFCBC13
:0416520014028004FA
:04165600D004801F1D
:0E165A00D0048B82C007C006C005C004C003C8
:0E166800C002120082D002D003D004D005D000
:0316760006D00794
:0C167900A80908E6700D53020CBA0C0C16
:071685008B82120083800537
:05168C000E0E02161213
:06169100850981D0092249
:0C169700E57070FCC2AF75E40075E71D43
:0A16A30075E6178555E58556E575D7
:0516AD00E468D2AF2249
:0E16B200AF82901D12E493FE0E0E0EEF2E2F4F
:0816C0002F901D0093F582221A
:0E16C80075950075911475924CC29675892126
:0E16D600758F00C28CC28E758D80758B80C2A0
:0C16E4008FC20175A88075E80075B8047D
:0A16F00075B70CD28A75742EC20380
:0516FA00C204C20BC296
:0416FF000CC206D241
:0517030008757200757D
:061708007300754800C2E9
:04170E000FC20EC236
:041712000D0210763E
:06005200E478FFF6D8FD82
:080030007900E94400601B7A2D
:05003800009017447860
:03003D000075A0AB
:0A00400000E493F2A308B8000205E3
:08004A00A0D9F4DAF275A0FF61
:0E17160074FE2581F8E68582F0A4C0E085828D
:0E172400F018E6A4F582D0E025F0C58386F02B
:06173200A42583F58322CB
:080058007800E84400600A7919
:030060000075A088
:0600630000E4F309D8FCE3
:080069007800E84400600C7906
:0B00710000900000E4F0A3D8FCD9FAD6
:0300230075817470
:0A002600121738E582600302001E85
:041738007582002294
:00000001FF
