:0400000002002332A5
:03000B00020AAA3C
:03001300021014C4
:03001B000210448C
:03007C0002001E61
:05001E0012007F80FECE
:0A007F007F00C218E5A7C007C023E8
:0C0089001219E5D023D00775C1FFC2AFEB
:0E00950075A7E575C2A575C35AD2AFC2AF43B9
:0E00A300A70475C2A575C35AD2AFC2977E00DE
:0300B100BE32005C
:0E00B400501AC28C901D17E493F58C901D1805
:0800C200E493F58AC28DD28C93
:0600CA00308DFD0E80E107
:0800D000C007C023120F5DD030
:0C00D80023D00753BDFE75985043BAE0DA
:0E00E40043BD0275BF2F75BEF043BD01759977
:0300F200557E0038
:0300F500BE080042
:0C00F8005019C2F0C007C006C02385F0FC
:07010400238E82120A11D0C4
:08010B0023D006D0070E80E2AC
:08011300C219901CFEE493F5F3
:01011B002BB8
:0E011C00C2AF75C2A575C35AD2AF748025D18B
:0B012A00502B75D161200E0DC007C0E6
:0501350023120AAFD007
:05013A0023D00780182E
:0A013F00E564249140040564800E7D
:0B014900758285C007C023121691D0FC
:0301540023D007AE
:0B015700E524FE03035401FD24FF9289
:050162001A4002C21961
:0C016700E56330E03674FEB580157402CC
:0A017300252B400FA21AE433FDBD56
:08017D000107201904052BD233
:010185001960
:0C01860074FDB5803DE52B24FE5037A22F
:0A0192001AE433FDBD012F20192CE3
:06019C00152BD21980268C
:0C01A200901D0DE493FDBDFF1D200E1A02
:0A01AE00E56320E015E528B58002A6
:0201B800800EB7
:0B01BA00858082C007C02312025CD0C9
:0301C50023D0073D
:0601C80020070330080FC0
:0701CE00C208C007C02312A4
:0801D50016E4D023D007800AD4
:0201DD007E643E
:0801DF008E051D8D06EE70F87F
:0501E7001098028029C0
:0501EC00AE99BE63089E
:0501F10010990280FBE3
:0301F600759955A3
:0601F900BE700363638188
:0301FF00BE7608C1
:0502020010990280FBD1
:030207007599697D
:03020A00BE7408B7
:05020D0010990280FBC6
:03021200759900DB
:08021500D29720972ABFFF00D9
:05021D0050030F802AD0
:07022200201827636381D25D
:0A02290018E56320E01DC2AF75E484
:0C0233000075E71B75E6FE852BE575E401
:05023F0068D2AF800849
:06024400EF60031F8002C1
:02024A00C218D8
:0A024C00E56330E005C29702011CD3
:06025600D29702011C22F8
:021D1700FFFFCC
:011CFE00FFE6
:06025C00AF82AE2A7D0016
:06026200EEB52A02800344
:030268000DAE2AAE
:0B026B00ED243750F2EFB580537E0009
:03027600BE0800BF
:0A027900504A8EF005F07401800277
:0202830025E074
:0C028500D5F0FBFD5F601BED55287016E6
:0C029100C2F0C007C006C00585F0238E37
:0A029D00821202C8D005D006D00777
:0C02A700ED5F7017ED55286012D2F0C01A
:0C02B30007C00685F0238E821202C8D01E
:0302BF0006D0075F
:0302C2000E80B1FA
:0202C5008F2880
:0102C7002214
:0802C800C018858118C082C234
:0A02D00019A81808E6C31324CF9004
:0C02DA001D0093FEA8180874015675F072
:0902E60004A4F5F005F0EE80021D
:0202EF00C31337
:0B02F100D5F0FB540FFEBE010280158B
:0602FC00BE02030203B480
:06030200BE030302054BDF
:06030800BE040302062200
:03030E000208EDF5
:0A031100301818A81808E625E025AA
:0E031B00E024D3901D009323235403FE5306C9
:0303290003801638
:0B032C00A81808E625E025E024D39087
:0B0337001D0093C4540FFD74035DFE15
:05034200BE0102800A6B
:05034700BE0202800966
:05034C00BE0326802223
:04035100D21980201D
:0C035500A818088682C0061208F2AA82CE
:0E036100AB83ACF0FDD006EA5401FA24FFB3E2
:04036F00921980025D
:02037300C219AD
:06037500EE70030208ED2A
:0A037B00A219E433FD7E00C023C088
:0C03850005C006A81808868212092A1577
:0A039100811581D023A81808868288
:06039B00C023121691D0F0
:0703A10023A21992F085F080
:0703A80023A8180886821249
:0503AF000A110208ED37
:0C03B400A81808E625E025E0FE24D39000
:0B03C0001D0093FD53053020180302C0
:0203CB000472BA
:0E03CD0074D32E901D0093FC30E215C2F0C0D8
:0A03DB0006C00585F023A818088667
:0803E50082120A11D005D006B6
:0C03ED00A81808740826FC24EEF974D649
:0E03F9002E901D0093FBF7EC24DEF974D52E38
:0E040700901D00935470C4540FFCF7BD201FCD
:0B041500C006A81808740826F5821223
:0E04200008F2AA82AB83ACF0EAD00630E30407
:04042E007D3080029B
:020432007D103B
:0C043400BD1019A8180874082624CEF981
:0E04400074D42E901D009354F0C4540FFC246D
:02044E0020F795
:05045000BD3002800335
:030455000208EDAD
:0C045800A8180874082624CEF974D42ECD
:0E046400901D0093FC740F5C2420F70208ED3D
:0C047200A8180874082624CEF98704534B
:0C047E0004F0BC2071BD2019A8180886ED
:0E048A00821208F2AA82AB83ACF0FFEA30E0E7
:05049800047D3080022C
:02049D007D10D0
:0C049F00BD102A7401C0E0E4C0E0A81801
:0C04AB0008868212092A15811581A81804
:0C04B700088682121691D2F085F023A86E
:0904C30018088682120A11806AF1
:0B04CC00E4C0E0C0E0A818088682121F
:0C04D700092A15811581A81808868212D8
:0804E3001691C2F085F023A878
:0904EB0018088682120A118042F1
:0C04F400A81808740826FFF582C007C095
:0E050000061208F2AA82D006D0075302087B2A
:0E050E0000C006C002C0038F8212092A1581A8
:0E051C001581D00674D32E901D0093FF20E6AB
:0C052A000BA81808740826F58212169120
:0C053600A81808740826FF24EEF87600D0
:09054200EF24CEF876000208ED6A
:06054B002018030205D395
:0C055100A81808E625E025E0FF24D3FEF2
:0C055D00F58275831DE4935410C4540F04
:0C056900FD7C00C007C006C005C004A84F
:0C0575001808868212092A15811581A839
:0B05810018088682121691D2F085F057
:07058C0023A8180886821263
:0C0593000A11D006D007A818087408262A
:0E059F00FD24EEF974D52F901D0093FCF7EDAE
:0E05AD0024DEF974D42F901D0093540625E02F
:0C05BB00F7ED24CEF98E8275831DE493C9
:0C05C7005410C4540FFF2430F70208ED5C
:0C05D300A8180874082624CEF98707BF7A
:0205DF004000DA
:0C05E1004031A81808E625E025E024D3EE
:0E05ED00901D00935410C4540FFF7E00C007F1
:0C05FB00C006A81808868212092A158183
:0B0607001581A81808868212169102C7
:0206120008EDF1
:0C061400A8180874082624CEF87600020E
:0206200008EDE3
:0C062200A81808E625E025E0FF24D3908E
:0E062E001D0093C45407FE24FB50030208ED88
:07063C00EE2E2E9006437321
:070643000206520206AB02A1
:06064A0007420207C8028E
:02065000084E52
:060652002018030208ED70
:0E06580074D32F901D0093FE30E211C2F0C04B
:0A0666000785F023A8180886821209
:040670000A11D00794
:0C06740074D52F901D0093FE7D00A81887
:0E06800008740826FCC004C006C0058C821257
:0E068E00092A15811581D0048C82121691C2A2
:0A069C00F085F023A81808868212EA
:0506A6000A110208ED3D
:0A06AB0030181BA81808740826FE7A
:0E06B50024EEF8769CEE24DEF87602EE24CEDB
:0606C300F876500208ED7C
:0C06C900A8180874082624CEF98706BE85
:0D06D500502C74D52F901D0093FE7D00A8C1
:0C06E2001808740826F582C006C0051236
:0C06EE00092A15811581D2F085F023A89F
:0906FA0018088682120A11802002
:0E07030074D52F901D0093FE4306807D00A844
:0C0711001808740826F582C006C0051206
:06071D00092A1581158177
:0C072300A81808740826FEF582C0061213
:0E072F001691D006EE24CEF87600EE24EEF8F9
:05073D0076000208ED4A
:0C07420030186F74D52F901D0093FD7EC1
:0E074E000074D62F901D00937B002EFEEB3D15
:0C075C00FDA81808740826FCC007C004A3
:0E076800C006C0058C8212092A15811581D0A9
:0C077600048C82121691D2F085F023A8AA
:0C07820018088682120A11D00774D32FC9
:0B078E00901D0093FE30E7030208ED11
:0C079900A81808740826FE24EEF8769CD0
:0D07A500EE24DEF87602EE24CEF876700227
:0207B20008ED50
:0C07B400A81808740826FE24CEF9E7EE11
:0807C00024CEF876000208EDDA
:0C07C80030186F74D52F901D0093FD7E3B
:0E07D4000074D62F901D00937B002EFEEB3D8F
:0C07E200FDA81808740826FCC007C0041D
:0E07EE00C006C0058C8212092A15811581D023
:0C07FC00048C82121691D2F085F023A824
:0C08080018088682120A11D00774D32F42
:0B081400901D0093FE30E7030208ED8A
:0C081F00A81808740826FE24EEF8769C49
:0D082B00EE24DEF87602EE24CEF876900280
:0208380008EDC9
:0C083A00A81808740826FE24CEF9E7EE8A
:0808460024CEF876000208ED53
:0C084E0030185D74D52F901D0093FE7DC6
:0C085A0000A81808740826FCC007C004A1
:0E086600C006C0058C8212092A15811581D0AA
:0C087400048C82121691D2F085F023A8AB
:0C08800018088682120A11D00774D32FCA
:0C088C00901D0093FE20E759A818087486
:0E0898000826FE24EEF8769CEE24DEF87602AA
:0808A600EE24CEF876B0803F8D
:0C08AE00A8180874082624CEF98706BE9E
:0E08BA00C026C2AF75E40075E71D74D52FF59A
:0C08C800E6A81808740826F5821208F251
:0E08D400AC82AD83AEF0FF8CE575E468D2AF68
:0B08E200A8180874082624CEF8760041
:0508ED001581D0182266
:0508F200AF82BF080009
:0C08F7005018EF242CF987065306017DF1
:0E090300007C007B008E828D838CF0EB8018D0
:0C091100EF24F825E02408F98706098788
:0C091D00077D007C008E828F838DF0EC43
:0109290022AB
:0A092A00C018858118AF82BF0800D5
:0A0934005013EF242CF9E51824FC01
:0B093E00F8740156FD7E00A705801430
:0A094900EF24F825E0FF2408F8E58C
:0A0953001824FCF9E7F60809E7F69E
:03095D00D018228D
:05096000AF82BF100092
:050965004003020A0539
:0E096A00901D12E493FEEF75F003A42E2404FA
:0C097800901D0093FE24F9401C743F55B4
:0C09840043FD7C00C007C006C005C00495
:0D0990008F8212092A15811581D006D0072B
:0C099D00BE0719AC447D00C007C006C0B6
:0E09A90004C0058F8212092A15811581D0061F
:0209B700D00767
:0A09B900BE081FAD457E00AB448B65
:0E09C30004E42DFDEC3EFEC007C005C0068F0B
:0A09D1008212092A15811581D00752
:0309DB00BF080052
:0E09DE005025EF2F25E024D3901D0093FE53EB
:0509EC000607BE040037
:0A09F1005012E543540124FF921850
:0A09FB0092F085F0238F82120A119A
:010A050022CE
:0B0A0600AF8274402FF582121691227F
:050A1100AF82BF0800E8
:050A16004003020AA9E3
:0E0A1B00EF2F25E024D3901D0093FE53060715
:050A2900BE0002800F79
:050A2E00BE0102800E74
:050A3300BE0302800D6E
:050A3800BE0447800C24
:040A3D00C21880411A
:040A4100D218803D0A
:040A4500B21880392A
:0C0A4900D218EF24CEF87610EF24DEF86F
:0D0A55007601901DCEE493FEBE2602800ABD
:050A6200BE7602800DCC
:050A6700BE961880108E
:080A6C00EF24EEF8762F800E56
:080A7400EF24EEF8768D8006F8
:060A7C00EF24EEF876BC49
:0A0A8200AE298FF005F07401800228
:020A8C0025E063
:0C0A8E00D5F0FBF45206A218E433FD8FF3
:060A9A00F005F0ED800202
:020AA00025E04F
:070AA200D5F0FBFF4EF52922
:010AA900222A
:050AAA00052AC28D3297
:0A0AAF00C018858118058175D1601B
:0C0AB90075D20075D3E675D1610524E408
:050AC500B52402052527
:0A0ACA00E52424FFFEE52534FFFFBC
:0A0AD400EEF4FEEFF4FFEE5524F5FA
:050ADE0026EF5525F58F
:030AE300277F006A
:030AE600BF10003E
:090AE900503DE52630E02A7E00B4
:030AF200BE100033
:0E0AF5005023EE24EEF9E76019EE24DEF987B7
:0E0B03000553050FEDB5070CEE24EEF9EE24B8
:060B1100EEF8E6FD14F70A
:030B17000E80D875
:080B1A00E527C313C52613C52E
:060B220026F5270F80BE3E
:050B2800A8180876008A
:060B2D00A81808B6100034
:050B33004003020F5811
:0B0B3800A81808E624EEF9E7600302AD
:020B43000F5150
:0C0B4500A81808E624CEF9870653060F16
:0C0B5100A81808E624CEF987055305F02B
:050B5D00BD1002804400
:050B6200BD20028062CD
:060B6700BD3003020C3B4F
:060B6D00BD4003020CCAAA
:060B7300BD5003020CDF7F
:060B7900BD6003020F51F4
:060B7F00BD7003020CFB37
:060B8500BD8003020CFB21
:060B8B00BD9003020DDF26
:060B9100BDA003020DDF10
:060B9700BDB003020EC216
:060B9D00BDC003020EC200
:030BA300020F51ED
:0A0BA600AD29A8180886F005F074C8
:030BB000018002BF
:020BB30025E03B
:0A0BB500D5F0FBF4FC5DF529A8184B
:0A0BBF0008E624CEF87600020F517C
:0C0BC9008E047D00C004C005A81808863A
:0C0BD5008212092A15811581A8180886D3
:0C0BE10082121691A81808E624F825E0FE
:0D0BED0025E024D5901D0093FD20E32DA8E8
:0A0BFA001808E624EEF9A81808E632
:0E0C040024F825E025E024D5901D0093FD7412
:0C0C1200075D901A4193FDF7A81808E652
:080C1E0024DEF87600020F51FC
:0A0C2600A81808E624EEF87600A8EE
:0B0C30001808E624CEF87600020F51F1
:0C0C3B005306017D00C006C005A8180883
:0C0C4700868212092A15811581A8180860
:0C0C53008682121691A81808E624EEF91B
:0C0C5F00A81808E624F825E025E0FE2493
:0C0C6B00D6901D0093FDF7A81808E624A1
:0E0C7700DEF974D42E901D00935460C42354F3
:0C0C85001FFEF7A81808E624EEF9E7604F
:0A0C910023A81808E624CEF9A818DD
:0E0C9B0008E624F825E025E024D3901D009300
:0C0CA9005410C4540FFE2440F7020F51F9
:0A0CB500A81808E624EEF87600A85F
:0B0CBF001808E624CEF87600020F5162
:0A0CCA00A81808E624CEF87600A86A
:0B0CD4001808E624EEF87600020F512D
:0C0CDF00A81808E624F8F582D2F085F091
:050CEB0023120A11A80C
:0B0CF0001808E624CEF87660020F51D1
:0A0CFB00A81808E624DEF87600A829
:0A0D05001808E624EEF9A81808E625
:0E0D0F0024F825E025E0FE24D4901D00935426
:0D0D1D0030C4540F901A4193F774D52E90F6
:0E0D2A001D0093FC7D0074D62E901D0093FEDC
:0E0D38007B002DFDEB3CFCBDFD05BC390280AF
:010D460006A6
:060D4700BD2808BC3805C0
:050D4D001DBDFF011CAB
:0E0D5200ED24D9FDEC34FFFC20E3067D947CFB
:030D60003C8018BC
:0C0D6300A81808E624F8F582D2F0C005BC
:0C0D6F00C00485F023120A11D004D00546
:0C0D7B00C005C004A81808868212092ACE
:0C0D870015811581A81808E624CEF87626
:0C0D930080C2AF75E40075E71DA81808C9
:0D0D9F00E624F825E025E0FD24D5F5E6A8C2
:0C0DAC0018088682C0051208F2AB83D044
:0C0DB800058BE575E71D74D62DF5E6A847
:0C0DC400180886821208F2AA828AE575DF
:0C0DD000E468D2AFA818088682121691C1
:030DDC00020F51B2
:0A0DDF00A81808E624DEF87600A844
:0A0DE9001808E624EEF9A81808E641
:0E0DF30024F825E025E0FF24D4901D00935441
:0D0E010030C4540F901A4193F774D52F9010
:0E0E0E001D0093FE5306078E037E008E058B9B
:0E0E1C000474D62F901D0093FF7E002DFDEE76
:0E0E2A003CFCC3ED9432EC94004022ED24CE4B
:0C0E3800FDEC34FFFCA81808E624F8F5D7
:0B0E440082D2F0C005C00485F023122C
:080E4F000A11D004D005800453
:040E57007DD07C07C7
:0C0E5B00430408C005C004A818088682E3
:0C0E670012092A15811581A81808E6243C
:0D0E7300CEF876A0C2AF75E40075E71DA8AB
:0C0E80001808E624F825E025E0FF24D542
:0C0E8C00F5E6A818088682C0071208F2DC
:0E0E9800AC83D0078CE575E71D74D62FF5E608
:0C0EA600A8180886821208F2AC828CE5C5
:0B0EB20075E468D2AFA8180886821211
:050EBD001691020F5127
:0C0EC200A8180886821208F2AC82AD83EA
:0C0ECE00A81808E624F825E025E024D44C
:0E0EDA00901D0093FF53073F740F5F901A3670
:0E0EE80093FEEFC4540FFFEC70047CFF800DEE
:0B0EF600C3EC9E4006ECC39EFC800293
:020F01007C0072
:0C0F03007E00C007C004C006A8180886C5
:0C0F0F008212092A15811581A81808E635
:0C0F1B0024F8F582D2F085F023120A11B0
:0B0F2700A818088682121691D007A8B7
:0A0F32001808E624CEF876C0A818CF
:0D0F3C0008E624EEF9EF901A4193FFF7A8A4
:080F49001808E624DEF876002A
:070F5100A8180806020B2D91
:050F58001581D01822F4
:020F5D007F0013
:030F5F00BF0800C8
:0E0F6200E433FE601EEE60188FF005F074019F
:020F70008002FD
:020F720025E078
:0E0F7400D5F0FBFE74FFC39EFE5284EE528544
:030F82000F80DA03
:0B0F85007580FF7528FF75D181E4F531
:0A0F900024F525C2AF75E40075E7F3
:0E0F9A001D75E60375E50075E71D75E6047527
:0E0FA800E50475E71D75E60C75E50075E71D9F
:0B0FB60075E60D75E5FF75E4687F002F
:030FC100BF10005E
:0E0FC4005015C007E4C0E0C0E08F8212092A79
:090FD20015811581D0070F80E69E
:020FDB007F0095
:030FDD00BF100042
:0E0FE000500FEF24EEF87600EF24CEF87600E6
:030FEE000F80EC85
:0E0FF100C28C5389F0438902758C47758A477C
:0E0FFF00D28C53B8FC43B80C53B7F443B7047C
:07100D00D2A9C28DD2AF226F
:0B1A3600010305080A0D0F12141D1912
:081A41003F7DBCFA1926325E5C
:0E101400C0E0C0D0C2AAC28E740F558924203D
:0E102200F589758B35758D80C28FD28ED2AB5D
:06103000755F02C203D24D
:0510360001755E00756C
:09103B005D00D202D0D0D0E032F9
:0C104400C023C0E0C0F0C082C083C00721
:0E105000C006C005C004C003C002C001C0003D
:0A105E00C0D075D000C018E581F580
:0A106800182404F581E55FFF24F170
:0510720050030215A768
:07107700EF2F2F90107E7394
:07107E000210AB0215A702EE
:06108500134102140102F8
:06108B00140A0214940295
:0610910015A70215A702DD
:0610970015A70215A702D7
:06109D0014B602151E024C
:0610A30015A70215420230
:0210A9001590A0
:0E10AB00C28E740F55892420F589758B8075CF
:0A10B9008D80C28FD28EE561B56212
:0410C3000302133AD7
:0810C700E5622453F98707C21A
:0C10CF00187DFE7E00EFA2E5E433FC2457
:0610DB00FF9219BF800026
:0510E100400302120EA5
:0C10E600C005C006EF2323540124FF9234
:0B10F2001A53071F8F82C007C005C003
:0C10FD00231208F2AA82AB83ACF0FED0F4
:0A11090023D005D007A81808A6029D
:0E11130008A60308A60408A606901D11E49382
:0E112100FE0EEF2FFD2EFC04901D0093FEB578
:04112F00070280062D
:06113300D006D005800F7C
:0E113900D006D0058C8275831DE493FCFD7EEC
:0111470000A7
:09114800BDFE06BE00030212E91F
:0A115100753CBC901D17E493FC8C64
:0A115B003D901D18E493FC8C3EED5E
:0C1165002DFD2417901D0093FE8E3F749A
:0A117100182D901D0093FE8E4075AE
:06117B004200301A057568
:041181004340800364
:031185007543802F
:0E118800901D12E4932F2FFE2F2404901D00C3
:0C11960093FE24F95006EE24FBFE8002BC
:0211A2007E01CC
:0C11A40074E02EF541EE24FE500F74069E
:0A11B0002E243CF9A818088605A7B4
:0311BA000580109D
:0C11BD00A81808743F56FAE4FBFCFDEA99
:0411C9002543F54382
:0C11CD00EE24FD500E74052E243CF9A801
:0711D9001808088605A705B0
:0C11E000EE24FC500F74042E243CF9A8EF
:0811EC00180808088605A70594
:0C11F400EE24FB501074032E243CF9A8DC
:0912000018080808088606A70674
:05120900D2180212E9F9
:0A120E00753CB0901D17E493FE8EAE
:0A1218003D901D18E493FE8E3E8504
:03122200353F85D0
:0A122500364053071FEF24FA500370
:03122F000212E7C1
:07123200EF2F2F901239731A
:071239000212E702124B0252
:06124000125702126E02BB
:05124600127F0212DF1F
:08124B0075416074C2253BF5FA
:04125300420212E75A
:0812570075416374432537F56E
:05125F004275434075DB
:061264004400754512D2A2
:04126A000F0212E776
:07126E00753F00754000759B
:0612750041E17542017524
:04127B004340806804
:02127F007F00EE
:0A128100C3EF9538503CE5397026A4
:0A128B00740A2F243CF87600AD3AF7
:0E1295007E008F037C00EB2DFDEC3EFEBD6065
:0B12A3001CBE0019740A2F243CF8A6A2
:0312AE0063800F4B
:0A12B100740A2F243CF9EF253A904F
:0512BB001D0093FEF789
:0312C0000F80BEDE
:0912C30074632538F541744245BD
:0612CC0037F542744045B5
:0412D20038F5438523
:0312D60039448513
:0312D9003A45D2C1
:0312DC000F800878
:0712DF00754160754281C2F8
:0112E6000EF9
:0212E700D2181B
:0812E90030190674DF553CF5D5
:0112F1003CC0
:0A12F20030183DC2AAE55F7032E536
:0A12FC00622453F9E7FF20E50774B0
:06130600204FF7756000A6
:0B130C0074FC256040051215F98016E6
:061317000562536207C2EB
:04131D000BC20F12DE
:0C13210015CBC28E758DF0758B00D28E3E
:05132D00D2AA0215A781
:0613320005625362070290
:0213380015A7F7
:07133A00C28ED2AA0215A722
:0A134100A28BB39218C28B755F03F4
:0A134B00758D00E55E700A755E0105
:05135500C204C2050204
:02135A0015A7D5
:0A135C00747F255E401C301808B2B3
:0413660003E55E2518
:03136A005DF55DD1
:05136D00E55E255EF5C0
:061372005E60030215A7F6
:06137800755E810215A75D
:0A137E00C28EC28FA203201801B333
:0A138800502CE55B700E74CCB55DCF
:0313920002D20480
:07139500740CB55D02D205E6
:07139C00200419200516E5ED
:0813A3005B24E94010E55B2426
:0613AB003CF8E55DF6626E
:0513B1005C055B8002F9
:0213B600C20172
:0513B800100B02801D76
:0713BD00300414300111752A
:0713C4006004100F02800914
:0713CB00E5372404F5375358
:0213D200373CA6
:0613D4001215CB0215A763
:0713DA0030011E20041B205E
:0C13E1000518740F55892410F589758DCE
:0C13ED00FA758B70D28E755F04D2AA02D4
:0213F90015A736
:0613FB001215CB0215A73C
:09140100758D80755F020215A7CC
:06140A0020090302148E0C
:0C141000E55B24F85078C28E740F5589FB
:0D141C002410F589758DEF758B42D28EC2BC
:0714290006E54130E71F85D5
:051430003F82C04012E4
:0B1435001643AF821581BFFF0280024A
:02144000D206D2
:09144200E53F701CE5407018D272
:03144B0006801404
:0C144E00901D17E493FFB53F0B901D1894
:08145A00E493FFB54002D20645
:0A14620074FFB55C21740F5541FFC3
:0C146C007E0074082FFFE43EFEAC5B7DA8
:0C14780000EFB5040BEEB50507D21030F4
:041484000602D20783
:06148800755F050215A7C7
:06148E001215CB0215A7A8
:09149400C28E30101330060AD29A
:05149D000C1215F9C25C
:0414A2000B0215A77D
:0614A6001215CB0215A790
:0614AC00D20D1215F9C279
:0414B2000B0215A76D
:0814B600E55B243CF9870730D7
:0414BE000C027FCCD1
:0514C200300D027F0C5B
:0914C700C2AA740AB55F02800399
:0314D0000215A75B
:0A14D300E55E247F402CE55E5F70AB
:0914DD0008D296C20AB203800293
:0214E600D20A28
:0814E800E55E7007755E01C2AC
:0314F00003800670
:0514F300E55E255EF539
:0114F8005E95
:0714F900E55E7003755E81E2
:05150000755F0B801374
:09150500200306D296C20A8002FE
:02150E00D20AFF
:06151000055B755E00752D
:021516005F0D67
:06151800758D120215A7FB
:0A151E00E55B70077401B55E02057D
:011528006062
:0A152900C296A20A828B5007C20B83
:051533001215CB80063B
:06153800755F0A758D6E5F
:04153E00C28B806577
:0E154200C296C28E740F55892410F589758DDE
:0A155000FB758B90D28E200C033047
:02155A000D057D
:05155C001215CB802BED
:0C156100740F5541FF7E0074072FFFE45B
:0C156D003EFEAC5B7D00C3EF9CEE648092
:0C1579008DF063F08095F05007D208124E
:0415850015CB8003FF
:03158900755F0E7D
:04158C00C28B801777
:0E159000C28E740F55892420F589758D6E75F5
:09159E008B80C28FD28E755F0AAA
:0615A700D202851881D07C
:0C15AD0018D0D0D000D001D002D003D064
:0E15B90004D005D006D007D083D082D0F0D069
:0415C700E0D023321B
:0A15CB00755F00C28BC28EC2AB75C3
:0A15D5005C00755B00C28E740F55B8
:0C15DF00892410F589758D89758BAFC2C9
:0A15EB000CC20DC28FD28ED2AAD21C
:0415F500ABC2102253
:0E15F900C28E740F55892420F589758D6E758C
:0C1607008B80C28F740F55412407FF75C3
:041613005CFF7E00FA
:0C161700C3EE9F500BEE243CF9E7FD628F
:041623005C0E80F0E9
:07162700EF243CF8A65CC2B1
:04162E0004C205D21B
:051632000B755F0A7555
:0A1637005E00755B00C2AAD28ED2DD
:02164100AB22DA
:0A164300C018858118AF827EFF9069
:08164D001D16E493FDBDFF0032
:0E1655005035901D16E493602E901D16E49300
:02166300FD1D6B
:0E166500ED6024ED2DFC2417901D0093FBEF8B
:0C167300B5031374182C901D0093FCE5C7
:0A167F001824FDF8E6B504028D06FC
:031689001D80D9E8
:05168C008E82D018223F
:07169100AF82C218BF400048
:0C169800501B8F82C007C0231219CFE541
:0C16A40082D023D0075444FEBE440280D4
:0116B0000435
:0416B100D218802AA1
:0916B500AD617E000DBD00010EC7
:0C16BE005305077E00AB627C00EBB50515
:0716CA0006ECB50602800EDC
:0816D100E5612453F8A60705AA
:0516D90061536107D21E
:0116DE0018F3
:0516DF00D28EA21822CA
:0A16E400C018E581F5182404F58113
:0916EE00C207AF4274C35FFEA8FD
:0516F7001808A643E500
:0916FC003FFC7049E5407045E532
:071705006320E0030219C993
:09170C00EE7020A81808B6C01AFE
:0C171500E55F70FCC2AF75E40075E71DD5
:0A17210075E6178544E58545E5757A
:04172B00E468D2AFED
:05172F00BE0102800371
:031734000219C9CE
:09173700A81808E660030219C9B4
:091740007582831216910219C989
:08174900E54130E70302191429
:0C175100901D17E493FBECB5030280032D
:03175D000219C9A5
:0B176000901D18E493FBB540028003CD
:03176B000219C997
:08176E00756400BE4202801BFD
:06177600BE43030218A8A7
:06177C00BE80030218CE3E
:06178200BE81030218F015
:06178800BE8303021909F3
:03178E000219C974
:06179100200E030219C93D
:0A179700743C5FF53BA81808E65407
:0A17A100F0F6A81808B680028003D5
:0317AB000218879A
:0B17AE00758281121691740F5543FFE5
:0A17B900E55F70FCC2AF75E400AA02
:0A17C3004474015A241CFCAE45A832
:0517CD00180808760079
:0C17D200A8180808C3E69F400302188214
:0C17DE00EA703CC002E5182403F8A606DF
:0C17EA00087600A818080886037D00E5BA
:0C17F600182403F8EB26FBED0836FDBBC1
:071802006005BD0002800437
:04180900D002802663
:0A180D00D002A8180808740A262467
:061817003CF98763801616
:0B181D008CE7A8180808E62EF5E6A8E6
:0A182800180808740A26243CF9870A
:01183200E5D0
:0A1833008E037D00A8180808E518D0
:0C183D002403F9E6F7097700E5182403FE
:0E184900F8E62BFB08E63D53033F7D00BB3F56
:0D18570022BD001F8F037D001BBBFF011D84
:0C186400E5182403F8E6B5030708E6B514
:0418700005028006E7
:0618740075E46875E40054
:08187A00A8180808060217D2A5
:0518820075E468D2AF1F
:09188700A81808E660030219C963
:0418900085433885CF
:031894004439854F
:06189700453A7582811242
:09189D0016917582841216910265
:0218A60019C95E
:0A18A800743C5FF53BA81808B680F9
:0418B2000343A20842
:0918B600A81808E660030219C934
:0D18BF0075828112169175828212169102B7
:0218CC0019C938
:0618CE00300E030219C9EF
:0418D400D20E853D6E
:0318D80035853E15
:0518DB0036753700C264
:0C18E0000F75D16075D20B75D3B375D1B4
:0418EC00610219C9B3
:0718F000E53DB53502800360
:0318F7000219C90A
:0718FA00E53EB53602800354
:031901000219C9FF
:05190400C20E0219C92A
:09190900758285121691C20E02CE
:0219120019C9F1
:06191400EE60030219C998
:0C191A00C0408C82121643AF821581BFC2
:05192600FF030219C9D6
:0E192B00901D11E493FEF58275831DE4932553
:0C193900E02EFD0EA8180874C056FCE457
:04194500BC8001045D
:01194900FCA1
:08194A00C3EE9D40030219C920
:0E1952008E8275831DE493FBEFB50366EE04F1
:0E196000901D0093FBF582C007C006C005C0B5
:0E196E0004C0031219CFAA82D003D004D00502
:0E197C00D006D007EC602EC00474145AFCBCD8
:04198A0014028004BF
:04198E00D004801FE2
:0E199200D0048B82C007C006C005C004C0038D
:0E19A000C002120960D002D003D004D005D0DE
:0319AE0006D00759
:0C19B100A81808E6700D53020CBA0C0CCC
:0719BD008B82120A0680056F
:0519C4000E0E02194A9D
:0619C900851881D01822F0
:0E19CF00AF82901D12E493FE0E0E0EEF2E2F2F
:0819DD002F901D0093F58222FA
:0E19E50075950075911475924CC29675892106
:0E19F300758F00C28CC28E758D80758B80C280
:0C1A01008FC20275A88075E80075B8045B
:0A1A0D0075B70CD28A75632EC2046F
:051A1700C205C20CC273
:041A1C000DC207D21E
:051A200009756100756D
:061A25006200753700C2EB
:041A2B000FC20E12C6
:031A2F0015CB22B2
:06005200E478FFF6D8FD82
:080030007900E94400601B7A2D
:0500380000901A497858
:03003D000075A0AB
:0A00400000E493F2A308B8000205E3
:08004A00A0D9F4DAF275A0FF61
:080058007800E84400600A7919
:030060000075A088
:0600630000E4F309D8FCE3
:080069007800E84400600C7906
:0B00710000900000E4F0A3D8FCD9FAD6
:0300230075816480
:0A002600121A32E582600302001E88
:041A32007582002297
:00000001FF
