:0E007F00C0E0C082C083C007C0D075D00005AD
:06008D0044C28D05325350
:070093003207E532705AE567
:07009A004C605630020CE53A
:0B00A1004C14901B9C93FF5280800ABF
:0A00AC00E54C14901B9493FF428072
:0800B600E54B7004D202803317
:0A00BE0074DF254B401EE542235479
:0A00C80001FF24FF9202E54B30E037
:0500D20004B202800BE6
:0700D700E542C54125E0C52B
:0400DE004133F54273
:0700E2007421B54B02D202AC
:0800E9007464B54B03754C0073
:0200F100054BBD
:0B00F300D0D0D007D083D082D0E03204
:0A00FE00C07D85817DC0820581A8C8
:0C0108007D0875F003E684AEF0740F551E
:080114005BFDA87D08B60C009C
:0B011C00400BA87D08E624F140030220
:02012700035380
:0D012900EE901B9493FC55286003020353D5
:06013600A87D08B60300DD
:0E013C00502674042E901B9493FC5528701AC4
:0C014A00ED24FF921892F0C006C005855D
:08015600F023A87D0886821247
:06015E000738D005D006B1
:0B016400A87D08E624FD4003020316FE
:06016F00A87D08B60600A1
:05017500400302031627
:0D017A008D037C00C006C005C003C004A8B2
:0C0187007D08868212067915811581D052
:0E01930005D00674075DFCFA7B001ABAFF0166
:0101A1001B42
:0C01A2008AF005F0A87D080874FF8002B8
:0201AE00C31379
:0A01B000D5F0FBF6EC700302029597
:0D01BA00ED30E348C005EE2417F98704A8D6
:0C01C7007D080886027D0074FFC39AFAD0
:0E01D300E49DFD8C037C00C3EA9BED64808CF0
:0E01E100F063F08095F0D0054013EE240BF98A
:0C01EF00EE2417F88604A87D0808E62C12
:0301FB00F7805931
:0801FE00EE240BF876FF80519E
:0C020600C005EE2417F98704A87D080845
:0E02120086027B00EE240EF987057F00ED2AA0
:0E022000FAEF3BFB7F00C3EC9AEF64808BF09B
:0E022E0063F08095F0D0054014EE240BF9EE3D
:0C023C002417F88607A87D0808EFC39679
:03024800F7800C30
:0C024B00EE240BF9EE240EF88607A7073E
:0D025700EE700D901DC6E493FF74075FF577
:0302640033801EC6
:0E026700BE0110901DC6E493C4540FFF74072F
:050275005FF534800B71
:0B027A00901DC7E493FF74075FF5358B
:0C028500EE242CF974C82E901D0093FF8D
:04029100F702031657
:0E029500EE700C901DCEE493FF740F5FFD80A1
:0102A3001A40
:0E02A400EE30E00C901DCEE493FFC4540FFD2D
:0202B200800AC0
:0A02B400901DC5E493FFC4540FFD34
:0E02BE00ED30E348EE240BF98707EE2417F924
:0E02CC008704C3EF9C5037EE2417F9870774A0
:0D02DA00CB2E901D0093FCC3EF9C5024A878
:0A02E7007D08E62439F974CF2E904B
:0902F1001D0093F7A87D08E62426
:0A02FA0033F974075DF7EE242FF9C5
:06030400870774014FF7AA
:0C030A00EE240BF9EE2417F88607A70775
:0A031600A87D08E624FA5035A87D02
:0403200008B6090012
:0C032400502DAC5C7F00C006C005C0047A
:0C033000C007A87D08868212067915819E
:0C033C001581D005D006C006C005C05CCD
:0B0348008E8212052F1581D005D00613
:0B035300A87D08E624F140030203E44B
:06035E00A87D08B61200A4
:0503640040030203E468
:0C036900EE901BA493FF55287071AD5C52
:07037500747F5DFFBF08006B
:0E037C0050668D047F00C006C005C004C00797
:0C038A00A87D0886821206791581158175
:0E039600D005D006ED30E724C2AF75E4007547
:0E03A400E71D74075D24E7FFEEC40354F8FC68
:0E03B2002FF5E6EE2417F987E575E468D2AF63
:0203C000802299
:0D03C200EEC40354F824E7FF74075D2F908C
:0D03CF001D0093FFC006C005C0078E8212FE
:0803DC00052F1581D005D006A4
:0B03E400A87D08E624F440030204BEDC
:0603EF00A87D08B60F0016
:0503F50040030204BEFC
:0E03FA0074015DFC901DC3E493FB74032E9010
:0E0408001B9493FA5B6C6048EE901B9493FC7F
:0E0416005528703E74DF2E901D0093FFC454D5
:0E0424000FFBBB0E0C74042E901B9493FB4236
:030432002880031C
:03043500EC42286E
:0E04380053070FEE241AF9C006C005C001C01C
:0E044600068F821204DEAC821581D001D00533
:04045400D006A70423
:0E04580074015DFC901DC3E493FB74032E90B1
:0E0466001B9493FA5B6C6050EE901B9493FC19
:0E0474005528604674DF2E901D0093C4540F6F
:0E048200FFEE901B9C93522874042E901B9C3E
:0E04900093FC5228BF0E0AEE2417F987048C45
:03049E00058011C5
:0E04A100C006C0068F821204DEAF821581D025
:0304AF00068F05B0
:0C04B200EE240BF8A605EE2417F8A605B2
:0904BE0074F0B5480474018001DA
:0104C700E450
:0404C800FFB401007C
:0C04CC00E433FFAE255E54F06002D20164
:0604D800857D81D07D222C
:0A04DE00C07D85817DAF827E00BFE6
:0C04E800010DE57D24FDF8E6240EF987E7
:0304F400058D066D
:0804F700EF24FE500EBF0C00C3
:0B04FF005009EF24FE901B7E93FDFED1
:0C050A00BF0C0DE57D24FDF8E62417F978
:0405160087058D06C2
:0A051A00BF0D0DE57D24FDF8E62479
:0605240029F987078F068C
:05052A008E82D07D224D
:0A052F00C07D85817DE582FF700D1F
:0C053900901DC6E493FE740F5EF5338045
:010545001E97
:0E054600BF0110901DC6E493C4540FFE740F45
:050554005EF534800B90
:0B055900901DC7E493FE740F5EF535A3
:0C056400E57D24FDF8E6603D74042F9056
:090570001B94934225D201EF9087
:0C0579001B94934226EF240EF98706E540
:0C0585007D24FDF8C3E69E400DEF240B22
:0A059100F8E57D24FDF9E7F680256A
:0E059B00EF240BF9EF240EF88606A706801752
:0E05A900EF240BF87600EF901B94934225D2BE
:0905B70001EF901B9C93FE5226FB
:0C05C000EF2433F9E7FE30E30EEF2417C0
:0B05CC00F9EF240BF88606A706800D4F
:0C05D700EF242CF974C82F901D0093FF36
:0105E300F720
:0305E400D07D22A5
:0A05E700AF8274402FF5820217B5B1
:0E05F100AF827E0075F003EF84ADF0BF030013
:0E05FF00E433FC600CED901B9493FB552660DA
:03060D00027E0169
:06061000EC700DBF0600B6
:0A0616005008ED2408F987048C0653
:03062000BF060012
:05062300400DBF0900BD
:0A0628005008ED2411F987048C0638
:03063200BF0900FD
:050635004011BF0C00A4
:0E063A00500CED901B9493FC552760027E013E
:03064800BF0C00E4
:05064B004011BF0F008B
:0E065000500CED901B9493FC552860027E0127
:03065E00BF0F00CB
:0A0661004008ED2414F987078F0606
:0E066B007F007D007C008E828F838DF0EC225C
:0A067900C07D85817DAF8275F0031E
:07068300EF84AEF0BF03009D
:0C068A00E433FD601CE57D24FCF8E6086C
:0D06960046700AEE901B9C93FC52268008D3
:0806A300EE901B9493FC42262B
:0606AB00ED7012BF060015
:0C06B100500DEE2408F9E57D24FCF886CD
:0306BD0005A70589
:0306C000BF060072
:0506C3004012BF090018
:0C06C800500DEE2411F9E57D24FCF886AD
:0306D40005A70572
:0306D700BF090058
:0506DA004021BF0C00EF
:0C06DF00501CE57D24FCF8E60846700A7B
:0A06EB00EE901B9C93FD522780083F
:0806F500EE901B9493FD4227D7
:0306FD00BF0C002F
:050700004021BF0F00C5
:0C070500501CE57D24FCF8E60846700A54
:0A071100EE901B9C93FD5228800817
:08071B00EE901B9493FD4228AF
:03072300BF0F0005
:0C072600400DEE2414F9E57D24FCF8865B
:0307320007A7070F
:03073500D07D2252
:0D073800AF82740F5FFE600EBE0102807084
:06074500BE020302081DC4
:03074B0002087C25
:0C074E0030183D901DD2E493FD74075D4F
:09075A00F533901DD3E493FD8DED
:0C0763002CD22C901DDAE493FD20E3035F
:03076F0002087C01
:0C077200901DDAE493FD74075DF53690ED
:0A077E001DDCE493FD8D3C74024580
:040788002FF52F0218
:02078C00087CE7
:07078E0074FD552FF52F90BB
:080795001DD7E493FD8D2CE556
:0C079D002C6010901DD6E493FD74075DE5
:0707A900F533D22802087CA1
:0507B000C22C02087CD0
:0C07B500301840901DD2E493C4540FFD96
:0907C1008D34901DD4E493FD8DEC
:0C07CA002DD22D901DDAE493FD20E703F2
:0307D60002087C9A
:0D07D900901DDAE493C4540FFD74075DF524
:0807E60037901DDDE493FD8D49
:0607EE003D74024530F5E8
:0407F4003002087C4B
:0707F80074FD5530F530904F
:0807FF001DD8E493FD8D2DE5EA
:0C0807002D600F901DD6E493C4540FFD2B
:060813008D34D229806340
:04081900C22D805F0D
:0C081D00301839901DC7E493C4540FFD3F
:090829008D35901DD5E493FD8D81
:0C0832002ED22E901DDBE493FD30E33E3F
:0C083E00901DDBE493FD74075DF538901D
:0A084A001DDEE493FD8D3E740245AF
:0508540031F5318023A5
:0708590074FD5531F53190EB
:080860001DD9E493FD8D2EE586
:0C0868002E600F901DDBE493C4540FFDC4
:060874008D35D22A80023E
:02087A00C22E8C
:0D087C00A22C722D922FA22E722F922FD23D
:0408890001BF0300A8
:05088D00400302091305
:0C089200301848EE901B9493FD55257023
:0C089E000C74042E901B9493FD554870C0
:0108AA00321B
:0C08AB00C007C006C02374C4C0E08F82E8
:0C08B700120B911581D023D006D007EF62
:0C08C300242CF9E7700CEF2417F9EF2447
:0608CF000BF88605A705E9
:0808D500EF901B9C93FD5225DE
:0C08DD0020183374042E901B9493FD55DA
:0A08E900486027EF2429F9EF2417D7
:0C08F300F88605A705EE242CF9E7600844
:0808FF00EE240BF87600800CDA
:0C090700EE2417F87600EE240BF87600C2
:0A091300EF30E516301813EE242C27
:0E091D00F9E7700CEE2417F9EE240BF88607AC
:02092B00A7071C
:01092D0022A7
:0D092E0075D16075D20075D31D75D16105BE
:06093B003FE4B53F020598
:010941004075
:0A094200E53F24FFFEE54034FFFF0F
:0B094C00EEF4FEEFF4FFE53F5206E57D
:050957004052077D0085
:03095C00BD0600D5
:0C095F00502EED2433F98704BC01028007
:01096B001576
:0E096C00EC2CFB901B8893CBA393FCEE520364
:07097A00EF5204EB4C600B8F
:0B098100ED2439F9E7FC6003EC14F7EB
:03098C000D80CD0E
:02098F007F00E7
:03099100BF0300A1
:0B099400506FEF2433F9E76041EF24BF
:0A099F0039F9E7703AEF242CF886CE
:0E09A90006A706EF240BF98706EF2417F9873F
:0E09B70005C3ED9E5008EF2417F9E7FE04F784
:0E09C500EF240BF98706EF2417F98705C3EE20
:0B09D3009D5008EF2417F9E7FE14F711
:0E09DE00EF901B9493FE5525601AEF2417F935
:0E09EC00E77013EF901B9C93522574042F901C
:0809FA001B9C93FE5225D20163
:030A02000F808CD6
:020A05007F036D
:030A0700BF060027
:0C0A0A005058EF24FDFEEF2439F9E7708E
:0C0A160034EE242FF9E7FD30E0107404EA
:0C0A22002E901B9C93FC5225D20174FE08
:020A2E005DF772
:0C0A3000EE242FF9E7FD30E112C2F0C007
:0C0A3C0007C00685F0238E82120738D018
:030A480006D007CE
:0E0A4B00EE901BA493FD5528700CEE241AF9B2
:080A5900EE2417F88606A7063B
:030A61000F80A360
:0D0A6400A22C722D922FA22E722F922F2203
:0C0A7100E5486525C4540FFFE525C4547A
:080A7D000FF5268526277E00F7
:030A8500BE0300AD
:0E0A88005058EE901B9493FD5F604CED552688
:0E0A96006021EE241AF987057C0074FE2CFC0A
:0E0AA400C007C006C0068D828C83120C0F1591
:070AB20081D006D00780127D
:0E0AB900C007C006C00690FE00120C0F15818B
:040AC700D006D0077E
:0C0ACB00E54C70FC74092EF582C007C0D9
:080AD700061217B5D006D00786
:030ADF000E80A3E3
:0D0AE20074F055254280740F45255280C2E6
:050AEF000185254822ED
:020AF4007F0978
:030AF600BF0C0032
:0D0AF900501A8F82C0071217B5D0077E007B
:030B0600BE1E0010
:020B0900500793
:070B0B00E53270FC0E80F4DE
:030B12000F80E170
:0E0B1500901DC2E493FF74075F901B7693FF60
:0D0B23008F0E901DC2E4935470C4540F90C7
:0E0B30001B7693FF8F0F901DC3E493FF740795
:0D0B3E005F901B7693FF8F107525008525B5
:030B4B00487F00E0
:030B4E00BF0300E2
:0C0B5100503DEF242FF87600EF2417F839
:0E0B5D007600C00774E2C0E08F82120B911583
:0C0B6B0081D007C218EF240BF9E76002EC
:020B7700D21892
:0C0B790074204FFEA21892F0C00785F017
:0B0B8500238E82120738D0070F80BEBD
:010B90002242
:0A0B9100C07D85817DAF827E00EFFC
:0B0B9B007012E57D24FDF88682758352
:090BA6001DE493FD53050F8029A5
:0C0BAF00EF30E112E57D24FDF8E6049033
:0A0BBB001D0093FC740F5CFD801315
:0A0BC500E57D24FDF8868275831D8E
:090BCF00E49354F0FCC4540FFD42
:040BD800ED7001FEBD
:0B0BDC00BD0108EF240EF987048C0611
:080BE700ED24FE500EBD0C00D0
:0B0BEF005009ED24FE901B7E93FCFEDD
:0B0BFA00BD0D08EF2429F987058D06CA
:090C0500EF240BF8A606D07D22B5
:010C0E0022C3
:0A0C0F00C07D85817DAE82AF838E2B
:040C1900418F42C203
:050C1D0002754B00E52B
:070C22007D24FDF8E604FF4C
:040C2900E54C70FC2A
:070C2D00E57770FCC2048FA3
:050C34004C2004F1D08A
:020C39007D221A
:0D0C3B007580007584007585FFC2A9E4F581
:0A0C48003FF54075D181C2AF75E49D
:0E0C52000075E71D75E60375E50075E71D7575
:0E0C6000E60475E50475E71D75E60C75E50004
:0E0C6E0075E71D75E60D75E5FF75E468C28C2F
:0E0C7C005389F0438902758C40758A40D28CF2
:0E0C8A0053B8FD53B7FD43B80243B708C28DFF
:080C9800D2A9D2AF53800F2254
:081B76000F1E2E3D4D5C6B7F3C
:0A1B7E0019334B66809AB3CCE6FEE3
:0C1B880000000000080080000008008041
:081B940001020408102040804A
:081B9C00FEFDFBF7EFDFBF7F48
:041BA4000B162C5898
:0E0CA000AE82AF837C307D00BE0307BF000430
:040CAE007CF07D5FFA
:0A0CB200BE0607BF00047CF07D2F92
:0A0CBC00BE0C07BF00047CF07D179A
:0A0CC600BE1807BF00047CF07D2F6C
:0A0CD000BE3007BF00047CF07D0574
:0A0CDA00BE6007BF00047CF07D023D
:0A0CE400BEC007BF00047C707D0154
:0A0CEE00BE8007BF01047CB07D004A
:0A0CF800BE4007BF02047C707D00BF
:0E0D020053BDFE5391FC5392FC75985043BABA
:0E0D1000E043BD028DBF8CBE43BD01D29922CF
:0A0D1E00C07D85817DC082C083D2B4
:0A0D2800187C007D007A007B00A813
:070D32007D08860608860714
:0E0D3900C3EE9410EF9427401B0ABA00010B82
:0D0D47008A048B05EE24F0FEEF34D8FFA8DF
:090D54007D08A60608A60780DC54
:0C0D5D008A048B05A87D08A60608A607DE
:040D6900EA4B600EE3
:050D6D0010990280FB5B
:090D72008C0774302FF599C218AA
:0C0D7B007C007D007E007F00A87D0886C3
:040D870002088603D5
:0E0D8B00C3EA94E8EB9403401B0EBE00010F78
:0D0D99008E048F05EA2418FAEB34FCFBA849
:090DA6007D08A60208A60380DC0A
:0C0DAF008E048F05A87D08A60208A6038C
:070DBB00EE4F700320180E3B
:050DC20010990280FB06
:090DC7008C0774302FF599C21855
:0C0DD0007C007D007E007F00A87D08866E
:040DDC000208860380
:0E0DE000C3EA9464EB9400401B0EBE00010FAA
:0D0DEE008E048F05EA249CFAEB34FFFBA86D
:090DFB007D08A60208A60380DCB5
:0C0E04008E048F05A87D08A60208A60336
:070E1000EE4F700320180EE5
:050E170010990280FBB0
:090E1C008C0774302FF599C218FF
:0C0E25007C007D007E007F00A87D088618
:040E3100020886032A
:0E0E3500C3EA940AEB9400401B0EBE00010FAE
:0D0E43008E048F05EA24F6FAEB34FFFBA8BD
:090E50007D08A60208A60380DC5F
:0C0E59008E048F05A87D08A60208A603E1
:070E6500EE4F700320180A94
:050E6C0010990280FB5B
:050E710074302CF5991E
:050E760010990280FB51
:0B0E7B00A87D08860674302EF59985CE
:050E86007D81D07D22FA
:080E8B00AD82AE83AFF07C00E4
:0E0E9300EC2DF9E43EFA8F0389828A838BF0FE
:090EA100121B56FB6029BB0A0874
:050EAA0010990280FB1D
:030EAF0075990D25
:050EB20010990280FB15
:0E0EB700EC2DF9E43EFA8F0389828A838BF0DA
:0B0EC500121B56F5990CEC240150C3E1
:010ED00022FF
:0E0ED100AC82AD83AEF0FF8E828F83C007C06F
:0E0EDF0006C005C004120EF6D004D005D006E1
:090EED00D0078C828D83020EF601
:0E0EF600AE82AF838F82C007C006120F0CD0F1
:080F040006D0078E82020F0CDB
:0E0F0C00E582FFC4540F901BA893F582C00726
:0E0F1A00120F2BD007740F5F901BA893F58267
:030F2800020F2B8A
:020F2B00AF8293
:050F2D0010990280FB99
:030F32008F992272
:0E1BA800303132333435363738394142434418
:021BB6004546A2
:0400000002002332A5
:03000B0002007F71
:030013000211389F
:03001B0002116867
:03007C0002001E61
:05001E00120F3580FE09
:0E0F3500121B09900480120CA0901BFFE49385
:0E0F4300FF901BFFE493AD962DFE8E96C29795
:020F51007E0020
:030F5300BE3200AB
:0E0F5600501AC28C901D17E493F58C901D1854
:080F6400E493F58AC28DD28CE2
:060F6C00308DFD0E80E156
:0E0F72007E00C007C006120C3B120AF4D00627
:020F8000D00798
:0B0F8200901D0DE493FDBDFF028003F5
:030F8D00021077D8
:060F90003010030210778F
:080F9600E57B30E00302107757
:070F9E00E577600302105328
:070FA500E54C60030210534C
:0A0FAC00EE240BF98705EE2417F977
:0C0FB6008704EDB50447EE2411F987050F
:0C0FC200EE2417F98704EDB50402803519
:0A0FCE00EE2411F9EE2417F8860551
:020FD800A7056B
:0C0FDA00E54C70FC74062EF582C007C0C8
:0E0FE60006121AF3E582D006D00730E610742A
:0E0FF400062EF582C007C0061217B5D006D033
:0110020007E6
:0A100300EE241AF98705EE24FBF92C
:08100D008704EDB504028034F4
:0C101500EE901B9493FD5526601EEE2407
:0C1021001AF987057C004304FEC007C0DC
:0E102D0006C0068D828C83120C0F1581D00632
:02103B00D007DC
:0A103D00EE24FBF9EE241AF88605F4
:02104700A705FB
:03104900BE0200E4
:05104C0050030E8002BC
:021051007E001F
:0C10530030010BC007C006120A71D00665
:02105F00D007B8
:03106100109800E4
:0E106400748025D15031C007C00612092ED06D
:0510720006D0078024F8
:0C107700748025D1501E30101B75D16113
:0A108300E57C24914004057C800EFA
:0E108D00758285C007C0061217B5D006D007C1
:0A109B00E57A145407246BF9870569
:0610A50020090DBD06004C
:0A10AB005017ED24F75012300A0F21
:0910B500C209C20AC007C00612FC
:0610BE001808D006D0075F
:0710C400D29720975D7D64C7
:0910CB008D041C8C05ED70F8FD8C
:0310D40020971A48
:0C10D700748025D150FAED240140010D79
:0E10E30075D16075D20175D3CD75D16180E3F2
:0310F100BD7D00C2
:0710F4005005637B81801FA2
:0310FB00BDFA003B
:0710FE0050050F0596800369
:031105001F15961D
:0E110800C2AF75E40075E71B75E6FF8FE57555
:04111600E468D2AF08
:0C111A0075D16075D20075D31D75D161D0
:08112600E57B5401FDB401005A
:0A112E00E433FD24FF9297020F82C4
:021D1700FFFFCC
:0E113800C0E0C0D0C2AAC28E740F5589242018
:0E114600F589758B35758D80C28FD28ED2AB38
:06115400757702C205D20E
:05115A0003757600752D
:09115F007500D204D0D0D0E032BA
:0C116800C023C0E0C0F0C082C083C007FC
:0E117400C006C005C004C003C002C001C00018
:0A118200C0D075D000C07DE581F5F6
:0A118C007D2404F581E577FF24F1CE
:0511960050030216CB1E
:07119B00EF2F2F9011A2734A
:0711A2000211CF0216CB027F
:0611A90014650215250289
:0611AF00152E0215B80226
:0611B50016CB0216CB026E
:0611BB0016CB0216CB0268
:0611C10015DA02164202DD
:0611C70016CB02166602C1
:0211CD0016B456
:0E11CF00C28E740F55892420F589758B8075AA
:0A11DD008D80C28FD28EE579B57ABD
:0411E7000302145E8D
:0811EB00E57A246BF98707C2C5
:0C11F300187DFE7E00EFA2E5E433FC2432
:0611FF00FF9219BF800001
:0512050040030213325A
:0C120A00C005C006EF2323540124FF920E
:0B1216001A53071F8F82C007C005C0DD
:0C122100231205F1AA82AB83ACF0FED0D2
:0A122D0023D005D007A87D08A60213
:0E12370008A60308A60408A606901D11E4935D
:0E124500FE0EEF2FFD2EFC04901D0093FEB553
:041253000702800608
:06125700D006D005800F57
:0E125D00D006D0058C8275831DE493FCFD7EC7
:01126B000082
:09126C00BDFE06BE000302140DD4
:0A1275007554BC901D17E493FC8C27
:0A127F0055901D18E493FC8C56ED09
:0C1289002DFD2417901D0093FE8E57745D
:0A129500182D901D0093FE8E587571
:06129F005A00301A05752B
:0412A5005B40800327
:0312A900755B80F2
:0E12AC00901D12E4932F2FFE2F2404901D009E
:0C12BA0093FE24F95006EE24FBFE800297
:0212C6007E01A7
:0C12C80074E02EF559EE24FE500F740661
:0A12D4002E2454F9A87D088605A712
:0312DE0005801078
:0C12E100A87D08743F56FAE4FBFCFDEA0F
:0412ED00255BF55B2D
:0C12F100EE24FD500E74052E2454F9A8C4
:0712FD007D08088605A70526
:0C130400EE24FC500F74042E2454F9A8B1
:081310007D0808088605A70509
:0C131800EE24FB501074032E2454F9A89E
:091324007D080808088606A706EA
:05132D00D21802140DAE
:0A1332007554B0901D17E493FE8E71
:0A133C0055901D18E493FE8E5685AF
:031346004D57857B
:0A1349004E5853071FEF24FA50031B
:0313530002140B76
:07135600EF2F2F90135D73D0
:07135D0002140B02136F02E2
:06136400137B021392024C
:05136A0013A3021403AF
:08136F0075596074C22553F5A5
:041377005A02140BF7
:08137B007559637443254FF519
:051383005A755B407586
:061388005C00755D12D24D
:04138E001102140B29
:071392007557007558007546
:0613990059E1755A0175CF
:04139F005B408068C7
:0213A3007F00C9
:0A13A500C3EF9550503CE55170264F
:0A13AF00740A2F2454F87600AD52A2
:0E13B9007E008F037C00EB2DFDEC3EFEBD6040
:0B13C7001CBE0019740A2F2454F8A665
:0313D2007B800F0E
:0A13D500740A2F2454F9EF255290FA
:0513DF001D0093FEF764
:0313E4000F80BEB9
:0913E70074632550F55974424568
:0613F0004FF55A74404560
:0413F60050F55B85CE
:0313FA00515C85BE
:0313FD00525DD26C
:0314000011800850
:07140300755960755A81C2A2
:01140A0010D1
:02140B00D218F5
:08140D0030190674DF5554F597
:011415005482
:0A14160030183DC2AAE5777032E5F8
:0A1420007A246BF9E7FF20E507745A
:06142A00204FF775780069
:0B14300074FC2578400512171D801683
:06143B00057A537A07C296
:041441000DC21112B5
:0C14450016EFC28E758DF0758B00D28EF4
:05145100D2AA0216CB37
:06145600057A537A07023B
:02145C0016CBAD
:07145E00C28ED2AA0216CBD8
:0A146500A28BB39218C28B757703B7
:0A146F00758D00E576700A757601B0
:05147900C206C20702DB
:02147E0016CB8B
:0A148000747F2576401C301808B276
:04148A0005E57625D9
:03148E0075F5757C
:05149100E5762576F56B
:061496007660030216CB94
:06149C007576810216CBFB
:0A14A200C28EC28FA205201801B30C
:0A14AC00502CE573700E74CCB5757A
:0314B60002D20659
:0714B900740CB57502D207A7
:0714C000200619200716E5C4
:0814C7007324E94010E57324D1
:0614CF0054F8E575F66219
:0514D5007405738002A4
:0214DA00C2034B
:0514DC00100D02801D4F
:0714E1003006143003117501
:0714E80078041011028009D5
:0714EF00E54F2404F54F5303
:0214F6004F3C69
:0614F8001216EF0216CBF4
:0714FE0030031E20061B2035
:0C1505000718740F55892410F589758DA6
:0C151100FA758B70D28E757704D2AA0296
:02151D0016CBEB
:06151F001216EF0216CBCC
:09152500758D807577020216CB6A
:06152E00200B030215B2C0
:0C153400E57324F85078C28E740F5589BE
:0D1540002410F589758DEF758B42D28EC297
:07154D0008E55930E71F8596
:051554005782C058128F
:0B1559001767AF821581BFFF02800200
:02156400D208AB
:09156600E557701CE5587018D21D
:03156F00088014DD
:0C157200901D17E493FFB5570B901D1857
:08157E00E493FFB55802D20806
:0A15860074FFB57421740F5559FF6E
:0C1590007E0074082FFFE43EFEAC737D6B
:0C159C0000EFB5040BEEB50507D21230CD
:0415A8000802D2095A
:0615AC007577050216CB65
:0615B2001216EF0216CB39
:0915B800C28E30121330080AD271
:0515C1000E12171DC20F
:0415C6000D0216CB31
:0615CA001216EF0216CB21
:0615D000D20F12171DC22C
:0415D6000D0216CB21
:0815DA00E5732454F987073082
:0415E2000E027FCCAA
:0515E600300F027F0C34
:0915EB00C2AA740AB5770280035C
:0315F4000216CB11
:0A15F700E576247F402CE5765F7056
:0916010008D296C20CB205800269
:02160A00D20C00
:08160C00E5767007757601C256
:0316140005800648
:05161700E5762576F5E3
:01161C007657
:07161D00E57670037576818C
:0516240075770B801337
:09162900200506D296C20C8002D5
:02163200D20CD8
:06163400057375760075D8
:02163A00770D2A
:06163C00758D120216CBB1
:0A164200E57370077401B576020528
:01164C007825
:0A164D00C296A20C828B5007C20D5A
:051657001216EF8006F1
:06165C0075770A758D6E22
:04166200C28B806552
:0E166600C296C28E740F55892410F589758DB9
:0A167400FB758B90D28E200E033020
:02167E000F0556
:051680001216EF802BA3
:0C168500740F5559FF7E0074072FFFE41E
:0C1691003EFEAC737D00C3EF9CEE648055
:0C169D008DF063F08095F05007D20A1227
:0416A90016EF8003B5
:0316AD0075770E40
:0416B000C28B801752
:0E16B400C28E740F55892420F589758D6E75D0
:0916C2008B80C28FD28E75770A6D
:0616CB00D204857D81D0F0
:0C16D1007DD0D0D000D001D002D003D0DA
:0E16DD0004D005D006D007D083D082D0F0D044
:0416EB00E0D02332F6
:0A16EF00757700C28BC28EC2AB7586
:0A16F9007400757300C28E740F5563
:0C170300892410F589758D89758BAFC2A3
:0A170F000EC20FC28FD28ED2AAD2F2
:04171900ABC212222B
:0E171D00C28E740F55892420F589758D6E7566
:0C172B008B80C28F740F55592407FF7586
:0417370074FF7E00BD
:0C173B00C3EE9F500BEE2454F9E7FD6252
:04174700740E80F0AC
:07174B00EF2454F8A674C25C
:0417520006C207D2F2
:051756000D75770A7516
:0A175B007600757300C2AAD28ED288
:02176500AB22B5
:0A176700C07D85817DAF827EFF907A
:081771001D16E493FDBDFF000D
:0E1779005035901D16E493602E901D16E493DB
:02178700FD1D46
:0E178900ED6024ED2DFC2417901D0093FBEF66
:0C179700B5031374182C901D0093FCE5A2
:0A17A3007D24FDF8E6B504028D0672
:0317AD001D80D9C3
:0517B0008E82D07D22B5
:0717B500AF82C218BF400023
:0C17BC00501B8F82C007C023121AF3E5F7
:0C17C80082D023D0075444FEBE440280AF
:0117D4000410
:0417D500D218802A7C
:0917D900AD797E000DBD00010E8A
:0C17E2005305077E00AB7A7C00EBB505D8
:0717EE0006ECB50602800EB7
:0817F500E579246BF8A6070555
:0517FD0079537907D2C9
:0118020018CD
:05180300D28EA21822A4
:0A180800C07DE581F57D2404F58123
:09181200C209AF5A74C35FFEA8BD
:05181B007D08A65BE55D
:0918200057FC7049E5587045E5DC
:071829007B20E003021AED31
:09183000EE7020A87D08B6C01A74
:0C183900E57770FCC2AF75E40075E71D98
:0A18450075E617855CE5855DE57525
:04184F00E468D2AFC8
:05185300BE010280034C
:03185800021AED84
:09185B00A87D08E66003021AED05
:091864007582831217B5021AED1A
:08186D00E55930E703021A38C7
:0C187500901D17E493FBECB50302800308
:03188100021AED5B
:0B188400901D18E493FBB55802800390
:03188F00021AED4D
:08189200757C00BE4202801BC0
:06189A00BE43030219CC5D
:0618A000BE80030219F2F4
:0618A600BE8103021A14CA
:0618AC00BE8303021A2DA9
:0318B200021AED2A
:0618B500201003021AEDF1
:0A18BB00743C5FF553A87D08E65465
:0A18C500F0F6A87D08B6800280034B
:0318CF000219AB50
:0B18D2007582811217B5740F555BFF83
:0A18DD00E57770FCC2AF75E400AAC5
:0A18E7005C74015A241CFCAE5DA8DD
:0518F1007D08087600EF
:0C18F600A87D0808C3E69F40030219A665
:0C190200EA703CC002E57D2403F8A60654
:0C190E00087600A87D080886037D00E52F
:0C191A007D2403F8EB26FBED0836FDBB36
:071926006005BD0002800412
:04192D00D00280263E
:0A193100D002A87D0808740A2624DD
:06193B0054F9877B8016C1
:0B1941008CE7A87D0808E62EF5E6A85C
:0A194C007D0808740A262454F98768
:01195600E5AB
:0A1957008E037D00A87D0808E57DE1
:0C1961002403F9E6F7097700E57D240374
:0E196D00F8E62BFB08E63D53033F7D00BB3F31
:0D197B0022BD001F8F037D001BBBFF011D5F
:0C198800E57D2403F8E6B5030708E6B58A
:0419940005028006C2
:0619980075E46875E4002F
:08199E00A87D0808060218F6F6
:0519A60075E468D2AFFA
:0919AB00A87D08E66003021AEDB4
:0419B400855B50857A
:0319B8005C5185FA
:0619BB005D5275828112ED
:0919C10017B57582841217B502F6
:0219CA001AED14
:0A19CC00743C5FF553A87D08B68057
:0419D6000343A2081D
:0919DA00A87D08E66003021AED85
:0D19E3007582811217B57582821217B50248
:0219F0001AEDEE
:0619F200301003021AEDA3
:0419F800D21085552F
:0319FC004D8556C0
:0519FF004E754F00C20F
:0C1A04001175D16075D20B75D3B375D18C
:041A100061021AED68
:071A1400E555B54D0280030A
:031A1B00021AEDBF
:071A1E00E556B54E028003FE
:031A2500021AEDB5
:051A2800C210021AEDDE
:091A2D007582851217B5C2100282
:021A36001AEDA7
:061A3800EE6003021AED4E
:0C1A3E00C0588C82121767AF821581BF60
:051A4A00FF03021AED8C
:0E1A4F00901D11E493FEF58275831DE493252E
:0C1A5D00E02EFD0EA87D0874C056FCE4CD
:041A6900BC80010438
:011A6D00FC7C
:081A6E00C3EE9D4003021AEDD6
:0E1A76008E8275831DE493FBEFB50366EE04CC
:0E1A8400901D0093FBF582C007C006C005C090
:0E1A920004C003121AF3AA82D003D004D005B8
:0E1AA000D006D007EC602EC00474145AFCBCB3
:041AAE00140280049A
:041AB200D004801FBD
:0E1AB600D0048B82C007C006C005C004C00368
:0E1AC400C0021200FED002D003D004D005D024
:031AD20006D00734
:0C1AD500A87D08E6700D53020CBA0C0C42
:071AE1008B821205E780056E
:051AE8000E0E021A6E53
:061AED00857D81D07D2201
:0E1AF300AF82901D12E493FE0E0E0EEF2E2F0A
:081B01002F901D0093F58222D4
:0E1B090075950075911475924CC296758921E0
:0E1B1700758F00C28CC28E758D80758B80C25A
:0C1B25008FC20475A88075E80075B80434
:0A1B310075B70CD28A757B2EC20630
:051B3B00C207C20EC24A
:041B40000FC209D2F5
:051B44000B757900752E
:061B49007A00754F00C296
:041B4F0011C210129D
:031B530016EF2268
:06005200E478FFF6D8FD82
:080030007900E94400601B7A2D
:0500380000901BB878E8
:03003D000075A0AB
:0A00400000E493F2A308B8000205E3
:08004A00A0D9F4DAF275A0FF61
:080058007800E84400600A7919
:030060000075A088
:0600630000E4F309D8FCE3
:080069007800E84400600C7906
:0B00710000900000E4F0A3D8FCD9FAD6
:0300230075817D67
:0A002600121B72E582600302001E47
:0E1B560020F71430F6148883A88220F507E6E5
:061B6400A8837583002236
:031B6A00E280F71F
:031B6D00E49322DC
:021B7000E02271
:041B72007582002256
:00000001FF
