:0400000002002332A5
:03000B00020532B9
:030013000210CF09
:03001B000210FFD1
:03007C0002001E61
:05001E0012007F80FECE
:09007F007F00C218C007C0231263
:0C0088001A9CD023D007901BFFE493FECD
:0E009400901BFFE493AC962CFD8D9653BDFEA1
:0E00A2005391FC5392FC75985043BAE043BD55
:0E00B0000275BF2F75BEF043BD01759955C294
:0300BE00977D002B
:0300C100BD32004D
:0E00C400501AC28C901D17E493F58C901D18F5
:0800D200E493F58AC28DD28C83
:0600DA00308DFD0D80E1F8
:0B00E0007D00C007C006C005C0231251
:0500EB00106DD023C0E0
:0500F00023120F53D0A4
:0700F50023D005D006D0075F
:0B00FC00901D0DE493FCBCFF0280038C
:0301070002020BE6
:06010A0030100302020B9D
:08011000E57730E00302020B69
:0A011800ED240BF98704ED2417F91C
:0C0122008703ECB50353ED2411F98704AA
:0C012E00ED2417F98703ECB503028041B3
:0A013A00ED2411F9ED2417F88604F6
:0E014400A70474062DF582C007C006C005C0D2
:0701520023121A86E582D09A
:0C01590023D005D006D00730E61874064D
:0C0165002DF582C007C006C005C02312A3
:0A017100173AD023D005D006D007BE
:03017B00BD0200C2
:05017E0050030D80029A
:020183007D00FD
:05018500109802804A01
:05018A00AC99BC630804
:05018F0010990280FB45
:0301940075995505
:06019700BC2B0315961EAF
:06019D00BC2D0305960EC7
:0E01A300BC7712C2AF75E40075E71B75E6FF6E
:0701B1008EE575E468D2AF92
:0601B800BC7003637781B7
:0301BE00BC760804
:0501C10010990280FB13
:0301C60075990028
:0301C900BC7408FB
:0501CC0010990280FB08
:0301D1007599001D
:0A01D40074F625325019E53224F6C6
:0A01DE00F532C007C006C005C023BB
:0B01E800120DAFD023D005D006D007C9
:0A01F300300141C007C006C005C07E
:0501FD0023120EFED0EC
:0902020023D005D006D007802CA2
:0C020B00748025D1502630102375D1617D
:0A021700E578249140040578801674
:0C022100758285C007C006C005C023120E
:0A022D00173AD023D005D006D00701
:0A023700E5761454072467F98704E4
:0602410020080DBC0600C0
:0A024700501FEC24F7501A3009177D
:0A025100C208C209C007C006C005BC
:06025B00C02312178DD034
:0702610023D005D006D007F1
:08026800D297209712BFFF009E
:0502700050030F801295
:06027500201803637781ED
:04027B00D21880080D
:06027F00EF60031F800286
:02028500C2189D
:08028700E5775401FCB401000D
:0B028F00E433FC24FF92970200FC22E5
:0E029A00AE82AF837C307D00BE0307BF000440
:0402A8007CF07D5F0A
:0A02AC00BE0607BF00047CF07D2FA2
:0A02B600BE0C07BF00047CF07D17AA
:0A02C000BE1807BF00047CF07D2F7C
:0A02CA00BE3007BF00047CF07D0584
:0A02D400BE6007BF00047CF07D024D
:0A02DE00BEC007BF00047C707D0164
:0A02E800BE8007BF01047CB07D005A
:0A02F200BE4007BF02047C707D00CF
:0E02FC0053BDFE5391FC5392FC75985043BACB
:0E030A00E043BD028DBF8CBE43BD01D29922DF
:0A031800C079858179C082C083D2CC
:0A032200187C007D007A007B00A823
:07032C007908860608860728
:0E033300C3EE9410EF9427401B0ABA00010B92
:0D0341008A048B05EE24F0FEEF34D8FFA8EF
:09034E007908A60608A60780DC68
:0C0357008A048B05A87908A60608A607F2
:04036300EA4B600EF3
:0503670010990280FB6B
:09036C008C0774302FF599C218BA
:0C0375007C007D007E007F00A8790886D7
:0403810002088603E5
:0E038500C3EA94E8EB9403401B0EBE00010F88
:0D0393008E048F05EA2418FAEB34FCFBA859
:0903A0007908A60208A60380DC1E
:0C03A9008E048F05A87908A60208A603A0
:0703B500EE4F700320180E4B
:0503BC0010990280FB16
:0903C1008C0774302FF599C21865
:0C03CA007C007D007E007F00A879088682
:0403D6000208860390
:0E03DA00C3EA9464EB9400401B0EBE00010FBA
:0D03E8008E048F05EA249CFAEB34FFFBA87D
:0903F5007908A60208A60380DCC9
:0C03FE008E048F05A87908A60208A6034B
:07040A00EE4F700320180EF5
:0504110010990280FBC0
:090416008C0774302FF599C2180F
:0C041F007C007D007E007F00A87908862C
:04042B00020886033A
:0E042F00C3EA940AEB9400401B0EBE00010FBE
:0D043D008E048F05EA24F6FAEB34FFFBA8CD
:09044A007908A60208A60380DC73
:0C0453008E048F05A87908A60208A603F5
:07045F00EE4F700320180AA4
:0504660010990280FB6B
:05046B0074302CF5992E
:0504700010990280FB61
:0B047500A87908860674302EF59985E2
:050480007981D0792212
:08048500AD82AE83AFF07C00F4
:0E048D00EC2DF9E43EFA8F0389828A838BF00E
:09049B00121AEBFB6029BB0A08F0
:0504A40010990280FB2D
:0304A90075990D35
:0504AC0010990280FB25
:0E04B100EC2DF9E43EFA8F0389828A838BF0EA
:0B04BF00121AEBF5990CEC240150C35D
:0104CA00220F
:0E04CB00AC82AD83AEF0FF8E828F83C007C07F
:0E04D90006C005C0041204F1D004D005D00600
:0A04E700D0078C828D831204F122ED
:0E04F100AE82AF838F82C007C006120508D00E
:0904FF0006D0078E8212050822C6
:0E050800E582FFC4540F901B0B93F582C007D1
:0E051600120528D007740F5F901B0B93F5821F
:040524001205282272
:02052800AF82A0
:05052A0010990280FBA6
:03052F008F99227F
:0E1B0B003031323334353637383941424344B5
:021B190045463F
:0A053200C0E0C0D005420532C28DC2
:0C053C00C3E51A95424007302C04D28021
:0205480080022F
:02054A00C2806D
:0C054C00C3E51B95424007302D04D2810E
:0205580080021F
:02055A00C2815C
:0C055C00C3E51C95424007302E04D282FB
:0205680080020F
:02056A00C2824B
:0B056C00C3E51D95424004D2838002CD
:02057700C2833D
:05057900D0D0D0E032FB
:0A057E00C079858179C0820581A84B
:0C058800790875F003E684AEF0740F559E
:0805940057FDA87908B60C0020
:0B059C00400BA87908E624F1400302A0
:0205A70007D378
:0D05A900EE901B3993FC552860030207D328
:0605B600A87908B603005D
:0E05BC00502674042E901B3993FC5528701A9B
:0C05CA00ED24FF921892F0C006C00585D9
:0805D600F023A87908868212C7
:0605DE000BB9D005D006A8
:0B05E400A87908E624FD4003020796FA
:0605EF00A87908B6060021
:0505F50040030207961F
:0D05FA008D037C00C006C005C003C004A82E
:0C06070079088682120AFA15811581D04C
:0E06130005D00674075DFCFA7B001ABAFF01E1
:010621001BBD
:0C0622008AF005F0A879080874FF800237
:02062E00C313F4
:0A063000D5F0FBF6EC70030207158D
:0D063A00ED30E348C005EE2417F98704A851
:0C06470079080886027D0074FFC39AFA4F
:0E065300E49DFD8C037C00C3EA9BED64808C6B
:0E066100F063F08095F0D0054013EE240BF905
:0C066F00EE2417F88604A8790808E62C91
:03067B00F78059AC
:08067E00EE240BF876FF805119
:0C068600C005EE2417F98704A8790808C5
:0E06920086027B00EE240EF987057F00ED2A1C
:0E06A000FAEF3BFB7F00C3EC9AEF64808BF017
:0E06AE0063F08095F0D0054014EE240BF9EEB9
:0C06BC002417F88607A8790808EFC396F9
:0306C800F7800CAC
:0C06CB00EE240BF9EE240EF88607A707BA
:0D06D700EE700D901DC6E493FF74075FF5F3
:0306E40033801E42
:0E06E700BE0110901DC6E493C4540FFF7407AB
:0506F5005FF534800BED
:0B06FA00901DC7E493FF74075FF53507
:0C070500EE242CF974C82E901D0093FF08
:04071100F70207964E
:0E071500EE700C901DCEE493FF740F5FFD801C
:010723001ABB
:0E072400EE30E00C901DCEE493FFC4540FFDA8
:02073200800A3B
:0A073400901DC5E493FFC4540FFDAF
:0E073E00ED30E348EE240BF98707EE2417F99F
:0E074C008704C3EF9C5037EE2417F98707741B
:0D075A00CB2E901D0093FCC3EF9C5024A8F3
:0A0767007908E62439F974CF2E90CA
:090771001D0093F7A87908E624A5
:0A077A0033F974075DF7EE242FF940
:06078400870774014FF726
:0C078A00EE240BF9EE2417F88607A707F1
:0A079600A87908E624FA5035A87986
:0407A00008B609008E
:0C07A400502DAC587F00C006C005C004FA
:0C07B000C007A879088682120AFA158199
:0C07BC001581D005D006C006C005C0584D
:0B07C8008E821209AF1581D005D0060B
:0B07D300A87908E624F1400302086446
:0607DE00A87908B6120024
:0507E40040030208645F
:0C07E900EE901B4993FF55287071AD582D
:0707F500747F5DFFBF0800E7
:0E07FC0050668D047F00C006C005C004C00713
:0C080A00A879088682120AFA158115816F
:0E081600D005D006ED30E724C2AF75E40075C2
:0E082400E71D74075D24E7FFEEC40354F8FCE3
:0E0832002FF5E6EE2417F987E575E468D2AFDE
:02084000802214
:0D084200EEC40354F824E7FF74075D2F9007
:0D084F001D0093FFC006C005C0078E821279
:08085C0009AF1581D005D0069B
:0B086400A87908E624F4400302093ED6
:06086F00A87908B60F0095
:05087500400302093EF2
:0E087A0074015DFC901DC3E493FB74032E908B
:0E0888001B3993FA5B6C6048EE901B3993FCB1
:0E0896005528703E74DF2E901D0093FFC45451
:0E08A4000FFBBB0E0C74042E901B3993FB420D
:0308B20028800398
:0308B500EC4228EA
:0E08B80053070FEE241AF9C006C005C001C098
:0E08C600068F8212095EAC821581D001D0052A
:0408D400D006A7049F
:0E08D80074015DFC901DC3E493FB74032E902D
:0E08E6001B3993FA5B6C6050EE901B3993FC4B
:0E08F4005528604674DF2E901D0093C4540FEB
:0E090200FFEE901B4193522874042E901B416F
:0E09100093FC5228BF0E0AEE2417F987048CC0
:03091E0005801140
:0E092100C006C0068F8212095EAF821581D01B
:03092F00068F052B
:0C093200EE240BF8A605EE2417F8A6052D
:09093E0074F0B546047401800157
:01094700E4CB
:04094800FFB40100F7
:0C094C00E433FFAE255E54F06002D201DF
:06095800857981D07922AF
:0A095E00C079858179AF827E00BF69
:0C096800010DE57924FDF8E6240EF98766
:03097400058D06E8
:08097700EF24FE500EBF0C003E
:0B097F005009EF24FE901B2393FDFEA7
:0C098A00BF0C0DE57924FDF8E62417F9F8
:0409960087058D063E
:0A099A00BF0D0DE57924FDF8E624F9
:0609A40029F987078F0608
:0509AA008E82D07922CD
:0A09AF00C079858179E582FF700DA3
:0C09B900901DC6E493FE740F5EF53380C1
:0109C5001E13
:0E09C600BF0110901DC6E493C4540FFE740FC1
:0509D4005EF534800B0C
:0B09D900901DC7E493FE740F5EF5351F
:0C09E400E57924FDF8E6603D74042F90D6
:0909F0001B39934225D201EF905E
:0C09F9001B39934226EF240EF98706E517
:0C0A05007924FDF8C3E69E400DEF240BA1
:0A0A1100F8E57924FDF9E7F68025E9
:0E0A1B00EF240BF9EF240EF88606A7068017CD
:0E0A2900EF240BF87600EF901B39934225D294
:090A370001EF901B4193FE5226D1
:0C0A4000EF2433F9E7FE30E30EEF24173B
:0B0A4C00F9EF240BF88606A706800DCA
:0C0A5700EF242CF974C82F901D0093FFB1
:010A6300F79B
:030A6400D0792224
:0B0A6700AF8274402FF58212173A2274
:0E0A7200AF827E0075F003EF84ADF0BF03008D
:0E0A8000E433FC600CED901B3993FB552660AF
:030A8E00027E01E4
:060A9100EC700DBF060031
:0A0A97005008ED2408F987048C06CE
:030AA100BF06008D
:050AA400400DBF090038
:0A0AA9005008ED2411F987048C06B3
:030AB300BF090078
:050AB6004011BF0C001F
:0E0ABB00500CED901B3993FC552760027E0114
:030AC900BF0C005F
:050ACC004011BF0F0006
:0E0AD100500CED901B3993FC552860027E01FD
:030ADF00BF0F0046
:0A0AE2004008ED2414F987078F0681
:0E0AEC007F007D007C008E828F838DF0EC22D7
:0A0AFA00C079858179AF8275F003A1
:070B0400EF84AEF0BF030017
:0C0B0B00E433FD601CE57924FCF8E608EA
:0D0B170046700AEE901B4193FC52268008A8
:080B2400EE901B3993FC422600
:060B2C00ED7012BF06008F
:0C0B3200500DEE2408F9E57924FCF8864B
:030B3E0005A70503
:030B4100BF0600EC
:050B44004012BF090092
:0C0B4900500DEE2411F9E57924FCF8862B
:030B550005A705EC
:030B5800BF0900D2
:050B5B004021BF0C0069
:0C0B6000501CE57924FCF8E60846700AF9
:0A0B6C00EE901B4193FD5227800814
:080B7600EE901B3993FD4227AC
:030B7E00BF0C00A9
:050B81004021BF0F0040
:0C0B8600501CE57924FCF8E60846700AD3
:0A0B9200EE901B4193FD52288008ED
:080B9C00EE901B3993FD422885
:030BA400BF0F0080
:0C0BA700400DEE2414F9E57924FCF886DA
:030BB30007A7078A
:030BB600D07922D1
:0D0BB900AF82740F5FFE600EBE01028070FF
:060BC600BE0203020C9EBA
:030BCC00020CFD1B
:0C0BCF0030183D901DD2E493FD74075DCA
:090BDB00F533901DD3E493FD8D68
:0C0BE4002CD22C901DDAE493FD20E303DA
:030BF000020CFDF7
:0C0BF300901DDAE493FD74075DF5369068
:0A0BFF001DDCE493FD8D3C740245FB
:040C09002FF52F0292
:020C0D000CFDDC
:070C0F0074FD552FF52F9035
:080C16001DD7E493FD8D2CE5D0
:0C0C1E002C6010901DD6E493FD74075D5F
:070C2A00F533D228020CFD96
:050C3100C22C020CFDC5
:0C0C3600301840901DD2E493C4540FFD10
:090C42008D34901DD4E493FD8D66
:0C0C4B002DD22D901DDAE493FD20E7036C
:030C5700020CFD8F
:0D0C5A00901DDAE493C4540FFD74075DF59E
:080C670037901DDDE493FD8DC3
:060C6F003D74024530F562
:040C750030020CFD40
:070C790074FD5530F53090C9
:080C80001DD8E493FD8D2DE564
:0C0C88002D600F901DD6E493C4540FFDA6
:060C94008D34D2298063BB
:040C9A00C22D805F88
:0C0C9E00301839901DC7E493C4540FFDBA
:090CAA008D35901DD5E493FD8DFC
:0C0CB3002ED22E901DDBE493FD30E33EBA
:0C0CBF00901DDBE493FD74075DF5389098
:0A0CCB001DDEE493FD8D3E7402452A
:050CD50031F531802320
:070CDA0074FD5531F5319066
:080CE1001DD9E493FD8D2EE501
:0C0CE9002E600F901DDBE493C4540FFD3F
:060CF5008D35D22A8002B9
:020CFB00C22E07
:0D0CFD00A22C722D922FA22E722F922FD2B8
:040D0A0001BF030022
:050D0E004003020D94FA
:0C0D1300301848EE901B3993FD552570F8
:0C0D1F000C74042E901B3993FD55467097
:010D2B003295
:0C0D2C00C007C006C02374C4C0E08F8262
:0C0D3800120FF01581D023D006D007EF79
:0C0D4400242CF9E7700CEF2417F9EF24C1
:060D50000BF88605A70563
:080D5600EF901B4193FD5225B3
:0C0D5E0020183374042E901B3993FD55AF
:0A0D6A00466027EF2429F9EF241753
:0C0D7400F88605A705EE242CF9E76008BE
:080D8000EE240BF87600800C54
:0C0D8800EE2417F87600EE240BF876003D
:0A0D9400EF30E516301813EE242CA2
:0E0D9E00F9E7700CEE2417F9EE240BF8860727
:020DAC00A70797
:010DAE002222
:070DAF00053FE4B53F02051A
:010DB60040FC
:0A0DB700E53F24FFFEE54034FFFF96
:0B0DC100EEF4FEEFF4FFE53F5206E504
:050DCC004052077D000C
:030DD100BD06005C
:0C0DD400502EED2433F98704BC0102808E
:010DE00015FD
:0E0DE100EC2CFB901B2D93CBA393FCEE520346
:070DEF00EF5204EB4C600B16
:0B0DF600ED2439F9E7FC6003EC14F772
:030E01000D80CD94
:020E04007F006D
:030E0600BF030027
:0B0E0900506FEF2433F9E76041EF2445
:0A0E140039F9E7703AEF242CF88654
:0E0E1E0006A706EF240BF98706EF2417F987C5
:0E0E2C0005C3ED9E5008EF2417F9E7FE04F70A
:0E0E3A00EF240BF98706EF2417F98705C3EEA6
:0B0E48009D5008EF2417F9E7FE14F797
:0E0E5300EF901B3993FE5525601AEF2417F916
:0E0E6100E77013EF901B4193522574042F90FD
:080E6F001B4193FE5225D20144
:030E77000F808C5D
:020E7A007F03F4
:030E7C00BF0600AE
:0C0E7F005058EF24FDFEEF2439F9E77015
:0C0E8B0034EE242FF9E7FD30E010740471
:0C0E97002E901B4193FC5225D20174FEEA
:020EA3005DF7F9
:0C0EA500EE242FF9E7FD30E112C2F0C08E
:0C0EB10007C00685F0238E82120BB9D01A
:030EBD0006D00755
:0E0EC000EE901B4993FD5528700CEE241AF994
:080ECE00EE2417F88606A706C2
:030ED6000F80A3E7
:0E0ED90075F003E51A84FF75F003E51B842F06
:0E0EE700FF75F003E51C842FF51DA22C722D63
:090EF500922FA22E722F922F22DF
:0C0EFE00E5466525C4540FFFE525C454EB
:080F0A000FF5268526277E0065
:030F1200BE03001B
:0E0F1500502AEE901B3993FD5F601E74092E6A
:0E0F2300F582C007C00612173AD006D0077D2F
:010F310000BF
:030F3200BD1E00E1
:020F3500500763
:070F3700E53270FC0D80F4AF
:030F3E000E80D151
:0D0F410074F055254280740F45255280C282
:050F4E0001852546228B
:020F53007F0914
:030F5500BF0C00CE
:0D0F5800501A8F82C00712173AD0077E0092
:030F6500BE1E00AD
:020F6800500730
:070F6A00E53270FC0E80F47B
:030F71000F80E10D
:0E0F7400901DC2E493FF74075F901B1B93FF58
:0D0F82008F0E901DC2E4935470C4540F9064
:0E0F8F001B1B93FF8F0F901DC3E493FF74078D
:0D0F9D005F901B1B93FF8F107525008525AD
:030FAA00467F007F
:030FAD00BF03007F
:0C0FB000503DEF242FF87600EF2417F8D6
:0E0FBC007600C00774E2C0E08F82120FF015BD
:0C0FCA0081D007C218EF240BF9E7600289
:020FD600D2182F
:0C0FD80074204FFEA21892F0C00785F0B4
:0B0FE400238E82120BB9D0070F80BED5
:010FEF0022DF
:0A0FF000C079858179AF827E00EFA1
:0B0FFA007012E57924FDF886827583F3
:091005001DE493FD53050F802941
:0C100E00EF30E112E57924FDF8E60490D3
:0A101A001D0093FC740F5CFD8013B1
:0A102400E57924FDF8868275831D2E
:09102E00E49354F0FCC4540FFDDE
:04103700ED7001FE59
:0B103B00BD0108EF240EF987048C06AD
:08104600ED24FE500EBD0C006C
:0B104E005009ED24FE901B2393FCFED4
:0B105900BD0D08EF2429F987058D0666
:09106400EF240BF8A606D0792256
:0D106D007580007584007585FFC2A9E4F54B
:0A107A003FF540C2AF75E40075E7D2
:0E1084001D75E60375E50075E71D75E604753C
:0E109200E50475E71D75E60C75E50075E71DB4
:0E10A00075E60D75E5FF75E468C28C5389F0A6
:0E10AE00438902758C47758A47D28C53B8FD72
:0E10BC0053B7FD43B80243B708C28DD2A9D284
:0510CA00AF75D1812289
:081B1B00001E2E3D4D5C6B7FA6
:0A1B230019334B66809AB3CCE6FF3D
:0C1B2D000000000008008000000800809C
:081B39000102040810204080A5
:081B4100FEFDFBF7EFDFBF7FA3
:041B49000B162C58F3
:0E10CF00C0E0C0D0C2AAC28E740F5589242082
:0E10DD00F589758B35758D80C28FD28ED2ABA2
:0610EB00757302C204D27D
:0510F10002757200759C
:0910F6007100D203D0D0D0E03229
:0C10FF00C023C0E0C0F0C082C083C00766
:0E110B00C006C005C004C003C002C001C00081
:0C111900C0D075D000E573FF24F1500336
:0311250002141C95
:07112800EF2F2F90112F7330
:07112F0002115C02141C0216
:0611360011CF0212890234
:06113C00129202130702EB
:06114200141C02141C0243
:06114800141C02141C023D
:06114E00132B02139302B3
:06115400141C0213B70297
:02115A0014057A
:0E115C00C28E740F55892420F589758B80751D
:0A116A008D80C28FD28EE575B57638
:03117400028051A5
:08117700E5762467F987821276
:0B117F001502503DC2AAE5737032E576
:0A118A00762467F9E7FF20E50774FB
:06119400204FF775740006
:0B119A0074FC257440051214678016D9
:0611A5000576537607C237
:0411AB000CC211124F
:0C11AF00143BC28E758DF0758B00D28E43
:0511BB00D2AA02141C81
:0611C000057653760702DC
:0211C600141CF7
:0711C800C28ED2AA02141C22
:0A11CF00A28BB39218C28B75730354
:0A11D900758D00E572700A75720151
:0511E300C205C2060276
:0211E800141CD5
:0A11EA00747F2572401C301808B213
:0411F40004E5722577
:0311F80071F5711D
:0511FB00E5722572F50C
:0612000072600302141CE1
:0612060075728102141C48
:0A120C00C28EC28FA204201801B3A5
:0A1216005026E56F700E74CCB57120
:0312200002D205F2
:07122300740CB57102D20644
:07122A00200513200610E56A
:051231006F2450F8E5F8
:0512360071F662700575
:03123B006F8002BF
:02123E00C202EA
:05124000100C02801DEE
:0712450030051430021175A1
:07124C007404101102800977
:07125300E54B2404F54B53A9
:02125A004B3C0B
:06125C0012143B02141CF9
:0712620030021E20051B20D5
:0C1269000618740F55892410F589758D46
:0C127500FA758B70D28E757304D2AA0239
:02128100141C3B
:0612830012143B02141CD2
:09128900758D8075730202141CBE
:0A129200300A64E56F24FB505EC2D1
:0E129C008E740F55892410F589758DEF758BB2
:0812AA0042D28EA20F9207E56B
:0812B2005530E71F855382C08F
:0C12BA00541214B1AF821581BFFF0280F6
:0112C6000225
:0212C700D2074C
:0912C900E553701CE5547018D2C5
:0312D2000780147E
:0C12D500901D17E493FFB5530B901D18FB
:0812E100E493FFB55402D207AB
:0912E90074FFB57005300702D254
:0112F20008F3
:0612F30075730502141CD6
:0812F900E56F24FE5002D2084B
:0613010012143B02141C53
:0A130700C28E74FFB5701330070AA0
:06131100D20D121467C2A8
:041317000C02141C94
:06131B0012143B02141C39
:06132100D20E121467C297
:041327000C02141C84
:08132B00E56F2450F98707303B
:041333000D027FCC5C
:05133700300E027F0CE6
:09133C00C2AA740AB57302800311
:0313450002141C73
:0A134800E572247F402CE5725F700F
:0913520008D296C20BB20480021D
:02135B00D20BB3
:08135D00E5727007757201C210
:03136500048006FB
:05136800E5722572F59D
:01136D00720D
:07136E00E572700375728146
:0513750075730B8013ED
:09137A00200406D296C20B800289
:02138300D20B8B
:06138500056F7572007592
:02138B00730DE0
:06138D00758D1202141C14
:0A139300E56F70077401B5720205E2
:01139D0074DB
:0A139E00C296A20B828B5007C20C0E
:0513A80012143B800659
:0613AD0075730A758D6ED8
:0413B300C28B806504
:0E13B700C296C28E740F55892410F589758D6B
:0A13C500FB758B90D28E200D0330D3
:0213CF000E0509
:0513D10012143B802B0B
:0C13D600740F5555FF7E0074072FFFE4D4
:0C13E2003EFEAC6F7D00C3EF9CEE64800B
:0C13EE008DF063F08095F05007D20912DA
:0413FA00143B80031D
:0313FE0075730EF6
:04140100C28B801703
:0E140500C28E740F55892420F589758D6E7581
:091413008B80C28FD28E75730A22
:0C141C00D203D0D0D000D001D002D00309
:0E142800D004D005D006D007D083D082D0F0FB
:05143600D0E0D02332DC
:0A143B00757300C28BC28EC2AB7540
:0A1445007000756F00C28E740F5521
:0C144F00892410F589758D89758BAFC25A
:0A145B000DC20EC28FD28ED2AAD2AB
:02146500AB22B8
:0E146700C28E740F55892420F589758D6E751F
:0C1475008B80C28F740F55552407FF7543
:0414810070FF7E007A
:0C148500C3EE9F500BEE2450F9E7FD620F
:04149100700E80F069
:07149500EF2450F8A670C21D
:04149C0005C206D2AD
:0514A0000C75730A75D4
:0A14A5007200756F00C2AAD28ED249
:0214AF00AB226E
:0A14B100C079858179AF827EFF903B
:0814BB001D16E493FDBDFF00C6
:0C14C3005038200F35901D16E493602E69
:0714CF00901D16E493FD1DC2
:0E14D600ED6024ED2DFC2417901D0093FBEF1C
:0C14E400B5031374182C901D0093FCE558
:0A14F0007924FDF8E6B504028D062C
:0314FA001D80D979
:0514FD008E82D079226F
:0A150200C079E581F5792404F58134
:0C150C00AF82C2187DFE7E00EFA2E5E475
:0915180033FC24FF9219BF80008E
:05152100400302164E1C
:0C152600C005C006EF2323540124FF92EF
:0B1532001A53071F8F82C007C005C0BE
:0C153D0023120A72AA82AB83ACF0FED02D
:0A15490023D005D007A87908A602F8
:0E15530008A60308A60408A606901D11E4933E
:0E156100FE0EEF2FFD2EFC04901D0093FEB534
:04156F0007028006E9
:06157300D006D005800F38
:0E157900D006D0058C8275831DE493FCFD7EA8
:011587000063
:09158800BDFE06BE000302172996
:0A1591007550BC901D17E493FC8C0C
:0A159B0051901D18E493FC8C52EDF2
:0C15A5002DFD2417901D0093FE8E537442
:0A15B100182D901D0093FE8E547556
:0615BB005600301A057510
:0415C100574080030C
:0315C500755780D7
:0E15C800901D12E4932F2FFE2F2404901D007F
:0C15D60093FE24F95006EE24FBFE800278
:0215E2007E0188
:0C15E40074E02EF555EE24FE500F740646
:0A15F0002E2450F9A879088605A7FB
:0315FA0005801059
:0C15FD00A87908743F56FAE4FBFCFDEAF4
:041609002557F55715
:0C160D00EE24FD500E74052E2450F9A8A8
:071619007908088605A7050A
:0C162000EE24FC500F74042E2450F9A896
:08162C00790808088605A705EE
:0C163400EE24FB501074032E2450F9A883
:0916400079080808088606A706CF
:05164900D21802172970
:0A164E007550B0901D17E493FE8E56
:0A16580051901D18E493FE8E528598
:0316620049538564
:0A1665004A5453071FEF24FA500304
:03166F0002172738
:07167200EF2F2F9016797392
:0716790002172702168B0285
:0616800016970216AE02EF
:0516860016BF02171F52
:08168B0075556074C2254FF58E
:0416930056021727BD
:081697007555637443254BF502
:05169F0056755740756F
:0616A4005800755912D236
:0416AA0011021727EB
:0716AE00755300755400752F
:0616B50055E175560175B8
:0416BB0057408068AC
:0216BF007F00AA
:0A16C100C3EF954C503CE54D702638
:0A16CB00740A2F2450F87600AD4E8B
:0E16D5007E008F037C00EB2DFDEC3EFEBD6021
:0B16E3001CBE0019740A2F2450F8A64A
:0316EE0077800FF3
:0A16F100740A2F2450F9EF254E90E3
:0516FB001D0093FEF745
:031700000F80BE99
:091703007463254CF55574424550
:06170C004BF55674404548
:041712004CF55785B6
:031716004D5885A6
:031719004E59D254
:03171C0011800831
:07171F00755560755681C28B
:0117260010B2
:02172700D218D6
:0817290030190674DF5550F57C
:011731005067
:06173200A218857981D0A8
:02173800792214
:07173A00AF82C218BF40009E
:0C174100501B8F82C007C023121A86E5DF
:0C174D0082D023D0075444FEBE4402802A
:01175900048B
:04175A00D218802AF7
:09175E00AD757E000DBD00010E09
:0C1767005305077E00AB767C00EBB50557
:0717730006ECB50602800E32
:08177A00E5752467F8A60705D8
:0517820075537507D24C
:011787001849
:05178800D28EA2182220
:0A178D00C079E581F5792404F581A7
:09179700C208AF5674C35FFEA83E
:0517A0007908A657E5E1
:0917A50053FC7036E5547032E586
:0717AE007720E003021A6539
:0C17B500EE700DA87908B6C007C006123F
:0417C1001A6BD006C9
:0517C500BE01028003DB
:0317CA00021A659B
:0917CD00A87908E66003021A6520
:0917D60075828312173A021A65AC
:0817DF00E55530E7030219B0E3
:0C17E700901D17E493FBECB50302800397
:0317F300021A6572
:0B17F600901D18E493FBB55402800323
:03180100021A6563
:08180400757800BE4202801B52
:06180C00BE430302194473
:06181200BE800302196A0A
:06181800BE810302198CE1
:06181E00BE83030219A5C0
:03182400021A6540
:06182700201003021A6507
:0A182D00743C5FF54FA87908E654FB
:0A183700F0F6A87908B680028003DD
:0318410002192366
:0C18440075828112173AE558FB70030210
:0218500019235A
:05185200740F5557FF63
:0A185700E57370FCC2AF75E400AE4B
:0A1861005974015B241CFCA87908EF
:03186B00087600FC
:0C186E00A8790808C3E69F400302191E79
:0C187A00EB703CC003E5792403F8A606DF
:0C188600087600A879080886027D00E5BD
:0C189200792403F8EA26FAED0836FDBAC6
:07189E006005BD000280049B
:0418A500D0038010DC
:0A18A900D003A8790808740A262469
:0618B30050F98777801652
:0B18B9008CE7A8790808E62EF5E6A8E9
:0A18C400790808740A262450F987F9
:0118CE00E534
:0A18CF008E027D00A8790808E57973
:0C18D9002403F9E6F7097700E579240301
:0E18E500F8E62AFA08E63D53023F7D00BA3FBE
:0D18F30022BD001F8F027D001ABAFF011DEB
:0C190000E5792403F8E6B5020708E6B517
:04190C00050280064A
:0619100075E46875E400B7
:08191600A87908080602186E0A
:05191E0075E468D2AF82
:09192300A87908E66003021A65C8
:04192C0085574C850A
:03193000584D858A
:06193300594E758281127D
:09193900173A75828412173A0274
:021942001A6524
:0A194400743C5FF54FA87908B680E7
:04194E000343A208A5
:09195200A87908E66003021A6599
:0D195B0075828112173A75828212173A02C6
:021968001A65FE
:06196A00301003021A65B3
:04197000D2108551BB
:0319740049855250
:051977004A754B00C29F
:0C197C001175D16075D20B75D3B375D115
:0419880061021A6579
:07198C00E551B5490280039B
:03199300021A65D0
:07199600E552B54A0280038F
:03199D00021A65C6
:0519A000C210021A65EF
:0919A50075828512173AC2100286
:0219AE001A65B8
:0619B000EE6003021A655F
:0C19B600C0548C821214B1AF821581BFA6
:0519C200FF03021A659D
:0E19C700901D11E493FEF58275831DE49325B7
:0C19D500E02EFD0EA8790874C056FCE45A
:0419E100BC800104C1
:0119E500FC05
:0819E600C3EE9D4003021A65E7
:0E19EE008E8275831DE493FBEFB50366EE0455
:0E19FC00901D0093FBF582C007C006C005C019
:0E1A0A0004C003121A86AA82D003D004D005AD
:0E1A1800D006D007EC602EC00474145AFCBC3B
:041A26001402800422
:041A2A00D004801F45
:0E1A2E00D0048B82C007C006C005C004C003F0
:0E1A3C00C00212057ED002D003D004D005D027
:031A4A0006D007BC
:0C1A4D00A87908E6700D53020CBA0C0CCE
:071A59008B82120A67800571
:051A60000E0E0219E664
:061A6500857981D0792291
:0C1A6B00E57370FCC2AF75E40075E71D68
:0A1A770075E6178558E58559E575F9
:051A8100E468D2AF2271
:0E1A8600AF82901D12E493FE0E0E0EEF2E2F77
:081A94002F901D0093F5822242
:0E1A9C0075950075911475924CC2967589214E
:0E1AAA00758F00C28CC28E758D80758B80C2C8
:0C1AB8008FC20375A88075E80075B804A3
:0A1AC40075B70CD28A75772EC205A3
:051ACE00C206C20DC2BA
:041AD3000EC208D265
:051AD7000A75750075A1
:061ADC007600754B00C20C
:041AE20011C210C25B
:051AE6000F12143B2269
:06005200E478FFF6D8FD82
:080030007900E94400601B7A2D
:0500380000901B4D7853
:03003D000075A0AB
:0A00400000E493F2A308B8000205E3
:08004A00A0D9F4DAF275A0FF61
:080058007800E84400600A7919
:030060000075A088
:0600630000E4F309D8FCE3
:080069007800E84400600C7906
:0B00710000900000E4F0A3D8FCD9FAD6
:030023007581796B
:0A002600121B07E582600302001EB2
:0E1AEB0020F71430F6148883A88220F507E651
:061AF900A88375830022A2
:031AFF00E280F78B
:031B0200E4932247
:021B0500E022DC
:041B070075820022C1
:00000001FF
