:0400000002002332A5
:03000B00020EFCE6
:03001300021219BD
:03001B0002124985
:03007C0002001E61
:05001E0012035280FEF8
:02007F00AF824E
:07008100EF60047E01800224
:020088007E00F8
:06008A00EE60031F80F18F
:01009000224D
:0A009100D218C2917582D2C023126A
:08009B00007FD023D2917FFF0A
:0A00A300A291821892188F061E8E9B
:0900AD0007EF70F2B218A218224C
:0400B600AF827E0196
:0500BA00BE00028039C8
:0600BF00EE5F601E7D00F3
:0300C500BD020079
:0700C8005005C2910D80F606
:0E00CF00D291758217C007C00612007FD006BE
:0400DD00D0078012B6
:0E00E100C291758219C007C00612007FD006BA
:0400EF00D007D291D3
:0500F300EE2EFE80C2AC
:0600F80030020BE50825B3
:0700FE0008901C5D93FF4216
:0101050012E7
:0101060022D6
:06010700AF827E007D00C6
:08010D00C3ED9F40030201ACA9
:060115007C00C2027B0128
:05011B00BB0002804D55
:020120007A0063
:03012200BA02001E
:070125005005C2910A80F6AB
:0E012C00D291758201C007C006C005C004C094
:0E013A000312007FD003D004D005D006D007FA
:06014800309103EB4204BC
:0E014E0075820DC007C006C005C004C00312B4
:0E015C00007FD003D004D005D006D007EB2BD7
:03016A00FB80AE69
:06016D0030020EE508253A
:0601730008901C5D9342A0
:05017900127582FF2257
:05017E00EC62067B00AD
:03018300BB0800B6
:0E0186005015EE30E00AEEC313FA748C6AFED8
:020194008004E5
:04019600EEC313FEA3
:03019A000B80E6F1
:03019D00BD090099
:0801A0005006ED2409F8A60445
:0401A8000D02010D36
:0901AC00EE600CE5082508049042
:0601B5001C5D93FF4212E5
:0301BB008E82220F
:0201BE007F00C0
:0301C000BF02007B
:0701C3005005C2910F80F608
:0C01CA00D29175820112007FA291921860
:0901D60075820DC02312007FD0D8
:0401DF0023A218221D
:0E01E300120091500E7582CC1200B675824447
:0501F1001200B6D3224C
:0201F600C32222
:0A01F800C0158581150581058112EF
:0A0202000335E582FF700302032CB0
:0A020C00E5082508FE8EF005F074E9
:0302160003800260
:0202190025E0DE
:08021B00D5F0FBF452127E0045
:03022300BE020018
:05022600400302032C5F
:0E022B00C007C006120091D006D007400302A3
:02023900032898
:0C023B00C2027582CCC007C0061200B6DB
:0C0247007582BE1200B6D006D00730024F
:040253000302032877
:0E025700758209C007120107E582D007700703
:070265007410B510028006C1
:06026C0090E89002032F50
:09027200AD09AC0AE4BF1001045F
:0E027B00FB601B5304F8EDC40354072CFCED8C
:0C028900C40354F8FD5305F07410C39535
:040295000FFA2DFD32
:0E029900C00374805CFF8C038B047B008D021D
:0C02A7007D00EA2BFBED3CFCA81508A62E
:0C02B3000308A604D003EF600BA8150898
:0802BF00C3E496F608E496F68C
:0C02C700C007C003A81508E6C0E008E668
:0E02D300C0E0900006121C37AC82AD8315818E
:0C02E1001581D003D0078D06A815080871
:0E02ED00E618C313C613C6C313C613C608F61D
:0C02FB008C028E05A81508E62AFA08E619
:0E0307003DFD8A048D06EB6008EC24E7FCEE59
:0303150034FFFEB4
:0A031800EF6007C3E49CFCE49EFEC6
:060322008C828E8380072F
:040328000E0202239C
:03032C0090E82C2A
:06032F00851581D01522A6
:0E03350012009150147582331200B6758208C2
:0B034300120107E58270048509822288
:04034E007582002292
:0A0352007F00C218E5A7C007C02312
:08035C00121BEAD023D0077543
:0C036400130175C1FFC2AF75A7E575C29B
:0E037000A575C35AD2AFC2AF43A70475C2A58C
:09037E0075C35AD2AFC2977E008C
:03038700BE320083
:0E038A00501AC28C901D17E493F58C901D182C
:08039800E493F58AC28DD28CBA
:0603A000308DFD0E80E12E
:0803A600C007C023121129D089
:0A03AE0023D007C219901DFEE4934E
:0A03B800F52CAD2C7E0078F6A605AA
:0303C20008A60684
:0E03C500C2AF75C2A575C35AD2AF748025D1E0
:0B03D300502B75D161200E0DC007C03B
:0503DE0023120F1BD0EB
:0503E30023D007801883
:0A03E800E576249140040576800EAE
:0B03F200758285C007C023121896D04A
:0303FD0023D00703
:0A040000E524FE5401FD24FF921ACA
:04040A004002C219D1
:0C040E00E57530E04D740F5580FDBD0E0B
:0A041A00157402252C400FA21AE40D
:0A04240033FDBD0107201904052C6B
:02042E00D219E1
:0A043000740F5580FDBD0D0280031E
:03043A0002057D3B
:09043D00E52C24FE400302057DBC
:0A044600A21AE433FDBD0102800399
:0304500002057D25
:0604530030190302057DD3
:05045900152CD2190270
:02045E00057D1A
:0B046000901D0DE493FDBDFF02800322
:03046B0002057D0A
:06046E00300E0302057DC3
:08047400E57530E00302057D8F
:0A047C00740F5580FDB528028015AD
:0C048600740F5580F582C007C006C0232B
:09049200120626D023D006D00783
:0C049B00901DFCE493FD20E70302057DAA
:0A04A7007401B5131DC202C007C0A6
:0704B10006C0231201E3D095
:0904B80023D006D0073002030234
:0204C100057DB7
:0604C30075130202057D25
:0A04C9007402B5131AC007C006C084
:0504D300231201BED060
:0A04D80023D006D007400302057D83
:0604E20075130302057D05
:0704E8007403B51302800349
:0304EF0002057D86
:0C04F200C007C006C0231201F8AC82ADA8
:0C04FE0083D023D006D007C374209C7468
:0E050A006A8DF063F08095F05058901DFDE46E
:0E05180093FBC2D575F00AEB30E704B2D5F4C0
:0105260004D0
:0E052700A430D50AF42401C5F0F43400C5F068
:0E053500AAF02CF582EA3DF583C007C006C08F
:0905430023120C7AAC82AD83D0C6
:0C054C002378F4A60408A60575820CC0F4
:0505580023121896D0EB
:0C055D0023D006D007901DFBE493FD8D19
:03056900358003D7
:03056C00753501E1
:0C056F00901DFCE493FD74075DF53E75E3
:02057B0013006B
:0C057D007D00EEA2E3E43324FF921A7C20
:010589000071
:03058A00BC0400AE
:0E058D00502D74E32C901D0093235401F4FBB9
:0C059B00A21AE433FA420374042CF5F0B9
:0505A70005F0EB8002ED
:0205AC0025E048
:0E05AE00D5F0FBFB8D02EA42038B050C80CEDC
:0605BC00ED5529F52A208F
:0505C200070330080FE3
:0705C700C208C007C02312A7
:0805CE0018E9D023D007800AD0
:0205D6007E6441
:0805D8008E051D8D06EE70F882
:0805E000D29720972ABFFF000B
:0505E80050030F802A02
:0605ED0020180363758174
:0A05F300D218E57520E01DC2AF75B7
:0C05FD00E40075E71D75E6FE852CE57531
:06060900E468D2AF800896
:06060F00EF60031F8002F2
:02061500C21809
:0A061700E57530E005C2970203C547
:05062100D2970203C5A1
:081C5D00010204081020408080
:021D0300004C92
:021D0500045682
:011D0C0000D6
:011D0D00FFD6
:021D1700FFFFCC
:06062600AF82AE2B7D0047
:06062C00EEB52B02800375
:030632000DAE2BDF
:0E063500ED243750F2740F5580FEB507537E4A
:0106430000B6
:03064400BE0400F1
:0A064700504A8EF005F074018002A5
:0206510025E0A2
:0C065300D5F0FBFD5F601BED5528701614
:0C065F00C2F0C007C006C00585F0238E65
:0A066B0082120696D005D006D007D3
:0C067500ED5F7017ED55286012D2F0C048
:0C06810007C00685F0238E82120696D07A
:03068D0006D0078D
:030690000E80B128
:020693008F28AE
:010695002242
:0A069600C015858115C0820581A8FA
:0A06A0001508087600A81508E625E5
:0C06AA00E025E0FD24E9901D0093FCC257
:0806B60019A8150874E3269051
:0C06BE001D0093FB530307BB01028015D5
:0606CA00BB02030208AAB6
:0606D000BB0303020A292E
:0606D600BB0403020AED63
:0306DC00020C7499
:0C06DF00A8150874E326901D0093A2E308
:0C06EB00E43324FF921A74E82D901D00E7
:0A06F700935401FB24FF921B3018FE
:0707010058301A03301B14ED
:0D07080074E72D901D009323235403FBA8DC
:0707150015080874035BF6F0
:06071C00201A030207C7CA
:0E07220074E72D901D0093FB740C5B4480FB6C
:0A073000A8150808EB46F6A8150806
:0B073A00740426FB242DF974E82D90B8
:0C0745001D0093C313FAF7EB2436F8767E
:0907510000EB243FF87690806D66
:06075A00301A03301B13EE
:0C07600074E72D901D0093C4540FFBA8FB
:07076C0015080874035BF699
:0A077300301A3FA81508740426246C
:07077D003FF98703BBA00058
:0E078400401774E72D901D0093540325E025C7
:0B079200E0FBA8150808EB46F68018F5
:0C079D00201B1574E72D901D0093C45420
:0C07A9000FFB530303A8150808EB46F6ED
:0A07B500A81508740426FB242DF893
:0807BF007600EB243FF8760000
:0907C700A81508740426FB7D004E
:0807D000ED24FD5003020C743E
:0C07D800A8150808740356FFBF0102803A
:0107E4000A0A
:0507E500BF02028009C3
:0507EA00BF032F800891
:0407EF00D219802972
:0407F300C219802582
:0C07F700C003ED2D25E0FBA81508EB2643
:0E080300F582C005120CDCAA82AEF0FFD00513
:0B081100EA5401FA24FFB39219D0034F
:0A081C00A8150808E654036076A250
:0C08260019E433FE7F00ED2D25E0FAA858
:0C0832001508EA26F582C005C003C002CC
:0C083E00C023C006C007120D1A1581155A
:0A084A0081D023D002D003D005A80E
:0A085400150808E630E50CEB243F20
:09085E00F9870774014FF78016B9
:0C086700A81508EA26F582C005C003C0F1
:0508730023121896D0CD
:0508780023D003D005B0
:0C087D00ED701BA21992F0C005C003C072
:050889002385F023A807
:08088E0015088682120E4DD000
:0508960023D003D00592
:0C089B00A8150808E60303543FF60D0DF5
:0308A7000207D075
:0C08AA0074E72D901D0093FF53073020D1
:0508B600180302095FB8
:0E08BB0074E72D901D0093FE30E215C2F0C0D0
:0A08C90007C00585F023A815088676
:0808D30082120E4DD005D00782
:0A08DB00A81508740426FE242DF968
:0D08E50074EA2D901D0093C313FBF7EE2461
:0C08F20036F974E72D901D0093FE74078A
:0C08FE005EF7BF201EC005A8150874049A
:0E090A0026F582120CDCAA82AB83FEEAD00531
:0709180030E3047F30800290
:02091F007F1047
:0A092100BF1019A81508740426245D
:0C092B003FF974E82D901D009354F0C4B7
:06093700540FFE2428F716
:05093D00BF3002800341
:03094200020C7430
:0A094500A81508740426243FF97475
:0E094F00E82D901D0093FE740F5E2420F70229
:02095D000C7418
:0A095F00A81508740426243FF98748
:0C096900065306F0BE2071BF2019A8152F
:0E097500088682120CDCAF82AE83ADF0FCEF80
:0709830030E0047F30800228
:02098A007F10DC
:0C098C00BF102A7401C0E0E4C0E0A81510
:0C099800088682120D1A15811581A81521
:0C09A400088682121896D2F085F023A875
:0909B00015088682120E4D805BD1
:0B09B900E4C0E0C0E0A8150886821230
:0C09C4000D1A15811581A81508868212F5
:0809D0001896C2F085F023A87F
:0909D80015088682120E4D8033D1
:0A09E100A81508E625E0FF24ECF954
:0C09EB00EF24ECF8860608860753060887
:0E09F7007F00A70609A70774E72D901D009347
:0C0A0500FF30E70BA81508740826F582E6
:030A110012189622
:0A0A1400A81508740426FF242DF82D
:0B0A1E007600EF243FF87600020C7415
:0B0A290030187974E72DFFF58275830B
:0C0A34001DE4935410C4540FFE7B00C05E
:0C0A400007C005C004C006C003A81508CC
:0C0A4C008682120D1A15811581A815086C
:0B0A58008682121896D2F085F023A8C9
:0C0A630015088682120E4DD004D005D07C
:0A0A6F0007A81508740426FE242DC4
:0B0A7900F8A604EE2436F974E82D9076
:0C0A84001D0093C313FB74075BF7EE2406
:0A0A90003FF98F8275831DE4935433
:0B0A9A0010C4540FFF2430F7020C744E
:0A0AA500A81508740426243FF98701
:040AAF0007BF40003D
:0E0AB300402A74E72D901D00935410C4540F78
:0C0AC100FF7E00C007C006A81508868252
:0C0ACD00120D1A15811581A815088682EB
:060AD900121896020C74D5
:0A0ADF00A81508740426243FF876D9
:040AE90000020C7487
:0E0AED0074E72D901D0093C4035407FF5307B8
:060AFB0007BF0002801598
:060B0100BF0203020BA37A
:060B0700BF0303020BE630
:060B0D00BF0403020C49C5
:030B1300020C745D
:0A0B1600301822A81508740426FF09
:0C0B2000242DF9901DEAE493C313FEF7A6
:0A0B2C00EF2436F87600EF243FF8BE
:050B36007650020C7472
:0A0B3B00A81508740426243FF9876A
:0B0B450007BF5023A81508E625E02498
:0C0B5000ECF9ECC313FF7E00A70709A717
:0A0B5C0006D2F085F023A8150886E4
:060B660082120E4D801703
:0A0B6C00A81508E625E024ECF9ECDA
:0D0B7600C313FF4307807E00A70709A706F1
:0C0B8300A81508740826F582121896A820
:0A0B8F001508740426FF243FF876D1
:0A0B990000EF242DF87600020C7422
:060BA300201803020C748F
:0A0BA900A81508E625E024ECF98CFD
:0E0BB300068E077E0074EA2D901D00937A00D6
:0C0BC1002EFEEA3FFFA70609A707A815B3
:0D0BCD0008740826F582121896D2F085F003
:070BDA0023A8150886821212
:050BE1000E4D020C7432
:060BE600201803020C744C
:0A0BEC00A81508E625E024ECF98CBA
:0E0BF600068E077E0074EA2D901D00937B0092
:0E0C04002EFEEB3FFFC001C006C00790000AA5
:0E0C1200121C37AE82AF83158115818E828F42
:0E0C200083120C7AAE82AF83D001A70609A71B
:0C0C2E0007A81508740826F58212189615
:0A0C3A00D2F085F023A81508868289
:050C4400120E4D802B93
:0A0C4900301828A81508E625E0245D
:0A0C5300ECF97F00A70409A707A829
:0C0C5D001508740826F582121896D2F0D3
:090C690085F023A815088682120B
:020C72000E4D25
:060C7400851581D0152258
:0A0C7A00AE82E583FF20E71C7D0039
:0E0C8400C374FF9E74878FF063F08095F0506C
:0C0C920038EFA2E713CE13CEFF0D80E672
:020C9E007C00D8
:0E0CA000C3EF648094785016EFA2E713CE13D2
:0E0CAE00CEFF8E028F034303808A068B070C55
:020CBC0080E2D4
:0D0CBE008E028F035303878A068B07800286
:020CCB008D0496
:0E0CCD00ECC40354F8FDE44EF582ED4FF583C0
:010CDB0022F6
:050CDC00AF82BF08001B
:0A0CE100501E8FF005F0E5148002AC
:020CEB00C31331
:0E0CED00D5F0FB5401FE7D007C007B008E8262
:060CFB008D838CF0EB225A
:0C0D0100EF24F825E024ECF987060987B0
:0D0D0D00077D007C008E828F838DF0EC222C
:0A0D1A00C015858115AF82BF0800E7
:0C0D2400502FE51524FCF8E6084670137B
:080D30008FF005F07401800250
:020D380025E0B4
:090D3A00D5F0FBF4FE52148026F2
:080D43008FF005F0740180023D
:020D4B0025E0A1
:080D4D00D5F0FBFE42148014F6
:0A0D5500EF24F825E0FF24ECF8E598
:0A0D5F001524FCF9E7F60809E7F691
:030D6900D0152280
:050D6C00AF82BF0C0086
:050D71004003020E31F9
:0E0D7600901D12E493FEEF75F003A42E2404EA
:0C0D8400901D0093FE24F9401C743F55A4
:0C0D900055FD7C00C007C006C005C00473
:0D0D9C008F82120D1A15811581D006D00727
:0C0DA900BE0719AC567D00C007C006C094
:0E0DB50004C0058F82120D1A15811581D0061B
:020DC300D00757
:0A0DC500BE081FAD577E00AB568B31
:0E0DCF0004E42DFDEC3EFEC007C005C0068FFB
:0A0DDD0082120D1A15811581D0074E
:0E0DE70074E32F901D0093C4540FFE530607B3
:050DF500BE040280169F
:0A0DFA00E555540124FF921892F011
:0C0E0400C00785F0238F82120E4DD0072E
:030E1000BF04001C
:0C0E1300402DEF24F84028E55554012440
:0A0E1F00FF9218EF24FCF582A218E0
:080E290092F085F023020E4D4A
:070E3100BF0D0E85562CAE2B
:0A0E38002C7F0078F6A60608A60736
:010E4200228D
:0A0E4300AF8274402FF5820218966A
:050E4D00AF82BF0400AC
:030E52004001223A
:0E0E550074E32F901D0093C45407FE24F9404F
:080E630065EE2E2E900E6B735C
:070E6B00020E80020E84025A
:060E72000EC9020EC902C8
:060E78000E88020EAA0222
:020E7E000EAABA
:040E8000C2188045CF
:040E8400D2188041BF
:0A0E8800D218EF243FF87610EF2493
:090E920036F87601EF242DF990E9
:0E0E9B001DE2E493C4540FC40354F8FDF78025
:010EA9001F29
:0E0EAA008F047D0074052CFCE43DFD8CF005EA
:050EB800F0E5148002CA
:020EBD00C3135D
:0A0EBF00D5F0FB5401FC24FF92184B
:080EC900530603BE0302B21838
:0C0ED100AE2974052FFF8FF005F07401AE
:020EDD00800291
:020EDF0025E00C
:0C0EE100D5F0FBF45206A218E433FD8F9C
:060EED00F005F0ED8002AB
:020EF30025E0F8
:070EF500D5F0FB4EF52922A8
:0A0EFC00C0E0C0D0052BC28DC3E595
:080F06002C952B4008740F45E7
:050F0E002AF5808003BC
:030F130075800FD7
:050F1600D0D0D0E03254
:0D0F1B0075D16075D20775D33375D16105AE
:060F280024E4B5240205DB
:010F2E00259D
:0A0F2F00E52424FFFEE52534FFFF52
:0A0F3900EEF4FEEFF4FFEE5524F590
:050F430026EF5525F525
:030F4800277F0000
:030F4B00BF1000D4
:090F4E005035E52630E0227E005A
:030F5700BE0900D0
:0C0F5A00501BEE242DF9E7FD6010EE2482
:0C0F660036F8860453040FECB50703EDC9
:020F720014F772
:030F74000E80E00C
:080F7700E527C313C52613C5CD
:060F7F0026F5270F80C6D5
:020F85007F00EB
:030F8700BF0800A0
:050F8A00400302111DEF
:0A0F8F00EF242DF9E76003021119A9
:0C0F9900EF243FF88606740F5EFD74F034
:070FA5005EFCBC1002803D60
:050FAC00BC2002806082
:060FB100BC300302107ABF
:060FB700BC40030210F92A
:060FBD00BC50030210FF0E
:060FC300BC6003021119DD
:060FC900BC9003021103BD
:060FCF00BCA00302111991
:060FD500BCB0030211197B
:060FDB00BCC00302111965
:050FE100BCF0028031AC
:030FE600021119DC
:030FE900BF040042
:050FEC00400302111991
:0C0FF100AC2974052FF5F005F0740180A8
:010FFD0002F1
:020FFE0025E0EC
:0C100000D5F0FBF4FB5204740F4CF529F2
:05100C0076000211193D
:06101100860474D04CF6C9
:0E1017008D037C0074042FFAC007C002C003D2
:0E102500C0048A82120D1A15811581D0028A2C
:0E10330082121896D007EF24FC25E025E02459
:0C104100E9901D0093FC30E021EF242D0D
:0E104D00FCEF24FC25E025E024E9901D009333
:0C105B00C313FBA804A603EF2436F876AC
:041067000002111959
:0A106B00EF242DF87600EF243FF883
:051075007600021119D4
:0E107A005305017C0074042FFBC007C003C0A7
:0E10880005C0048B82120D1A15811581D0034C
:0C1096008B82121896D007EF242DFDEF7E
:0E10A20024FC25E025E0FC24EA901D0093FBD1
:0C10B000A805A603EF2436FB74E82C9082
:0E10BC001D0093C4035407FC74075CA803F6E0
:0C10CA00A805E6601EEF243FFCEF24FCAC
:0E10D60025E025E024E7901D00935410C4543B
:0910E4000FFB2440A804F6802C47
:0C10ED00A8057600EF243FF87600802074
:0610F90076007700801A6A
:0410FF007660801681
:0E110300EE30E00C74042FF582C0071218962F
:02111100D00705
:06111300EF243FF876A076
:041119000F020F872B
:09111D00E5357007E51370037558
:021126001301B3
:0111280022A4
:021129007F0045
:03112B00BF0400FE
:05112E005020BF080085
:0A11330050188FF005F074018002DF
:02113D0025E0AB
:0E113F00D5F0FBFE74FFC39EFE5284EE528577
:03114D000F80DB35
:021150007F041A
:03115200BF0800D3
:0E115500E433FE601DEE60178FF005F07401AC
:02116300800208
:0211650025E083
:0D116700D5F0FBFE74FFC39E5284EE42855E
:031174000F80DB0E
:0B11770075800F75280F75D181E4F51D
:0A11820024F525C2AF75E40075E7FF
:0E118C001D75E60375E50075E71D75E6047533
:0E119A00E54C75E71D75E60C75E50075E4681B
:0211A8007F00C6
:0311AA00BF0D0076
:0E11AD005015C007E4C0E0C0E08F82120D1A9A
:0911BB0015811581D0070F80E6B3
:0211C4007F00AA
:0311C600BF08005F
:0A11C900501DEF242DF87600EF24EE
:0A11D3003FF87600C2F0C00785F077
:0B11DD00238F82120E4DD0070F80DE22
:0E11E800C28C5389F0438902758C47758A4783
:0E11F600D28C53B8FC43B80C53B7F443B70483
:0E120400D2A9C28DD2AFAF9153077F8F91AFA9
:071212009253077F8F922227
:081C65003F7DBCFA1926325E36
:0E121900C0E0C0D0C2AAC28E740F5589242036
:0E122700F589758B35758D80C28FD28ED2AB56
:06123500757102C203D234
:05123B00017570007553
:091240006F00D202D0D0D0E032E0
:0C124900C023C0E0C0F0C082C083C0071A
:0E125500C006C005C004C003C002C001C00036
:0A126300C0D075D000C015E581F57C
:0A126D00152404F581E571FF24F15A
:0512770050030217AC5A
:07127C00EF2F2F9012837386
:071283000212B00217AC02D9
:06128A00154602160602E3
:06129000160F0216990280
:0612960017AC0217AC02C8
:06129C0017AC0217AC02C2
:0612A20016BB0217230237
:0612A80017AC021747021B
:0212AE00179592
:0E12B000C28E740F55892420F589758B8075C8
:0A12BE008D80C28FD28EE573B574E7
:0412C8000302153FC9
:0812CC00E5742465F98707C2EF
:0C12D400187DFE7E00EFA2E5E433FC2450
:0612E000FF9219BF80001F
:0512E600400302141397
:0C12EB00C005C006EF2323540124FF922D
:0B12F7001A53071F8F82C007C005C0FC
:0C13020023120CDCAA82AB83ACF0FED0FE
:0A130E0023D005D007A81508A60299
:0E13180008A60308A60408A606901D11E4937B
:0E132600FE0EEF2FFD2EFC04901D0093FEB571
:041334000702800626
:06133800D006D005800F75
:0E133E00D006D0058C8275831DE493FCFD7EE5
:01134C0000A0
:09134D00BDFE06BE00030214EE11
:0A135600754EBC901D17E493FC8C4B
:0A1360004F901D18E493FC8C50ED33
:0C136A002DFD2417901D0093FE8E517481
:0A137600182D901D0093FE8E527595
:061380005400301A05754F
:04138600554080034B
:03138A0075558016
:0E138D00901D12E4932F2FFE2F2404901D00BC
:0C139B0093FE24F95006EE24FBFE8002B5
:0213A7007E01C5
:0C13A90074E02EF553EE24FE500F740685
:0A13B5002E244EF9A815088605A79E
:0313BF0005801096
:0C13C200A81508743F56FAE4FBFCFDEA95
:0413CE002555F55557
:0C13D200EE24FD500E74052E244EF9A8E8
:0713DE001508088605A705AC
:0C13E500EE24FC500F74042E244EF9A8D6
:0813F100150808088605A70590
:0C13F900EE24FB501074032E244EF9A8C3
:0914050015080808088606A70670
:05140E00D2180214EEEB
:0A141300754EB0901D17E493FE8E95
:0A141D004F901D18E493FE8E5085D9
:03142700475185A5
:0A142A00485253071FEF24FA500345
:031434000214ECB3
:07143700EF2F2F90143E730C
:07143E000214EC021450023D
:06144500145C02147302A6
:05144B0014840214E40A
:0814500075536074C2254DF5CF
:04145800540214EC3A
:08145C0075536374432549F543
:051464005475554075B0
:061469005600755712D277
:04146F000F0214EC68
:071473007551007552007570
:06147A0053E175540175F9
:0414800055408068EB
:021484007F00E7
:0A148600C3EF954A503CE54B702679
:0A149000740A2F244EF87600AD4CCC
:0E149A007E008F037C00EB2DFDEC3EFEBD605E
:0B14A8001CBE0019740A2F244EF8A689
:0314B30075800F32
:0A14B600740A2F244EF9EF254C9024
:0514C0001D0093FEF782
:0314C5000F80BED7
:0914C8007463254AF55374424592
:0614D10049F5547440458A
:0414D7004AF55585F8
:0314DB004B5685E8
:0314DE004C57D296
:0314E1000F800871
:0714E400755360755481C2CD
:0114EB000EF2
:0214EC00D21814
:0814EE0030190674DF554EF5BC
:0114F6004EA7
:0A14F70030183DC2AAE5717032E51D
:0A150100742465F9E7FF20E5077484
:06150B00204FF77572008D
:0B15110074FC257240051217FE8016C6
:06151C000574537407C2C0
:041522000BC20F12D7
:0C15260017D0C28E758DF0758B00D28E30
:05153200D2AA0217AC73
:0615370005745374070265
:02153D0017ACE9
:07153F00C28ED2AA0217AC14
:0A154600A28BB39218C28B757103DB
:0A155000758D00E570700A757001DA
:05155A00C204C20502FD
:02155F0017ACC7
:0A156100747F2570401C301808B29A
:04156B0003E57025FF
:03156F006FF56FA6
:05157200E5702570F595
:061577007060030217ACD6
:06157D007570810217AC3D
:0A158300C28EC28FA203201801B32C
:0A158D00502CE56D700E74CCB56FA4
:0315970002D20479
:07159A00740CB56F02D205CD
:0715A100200419200516E5E6
:0815A8006D24E94010E56D24FB
:0615B0004EF8E56FF66243
:0515B6006E056D8002CE
:0215BB00C2016B
:0515BD00100B02801D6F
:0715C2003004143001117523
:0715C9007204100F028009FB
:0715D000E5492404F549532D
:0215D700493C8D
:0615D9001217D00217AC4E
:0715DF0030011E20041B2057
:0C15E6000518740F55892410F589758DC7
:0C15F200FA758B70D28E757104D2AA02BB
:0215FE0017AC28
:061600001217D00217AC26
:09160600758D807571020217ACAC
:06160F00200903021693FE
:0C161500E56D24F85078C28E740F5589E2
:0D1621002410F589758DEF758B42D28EC2B5
:07162E0006E55330E71F85BC
:051635005182C05212B9
:0B163A001848AF821581BFFF0280023C
:02164500D206CB
:09164700E551701CE5527018D247
:03165000068014FD
:0C165300901D17E493FFB5510B901D187B
:08165F00E493FFB55202D2062C
:0A16670074FFB56E21740F5553FF98
:0C1671007E0074082FFFE43EFEAC6D7D8F
:0C167D0000EFB5040BEEB50507D21030ED
:041689000602D2077C
:06168D007571050217ACA7
:061693001217D00217AC93
:09169900C28E30101330060AD293
:0516A2000C1217FEC24E
:0416A7000B0217AC6F
:0616AB001217D00217AC7B
:0616B100D20D1217FEC26B
:0416B7000B0217AC5F
:0816BB00E56D244EF9870730AC
:0416C3000C027FCCCA
:0516C700300D027F0C54
:0916CC00C2AA740AB57102800380
:0316D5000217AC4D
:0A16D800E570247F402CE5705F7080
:0916E20008D296C20AB20380028C
:0216EB00D20A21
:0816ED00E5707007757001C281
:0316F50003800669
:0516F800E5702570F50E
:0116FD00707C
:0716FE00E5707003757081B7
:0517050075710B80135B
:09170A00200306D296C20A8002F7
:02171300D20AF8
:06171500056D7570007502
:02171B00710D4E
:06171D00758D120217ACED
:0A172300E56D70077401B570020552
:01172D007249
:0A172E00C296A20A828B5007C20B7C
:051738001217D080062D
:06173D0075710A758D6E46
:04174300C28B806570
:0E174700C296C28E740F55892410F589758DD7
:0A175500FB758B90D28E200C033040
:02175F000D0576
:051761001217D0802BDF
:0C176600740F5553FF7E0074072FFFE442
:0C1772003EFEAC6D7D00C3EF9CEE648079
:0C177E008DF063F08095F05007D2081247
:04178A0017D08003F1
:03178E0075710E64
:04179100C28B801770
:0E179500C28E740F55892420F589758D6E75EE
:0917A3008B80C28FD28E75710A91
:0617AC00D202851581D078
:0C17B20015D0D0D000D001D002D003D060
:0E17BE0004D005D006D007D083D082D0F0D062
:0417CC00E0D0233214
:0A17D000757100C28BC28EC2AB75AA
:0A17DA006E00756D00C28E740F558D
:0C17E400892410F589758D89758BAFC2C2
:0A17F0000CC20DC28FD28ED2AAD215
:0417FA00ABC210224C
:0E17FE00C28E740F55892420F589758D6E7585
:0C180C008B80C28F740F55532407FF75AA
:041818006EFF7E00E1
:0C181C00C3EE9F500BEE244EF9E7FD6276
:041828006E0E80F0D0
:07182C00EF244EF8A66EC286
:0418330004C205D214
:051837000B75710A753C
:0A183C007000756D00C2AAD28ED2B2
:02184600AB22D3
:0A184800C015858115AF827EFF9068
:081852001D16E493FDBDFF002B
:0E185A005035901D16E493602E901D16E493F9
:02186800FD1D64
:0E186A00ED6024ED2DFC2417901D0093FBEF84
:0C187800B5031374182C901D0093FCE5C0
:0A1884001524FDF8E6B504028D06F8
:03188E001D80D9E1
:051891008E82D015223B
:07189600AF82C218BF400041
:0C189D00501B8F82C007C023121BD4E533
:0C18A90082D023D0075444FEBE440280CD
:0118B500042E
:0418B600D218802A9A
:0918BA00AD737E000DBD00010EAE
:0C18C3005305077E00AB747C00EBB505FC
:0718CF0006ECB50602800ED5
:0818D600E5732465F8A607057F
:0518DE0073537307D2F3
:0118E30018EC
:0518E400D28EA21822C3
:0A18E900C015E581F5152404F58112
:0918F300C207AF5474C35FFEA8E4
:0518FC001508A655E5EA
:0919010051FC7049E5527045E506
:07190A007520E003021BCE73
:09191100EE7020A81508B6C01AFA
:0C191A00E57170FCC2AF75E40075E71DBC
:0A19260075E6178556E58557E5754F
:04193000E468D2AFE6
:05193400BE010280036A
:03193900021BCEC0
:09193C00A81508E66003021BCEA9
:09194500758283121896021BCE74
:08194E00E55330E703021B1909
:0C195600901D17E493FBECB50302800326
:03196200021BCE97
:0B196500901D18E493FBB552028003B4
:03197000021BCE89
:08197300757600BE4202801BE4
:06197B00BE4303021AAD99
:06198100BE8003021AD330
:06198700BE8103021AF507
:06198D00BE8303021B0EE5
:03199300021BCE66
:06199600200E03021BCE2F
:0A199C00743C5FF54DA81508E654F1
:0A19A600F0F6A81508B680028003D1
:0319B000021A8C8C
:0B19B300758281121896740F5555FFC5
:0A19BE00E57170FCC2AF75E400AAE9
:0A19C8005674015A241CFCAE57A807
:0519D200150808760075
:0C19D700A8150808C3E69F4003021A8709
:0C19E300EA703CC002E5152403F8A606DB
:0C19EF00087600A815080886037D00E5B6
:0C19FB00152403F8EB26FBED0836FDBBBD
:071A07006005BD0002800430
:041A0E00D00280265C
:0A1A1200D002A8150808740A262463
:061A1C004EF987758016EB
:0B1A22008CE7A8150808E62EF5E6A8E2
:0A1A2D00150808740A26244EF987F4
:011A3700E5C9
:0A1A38008E037D00A8150808E515CF
:0C1A42002403F9E6F7097700E5152403FA
:0E1A4E00F8E62BFB08E63D53033F7D00BB3F4F
:0D1A5C0022BD001F8F037D001BBBFF011D7D
:0C1A6900E5152403F8E6B5030708E6B510
:041A750005028006E0
:061A790075E46875E4004D
:081A7F00A8150808060219D79A
:051A870075E468D2AF18
:091A8C00A81508E66003021BCE58
:041A950085554A85A4
:031A9900564B8524
:061A9C00574C7582811217
:091AA20018967582841218960250
:021AAB001BCE50
:0A1AAD00743C5FF54DA81508B680E3
:041AB7000343A2083B
:091ABB00A81508E66003021BCE29
:0D1AC40075828112189675828212189602A2
:021AD1001BCE2A
:061AD300300E03021BCEE1
:041AD900D20E854F55
:031ADD00478550EA
:051AE00048754900C239
:0C1AE5000F75D16075D20B75D3B375D1AD
:041AF10061021BCEA5
:071AF500E54FB54702800335
:031AFC00021BCEFC
:071AFF00E550B54802800329
:031B0600021BCEF1
:051B0900C20E021BCE1C
:091B0E00758285121896C20E02C0
:021B17001BCEE3
:061B1900EE6003021BCE8A
:0C1B1F00C0528C82121848AF821581BFA2
:051B2B00FF03021BCEC8
:0E1B3000901D11E493FEF58275831DE493254C
:0C1B3E00E02EFD0EA8150874C056FCE453
:041B4A00BC80010456
:011B4E00FC9A
:081B4F00C3EE9D4003021BCE12
:0E1B57008E8275831DE493FBEFB50366EE04EA
:0E1B6500901D0093FBF582C007C006C005C0AE
:0E1B730004C003121BD4AA82D003D004D005F4
:0E1B8100D006D007EC602EC00474145AFCBCD1
:041B8F0014028004B8
:041B9300D004801FDB
:0E1B9700D0048B82C007C006C005C004C00386
:0E1BA500C002120D6CD002D003D004D005D0C7
:031BB30006D00752
:0C1BB600A81508E6700D53020CBA0C0CC8
:071BC2008B82120E43800527
:051BC9000E0E021B4F8F
:061BCE00851581D01522EF
:0E1BD400AF82901D12E493FE0E0E0EEF2E2F28
:081BE2002F901D0093F58222F3
:0E1BEA0075950075911475924CC296758921FF
:0E1BF800758F00C28CC28E758D80758B80C279
:0C1C06008FC20275A88075E80075B80454
:0A1C120075B70CD28A75752EC20456
:051C1C00C205C20CC26C
:041C21000DC207D217
:051C2500097573007554
:061C2A007400754900C2C0
:041C30000FC20E12BF
:031C340017D022A4
:06005200E478FFF6D8FD82
:080030007900E94400601B7A2D
:0500380000901C6D7832
:03003D000075A0AB
:0A00400000E493F2A308B8000205E3
:08004A00A0D9F4DAF275A0FF61
:0E1C370074FE2581F8E68582F0A4C0E0858267
:0E1C4500F018E6A4F582D0E025F0C58386F005
:061C5300A42583F58322A5
:080058007800E84400600A7919
:030060000075A088
:0600630000E4F309D8FCE3
:080069007800E84400600C7906
:0B00710000900000E4F0A3D8FCD9FAD6
:030023007581766E
:0A002600121C59E582600302001E5F
:041C5900758200226E
:00000001FF
