:0400000002002332A5
:03000B00020F0ED3
:0300130002122BAB
:03001B0002125B73
:03007C0002001E61
:05001E0012035280FEF8
:02007F00AF824E
:07008100EF60047E01800224
:020088007E00F8
:06008A00EE60031F80F18F
:01009000224D
:0A009100D218C2917582D2C023126A
:08009B00007FD023D2917FFF0A
:0A00A300A291821892188F061E8E9B
:0900AD0007EF70F2B218A218224C
:0400B600AF827E0196
:0500BA00BE00028039C8
:0600BF00EE5F601E7D00F3
:0300C500BD020079
:0700C8005005C2910D80F606
:0E00CF00D291758217C007C00612007FD006BE
:0400DD00D0078012B6
:0E00E100C291758219C007C00612007FD006BA
:0400EF00D007D291D3
:0500F300EE2EFE80C2AC
:0600F80030020BE50825B3
:0700FE0008901C6F93FF4204
:0101050012E7
:0101060022D6
:06010700AF827E007D00C6
:08010D00C3ED9F40030201ACA9
:060115007C00C2027B0128
:05011B00BB0002804D55
:020120007A0063
:03012200BA02001E
:070125005005C2910A80F6AB
:0E012C00D291758201C007C006C005C004C094
:0E013A000312007FD003D004D005D006D007FA
:06014800309103EB4204BC
:0E014E0075820DC007C006C005C004C00312B4
:0E015C00007FD003D004D005D006D007EB2BD7
:03016A00FB80AE69
:06016D0030020EE508253A
:0601730008901C6F93428E
:05017900127582FF2257
:05017E00EC62067B00AD
:03018300BB0800B6
:0E0186005015EE30E00AEEC313FA748C6AFED8
:020194008004E5
:04019600EEC313FEA3
:03019A000B80E6F1
:03019D00BD090099
:0801A0005006ED2409F8A60445
:0401A8000D02010D36
:0901AC00EE600CE5082508049042
:0601B5001C6F93FF4212D3
:0301BB008E82220F
:0201BE007F00C0
:0301C000BF02007B
:0701C3005005C2910F80F608
:0C01CA00D29175820112007FA291921860
:0901D60075820DC02312007FD0D8
:0401DF0023A218221D
:0E01E300120091500E7582CC1200B675824447
:0501F1001200B6D3224C
:0201F600C32222
:0A01F800C0158581150581058112EF
:0A0202000335E582FF700302032CB0
:0A020C00E5082508FE8EF005F074E9
:0302160003800260
:0202190025E0DE
:08021B00D5F0FBF452127E0045
:03022300BE020018
:05022600400302032C5F
:0E022B00C007C006120091D006D007400302A3
:02023900032898
:0C023B00C2027582CCC007C0061200B6DB
:0C0247007582BE1200B6D006D00730024F
:040253000302032877
:0E025700758209C007120107E582D007700703
:070265007410B510028006C1
:06026C0090E89002032F50
:09027200AD09AC0AE4BF1001045F
:0E027B00FB601B5304F8EDC40354072CFCED8C
:0C028900C40354F8FD5305F07410C39535
:040295000FFA2DFD32
:0E029900C00374805CFF8C038B047B008D021D
:0C02A7007D00EA2BFBED3CFCA81508A62E
:0C02B3000308A604D003EF600BA8150898
:0802BF00C3E496F608E496F68C
:0C02C700C007C003A81508E6C0E008E668
:0E02D300C0E0900006121C49AC82AD8315817C
:0C02E1001581D003D0078D06A815080871
:0E02ED00E618C313C613C6C313C613C608F61D
:0C02FB008C028E05A81508E62AFA08E619
:0E0307003DFD8A048D06EB6008EC24E7FCEE59
:0303150034FFFEB4
:0A031800EF6007C3E49CFCE49EFEC6
:060322008C828E8380072F
:040328000E0202239C
:03032C0090E82C2A
:06032F00851581D01522A6
:0E03350012009150147582331200B6758208C2
:0B034300120107E58270048509822288
:04034E007582002292
:0A0352007F00C218E5A7C007C02312
:08035C00121BFCD023D0077531
:0C036400130175C1FFC2AF75A7E575C29B
:0E037000A575C35AD2AFC2AF43A70475C2A58C
:09037E0075C35AD2AFC2977E008C
:03038700BE320083
:0E038A00501AC28C901D17E493F58C901D182C
:08039800E493F58AC28DD28CBA
:0603A000308DFD0E80E12E
:0803A600C007C02312113BD077
:0A03AE0023D007C219901DFEE4934E
:0A03B800F52CAD2C7E0078F6A605AA
:0303C20008A60684
:0E03C500C2AF75C2A575C35AD2AF748025D1E0
:0B03D300502B75D161200E0DC007C03B
:0503DE0023120F2DD0D9
:0503E30023D007801883
:0A03E800E576249140040576800EAE
:0B03F200758285C007C0231218A8D038
:0303FD0023D00703
:0A040000E524FE5401FD24FF921ACA
:04040A004002C219D1
:0C040E00E57530E04D740F5580FDBD0E0B
:0A041A00157402252C400FA21AE40D
:0A04240033FDBD0107201904052C6B
:02042E00D219E1
:0A043000740F5580FDBD0D0280031E
:03043A0002057D3B
:09043D00E52C24FE400302057DBC
:0A044600A21AE433FDBD0102800399
:0304500002057D25
:0604530030190302057DD3
:05045900152CD2190270
:02045E00057D1A
:0B046000901D0DE493FDBDFF02800322
:03046B0002057D0A
:06046E00300E0302057DC3
:08047400E57530E00302057D8F
:0A047C00740F5580FDB528028015AD
:0C048600740F5580F582C007C006C0232B
:09049200120638D023D006D00771
:0C049B00901DFCE493FD20E70302057DAA
:0A04A7007401B5131DC202C007C0A6
:0704B10006C0231201E3D095
:0904B80023D006D0073002030234
:0204C100057DB7
:0604C30075130202057D25
:0A04C9007402B5131AC007C006C084
:0504D300231201BED060
:0A04D80023D006D007400302057D83
:0604E20075130302057D05
:0704E8007403B51302800349
:0304EF0002057D86
:0C04F200C007C006C0231201F8AC82ADA8
:0C04FE0083D023D006D007C374209C7468
:0E050A006A8DF063F08095F05058901DFDE46E
:0E05180093FBC2D575F00AEB30E704B2D5F4C0
:0105260004D0
:0E052700A430D50AF42401C5F0F43400C5F068
:0E053500AAF02CF582EA3DF583C007C006C08F
:0905430023120C8CAC82AD83D0B4
:0C054C002378F4A60408A60575820CC0F4
:05055800231218A8D0D9
:0C055D0023D006D007901DFBE493FD8D19
:03056900358003D7
:03056C00753501E1
:0C056F00901DFCE493FD74075DF53E75E3
:02057B0013006B
:0C057D007D00EEA2E3E43324FF921A7C20
:010589000071
:03058A00BC0400AE
:0E058D00502D74E32C901D0093235401F4FBB9
:0C059B00A21AE433FA420374042CF5F0B9
:0505A70005F0EB8002ED
:0205AC0025E048
:0E05AE00D5F0FBFB8D02EA42038B050C80CEDC
:0605BC00ED5529F52A208F
:0505C200070330080FE3
:0705C700C208C007C02312A7
:0805CE0018FBD023D007800ABE
:0205D6007E6441
:0805D8008E051D8D06EE70F882
:0805E000D29720972ABFFF000B
:0505E80050030F802A02
:0605ED0020180363758174
:0A05F300D218E57520E01DC2AF75B7
:0C05FD00E40075E71D75E6FE852CE57531
:06060900E468D2AF800896
:06060F00EF60031F8002F2
:02061500C21809
:0A061700E57530E007A21A92970281
:0206210003C50F
:0B062300901DE2E4935401FEB40100BE
:0A062E00E433FE24FF92970203C597
:081C6F0001020408102040806E
:021D0300004C92
:021D0500045682
:011D0C0000D6
:011D0D00FFD6
:021D1700FFFFCC
:06063800AF82AE2B7D0035
:06063E00EEB52B02800363
:030644000DAE2BCD
:0E064700ED243750F2740F5580FEB507537E38
:0106550000A4
:03065600BE0400DF
:0A065900504A8EF005F07401800293
:0206630025E090
:0C066500D5F0FBFD5F601BED5528701602
:0C067100C2F0C007C006C00585F0238E53
:0A067D00821206A8D005D006D007AF
:0C068700ED5F7017ED55286012D2F0C036
:0C06930007C00685F0238E821206A8D056
:03069F0006D0077B
:0306A2000E80B116
:0206A5008F289C
:0106A7002230
:0A06A800C015858115C0820581A8E8
:0A06B2001508087600A81508E625D3
:0C06BC00E025E0FD24E9901D0093FCC245
:0806C80019A8150874E326903F
:0C06D0001D0093FB530307BB01028015C3
:0606DC00BB02030208BC92
:0606E200BB0303020A3B0A
:0606E800BB0403020AFF3F
:0306EE00020C8675
:0C06F100A8150874E326901D0093A2E3F6
:0C06FD00E43324FF921A74E82D901D00D5
:0A070900935401FB24FF921B3018EB
:0707130058301A03301B14DB
:0D071A0074E72D901D009323235403FBA8CA
:0707270015080874035BF6DE
:06072E00201A030207D9A6
:0E07340074E72D901D0093FB740C5B4480FB5A
:0A074200A8150808EB46F6A81508F4
:0B074C00740426FB242DF974E82D90A6
:0C0757001D0093C313FAF7EB2436F8766C
:0907630000EB243FF87690806D54
:06076C00301A03301B13DC
:0C07720074E72D901D0093C4540FFBA8E9
:07077E0015080874035BF687
:0A078500301A3FA81508740426245A
:07078F003FF98703BBA00046
:0E079600401774E72D901D0093540325E025B5
:0B07A400E0FBA8150808EB46F68018E3
:0C07AF00201B1574E72D901D0093C4540E
:0C07BB000FFB530303A8150808EB46F6DB
:0A07C700A81508740426FB242DF881
:0807D1007600EB243FF87600EE
:0907D900A81508740426FB7D003C
:0807E200ED24FD5003020C861A
:0C07EA00A8150808740356FFBF01028028
:0107F6000AF8
:0507F700BF02028009B1
:0507FC00BF032F80087F
:04080100D21980295F
:04080500C21980256F
:0C080900C003ED2D25E0FBA81508EB2630
:0E081500F582C005120CEEAA82AEF0FFD005EF
:0B082300EA5401FA24FFB39219D0033D
:0A082E00A8150808E654036076A23E
:0C08380019E433FE7F00ED2D25E0FAA846
:0C0844001508EA26F582C005C003C002BA
:0C085000C023C006C007120D2C15811536
:0A085C0081D023D002D003D005A8FC
:0A086600150808E630E50CEB243F0E
:09087000F9870774014FF78016A7
:0C087900A81508EA26F582C005C003C0DF
:05088500231218A8D0A9
:05088A0023D003D0059E
:0C088F00ED701BA21992F0C005C003C060
:05089B002385F023A8F5
:0808A00015088682120E5FD0DC
:0508A80023D003D00580
:0C08AD00A8150808E60303543FF60D0DE3
:0308B9000207E251
:0C08BC0074E72D901D0093FF53073020BF
:0508C800180302097194
:0E08CD0074E72D901D0093FE30E215C2F0C0BE
:0A08DB0007C00585F023A815088664
:0808E50082120E5FD005D0075E
:0A08ED00A81508740426FE242DF956
:0D08F70074EA2D901D0093C313FBF7EE244F
:0C09040036F974E72D901D0093FE740777
:0C0910005EF7BF201EC005A81508740487
:0E091C0026F582120CEEAA82AB83FEEAD0050D
:07092A0030E3047F3080027E
:020931007F1035
:0A093300BF1019A81508740426244B
:0C093D003FF974E82D901D009354F0C4A5
:06094900540FFE2428F704
:05094F00BF300280032F
:03095400020C860C
:0A095700A81508740426243FF97463
:0E096100E82D901D0093FE740F5E2420F70217
:02096F000C86F4
:0A097100A81508740426243FF98736
:0C097B00065306F0BE2071BF2019A8151D
:0E098700088682120CEEAF82AE83ADF0FCEF5C
:0709950030E0047F30800216
:02099C007F10CA
:0C099E00BF102A7401C0E0E4C0E0A815FE
:0C09AA00088682120D2C15811581A815FD
:0C09B6000886821218A8D2F085F023A851
:0909C20015088682120E5F805BAD
:0B09CB00E4C0E0C0E0A815088682121E
:0C09D6000D2C15811581A81508868212D1
:0809E20018A8C2F085F023A85B
:0909EA0015088682120E5F8033AD
:0A09F300A81508E625E0FF24ECF942
:0C09FD00EF24ECF8860608860753060875
:0E0A09007F00A70609A70774E72D901D009334
:0C0A1700FF30E70BA81508740826F582D4
:030A23001218A8FE
:0A0A2600A81508740426FF242DF81B
:0B0A30007600EF243FF87600020C86F1
:0B0A3B0030187974E72DFFF5827583F9
:0C0A46001DE4935410C4540FFE7B00C04C
:0C0A520007C005C004C006C003A81508BA
:0C0A5E008682120D2C15811581A8150848
:0B0A6A0086821218A8D2F085F023A8A5
:0C0A750015088682120E5FD004D005D058
:0A0A810007A81508740426FE242DB2
:0B0A8B00F8A604EE2436F974E82D9064
:0C0A96001D0093C313FB74075BF7EE24F4
:0A0AA2003FF98F8275831DE4935421
:0B0AAC0010C4540FFF2430F7020C862A
:0A0AB700A81508740426243FF987EF
:040AC10007BF40002B
:0E0AC500402A74E72D901D00935410C4540F66
:0C0AD300FF7E00C007C006A81508868240
:0C0ADF00120D2C15811581A815088682C7
:060AEB001218A8020C869F
:0A0AF100A81508740426243FF876C7
:040AFB0000020C8663
:0E0AFF0074E72D901D0093C4035407FF5307A6
:060B0D0007BF0002801585
:060B1300BF0203020BB556
:060B1900BF0303020BF80C
:060B1F00BF0403020C5BA1
:030B2500020C8639
:0A0B2800301822A81508740426FFF7
:0C0B3200242DF9901DEAE493C313FEF794
:0A0B3E00EF2436F87600EF243FF8AC
:050B48007650020C864E
:0A0B4D00A81508740426243FF98758
:0B0B570007BF5023A81508E625E02486
:0C0B6200ECF9ECC313FF7E00A70709A705
:0A0B6E0006D2F085F023A8150886D2
:060B780082120E5F8017DF
:0A0B7E00A81508E625E024ECF9ECC8
:0D0B8800C313FF4307807E00A70709A706DF
:0C0B9500A81508740826F5821218A8A8FC
:0A0BA1001508740426FF243FF876BF
:0A0BAB0000EF242DF87600020C86FE
:060BB500201803020C866B
:0A0BBB00A81508E625E024ECF98CEB
:0E0BC500068E077E0074EA2D901D00937A00C4
:0C0BD3002EFEEA3FFFA70609A707A815A1
:0D0BDF0008740826F5821218A8D2F085F0DF
:070BEC0023A8150886821200
:050BF3000E5F020C86FC
:060BF800201803020C8628
:0A0BFE00A81508E625E024ECF98CA8
:0E0C0800068E077E0074EA2D901D00937B007F
:0E0C16002EFEEB3FFFC001C006C00790000A93
:0E0C2400121C49AE82AF83158115818E828F1E
:0E0C320083120C8CAE82AF83D001A70609A7F7
:0C0C400007A81508740826F5821218A8F1
:0A0C4C00D2F085F023A81508868277
:050C5600120E5F802B6F
:0A0C5B00301828A81508E625E0244B
:0A0C6500ECF97F00A70409A707A817
:0C0C6F001508740826F5821218A8D2F0AF
:090C7B0085F023A81508868212F9
:020C84000E5F01
:060C8600851581D0152246
:0A0C8C00AE82E583FF20E71C7D0027
:0E0C9600C374FF9E74878FF063F08095F0505A
:0C0CA40038EFA2E713CE13CEFF0D80E660
:020CB0007C00C6
:0E0CB200C3EF648094785016EFA2E713CE13C0
:0E0CC000CEFF8E028F034303808A068B070C43
:020CCE0080E2C2
:0D0CD0008E028F035303878A068B07800274
:020CDD008D0484
:0E0CDF00ECC40354F8FDE44EF582ED4FF583AE
:010CED0022E4
:050CEE00AF82BF080009
:0A0CF300501E8FF005F0E51480029A
:020CFD00C3131F
:0E0CFF00D5F0FB5401FE7D007C007B008E8250
:060D0D008D838CF0EB2247
:0C0D1300EF24F825E024ECF9870609879E
:0D0D1F00077D007C008E828F838DF0EC221A
:0A0D2C00C015858115AF82BF0800D5
:0C0D3600502FE51524FCF8E60846701369
:080D42008FF005F0740180023E
:020D4A0025E0A2
:090D4C00D5F0FBF4FE52148026E0
:080D55008FF005F0740180022B
:020D5D0025E08F
:080D5F00D5F0FBFE42148014E4
:0A0D6700EF24F825E0FF24ECF8E586
:0A0D71001524FCF9E7F60809E7F67F
:030D7B00D015226E
:050D7E00AF82BF0C0074
:050D83004003020E43D5
:0E0D8800901D12E493FEEF75F003A42E2404D8
:0C0D9600901D0093FE24F9401C743F5592
:0C0DA20055FD7C00C007C006C005C00461
:0D0DAE008F82120D2C15811581D006D00703
:0C0DBB00BE0719AC567D00C007C006C082
:0E0DC70004C0058F82120D2C15811581D006F7
:020DD500D00745
:0A0DD700BE081FAD577E00AB568B1F
:0E0DE10004E42DFDEC3EFEC007C005C0068FE9
:0A0DEF0082120D2C15811581D0072A
:0E0DF90074E32F901D0093C4540FFE530607A1
:050E0700BE040280168C
:0A0E0C00E555540124FF921892F0FE
:0C0E1600C00785F0238F82120E5FD0070A
:030E2200BF04000A
:0C0E2500402DEF24F84028E5555401242E
:0A0E3100FF9218EF24FCF582A218CE
:080E3B0092F085F023020E5F26
:070E4300BF0D0E85562CAE19
:0A0E4A002C7F0078F6A60608A60724
:010E5400227B
:0A0E5500AF8274402FF5820218A846
:050E5F00AF82BF04009A
:030E640040012228
:0E0E670074E32F901D0093C45407FE24F9403D
:080E750065EE2E2E900E7D7338
:070E7D00020E92020E960224
:060E84000EDB020EDB0292
:060E8A000E9A020EBC02EC
:020E90000EBC96
:040E9200C2188045BD
:040E9600D2188041AD
:0A0E9A00D218EF243FF87610EF2481
:090EA40036F87601EF242DF990D7
:0E0EAD001DE2E493C4540FC40354F8FDF78013
:010EBB001F17
:0E0EBC008F047D0074052CFCE43DFD8CF005D8
:050ECA00F0E5148002B8
:020ECF00C3134B
:0A0ED100D5F0FB5401FC24FF921839
:080EDB00530603BE0302B21826
:0C0EE300AE2974052FFF8FF005F074019C
:020EEF0080027F
:020EF10025E0FA
:0C0EF300D5F0FBF45206A218E433FD8F8A
:060EFF00F005F0ED800299
:020F050025E0E5
:070F0700D5F0FB4EF5292295
:0A0F0E00C0E0C0D0052BC28DC3E582
:080F18002C952B4008740F45D5
:050F20002AF5808003AA
:030F250075800FC5
:050F2800D0D0D0E03242
:0D0F2D0075D16075D20775D33375D161059C
:060F3A0024E4B5240205C9
:010F4000258B
:0A0F4100E52424FFFEE52534FFFF40
:0A0F4B00EEF4FEEFF4FFEE5524F57E
:050F550026EF5525F513
:030F5A00277F00EE
:030F5D00BF1000C2
:090F60005035E52630E0227E0048
:030F6900BE0900BE
:0C0F6C00501BEE242DF9E7FD6010EE2470
:0C0F780036F8860453040FECB50703EDB7
:020F840014F760
:030F86000E80E0FA
:080F8900E527C313C52613C5BB
:060F910026F5270F80C6C3
:020F97007F00D9
:030F9900BF08008E
:050F9C00400302112FCB
:0A0FA100EF242DF9E7600302112B85
:0C0FAB00EF243FF88606740F5EFD74F022
:070FB7005EFCBC1002803D4E
:050FBE00BC2002806070
:060FC300BC300302108C9B
:060FC900BC400302110B05
:060FCF00BC5003021111E9
:060FD500BC600302112BB9
:060FDB00BC900302111599
:060FE100BCA00302112B6D
:060FE700BCB00302112B57
:060FED00BCC00302112B41
:050FF300BCF00280319A
:030FF80002112BB8
:030FFB00BF040030
:050FFE00400302112B6D
:0C100300AC2974052FF5F005F074018095
:01100F0002DE
:0210100025E0D9
:0C101200D5F0FBF4FB5204740F4CF529E0
:05101E00760002112B19
:06102300860474D04CF6B7
:0E1029008D037C0074042FFAC007C002C003C0
:0E103700C0048A82120D2C15811581D0028A08
:0E104500821218A8D007EF24FC25E025E02435
:0C105300E9901D0093FC30E021EF242DFB
:0E105F00FCEF24FC25E025E024E9901D009321
:0C106D00C313FBA804A603EF2436F8769A
:041079000002112B35
:0A107D00EF242DF87600EF243FF871
:05108700760002112BB0
:0E108C005305017C0074042FFBC007C003C095
:0E109A0005C0048B82120D2C15811581D00328
:0C10A8008B821218A8D007EF242DFDEF5A
:0E10B40024FC25E025E0FC24EA901D0093FBBF
:0C10C200A805A603EF2436FB74E82C9070
:0E10CE001D0093C4035407FC74075CA803F6CE
:0C10DC00A805E6601EEF243FFCEF24FC9A
:0E10E80025E025E024E7901D00935410C45429
:0910F6000FFB2440A804F6802C35
:0C10FF00A8057600EF243FF87600802062
:06110B0076007700801A57
:04111100766080166E
:0E111500EE30E00C74042FF582C0071218A80B
:02112300D007F3
:06112500EF243FF876A064
:04112B000F020F9907
:09112F00E5357007E51370037546
:021138001301A1
:01113A002292
:02113B007F0033
:03113D00BF0400EC
:051140005020BF080073
:0A11450050188FF005F074018002CD
:02114F0025E099
:0E115100D5F0FBFE74FFC39EFE5284EE528565
:03115F000F80DB23
:021162007F0408
:03116400BF0800C1
:0E116700E433FE601DEE60178FF005F074019A
:021175008002F6
:0211770025E071
:0D117900D5F0FBFE74FFC39E5284EE42854C
:031186000F80DBFC
:0B11890075800F75280F75D181E4F50B
:0A11940024F525C2AF75E40075E7ED
:0E119E001D75E60375E50075E71D75E6047521
:0E11AC00E54C75E71D75E60C75E50075E46809
:0211BA007F00B4
:0311BC00BF0D0064
:0E11BF005015C007E4C0E0C0E08F82120D2C76
:0911CD0015811581D0070F80E6A1
:0211D6007F0098
:0311D800BF08004D
:0A11DB00501DEF242DF87600EF24DC
:0A11E5003FF87600C2F0C00785F065
:0B11EF00238F82120E5FD0070F80DEFE
:0E11FA00C28C5389F0438902758C47758A4771
:0E120800D28C53B8FC43B80C53B7F443B70470
:0E121600D2A9C28DD2AFAF9153077F8F91AF97
:071224009253077F8F922215
:081C77003F7DBCFA1926325E24
:0E122B00C0E0C0D0C2AAC28E740F5589242024
:0E123900F589758B35758D80C28FD28ED2AB44
:06124700757102C203D222
:05124D00017570007541
:091252006F00D202D0D0D0E032CE
:0C125B00C023C0E0C0F0C082C083C00708
:0E126700C006C005C004C003C002C001C00024
:0A127500C0D075D000C015E581F56A
:0A127F00152404F581E571FF24F148
:0512890050030217BE36
:07128E00EF2F2F9012957362
:071295000212C20217BE02A3
:06129C00155802161802AD
:0612A20016210216AB024A
:0612A80017BE0217BE0292
:0612AE0017BE0217BE028C
:0612B40016CD0217350201
:0612BA0017BE02175902E5
:0212C00017A76E
:0E12C200C28E740F55892420F589758B8075B6
:0A12D0008D80C28FD28EE573B574D5
:0412DA0003021551A5
:0812DE00E5742465F98707C2DD
:0C12E600187DFE7E00EFA2E5E433FC243E
:0612F200FF9219BF80000D
:0512F800400302142573
:0C12FD00C005C006EF2323540124FF921B
:0B1309001A53071F8F82C007C005C0E9
:0C13140023120CEEAA82AB83ACF0FED0DA
:0A13200023D005D007A81508A60287
:0E132A0008A60308A60408A606901D11E49369
:0E133800FE0EEF2FFD2EFC04901D0093FEB55F
:041346000702800614
:06134A00D006D005800F63
:0E135000D006D0058C8275831DE493FCFD7ED3
:01135E00008E
:09135F00BDFE06BE0003021500EC
:0A136800754EBC901D17E493FC8C39
:0A1372004F901D18E493FC8C50ED21
:0C137C002DFD2417901D0093FE8E51746F
:0A138800182D901D0093FE8E527583
:061392005400301A05753D
:041398005540800339
:03139C0075558004
:0E139F00901D12E4932F2FFE2F2404901D00AA
:0C13AD0093FE24F95006EE24FBFE8002A3
:0213B9007E01B3
:0C13BB0074E02EF553EE24FE500F740673
:0A13C7002E244EF9A815088605A78C
:0313D10005801084
:0C13D400A81508743F56FAE4FBFCFDEA83
:0413E0002555F55545
:0C13E400EE24FD500E74052E244EF9A8D6
:0713F0001508088605A7059A
:0C13F700EE24FC500F74042E244EF9A8C4
:08140300150808088605A7057D
:0C140B00EE24FB501074032E244EF9A8B0
:0914170015080808088606A7065E
:05142000D218021500C6
:0A142500754EB0901D17E493FE8E83
:0A142F004F901D18E493FE8E5085C7
:0314390047518593
:0A143C00485253071FEF24FA500333
:031446000214FE8F
:07144900EF2F2F90145073E8
:071450000214FE0214620207
:06145700146E0214850270
:05145D0014960214F6D4
:0814620075536074C2254DF5BD
:04146A00540214FE16
:08146E0075536374432549F531
:0514760054755540759E
:06147B005600755712D265
:041481000F0214FE44
:07148500755100755200755E
:06148C0053E175540175E7
:0414920055408068D9
:021496007F00D5
:0A149800C3EF954A503CE54B702667
:0A14A200740A2F244EF87600AD4CBA
:0E14AC007E008F037C00EB2DFDEC3EFEBD604C
:0B14BA001CBE0019740A2F244EF8A677
:0314C50075800F20
:0A14C800740A2F244EF9EF254C9012
:0514D2001D0093FEF770
:0314D7000F80BEC5
:0914DA007463254AF55374424580
:0614E30049F55474404578
:0414E9004AF55585E6
:0314ED004B5685D6
:0314F0004C57D284
:0314F3000F80085F
:0714F600755360755481C2BB
:0114FD000EE0
:0214FE00D21802
:0815000030190674DF554EF5A9
:011508004E94
:0A15090030183DC2AAE5717032E50A
:0A151300742465F9E7FF20E5077472
:06151D00204FF77572007B
:0B15230074FC257240051218108016A1
:06152E000574537407C2AE
:041534000BC20F12C5
:0C15380017E2C28E758DF0758B00D28E0C
:05154400D2AA0217BE4F
:0615490005745374070253
:02154F0017BEC5
:07155100C28ED2AA0217BEF0
:0A155800A28BB39218C28B757103C9
:0A156200758D00E570700A757001C8
:05156C00C204C20502EB
:0215710017BEA3
:0A157300747F2570401C301808B288
:04157D0003E57025ED
:031581006FF56F94
:05158400E5702570F583
:061589007060030217BEB2
:06158F007570810217BE19
:0A159500C28EC28FA203201801B31A
:0A159F00502CE56D700E74CCB56F92
:0315A90002D20467
:0715AC00740CB56F02D205BB
:0715B300200419200516E5D4
:0815BA006D24E94010E56D24E9
:0615C2004EF8E56FF66231
:0515C8006E056D8002BC
:0215CD00C20159
:0515CF00100B02801D5D
:0715D4003004143001117511
:0715DB007204100F028009E9
:0715E200E5492404F549531B
:0215E900493C7B
:0615EB001217E20217BE18
:0715F10030011E20041B2045
:0C15F8000518740F55892410F589758DB5
:0C160400FA758B70D28E757104D2AA02A8
:0216100017BE03
:061612001217E20217BEF0
:09161800758D807571020217BE88
:061621002009030216A5DA
:0C162700E56D24F85078C28E740F5589D0
:0D1633002410F589758DEF758B42D28EC2A3
:0716400006E55330E71F85AA
:051647005182C05212A7
:0B164C00185AAF821581BFFF02800218
:02165700D206B9
:09165900E551701CE5527018D235
:03166200068014EB
:0C166500901D17E493FFB5510B901D1869
:08167100E493FFB55202D2061A
:0A16790074FFB56E21740F5553FF86
:0C1683007E0074082FFFE43EFEAC6D7D7D
:0C168F0000EFB5040BEEB50507D21030DB
:04169B000602D2076A
:06169F007571050217BE83
:0616A5001217E20217BE5D
:0916AB00C28E30101330060AD281
:0516B4000C121810C229
:0416B9000B0217BE4B
:0616BD001217E20217BE45
:0616C300D20D121810C246
:0416C9000B0217BE3B
:0816CD00E56D244EF98707309A
:0416D5000C027FCCB8
:0516D900300D027F0C42
:0916DE00C2AA740AB5710280036E
:0316E7000217BE29
:0A16EA00E570247F402CE5705F706E
:0916F40008D296C20AB20380027A
:0216FD00D20A0F
:0816FF00E5707007757001C26F
:0317070003800656
:05170A00E5702570F5FB
:01170F007069
:07171000E5707003757081A4
:0517170075710B801349
:09171C00200306D296C20A8002E5
:02172500D20AE6
:06172700056D75700075F0
:02172D00710D3C
:06172F00758D120217BEC9
:0A173500E56D70077401B570020540
:01173F007237
:0A174000C296A20A828B5007C20B6A
:05174A001217E2800609
:06174F0075710A758D6E34
:04175500C28B80655E
:0E175900C296C28E740F55892410F589758DC5
:0A176700FB758B90D28E200C03302E
:021771000D0564
:051773001217E2802BBB
:0C177800740F5553FF7E0074072FFFE430
:0C1784003EFEAC6D7D00C3EF9CEE648067
:0C1790008DF063F08095F05007D2081235
:04179C0017E28003CD
:0317A00075710E52
:0417A300C28B80175E
:0E17A700C28E740F55892420F589758D6E75DC
:0917B5008B80C28FD28E75710A7F
:0617BE00D202851581D066
:0C17C40015D0D0D000D001D002D003D04E
:0E17D00004D005D006D007D083D082D0F0D050
:0417DE00E0D0233202
:0A17E200757100C28BC28EC2AB7598
:0A17EC006E00756D00C28E740F557B
:0C17F600892410F589758D89758BAFC2B0
:0A1802000CC20DC28FD28ED2AAD202
:04180C00ABC2102239
:0E181000C28E740F55892420F589758D6E7572
:0C181E008B80C28F740F55532407FF7598
:04182A006EFF7E00CF
:0C182E00C3EE9F500BEE244EF9E7FD6264
:04183A006E0E80F0BE
:07183E00EF244EF8A66EC274
:0418450004C205D202
:051849000B75710A752A
:0A184E007000756D00C2AAD28ED2A0
:02185800AB22C1
:0A185A00C015858115AF827EFF9056
:081864001D16E493FDBDFF0019
:0E186C005035901D16E493602E901D16E493E7
:02187A00FD1D52
:0E187C00ED6024ED2DFC2417901D0093FBEF72
:0C188A00B5031374182C901D0093FCE5AE
:0A1896001524FDF8E6B504028D06E6
:0318A0001D80D9CF
:0518A3008E82D0152229
:0718A800AF82C218BF40002F
:0C18AF00501B8F82C007C023121BE6E50F
:0C18BB0082D023D0075444FEBE440280BB
:0118C700041C
:0418C800D218802A88
:0918CC00AD737E000DBD00010E9C
:0C18D5005305077E00AB747C00EBB505EA
:0718E10006ECB50602800EC3
:0818E800E5732465F8A607056D
:0518F00073537307D2E1
:0118F50018DA
:0518F600D28EA21822B1
:0A18FB00C015E581F5152404F58100
:09190500C207AF5474C35FFEA8D1
:05190E001508A655E5D7
:0919130051FC7049E5527045E5F4
:07191C007520E003021BE04F
:09192300EE7020A81508B6C01AE8
:0C192C00E57170FCC2AF75E40075E71DAA
:0A19380075E6178556E58557E5753D
:04194200E468D2AFD4
:05194600BE0102800358
:03194B00021BE09C
:09194E00A81508E66003021BE085
:091957007582831218A8021BE03E
:08196000E55330E703021B2BE5
:0C196800901D17E493FBECB50302800314
:03197400021BE073
:0B197700901D18E493FBB552028003A2
:03198200021BE065
:08198500757600BE4202801BD2
:06198D00BE4303021ABF75
:06199300BE8003021AE50C
:06199900BE8103021B07E2
:06199F00BE8303021B20C1
:0319A500021BE042
:0619A800200E03021BE00B
:0A19AE00743C5FF54DA81508E654DF
:0A19B800F0F6A81508B680028003BF
:0319C200021A9E68
:0B19C5007582811218A8740F5555FFA1
:0A19D000E57170FCC2AF75E400AAD7
:0A19DA005674015A241CFCAE57A8F5
:0519E400150808760063
:0C19E900A8150808C3E69F4003021A99E5
:0C19F500EA703CC002E5152403F8A606C9
:0C1A0100087600A815080886037D00E5A3
:0C1A0D00152403F8EB26FBED0836FDBBAA
:071A19006005BD000280041E
:041A2000D00280264A
:0A1A2400D002A8150808740A262451
:061A2E004EF987758016D9
:0B1A34008CE7A8150808E62EF5E6A8D0
:0A1A3F00150808740A26244EF987E2
:011A4900E5B7
:0A1A4A008E037D00A8150808E515BD
:0C1A54002403F9E6F7097700E5152403E8
:0E1A6000F8E62BFB08E63D53033F7D00BB3F3D
:0D1A6E0022BD001F8F037D001BBBFF011D6B
:0C1A7B00E5152403F8E6B5030708E6B5FE
:041A870005028006CE
:061A8B0075E46875E4003B
:081A9100A8150808060219E976
:051A990075E468D2AF06
:091A9E00A81508E66003021BE034
:041AA70085554A8592
:031AAB00564B8512
:061AAE00574C7582811205
:091AB40018A87582841218A8021A
:021ABD001BE02C
:0A1ABF00743C5FF54DA81508B680D1
:041AC9000343A20829
:091ACD00A81508E66003021BE005
:0D1AD6007582811218A87582821218A8026C
:021AE3001BE006
:061AE500300E03021BE0BD
:041AEB00D20E854F43
:031AEF00478550D8
:051AF20048754900C227
:0C1AF7000F75D16075D20B75D3B375D19B
:041B030061021BE080
:071B0700E54FB54702800322
:031B0E00021BE0D7
:071B1100E550B54802800316
:031B1800021BE0CD
:051B1B00C20E021BE0F8
:091B20007582851218A8C20E029C
:021B29001BE0BF
:061B2B00EE6003021BE066
:0C1B3100C0528C8212185AAF821581BF7E
:051B3D00FF03021BE0A4
:0E1B4200901D11E493FEF58275831DE493253A
:0C1B5000E02EFD0EA8150874C056FCE441
:041B5C00BC80010444
:011B6000FC88
:081B6100C3EE9D4003021BE0EE
:0E1B69008E8275831DE493FBEFB50366EE04D8
:0E1B7700901D0093FBF582C007C006C005C09C
:0E1B850004C003121BE6AA82D003D004D005D0
:0E1B9300D006D007EC602EC00474145AFCBCBF
:041BA10014028004A6
:041BA500D004801FC9
:0E1BA900D0048B82C007C006C005C004C00374
:0E1BB700C002120D7ED002D003D004D005D0A3
:031BC50006D00740
:0C1BC800A81508E6700D53020CBA0C0CB6
:071BD4008B82120E55800503
:051BDB000E0E021B616B
:061BE000851581D01522DD
:0E1BE600AF82901D12E493FE0E0E0EEF2E2F16
:081BF4002F901D0093F58222E1
:0E1BFC0075950075911475924CC296758921ED
:0E1C0A00758F00C28CC28E758D80758B80C266
:0C1C18008FC20275A88075E80075B80442
:0A1C240075B70CD28A75752EC20444
:051C2E00C205C20CC25A
:041C33000DC207D205
:051C3700097573007542
:061C3C007400754900C2AE
:041C42000FC20E12AD
:031C460017E22280
:06005200E478FFF6D8FD82
:080030007900E94400601B7A2D
:0500380000901C7F7820
:03003D000075A0AB
:0A00400000E493F2A308B8000205E3
:08004A00A0D9F4DAF275A0FF61
:0E1C490074FE2581F8E68582F0A4C0E0858255
:0E1C5700F018E6A4F582D0E025F0C58386F0F3
:061C6500A42583F5832293
:080058007800E84400600A7919
:030060000075A088
:0600630000E4F309D8FCE3
:080069007800E84400600C7906
:0B00710000900000E4F0A3D8FCD9FAD6
:030023007581766E
:0A002600121C6BE582600302001E4D
:041C6B00758200225C
:00000001FF
