:0400000002002332A5
:03000B00020F8E53
:030013000212AB2B
:03001B000212DBF3
:03007C0002001E61
:05001E0012034680FE04
:04007F00AE82AF831B
:0E008300C3E49EE464808FF063F08095F0503B
:06009100071EBEFF011F67
:0200970080EAFD
:010099002244
:0D009A00E582901CEE93F452909010040249
:0200A700007FD8
:0A00A900C01C85811CC082E5812483
:0A00B30008F581D218A81C0808A661
:0A00BD0008A81C080886047D00AAAC
:0A00C700097B00EA2CFEEB3DFFE58B
:0700D1001C2403F8A60AE558
:0A00D8001C2403F8E51C2404F9E6DB
:0C00E200F7097700E51C2404F8E62EFE68
:0A00EE0008E63FFFE51C2406F8A613
:0A00F8000B087600E51C2406F8E66C
:0C0102002EFE08E63FE51C2408F8A606C7
:0A010E00087600AE0C7F00E51C240B
:0D01180008F8E6B5060708E6B50702800303
:0301250002020FC4
:08012800A81C08B60002805279
:08013000A81C08B601028003BF
:0301380002020DB3
:0A013B00A81C0808E675F064A4F59E
:050145001085F011E53A
:0A014A001C2403F8E630E71EE51C54
:0E0154002403F8747F5675F064A4F42401C5EA
:0A016200F0F43400C5F0F50E85F04E
:04016C000F02020F6D
:0B017000E51C2403F8E675F064A4F51C
:05017B000E85F00F02EB
:02018000020F6C
:0C0182008C057C00EA2CFAEB3DFBC0234E
:0C018E00C002C00390000A121CC8858249
:09019A001085831115811581D037
:0A01A30023E51C2403F8E630E731E1
:0C01AD00E51C2403F8747F56FE7F00E57B
:0C01B9001C2406F8E62FFF08E63EFEC0FE
:0C01C50023C007C00690000A121CC88569
:0A01D100820E85830F15811581D081
:0301DB002380314D
:0A01DE00E51C2404F886077E00E506
:0C01E8001C2406F8E62EFE08E63FFFC0CF
:0C01F40023C006C00790000A121CC8853A
:0A020000820E85830F15811581D051
:03020A002380024C
:02020D00C21815
:06020F00A218851C81D03D
:020215001C22A9
:0E021700E582FF901CEE93F45290900140C0DF
:0E0225000712007FD007EF901CEE93FF42906F
:030233007514003F
:0A023600EF559060180514E514243C
:0A0240009B50F3750B00750A007562
:09024A000900750800758201220B
:030253007514001F
:0A025600EF559070180514E514240C
:0A0260009B50F3750B00750A007542
:09026A00090075080075820222EA
:0302730075130000
:0902760074D8251350030203089B
:03027F00751400F3
:0A028200EF5590600C0514E51424FC
:07028C009B50F37582032271
:03029300751400DF
:0A029600EF5590700C0514E51424D8
:0702A0009B50F3758204225C
:0302A700751210BD
:0902AA00AE121EEEF51270F8759B
:0A02B3001210EF55906025E513C40A
:0B02BD0023541F2408F987067407551E
:0C02C80013D39407F4F5F005F0740180E6
:0102D4000227
:0202D50025E022
:0802D700D5F0FBFD4EF7802479
:0A02DF00E513C423541F2408F98717
:0C02E9000674075513D39407F4F5F005D4
:0502F500F0740180021D
:0202FA0025E0FD
:0702FC00D5F0FBF4FD5EF7F5
:05030300051302027663
:030308007513006A
:09030B0074FE2513403175140045
:0A031400EF559060140514E5142461
:0B031E009B50F3E51360047582002281
:0403290075820522B2
:0A032D00EF5590700C0514E5142440
:070337009B50F375820622C2
:04033E00051380C95A
:040342007582072297
:0A0346007F00C218E5A7C007C0231E
:08035000121C7CD023D00775BC
:0C035800150175C1FFC2AF75A7E575C2A5
:0E036400A575C35AD2AFC2AF43A70475C2A598
:0903720075C35AD2AFC2977E0098
:03037B00BE32008F
:0E037E00501AC28C901D17E493F58C901D1838
:08038C00E493F58AC28DD28CC6
:06039400308DFD0E80E13A
:08039A00C007C0231211BBD003
:0A03A20023D007C219901DFEE4935A
:0A03AC00F52CAD2C7E0078F6A605B6
:0303B60008A60690
:0E03B900C2AF75C2A575C35AD2AF748025D1EC
:0A03C700502D051A75D161200E0DAE
:0803D100C007C023120FADD0DC
:0503D90023D00780188D
:0A03DE00E576249140040576800EB8
:0B03E800758285C007C023121928D0C1
:0303F30023D0070D
:0A03F600E524FE5401FD24FF921AD5
:040400004002C219DB
:0C040400E57530E04D740F5580FDBD0E15
:0A041000157402252C400FA21AE417
:0A041A0033FDBD0107201904052C75
:02042400D219EB
:0A042600740F5580FDBD0D02800328
:030430000205FCC6
:09043300E52C24FE40030205FC47
:0A043C00A21AE433FDBD01028003A3
:030446000205FCB0
:060449003019030205FC5E
:05044F00152CD219027A
:0204540005FCA5
:0B045600901D0DE493FDBDFF0280032C
:030461000205FC95
:06046400300E030205FC4E
:08046A00E57530E0030205FC1A
:0A047200740F5580FDB528028015B7
:0C047C00740F5580F582C007C006C02335
:090488001206B8D023D006D007FB
:0C049100901DFCE493FD20E7030205FC35
:07049D007401B51502800394
:0304A4000205FC52
:0904A70074E1251A40030205FC72
:0E04B000901DFCE493FD530520BD01127582E2
:0B04BE0001C007C006C02312009AD046
:0504C90023D006D0075E
:0E04CE00901DFCE493FD530520BD0102800C3F
:0C04DC00901DFCE493FD30E5030205EBED
:0C04E800758201C007C006C02312021775
:0B04F400E582D023D006D00760030291
:0204FF0005EB0B
:0C050100758200C007C006C0231200A9CC
:0B050D00D023D006D00740030205EB0E
:0A051800C37420950E746A850FF07D
:0A05220063F08095F040030205E845
:0A052C00C374FF9510747F8511F071
:0A05360063F08095F040030205E831
:0E054000901DFDE493FDC2D575F00AED30E785
:05054E0004B2D5F40425
:0E055300A430D50AF42401C5F0F43400C5F03C
:0A056100250EF582E50F35F0F58355
:0C056B00C007C006C023120D0CAC82AD0E
:0C05770083D02378F4A60408A605758242
:070583000CC023121928D05F
:0C058A0023D006D007901DFAE493FDC2B8
:0C059600D575F00AED30E704B2D5F4048E
:0E05A200A430D50AF42401C5F0F43400C5F0ED
:0A05B0002510F582E51135F0F58302
:0C05BA00C007C006C023120D0CAC82ADBF
:0C05C60083D02378F4A60408A6057582F3
:0705D2000EC023121928D00E
:0C05D90023D006D007901DFBE493FD8D9D
:0305E5003580035B
:0305E80075350165
:0C05EB00901DFCE493FD74075DF53E7567
:0505F7001A007515005B
:0C05FC007D00EEA2E3E43324FF921A7CA1
:0106080000F1
:03060900BC04002E
:0E060C00502D74E32C901D0093235401F4FB39
:0C061A00A21AE433FA420374042CF5F039
:0506260005F0EB80026D
:02062B0025E0C8
:0E062D00D5F0FBFB8D02EA42038B050C80CE5C
:06063B00ED5529F52A200F
:05064100070330080F63
:07064600C208C007C0231227
:08064D00197BD023D007800ABD
:020655007E64C1
:080657008E051D8D06EE70F802
:08065F00D29720972ABFFF008B
:0506670050030F802A82
:06066C00201803637581F4
:0A067200D218E57520E01DC2AF7537
:0C067C00E40075E71D75E6FE852CE575B1
:06068800E468D2AF800817
:06068E00EF60031F800273
:02069400C2188A
:0A069600E57530E007A21A92970202
:0206A00003B99C
:0C06A200901DE2E493C45401FEB401007A
:0A06AE00E433FE24FF92970203B923
:081CEE000102040810204080EF
:02390300004C76
:02390500045666
:01390C0000BA
:01390D00FFBA
:0606B800AF82AE2B7D00B5
:0606BE00EEB52B028003E3
:0306C4000DAE2B4D
:0E06C700ED243750F2740F5580FEB507537EB8
:0106D5000024
:0306D600BE04005F
:0A06D900504A8EF005F07401800213
:0206E30025E010
:0C06E500D5F0FBFD5F601BED5528701682
:0C06F100C2F0C007C006C00585F0238ED3
:0A06FD0082120728D005D006D007AE
:0C070700ED5F7017ED55286012D2F0C0B5
:0C07130007C00685F0238E82120728D054
:03071F0006D007FA
:030722000E80B195
:020725008F281B
:0107270022AF
:0A072800C01C85811CC0820581A859
:0A0732001C08087600A81C08E62544
:0C073C00E025E0FD24E9901D0093FCC2C4
:0807480019A81C0874E32690B7
:0C0750001D0093FB530307BB0102801542
:06075C00BB020302093C90
:06076200BB0303020ABB09
:06076800BB0403020B7F3D
:03076E00020D0673
:0C077100A81C0874E326901D0093A2E36E
:0C077D00E43324FF921A74E82D901D0054
:0A078900935401FB24FF921B30186B
:0707930058301A03301B145B
:0D079A0074E72D901D009323235403FBA84A
:0707A7001C080874035BF657
:0607AE00201A03020859A5
:0E07B40074E72D901D0093FB740C5B4480FBDA
:0A07C200A81C0808EB46F6A81C0866
:0B07CC00740426FB242DF974E82D9026
:0C07D7001D0093C313FAF7EB2436F876EC
:0907E30000EB243FF87690806DD4
:0607EC00301A03301B135C
:0C07F20074E72D901D0093C4540FFBA869
:0707FE001C080874035BF600
:0A080500301A3FA81C0874042624D2
:07080F003FF98703BBA000C5
:0E081600401774E72D901D0093540325E02534
:0B082400E0FBA81C0808EB46F680185B
:0C082F00201B1574E72D901D0093C4548D
:0C083B000FFB530303A81C0808EB46F653
:0A084700A81C08740426FB242DF8F9
:080851007600EB243FF876006D
:09085900A81C08740426FB7D00B4
:08086200ED24FD5003020D0618
:0C086A00A81C0808740356FFBF010280A0
:010876000A77
:05087700BF0202800930
:05087C00BF032F8008FE
:04088100D2198029DF
:04088500C2198025EF
:0C088900C003ED2D25E0FBA81C08EB26A9
:0E089500F582C005120D6EAA82AEF0FFD005EE
:0B08A300EA5401FA24FFB39219D003BD
:0A08AE00A81C0808E654036076A2B7
:0C08B80019E433FE7F00ED2D25E0FAA8C6
:0C08C4001C08EA26F582C005C003C00233
:0C08D000C023C006C007120DAC15811536
:0A08DC0081D023D002D003D005A87C
:0A08E6001C0808E630E50CEB243F87
:0908F000F9870774014FF7801627
:0C08F900A81C08EA26F582C005C003C058
:0509050023121928D0A7
:05090A0023D003D0051D
:0C090F00ED701BA21992F0C005C003C0DF
:05091B002385F023A874
:080920001C088682120EDFD0D4
:0509280023D003D005FF
:0C092D00A81C0808E60303543FF60D0D5B
:030939000208624F
:0C093C0074E72D901D0093FF530730203E
:0509480018030209F193
:0E094D0074E72D901D0093FE30E215C2F0C03D
:0A095B0007C00585F023A81C0886DC
:0809650082120EDFD005D0075D
:0A096D00A81C08740426FE242DF9CE
:0D09770074EA2D901D0093C313FBF7EE24CE
:0C09840036F974E72D901D0093FE7407F7
:0C0990005EF7BF201EC005A81C08740400
:0E099C0026F582120D6EAA82AB83FEEAD0050C
:0709AA0030E3047F308002FE
:0209B1007F10B5
:0A09B300BF1019A81C0874042624C4
:0C09BD003FF974E82D901D009354F0C425
:0609C900540FFE2428F784
:0509CF00BF30028003AF
:0309D400020D060B
:0A09D700A81C08740426243FF974DC
:0E09E100E82D901D0093FE740F5E2420F70297
:0209EF000D06F3
:0A09F100A81C08740426243FF987AF
:0C09FB00065306F0BE2071BF2019A81C96
:0E0A0700088682120D6EAF82AE83ADF0FCEF5A
:070A150030E0047F30800295
:020A1C007F1049
:0C0A1E00BF102A7401C0E0E4C0E0A81C76
:0C0A2A00088682120DAC15811581A81CF5
:0C0A3600088682121928D2F085F023A84F
:090A42001C088682120EDF805BA5
:0B0A4B00E4C0E0C0E0A81C0886821296
:0C0A56000DAC15811581A81C08868212C9
:080A62001928C2F085F023A859
:090A6A001C088682120EDF8033A5
:0A0A7300A81C08E625E0FF24ECF9BA
:0C0A7D00EF24ECF88606088607530608F4
:0E0A89007F00A70609A70774E72D901D0093B4
:0C0A9700FF30E70BA81C08740826F5824D
:030AA300121928FD
:0A0AA600A81C08740426FF242DF894
:0B0AB0007600EF243FF87600020D06F0
:0B0ABB0030187974E72DFFF582758379
:0C0AC6001DE4935410C4540FFE7B00C0CC
:0C0AD20007C005C004C006C003A81C0833
:0C0ADE008682120DAC15811581A81C0841
:0B0AEA008682121928D2F085F023A8A4
:0C0AF5001C088682120EDFD004D005D051
:0A0B010007A81C08740426FE242D2A
:0B0B0B00F8A604EE2436F974E82D90E3
:0C0B16001D0093C313FB74075BF7EE2473
:0A0B22003FF98F8275831DE49354A0
:0B0B2C0010C4540FFF2430F7020D0628
:0A0B3700A81C08740426243FF98767
:040B410007BF4000AA
:0E0B4500402A74E72D901D00935410C4540FE5
:0C0B5300FF7E00C007C006A81C088682B8
:0C0B5F00120DAC15811581A81C088682BF
:060B6B00121928020D061C
:0A0B7100A81C08740426243FF8763F
:040B7B0000020D0661
:0E0B7F0074E72D901D0093C4035407FF530725
:060B8D0007BF0002801505
:060B9300BF0203020C3555
:060B9900BF0303020C780B
:060B9F00BF0403020CDBA1
:030BA500020D0638
:0A0BA800301822A81C08740426FF70
:0C0BB200242DF9901DEAE493C313FEF714
:0A0BBE00EF2436F87600EF243FF82C
:050BC8007650020D064D
:0A0BCD00A81C08740426243FF987D1
:0B0BD70007BF5023A81C08E625E024FF
:0C0BE200ECF9ECC313FF7E00A70709A785
:0A0BEE0006D2F085F023A81C08864B
:060BF80082120EDF8017DF
:0A0BFE00A81C08E625E024ECF9EC41
:0D0C0800C313FF4307807E00A70709A7065E
:0C0C1500A81C08740826F582121928A8F3
:0A0C21001C08740426FF243FF87637
:0A0C2B0000EF242DF87600020D06FC
:060C3500201803020D0669
:0A0C3B00A81C08E625E024ECF98C63
:0E0C4500068E077E0074EA2D901D00937A0043
:0C0C53002EFEEA3FFFA70609A707A81C19
:0D0C5F0008740826F582121928D2F085F0DD
:070C6C0023A81C0886821278
:050C73000EDF020D067A
:060C7800201803020D0626
:0A0C7E00A81C08E625E024ECF98C20
:0E0C8800068E077E0074EA2D901D00937B00FF
:0E0C96002EFEEB3FFFC001C006C00790000A13
:0E0CA400121CC8AE82AF83158115818E828F1F
:0E0CB20083120D0CAE82AF83D001A70609A7F6
:0C0CC00007A81C08740826F582121928E9
:0A0CCC00D2F085F023A81C088682F0
:050CD600120EDF802B6F
:0A0CDB00301828A81C08E625E024C4
:0A0CE500ECF97F00A70409A707A897
:0C0CEF001C08740826F582121928D2F0A7
:090CFB0085F023A81C0886821272
:020D04000EDF00
:060D0600851C81D01C22B7
:0A0D0C00AE82E583FF20E71C7D00A6
:0E0D1600C374FF9E74878FF063F08095F050D9
:0C0D240038EFA2E713CE13CEFF0D80E6DF
:020D30007C0045
:0E0D3200C3EF648094785016EFA2E713CE133F
:0E0D4000CEFF8E028F034303808A068B070CC2
:020D4E0080E241
:0D0D50008E028F035303878A068B078002F3
:020D5D008D0403
:0E0D5F00ECC40354F8FDE44EF582ED4FF5832D
:010D6D002263
:050D6E00AF82BF080088
:0A0D7300501E8FF005F0E51B800212
:020D7D00C3139E
:0E0D7F00D5F0FB5401FE7D007C007B008E82CF
:060D8D008D838CF0EB22C7
:0C0D9300EF24F825E024ECF9870609871E
:0D0D9F00077D007C008E828F838DF0EC229A
:0A0DAC00C01C85811CAF82BF080047
:0C0DB600502FE51C24FCF8E608467013E2
:080DC2008FF005F074018002BE
:020DCA0025E022
:090DCC00D5F0FBF4FE521B802659
:080DD5008FF005F074018002AB
:020DDD0025E00F
:080DDF00D5F0FBFE421B80145D
:0A0DE700EF24F825E0FF24ECF8E506
:0A0DF1001C24FCF9E7F60809E7F6F8
:030DFB00D01C22E7
:050DFE00AF82BF0C00F4
:050E03004003020EC3D4
:0E0E0800901D12E493FEEF75F003A42E240457
:0C0E1600901D0093FE24F9401C743F5511
:0C0E220055FD7C00C007C006C005C004E0
:0D0E2E008F82120DAC15811581D006D00702
:0C0E3B00BE0719AC567D00C007C006C001
:0E0E470004C0058F82120DAC15811581D006F6
:020E5500D007C4
:0A0E5700BE081FAD577E00AB568B9E
:0E0E610004E42DFDEC3EFEC007C005C0068F68
:0A0E6F0082120DAC15811581D00729
:0E0E790074E32F901D0093C4540FFE53060720
:050E8700BE040280160C
:0A0E8C00E555540124FF921892F07E
:0C0E9600C00785F0238F82120EDFD0070A
:030EA200BF04008A
:0C0EA500402DEF24F84028E555540124AE
:0A0EB100FF9218EF24FCF582A2184E
:080EBB0092F085F023020EDF26
:070EC300BF0D0E85562CAE99
:0A0ECA002C7F0078F6A60608A607A4
:010ED40022FB
:0A0ED500AF8274402FF58202192845
:050EDF00AF82BF04001A
:030EE400400122A8
:0E0EE70074E32F901D0093C45407FE24F940BD
:080EF50065EE2E2E900EFD7338
:070EFD00020F12020F1602A2
:060F04000F5B020F5B020F
:060F0A000F1A020F3C0269
:020F10000F3C94
:040F1200C21880453C
:040F1600D21880412C
:0A0F1A00D218EF243FF87610EF2400
:090F240036F87601EF242DF99056
:0E0F2D001DE2E493C4540FC40354F8FDF78092
:010F3B001F96
:0E0F3C008F047D0074052CFCE43DFD8CF00557
:050F4A00F0E51B800230
:020F4F00C313CA
:0A0F5100D5F0FB5401FC24FF9218B8
:080F5B00530603BE0302B218A5
:0C0F6300AE2974052FFF8FF005F074011B
:020F6F008002FE
:020F710025E079
:0C0F7300D5F0FBF45206A218E433FD8F09
:060F7F00F005F0ED800218
:020F850025E065
:070F8700D5F0FB4EF5292215
:0A0F8E00C0E0C0D0052BC28DC3E502
:080F98002C952B4008740F4555
:050FA0002AF58080032A
:030FA50075800F45
:050FA800D0D0D0E032C2
:0D0FAD0075D16075D20775D33375D161051C
:060FBA0024E4B524020549
:010FC000250B
:0A0FC100E52424FFFEE52534FFFFC0
:0A0FCB00EEF4FEEFF4FFEE5524F5FE
:050FD50026EF5525F593
:030FDA00277F006E
:030FDD00BF100042
:090FE0005035E52630E0227E00C8
:030FE900BE09003E
:0C0FEC00501BEE242DF9E7FD6010EE24F0
:0C0FF80036F8860453040FECB50703ED37
:0210040014F7DF
:031006000E80E079
:08100900E527C313C52613C53A
:0610110026F5270F80C642
:021017007F0058
:03101900BF08000D
:05101C0040030211AFCA
:0A102100EF242DF9E760030211AB84
:0C102B00EF243FF88606740F5EFD74F0A1
:071037005EFCBC1002803DCD
:05103E00BC20028060EF
:06104300BC300302110C99
:06104900BC400302118B04
:06104F00BC5003021191E8
:06105500BC60030211ABB8
:06105B00BC900302119598
:06106100BCA0030211AB6C
:06106700BCB0030211AB56
:06106D00BCC0030211AB40
:05107300BCF002803119
:031078000211ABB7
:03107B00BF0400AF
:05107E0040030211AB6C
:0C108300AC2974052FF5F005F074018015
:01108F00025E
:0210900025E059
:0C109200D5F0FBF4FB5204740F4CF52960
:05109E0076000211AB19
:0610A300860474D04CF637
:0E10A9008D037C0074042FFAC007C002C00340
:0E10B700C0048A82120DAC15811581D0028A08
:0E10C50082121928D007EF24FC25E025E02434
:0C10D300E9901D0093FC30E021EF242D7B
:0E10DF00FCEF24FC25E025E024E9901D0093A1
:0C10ED00C313FBA804A603EF2436F8761A
:0410F900000211AB35
:0A10FD00EF242DF87600EF243FF8F1
:0511070076000211ABAF
:0E110C005305017C0074042FFBC007C003C014
:0E111A0005C0048B82120DAC15811581D00327
:0C1128008B82121928D007EF242DFDEF58
:0E11340024FC25E025E0FC24EA901D0093FB3E
:0C114200A805A603EF2436FB74E82C90EF
:0E114E001D0093C4035407FC74075CA803F64D
:0C115C00A805E6601EEF243FFCEF24FC19
:0E11680025E025E024E7901D00935410C454A8
:091176000FFB2440A804F6802CB4
:0C117F00A8057600EF243FF876008020E1
:06118B0076007700801AD7
:0411910076608016EE
:0E119500EE30E00C74042FF582C0071219280A
:0211A300D00773
:0611A500EF243FF876A0E4
:0411AB000F02101906
:0911AF00E5357007E515700375C4
:0211B80015011F
:0111BA002212
:0211BB007F00B3
:0311BD00BF04006C
:0511C0005020BF0800F3
:0A11C50050188FF005F0740180024D
:0211CF0025E019
:0E11D100D5F0FBFE74FFC39EFE5284EE5285E5
:0311DF000F80DBA3
:0211E2007F0488
:0311E400BF080041
:0E11E700E433FE601DEE60178FF005F074011A
:0211F500800276
:0211F70025E0F1
:0D11F900D5F0FBFE74FFC39E5284EE4285CC
:031206000F80DB7B
:0B12090075800F75280F75D181E4F58A
:0A12140024F525C2AF75E40075E76C
:0E121E001D75E60375E50075E71D75E60475A0
:0E122C00E54C75E71D75E60C75E50075E46888
:02123A007F0033
:03123C00BF0D00E3
:0E123F005015C007E4C0E0C0E08F82120DAC75
:09124D0015811581D0070F80E620
:021256007F0017
:03125800BF0800CC
:0A125B00501DEF242DF87600EF245B
:0A1265003FF87600C2F0C00785F0E4
:0B126F00238F82120EDFD0070F80DEFD
:0E127A00C28C5389F0438902758C47758A47F0
:0E128800D28C53B8FC43B80C53B7F443B704F0
:0E129600D2A9C28DD2AFAF9153077F8F91AF17
:0712A4009253077F8F922295
:081CF6003F7DBCFA1926325EA5
:0E12AB00C0E0C0D0C2AAC28E740F55892420A4
:0E12B900F589758B35758D80C28FD28ED2ABC4
:0612C700757102C203D2A2
:0512CD000175700075C1
:0912D2006F00D202D0D0D0E0324E
:0C12DB00C023C0E0C0F0C082C083C00788
:0E12E700C006C005C004C003C002C001C000A4
:0A12F500C0D075D000C01CE581F5E3
:0A12FF001C2404F581E571FF24F1C1
:05130900500302183E34
:07130E00EF2F2F9013157360
:0713150002134202183E0220
:06131C0015D8021698022C
:0613220016A102172B02C8
:06132800183E02183E020F
:06132E00183E02183E0209
:06133400174D0217B5027F
:06133A00183E0217D90263
:0213400018276C
:0E134200C28E740F55892420F589758B807535
:0A1350008D80C28FD28EE573B57454
:04135A00030215D1A4
:08135E00E5742465F98707C25C
:0C136600187DFE7E00EFA2E5E433FC24BD
:06137200FF9219BF80008C
:0513780040030214A572
:0C137D00C005C006EF2323540124FF929A
:0B1389001A53071F8F82C007C005C069
:0C13940023120D6EAA82AB83ACF0FED0D9
:0A13A00023D005D007A81C08A60200
:0E13AA0008A60308A60408A606901D11E493E9
:0E13B800FE0EEF2FFD2EFC04901D0093FEB5DF
:0413C6000702800694
:0613CA00D006D005800FE3
:0E13D000D006D0058C8275831DE493FCFD7E53
:0113DE00000E
:0913DF00BDFE06BE0003021580EC
:0A13E800754EBC901D17E493FC8CB9
:0A13F2004F901D18E493FC8C50EDA1
:0C13FC002DFD2417901D0093FE8E5174EF
:0A140800182D901D0093FE8E527502
:061412005400301A0575BC
:0414180055408003B8
:03141C0075558083
:0E141F00901D12E4932F2FFE2F2404901D0029
:0C142D0093FE24F95006EE24FBFE800222
:021439007E0132
:0C143B0074E02EF553EE24FE500F7406F2
:0A1447002E244EF9A81C088605A704
:0314510005801003
:0C145400A81C08743F56FAE4FBFCFDEAFB
:041460002555F555C4
:0C146400EE24FD500E74052E244EF9A855
:071470001C08088605A70512
:0C147700EE24FC500F74042E244EF9A843
:081483001C0808088605A705F6
:0C148B00EE24FB501074032E244EF9A830
:091497001C080808088606A706D7
:0514A000D218021580C6
:0A14A500754EB0901D17E493FE8E03
:0A14AF004F901D18E493FE8E508547
:0314B90047518513
:0A14BC00485253071FEF24FA5003B3
:0314C60002157E8E
:0714C900EF2F2F9014D073E8
:0714D00002157E0214E20286
:0614D70014EE02150502EF
:0514DD00151602157652
:0814E20075536074C2254DF53D
:0414EA005402157E15
:0814EE0075536374432549F5B1
:0514F60054755540751E
:0614FB005600755712D2E5
:041501000F02157E42
:0715050075510075520075DD
:06150C0053E17554017566
:041512005540806858
:021516007F0054
:0A151800C3EF954A503CE54B7026E6
:0A152200740A2F244EF87600AD4C39
:0E152C007E008F037C00EB2DFDEC3EFEBD60CB
:0B153A001CBE0019740A2F244EF8A6F6
:0315450075800F9F
:0A154800740A2F244EF9EF254C9091
:051552001D0093FEF7EF
:031557000F80BE44
:09155A007463254AF553744245FF
:0615630049F554744045F7
:041569004AF5558565
:03156D004B568555
:031570004C57D203
:031573000F8008DE
:07157600755360755481C23A
:01157D000E5F
:02157E00D21881
:0815800030190674DF554EF529
:011588004E14
:0A15890030183DC2AAE5717032E58A
:0A159300742465F9E7FF20E50774F2
:06159D00204FF7757200FB
:0B15A30074FC257240051218908016A1
:0615AE000574537407C22E
:0415B4000BC20F1245
:0C15B8001862C28E758DF0758B00D28E0B
:0515C400D2AA02183E4E
:0615C900057453740702D3
:0215CF00183EC4
:0715D100C28ED2AA02183EEF
:0A15D800A28BB39218C28B75710349
:0A15E200758D00E570700A75700148
:0515EC00C204C205026B
:0215F100183EA2
:0A15F300747F2570401C301808B208
:0415FD0003E570256D
:031601006FF56F13
:05160400E5702570F502
:0616090070600302183EB0
:06160F0075708102183E17
:0A161500C28EC28FA203201801B399
:0A161F00502CE56D700E74CCB56F11
:0316290002D204E6
:07162C00740CB56F02D2053A
:07163300200419200516E553
:08163A006D24E94010E56D2468
:061642004EF8E56FF662B0
:051648006E056D80023B
:02164D00C201D8
:05164F00100B02801DDC
:071654003004143001117590
:07165B007204100F02800968
:07166200E5492404F549539A
:02166900493CFA
:06166B0012186202183E95
:0716710030011E20041B20C4
:0C1678000518740F55892410F589758D34
:0C168400FA758B70D28E757104D2AA0228
:02169000183E02
:0616920012186202183E6E
:09169800758D8075710202183E87
:0616A100200903021725D9
:0C16A700E56D24F85078C28E740F558950
:0D16B3002410F589758DEF758B42D28EC223
:0716C00006E55330E71F852A
:0516C7005182C0521227
:0B16CC0018DAAF821581BFFF02800218
:0216D700D20639
:0916D900E551701CE5527018D2B5
:0316E2000680146B
:0C16E500901D17E493FFB5510B901D18E9
:0816F100E493FFB55202D2069A
:0A16F90074FFB56E21740F5553FF06
:0C1703007E0074082FFFE43EFEAC6D7DFC
:0C170F0000EFB5040BEEB50507D210305A
:04171B000602D207E9
:06171F0075710502183E81
:0617250012186202183EDA
:09172B00C28E30101330060AD200
:051734000C121890C228
:041739000B02183E49
:06173D0012186202183EC2
:06174300D20D121890C245
:041749000B02183E39
:08174D00E56D244EF987073019
:041755000C027FCC37
:05175900300D027F0CC1
:09175E00C2AA740AB571028003ED
:0317670002183E27
:0A176A00E570247F402CE5705F70ED
:0917740008D296C20AB2038002F9
:02177D00D20A8E
:08177F00E5707007757001C2EE
:03178700038006D6
:05178A00E5702570F57B
:01178F0070E9
:07179000E570700375708124
:0517970075710B8013C9
:09179C00200306D296C20A800265
:0217A500D20A66
:0617A700056D7570007570
:0217AD00710DBC
:0617AF00758D1202183EC8
:0A17B500E56D70077401B5700205C0
:0117BF0072B7
:0A17C000C296A20A828B5007C20BEA
:0517CA00121862800608
:0617CF0075710A758D6EB4
:0417D500C28B8065DE
:0E17D900C296C28E740F55892410F589758D45
:0A17E700FB758B90D28E200C0330AE
:0217F1000D05E4
:0517F300121862802BBA
:0C17F800740F5553FF7E0074072FFFE4B0
:0C1804003EFEAC6D7D00C3EF9CEE6480E6
:0C1810008DF063F08095F05007D20812B4
:04181C0018628003CB
:0318200075710ED1
:04182300C28B8017DD
:0E182700C28E740F55892420F589758D6E755B
:091835008B80C28FD28E75710AFE
:06183E00D202851C81D0DE
:0C1844001CD0D0D000D001D002D003D0C6
:0E18500004D005D006D007D083D082D0F0D0CF
:04185E00E0D0233281
:0A186200757100C28BC28EC2AB7517
:0A186C006E00756D00C28E740F55FA
:0C187600892410F589758D89758BAFC22F
:0A1882000CC20DC28FD28ED2AAD282
:04188C00ABC21022B9
:0E189000C28E740F55892420F589758D6E75F2
:0C189E008B80C28F740F55532407FF7518
:0418AA006EFF7E004F
:0C18AE00C3EE9F500BEE244EF9E7FD62E4
:0418BA006E0E80F03E
:0718BE00EF244EF8A66EC2F4
:0418C50004C205D282
:0518C9000B75710A75AA
:0A18CE007000756D00C2AAD28ED220
:0218D800AB2241
:0A18DA00C01C85811CAF827EFF90C8
:0818E4001D16E493FDBDFF0099
:0E18EC005035901D16E493602E901D16E49367
:0218FA00FD1DD2
:0E18FC00ED6024ED2DFC2417901D0093FBEFF2
:0C190A00B5031374182C901D0093FCE52D
:0A1916001C24FDF8E6B504028D065E
:031920001D80D94E
:051923008E82D01C22A1
:07192800AF82C218BF4000AE
:0C192F00501B8F82C007C023121C66E50D
:0C193B0082D023D0075444FEBE4402803A
:01194700049B
:04194800D218802A07
:09194C00AD737E000DBD00010E1B
:0C1955005305077E00AB747C00EBB50569
:0719610006ECB50602800E42
:08196800E5732465F8A60705EC
:0519700073537307D260
:011975001859
:05197600D28EA2182230
:0A197B00C01CE581F51C2404F58171
:09198500C207AF5474C35FFEA851
:05198E001C08A655E550
:0919930051FC7049E5527045E574
:07199C007520E003021C604E
:0919A300EE7020A81C08B6C01A61
:0C19AC00E57170FCC2AF75E40075E71D2A
:0A19B80075E6178556E58557E575BD
:0419C200E468D2AF54
:0519C600BE01028003D8
:0319CB00021C609B
:0919CE00A81C08E66003021C607D
:0919D700758283121928021C60BC
:0819E000E55330E703021BABE5
:0C19E800901D17E493FBECB50302800394
:0319F400021C6072
:0B19F700901D18E493FBB55202800322
:031A0200021C6063
:081A0500757600BE4202801B51
:061A0D00BE4303021B3F73
:061A1300BE8003021B650A
:061A1900BE8103021B87E1
:061A1F00BE8303021BA0C0
:031A2500021C6040
:061A2800200E03021C6009
:0A1A2E00743C5FF54DA81C08E65457
:0A1A3800F0F6A81C08B68002800337
:031A4200021B1E66
:0B1A4500758281121928740F5555FF9F
:0A1A5000E57170FCC2AF75E400AA56
:0A1A5A005674015A241CFCAE57A874
:051A64001C08087600DB
:0C1A6900A81C0808C3E69F4003021B19DC
:0C1A7500EA703CC002E51C2403F8A60641
:0C1A8100087600A81C080886037D00E51C
:0C1A8D001C2403F8EB26FBED0836FDBB23
:071A99006005BD000280049E
:041AA000D0028026CA
:0A1AA400D002A81C0808740A2624CA
:061AAE004EF98775801659
:0B1AB4008CE7A81C0808E62EF5E6A849
:0A1ABF001C0808740A26244EF9875B
:011AC900E537
:0A1ACA008E037D00A81C0808E51C2F
:0C1AD4002403F9E6F7097700E51C240361
:0E1AE000F8E62BFB08E63D53033F7D00BB3FBD
:0D1AEE0022BD001F8F037D001BBBFF011DEB
:0C1AFB00E51C2403F8E6B5030708E6B577
:041B0700050280064D
:061B0B0075E46875E400BA
:081B1100A81C080806021A696D
:051B190075E468D2AF85
:091B1E00A81C08E66003021C602B
:041B270085554A8511
:031B2B00564B8591
:061B2E00574C7582811284
:091B340019287582841219280297
:021B3D001C602A
:0A1B3F00743C5FF54DA81C08B68049
:041B49000343A208A8
:091B4D00A81C08E66003021C60FC
:0D1B560075828112192875828212192802E9
:021B63001C6004
:061B6500300E03021C60BB
:041B6B00D20E854FC2
:031B6F0047855057
:051B720048754900C2A6
:0C1B77000F75D16075D20B75D3B375D11A
:041B830061021C607F
:071B8700E54FB547028003A2
:031B8E00021C60D6
:071B9100E550B54802800396
:031B9800021C60CC
:051B9B00C20E021C60F7
:091BA000758285121928C20E029B
:021BA9001C60BE
:061BAB00EE6003021C6065
:0C1BB100C0528C821218DAAF821581BF7E
:051BBD00FF03021C60A3
:0E1BC200901D11E493FEF58275831DE49325BA
:0C1BD000E02EFD0EA81C0874C056FCE4BA
:041BDC00BC800104C4
:011BE000FC08
:081BE100C3EE9D4003021C60ED
:0E1BE9008E8275831DE493FBEFB50366EE0458
:0E1BF700901D0093FBF582C007C006C005C01C
:0E1C050004C003121C66AA82D003D004D005CE
:0E1C1300D006D007EC602EC00474145AFCBC3E
:041C21001402800425
:041C2500D004801F48
:0E1C2900D0048B82C007C006C005C004C003F3
:0E1C3700C002120DFED002D003D004D005D0A2
:031C450006D007BF
:0C1C4800A81C08E6700D53020CBA0C0C2E
:071C54008B82120ED5800502
:051C5B000E0E021BE16A
:061C6000851C81D01C224E
:0E1C6600AF82901D12E493FE0E0E0EEF2E2F95
:081C74002F901D0093F5822260
:0E1C7C0075950075911475924CC2967589216C
:0E1C8A00758F00C28CC28E758D80758B80C2E6
:0C1C98008FC20275A88075E80075B804C2
:0A1CA40075B70CD28A75752EC204C4
:051CAE00C205C20CC2DA
:041CB3000DC207D285
:051CB7000975730075C2
:061CBC007400754900C22E
:041CC2000FC20E023D
:021CC6001862A2
:06005200E478FFF6D8FD82
:080030007900E94400601B7A2D
:0500380000901CFE78A1
:03003D000075A0AB
:0A00400000E493F2A308B8000205E3
:08004A00A0D9F4DAF275A0FF61
:0E1CC80074FE2581F8E68582F0A4C0E08582D6
:0E1CD600F018E6A4F582D0E025F0C58386F074
:061CE400A42583F5832214
:080058007800E84400600A7919
:030060000075A088
:0600630000E4F309D8FCE3
:080069007800E84400600C7906
:0B00710000900000E4F0A3D8FCD9FAD6
:030023007581766E
:0A002600121CEAE582600302001ECE
:041CEA0075820022DD
:00000001FF
